{
  "contractName": "AccessControl",
  "abi": [
    {
      "constant": true,
      "inputs": [],
      "name": "ceoAddress",
      "outputs": [
        {
          "name": "",
          "type": "address"
        }
      ],
      "payable": false,
      "stateMutability": "view",
      "type": "function"
    },
    {
      "constant": true,
      "inputs": [],
      "name": "paused",
      "outputs": [
        {
          "name": "",
          "type": "bool"
        }
      ],
      "payable": false,
      "stateMutability": "view",
      "type": "function"
    },
    {
      "constant": false,
      "inputs": [
        {
          "name": "_newCEO",
          "type": "address"
        }
      ],
      "name": "setCEO",
      "outputs": [],
      "payable": false,
      "stateMutability": "nonpayable",
      "type": "function"
    },
    {
      "constant": false,
      "inputs": [],
      "name": "pause",
      "outputs": [],
      "payable": false,
      "stateMutability": "nonpayable",
      "type": "function"
    },
    {
      "constant": false,
      "inputs": [],
      "name": "unpause",
      "outputs": [],
      "payable": false,
      "stateMutability": "nonpayable",
      "type": "function"
    }
  ],
  "bytecode": "0x608060405234801561001057600080fd5b506103cd806100206000396000f30060806040526004361061006d576000357c0100000000000000000000000000000000000000000000000000000000900463ffffffff1680630a0f81681461007257806327d7874c146100c95780633f4ba83a1461010c5780635c975abb146101235780638456cb5914610152575b600080fd5b34801561007e57600080fd5b50610087610169565b604051808273ffffffffffffffffffffffffffffffffffffffff1673ffffffffffffffffffffffffffffffffffffffff16815260200191505060405180910390f35b3480156100d557600080fd5b5061010a600480360381019080803573ffffffffffffffffffffffffffffffffffffffff16906020019092919050505061018e565b005b34801561011857600080fd5b50610121610268565b005b34801561012f57600080fd5b506101386102fa565b604051808215151515815260200191505060405180910390f35b34801561015e57600080fd5b5061016761030d565b005b6000809054906101000a900473ffffffffffffffffffffffffffffffffffffffff1681565b6000809054906101000a900473ffffffffffffffffffffffffffffffffffffffff1673ffffffffffffffffffffffffffffffffffffffff163373ffffffffffffffffffffffffffffffffffffffff161415156101e957600080fd5b600073ffffffffffffffffffffffffffffffffffffffff168173ffffffffffffffffffffffffffffffffffffffff161415151561022557600080fd5b806000806101000a81548173ffffffffffffffffffffffffffffffffffffffff021916908373ffffffffffffffffffffffffffffffffffffffff16021790555050565b6000809054906101000a900473ffffffffffffffffffffffffffffffffffffffff1673ffffffffffffffffffffffffffffffffffffffff163373ffffffffffffffffffffffffffffffffffffffff161415156102c357600080fd5b600060149054906101000a900460ff1615156102de57600080fd5b60008060146101000a81548160ff021916908315150217905550565b600060149054906101000a900460ff1681565b6000809054906101000a900473ffffffffffffffffffffffffffffffffffffffff1673ffffffffffffffffffffffffffffffffffffffff163373ffffffffffffffffffffffffffffffffffffffff1614151561036857600080fd5b600060149054906101000a900460ff1615151561038457600080fd5b6001600060146101000a81548160ff0219169083151502179055505600a165627a7a723058203f777c20118606ae7c568c3ef38ee425fac7bed97a6c1c6c66b43ab00fb92b0b0029",
  "source": "pragma solidity^0.4.21;\n\n// @dev 权限控制合约\n// @function setCEO  重新设置ceo地址\n// @function pause   暂停合约流通（买卖/租赁）\n// @function unpause 开放合约流通\ncontract AccessControl{\n    address public ceoAddress;     // make sure this is a mainnet account\n    bool public paused;\n    modifier onlyCEO() {\n        require(msg.sender == ceoAddress);\n        _;\n    }\n    function setCEO(address _newCEO) external onlyCEO {\n        require(_newCEO != address(0));\n        ceoAddress = _newCEO;\n    }\n    modifier whenNotPaused() {\n        require(!paused);\n        _;\n    }\n    modifier whenPaused {\n        require(paused);\n        _;\n    }\n    function pause() public onlyCEO whenNotPaused {\n        paused = true;\n    }\n    function unpause() public onlyCEO whenPaused {\n        paused = false;\n    }\n}\n",
  "sourcePath": "F:\\ChainBook\\smartcontracts\\contracts\\AccessControl.sol",
  "compiler": {
    "name": "solc",
    "version": "0.4.24+commit.e67f0147.Emscripten.clang"
  },
  "schemaVersion": "2.0.0",
  "updatedAt": "2018-06-11T06:03:57.596Z"
}