{
  "contractName": "BookOwnerShip",
  "abi": [
    {
      "constant": true,
      "inputs": [
        {
          "name": "_interfaceID",
          "type": "bytes4"
        }
      ],
      "name": "supportsInterface",
      "outputs": [
        {
          "name": "",
          "type": "bool"
        }
      ],
      "payable": false,
      "stateMutability": "view",
      "type": "function"
    },
    {
      "constant": true,
      "inputs": [
        {
          "name": "",
          "type": "uint256"
        }
      ],
      "name": "bookIndexToOwner",
      "outputs": [
        {
          "name": "",
          "type": "address"
        }
      ],
      "payable": false,
      "stateMutability": "view",
      "type": "function"
    },
    {
      "constant": false,
      "inputs": [
        {
          "name": "_to",
          "type": "address"
        },
        {
          "name": "_tokenId",
          "type": "uint256"
        }
      ],
      "name": "approve",
      "outputs": [],
      "payable": true,
      "stateMutability": "payable",
      "type": "function"
    },
    {
      "constant": true,
      "inputs": [],
      "name": "ceoAddress",
      "outputs": [
        {
          "name": "",
          "type": "address"
        }
      ],
      "payable": false,
      "stateMutability": "view",
      "type": "function"
    },
    {
      "constant": true,
      "inputs": [
        {
          "name": "_tokenId",
          "type": "uint256"
        }
      ],
      "name": "isRent",
      "outputs": [
        {
          "name": "",
          "type": "bool"
        }
      ],
      "payable": false,
      "stateMutability": "view",
      "type": "function"
    },
    {
      "constant": true,
      "inputs": [
        {
          "name": "_tokenId",
          "type": "uint256"
        }
      ],
      "name": "isSell",
      "outputs": [
        {
          "name": "",
          "type": "bool"
        }
      ],
      "payable": false,
      "stateMutability": "view",
      "type": "function"
    },
    {
      "constant": false,
      "inputs": [
        {
          "name": "_from",
          "type": "address"
        },
        {
          "name": "_to",
          "type": "address"
        },
        {
          "name": "_tokenId",
          "type": "uint256"
        }
      ],
      "name": "transferFrom",
      "outputs": [],
      "payable": true,
      "stateMutability": "payable",
      "type": "function"
    },
    {
      "constant": false,
      "inputs": [
        {
          "name": "_newCEO",
          "type": "address"
        }
      ],
      "name": "setCEO",
      "outputs": [],
      "payable": false,
      "stateMutability": "nonpayable",
      "type": "function"
    },
    {
      "constant": true,
      "inputs": [
        {
          "name": "",
          "type": "uint256"
        }
      ],
      "name": "rentAllowedToAddress",
      "outputs": [
        {
          "name": "",
          "type": "address"
        }
      ],
      "payable": false,
      "stateMutability": "view",
      "type": "function"
    },
    {
      "constant": false,
      "inputs": [
        {
          "name": "_tokenId",
          "type": "uint256"
        }
      ],
      "name": "sellCancel",
      "outputs": [],
      "payable": false,
      "stateMutability": "nonpayable",
      "type": "function"
    },
    {
      "constant": false,
      "inputs": [],
      "name": "unpause",
      "outputs": [],
      "payable": false,
      "stateMutability": "nonpayable",
      "type": "function"
    },
    {
      "constant": true,
      "inputs": [],
      "name": "_remain",
      "outputs": [
        {
          "name": "",
          "type": "uint256"
        }
      ],
      "payable": false,
      "stateMutability": "view",
      "type": "function"
    },
    {
      "constant": true,
      "inputs": [
        {
          "name": "",
          "type": "uint256"
        }
      ],
      "name": "bookIndexToSell",
      "outputs": [
        {
          "name": "",
          "type": "bool"
        }
      ],
      "payable": false,
      "stateMutability": "view",
      "type": "function"
    },
    {
      "constant": true,
      "inputs": [],
      "name": "paused",
      "outputs": [
        {
          "name": "",
          "type": "bool"
        }
      ],
      "payable": false,
      "stateMutability": "view",
      "type": "function"
    },
    {
      "constant": false,
      "inputs": [
        {
          "name": "_tokenId",
          "type": "uint256"
        },
        {
          "name": "_leaser",
          "type": "address"
        }
      ],
      "name": "rentTo",
      "outputs": [],
      "payable": false,
      "stateMutability": "nonpayable",
      "type": "function"
    },
    {
      "constant": false,
      "inputs": [
        {
          "name": "_tokenId",
          "type": "uint256"
        }
      ],
      "name": "creatRent",
      "outputs": [],
      "payable": false,
      "stateMutability": "nonpayable",
      "type": "function"
    },
    {
      "constant": true,
      "inputs": [
        {
          "name": "_owner",
          "type": "address"
        }
      ],
      "name": "balanceOf",
      "outputs": [
        {
          "name": "",
          "type": "uint256"
        }
      ],
      "payable": false,
      "stateMutability": "view",
      "type": "function"
    },
    {
      "constant": true,
      "inputs": [
        {
          "name": "_tokenId",
          "type": "uint256"
        }
      ],
      "name": "tokenIdToRenter",
      "outputs": [
        {
          "name": "",
          "type": "address"
        }
      ],
      "payable": false,
      "stateMutability": "view",
      "type": "function"
    },
    {
      "constant": false,
      "inputs": [],
      "name": "pause",
      "outputs": [],
      "payable": false,
      "stateMutability": "nonpayable",
      "type": "function"
    },
    {
      "constant": true,
      "inputs": [],
      "name": "publishedAmount",
      "outputs": [
        {
          "name": "",
          "type": "uint256"
        }
      ],
      "payable": false,
      "stateMutability": "view",
      "type": "function"
    },
    {
      "constant": false,
      "inputs": [
        {
          "name": "_to",
          "type": "address"
        },
        {
          "name": "_tokenId",
          "type": "uint256"
        }
      ],
      "name": "transfer",
      "outputs": [],
      "payable": false,
      "stateMutability": "nonpayable",
      "type": "function"
    },
    {
      "constant": true,
      "inputs": [
        {
          "name": "",
          "type": "uint256"
        }
      ],
      "name": "bookIndexToApproved",
      "outputs": [
        {
          "name": "",
          "type": "address"
        }
      ],
      "payable": false,
      "stateMutability": "view",
      "type": "function"
    },
    {
      "constant": true,
      "inputs": [
        {
          "name": "",
          "type": "uint256"
        }
      ],
      "name": "bookIndexToRent",
      "outputs": [
        {
          "name": "",
          "type": "bool"
        }
      ],
      "payable": false,
      "stateMutability": "view",
      "type": "function"
    },
    {
      "constant": false,
      "inputs": [
        {
          "name": "_tokenId",
          "type": "uint256"
        }
      ],
      "name": "sellFinish",
      "outputs": [],
      "payable": false,
      "stateMutability": "nonpayable",
      "type": "function"
    },
    {
      "constant": true,
      "inputs": [
        {
          "name": "",
          "type": "address"
        }
      ],
      "name": "ownershipTokenCount",
      "outputs": [
        {
          "name": "",
          "type": "uint256"
        }
      ],
      "payable": false,
      "stateMutability": "view",
      "type": "function"
    },
    {
      "constant": false,
      "inputs": [
        {
          "name": "_tokenId",
          "type": "uint256"
        }
      ],
      "name": "creatSell",
      "outputs": [],
      "payable": false,
      "stateMutability": "nonpayable",
      "type": "function"
    },
    {
      "constant": false,
      "inputs": [
        {
          "name": "_tokenId",
          "type": "uint256"
        }
      ],
      "name": "rentCancel",
      "outputs": [],
      "payable": false,
      "stateMutability": "nonpayable",
      "type": "function"
    },
    {
      "constant": false,
      "inputs": [
        {
          "name": "_tokenId",
          "type": "uint256"
        }
      ],
      "name": "rentFinish",
      "outputs": [],
      "payable": false,
      "stateMutability": "nonpayable",
      "type": "function"
    },
    {
      "inputs": [
        {
          "name": "_price",
          "type": "uint256"
        },
        {
          "name": "_totalAmount",
          "type": "uint256"
        },
        {
          "name": "_limitAmount",
          "type": "uint256"
        }
      ],
      "payable": false,
      "stateMutability": "nonpayable",
      "type": "constructor"
    },
    {
      "anonymous": false,
      "inputs": [
        {
          "indexed": true,
          "name": "_from",
          "type": "address"
        },
        {
          "indexed": true,
          "name": "_to",
          "type": "address"
        },
        {
          "indexed": true,
          "name": "_tokenId",
          "type": "uint256"
        }
      ],
      "name": "Transfer",
      "type": "event"
    },
    {
      "anonymous": false,
      "inputs": [
        {
          "indexed": true,
          "name": "_owner",
          "type": "address"
        },
        {
          "indexed": true,
          "name": "_approved",
          "type": "address"
        },
        {
          "indexed": true,
          "name": "_tokenId",
          "type": "uint256"
        }
      ],
      "name": "Approval",
      "type": "event"
    },
    {
      "anonymous": false,
      "inputs": [
        {
          "indexed": false,
          "name": "_tokenId",
          "type": "uint256"
        },
        {
          "indexed": false,
          "name": "_owner",
          "type": "address"
        }
      ],
      "name": "CreatBook",
      "type": "event"
    },
    {
      "constant": true,
      "inputs": [],
      "name": "getCopyrightInfo",
      "outputs": [
        {
          "name": "",
          "type": "string"
        },
        {
          "name": "",
          "type": "string"
        },
        {
          "name": "",
          "type": "uint256"
        },
        {
          "name": "",
          "type": "string"
        },
        {
          "name": "",
          "type": "address"
        },
        {
          "name": "",
          "type": "uint256"
        }
      ],
      "payable": false,
      "stateMutability": "view",
      "type": "function"
    },
    {
      "constant": true,
      "inputs": [
        {
          "name": "_tokenId",
          "type": "uint256"
        }
      ],
      "name": "getBookInfo",
      "outputs": [
        {
          "name": "",
          "type": "uint256"
        },
        {
          "name": "",
          "type": "uint256"
        },
        {
          "name": "",
          "type": "uint256"
        },
        {
          "name": "",
          "type": "address"
        },
        {
          "name": "",
          "type": "bool"
        },
        {
          "name": "",
          "type": "bool"
        }
      ],
      "payable": false,
      "stateMutability": "view",
      "type": "function"
    },
    {
      "constant": true,
      "inputs": [
        {
          "name": "_owner",
          "type": "address"
        },
        {
          "name": "_tokenId",
          "type": "uint256"
        }
      ],
      "name": "allowToRead",
      "outputs": [
        {
          "name": "",
          "type": "bool"
        }
      ],
      "payable": false,
      "stateMutability": "view",
      "type": "function"
    },
    {
      "constant": true,
      "inputs": [
        {
          "name": "_tokenId",
          "type": "uint256"
        }
      ],
      "name": "ownerOf",
      "outputs": [
        {
          "name": "",
          "type": "address"
        }
      ],
      "payable": false,
      "stateMutability": "view",
      "type": "function"
    },
    {
      "constant": true,
      "inputs": [
        {
          "name": "_tokenId",
          "type": "uint256"
        }
      ],
      "name": "getApproved",
      "outputs": [
        {
          "name": "",
          "type": "address"
        }
      ],
      "payable": false,
      "stateMutability": "view",
      "type": "function"
    },
    {
      "constant": true,
      "inputs": [
        {
          "name": "_owner",
          "type": "address"
        }
      ],
      "name": "tokenofOwner",
      "outputs": [
        {
          "name": "ownerTokens",
          "type": "uint256[]"
        }
      ],
      "payable": false,
      "stateMutability": "view",
      "type": "function"
    },
    {
      "constant": false,
      "inputs": [
        {
          "name": "_buyer",
          "type": "address"
        }
      ],
      "name": "buyFromAuthor",
      "outputs": [],
      "payable": true,
      "stateMutability": "payable",
      "type": "function"
    }
  ],
  "bytecode": "0x608060405260008060006101000a81548173ffffffffffffffffffffffffffffffffffffffff021916908373ffffffffffffffffffffffffffffffffffffffff1602179055506040805190810160405280600381526020017f5757420000000000000000000000000000000000000000000000000000000000815250600290805190602001906200009292919062000659565b506040805190810160405280600381526020017f777762000000000000000000000000000000000000000000000000000000000081525060039080519060200190620000e092919062000659565b506103e8600460006101000a81548163ffffffff021916908363ffffffff160217905550600a6006553480156200011657600080fd5b5060405160608062002ec583398101806040528101908080519060200190929190805190602001909291908051906020019092919050505033600960006101000a81548173ffffffffffffffffffffffffffffffffffffffff021916908373ffffffffffffffffffffffffffffffffffffffff160217905550826005819055508163ffffffff1682141515620001ab57600080fd5b8063ffffffff1681141515620001c057600080fd5b826fffffffffffffffffffffffffffffffff1683141515620001e157600080fd5b81600460006101000a81548163ffffffff021916908363ffffffff1602179055508063ffffffff166006819055506200024b600960009054906101000a900473ffffffffffffffffffffffffffffffffffffffff1662000255640100000000026401000000009004565b5050505062000750565b600062000261620006e0565b6000806200027d6200042f640100000000026401000000009004565b1115156200028a57600080fd5b606060405190810160405280600067ffffffffffffffff168152602001600067ffffffffffffffff168152602001426fffffffffffffffffffffffffffffffff1681525091506001808390806001815401808255809150509060018203906000526020600020016000909192909190915060008201518160000160006101000a81548167ffffffffffffffff021916908367ffffffffffffffff16021790555060208201518160000160086101000a81548167ffffffffffffffff021916908367ffffffffffffffff16021790555060408201518160000160106101000a8154816fffffffffffffffffffffffffffffffff02191690836fffffffffffffffffffffffffffffffff1602179055505050039050620003ba6000858362000456640100000000026401000000009004565b7f2416e874741589429bc41abb136b7621382afa31b8b896a5a49bc815a00fac0d8185604051808381526020018273ffffffffffffffffffffffffffffffffffffffff1673ffffffffffffffffffffffffffffffffffffffff1681526020019250505060405180910390a18092505050919050565b6000600180549050600460009054906101000a900463ffffffff1663ffffffff1603905090565b600c60008373ffffffffffffffffffffffffffffffffffffffff1673ffffffffffffffffffffffffffffffffffffffff1681526020019081526020016000206000815480929190600101919050555081600b600083815260200190815260200160002060006101000a81548173ffffffffffffffffffffffffffffffffffffffff021916908373ffffffffffffffffffffffffffffffffffffffff160217905550600073ffffffffffffffffffffffffffffffffffffffff168373ffffffffffffffffffffffffffffffffffffffff16141515620005b557600c60008473ffffffffffffffffffffffffffffffffffffffff1673ffffffffffffffffffffffffffffffffffffffff1681526020019081526020016000206000815480929190600190039190505550600d600082815260200190815260200160002060006101000a81549073ffffffffffffffffffffffffffffffffffffffff02191690555b7fddf252ad1be2c89b69c2b068fc378daa952ba7f163c4a11628f55a4df523b3ef838383604051808473ffffffffffffffffffffffffffffffffffffffff1673ffffffffffffffffffffffffffffffffffffffff1681526020018373ffffffffffffffffffffffffffffffffffffffff1673ffffffffffffffffffffffffffffffffffffffff168152602001828152602001935050505060405180910390a1505050565b828054600181600116156101000203166002900490600052602060002090601f016020900481019282601f106200069c57805160ff1916838001178555620006cd565b82800160010185558215620006cd579182015b82811115620006cc578251825591602001919060010190620006af565b5b509050620006dc919062000728565b5090565b606060405190810160405280600067ffffffffffffffff168152602001600067ffffffffffffffff16815260200160006fffffffffffffffffffffffffffffffff1681525090565b6200074d91905b80821115620007495760008160009055506001016200072f565b5090565b90565b61276580620007606000396000f3006080604052600436106101b7576000357c0100000000000000000000000000000000000000000000000000000000900463ffffffff16806301ffc9a7146101bc57806306787a0a14610220578063081812fc1461028d578063095ea7b3146102fa5780630a0f81681461033a57806312b9cb47146103915780631b01e72c146103d657806323b872dd1461041b57806327d7874c1461047b57806336df851f146104be5780633cb268171461052b5780633f4ba83a14610558578063431241381461056f5780634f3f8b7b1461059a57806357a26847146105df5780635c975abb14610677578063616735a5146106a657806362d12877146106f35780636352211e1461072057806370a082311461078d578063766dab21146107e4578063786b5a0d146108495780637cec6ca8146108b65780638456cb59146108ec57806385cfdf3a1461090357806389ab6b3b1461092e578063a9059cbb14610ad7578063ad87cbb414610b24578063b4e318a514610b91578063b97a15a314610bd6578063cec21acb14610c03578063dadec2c414610c5a578063f3f8468e14610c87578063f662045b14610d1f578063f8c399aa14610d4c575b600080fd5b3480156101c857600080fd5b5061020660048036038101908080357bffffffffffffffffffffffffffffffffffffffffffffffffffffffff19169060200190929190505050610d79565b604051808215151515815260200191505060405180910390f35b34801561022c57600080fd5b5061024b600480360381019080803590602001909291905050506110fc565b604051808273ffffffffffffffffffffffffffffffffffffffff1673ffffffffffffffffffffffffffffffffffffffff16815260200191505060405180910390f35b34801561029957600080fd5b506102b86004803603810190808035906020019092919050505061112f565b604051808273ffffffffffffffffffffffffffffffffffffffff1673ffffffffffffffffffffffffffffffffffffffff16815260200191505060405180910390f35b610338600480360381019080803573ffffffffffffffffffffffffffffffffffffffff1690602001909291908035906020019092919050505061116c565b005b34801561034657600080fd5b5061034f611206565b604051808273ffffffffffffffffffffffffffffffffffffffff1673ffffffffffffffffffffffffffffffffffffffff16815260200191505060405180910390f35b34801561039d57600080fd5b506103bc6004803603810190808035906020019092919050505061122b565b604051808215151515815260200191505060405180910390f35b3480156103e257600080fd5b5061040160048036038101908080359060200190929190505050611255565b604051808215151515815260200191505060405180910390f35b610479600480360381019080803573ffffffffffffffffffffffffffffffffffffffff169060200190929190803573ffffffffffffffffffffffffffffffffffffffff1690602001909291908035906020019092919050505061127f565b005b34801561048757600080fd5b506104bc600480360381019080803573ffffffffffffffffffffffffffffffffffffffff16906020019092919050505061134c565b005b3480156104ca57600080fd5b506104e960048036038101908080359060200190929190505050611426565b604051808273ffffffffffffffffffffffffffffffffffffffff1673ffffffffffffffffffffffffffffffffffffffff16815260200191505060405180910390f35b34801561053757600080fd5b5061055660048036038101908080359060200190929190505050611459565b005b34801561056457600080fd5b5061056d61147f565b005b34801561057b57600080fd5b50610584611511565b6040518082815260200191505060405180910390f35b3480156105a657600080fd5b506105c560048036038101908080359060200190929190505050611538565b604051808215151515815260200191505060405180910390f35b3480156105eb57600080fd5b5061060a60048036038101908080359060200190929190505050611558565b604051808781526020018681526020018581526020018473ffffffffffffffffffffffffffffffffffffffff1673ffffffffffffffffffffffffffffffffffffffff1681526020018315151515815260200182151515158152602001965050505050505060405180910390f35b34801561068357600080fd5b5061068c6116b6565b604051808215151515815260200191505060405180910390f35b3480156106b257600080fd5b506106f160048036038101908080359060200190929190803573ffffffffffffffffffffffffffffffffffffffff1690602001909291905050506116c9565b005b3480156106ff57600080fd5b5061071e60048036038101908080359060200190929190505050611734565b005b34801561072c57600080fd5b5061074b60048036038101908080359060200190929190505050611763565b604051808273ffffffffffffffffffffffffffffffffffffffff1673ffffffffffffffffffffffffffffffffffffffff16815260200191505060405180910390f35b34801561079957600080fd5b506107ce600480360381019080803573ffffffffffffffffffffffffffffffffffffffff1690602001909291905050506117e1565b6040518082815260200191505060405180910390f35b3480156107f057600080fd5b5061082f600480360381019080803573ffffffffffffffffffffffffffffffffffffffff1690602001909291908035906020019092919050505061182a565b604051808215151515815260200191505060405180910390f35b34801561085557600080fd5b5061087460048036038101908080359060200190929190505050611912565b604051808273ffffffffffffffffffffffffffffffffffffffff1673ffffffffffffffffffffffffffffffffffffffff16815260200191505060405180910390f35b6108ea600480360381019080803573ffffffffffffffffffffffffffffffffffffffff16906020019092919050505061194f565b005b3480156108f857600080fd5b50610901611a92565b005b34801561090f57600080fd5b50610918611b26565b6040518082815260200191505060405180910390f35b34801561093a57600080fd5b50610943611b33565b604051808060200180602001878152602001806020018673ffffffffffffffffffffffffffffffffffffffff1673ffffffffffffffffffffffffffffffffffffffff16815260200185815260200184810384528a818151815260200191508051906020019080838360005b838110156109c95780820151818401526020810190506109ae565b50505050905090810190601f1680156109f65780820380516001836020036101000a031916815260200191505b50848103835289818151815260200191508051906020019080838360005b83811015610a2f578082015181840152602081019050610a14565b50505050905090810190601f168015610a5c5780820380516001836020036101000a031916815260200191505b50848103825287818151815260200191508051906020019080838360005b83811015610a95578082015181840152602081019050610a7a565b50505050905090810190601f168015610ac25780820380516001836020036101000a031916815260200191505b50995050505050505050505060405180910390f35b348015610ae357600080fd5b50610b22600480360381019080803573ffffffffffffffffffffffffffffffffffffffff16906020019092919080359060200190929190505050611d6d565b005b348015610b3057600080fd5b50610b4f60048036038101908080359060200190929190505050611e85565b604051808273ffffffffffffffffffffffffffffffffffffffff1673ffffffffffffffffffffffffffffffffffffffff16815260200191505060405180910390f35b348015610b9d57600080fd5b50610bbc60048036038101908080359060200190929190505050611eb8565b604051808215151515815260200191505060405180910390f35b348015610be257600080fd5b50610c0160048036038101908080359060200190929190505050611ed8565b005b348015610c0f57600080fd5b50610c44600480360381019080803573ffffffffffffffffffffffffffffffffffffffff169060200190929190505050611f5f565b6040518082815260200191505060405180910390f35b348015610c6657600080fd5b50610c8560048036038101908080359060200190929190505050611f77565b005b348015610c9357600080fd5b50610cc8600480360381019080803573ffffffffffffffffffffffffffffffffffffffff169060200190929190505050611fa6565b6040518080602001828103825283818151815260200191508051906020019060200280838360005b83811015610d0b578082015181840152602081019050610cf0565b505050509050019250505060405180910390f35b348015610d2b57600080fd5b50610d4a600480360381019080803590602001909291905050506120f3565b005b348015610d5857600080fd5b50610d776004803603810190808035906020019092919050505061214f565b005b600060405180807f737570706f727473496e74657266616365286279746573342900000000000000815250601901905060405180910390207bffffffffffffffffffffffffffffffffffffffffffffffffffffffff1916827bffffffffffffffffffffffffffffffffffffffffffffffffffffffff191614806110f5575060405180807f746f6b656e5552492875696e74323536290000000000000000000000000000008152506011019050604051809103902060405180807f676574417070726f7665642875696e74323536290000000000000000000000008152506014019050604051809103902060405180807f7472616e7366657246726f6d28616464726573732c616464726573732c75696e81526020017f74323536290000000000000000000000000000000000000000000000000000008152506025019050604051809103902060405180807f617070726f766528616464726573732c75696e743235362900000000000000008152506018019050604051809103902060405180807f6973417070726f766564466f72416c6c28616464726573732c6164647265737381526020017f29000000000000000000000000000000000000000000000000000000000000008152506021019050604051809103902060405180807f736574417070726f76616c466f72416c6c28616464726573732c626f6f6c2900815250601f019050604051809103902060405180807f736166655472616e7366657246726f6d28616464726573732c6164647265737381526020017f2c75696e743235362900000000000000000000000000000000000000000000008152506029019050604051809103902060405180807f736166655472616e7366657246726f6d28616464726573732c6164647265737381526020017f2c75696e743235362c6279746573290000000000000000000000000000000000815250602f019050604051809103902060405180807f6f776e65724f662875696e7432353629000000000000000000000000000000008152506010019050604051809103902060405180807f62616c616e63654f662861646472657373290000000000000000000000000000815250601201905060405180910390201818181818181818187bffffffffffffffffffffffffffffffffffffffffffffffffffffffff1916827bffffffffffffffffffffffffffffffffffffffffffffffffffffffff1916145b9050919050565b600b6020528060005260406000206000915054906101000a900473ffffffffffffffffffffffffffffffffffffffff1681565b6000600d600083815260200190815260200160002060009054906101000a900473ffffffffffffffffffffffffffffffffffffffff169050919050565b600060149054906101000a900460ff1615151561118857600080fd5b611192338261220c565b151561119d57600080fd5b6111a78183612278565b808273ffffffffffffffffffffffffffffffffffffffff163373ffffffffffffffffffffffffffffffffffffffff167f8c5be1e5ebec7d5bd14f71427d1e84f3dd0314c0f7b2291e5b200ac8c7c3b92560405160405180910390a45050565b6000809054906101000a900473ffffffffffffffffffffffffffffffffffffffff1681565b60006010600083815260200190815260200160002060009054906101000a900460ff169050919050565b6000600f600083815260200190815260200160002060009054906101000a900460ff169050919050565b600060149054906101000a900460ff1615151561129b57600080fd5b600073ffffffffffffffffffffffffffffffffffffffff168273ffffffffffffffffffffffffffffffffffffffff16141515156112d757600080fd5b3073ffffffffffffffffffffffffffffffffffffffff168273ffffffffffffffffffffffffffffffffffffffff161415151561131257600080fd5b61131c33826122ce565b151561132757600080fd5b611331838261220c565b151561133c57600080fd5b61134783838361233a565b505050565b6000809054906101000a900473ffffffffffffffffffffffffffffffffffffffff1673ffffffffffffffffffffffffffffffffffffffff163373ffffffffffffffffffffffffffffffffffffffff161415156113a757600080fd5b600073ffffffffffffffffffffffffffffffffffffffff168173ffffffffffffffffffffffffffffffffffffffff16141515156113e357600080fd5b806000806101000a81548173ffffffffffffffffffffffffffffffffffffffff021916908373ffffffffffffffffffffffffffffffffffffffff16021790555050565b600e6020528060005260406000206000915054906101000a900473ffffffffffffffffffffffffffffffffffffffff1681565b600f600082815260200190815260200160002060006101000a81549060ff021916905550565b6000809054906101000a900473ffffffffffffffffffffffffffffffffffffffff1673ffffffffffffffffffffffffffffffffffffffff163373ffffffffffffffffffffffffffffffffffffffff161415156114da57600080fd5b600060149054906101000a900460ff1615156114f557600080fd5b60008060146101000a81548160ff021916908315150217905550565b6000600180549050600460009054906101000a900463ffffffff1663ffffffff1603905090565b600f6020528060005260406000206000915054906101000a900460ff1681565b60008060008060008060018781548110151561157057fe5b9060005260206000200160000160009054906101000a900467ffffffffffffffff166001888154811015156115a157fe5b9060005260206000200160000160089054906101000a900467ffffffffffffffff166001898154811015156115d257fe5b9060005260206000200160000160109054906101000a90046fffffffffffffffffffffffffffffffff16600b60008b815260200190815260200160002060009054906101000a900473ffffffffffffffffffffffffffffffffffffffff16600f60008c815260200190815260200160002060009054906101000a900460ff16600f60008d815260200190815260200160002060009054906101000a900460ff168567ffffffffffffffff1695508467ffffffffffffffff169450836fffffffffffffffffffffffffffffffff16935095509550955095509550955091939550919395565b600060149054906101000a900460ff1681565b6116d28261122b565b1515156116de57600080fd5b80600e600084815260200190815260200160002060006101000a81548173ffffffffffffffffffffffffffffffffffffffff021916908373ffffffffffffffffffffffffffffffffffffffff1602179055505050565b60016010600083815260200190815260200160002060006101000a81548160ff02191690831515021790555050565b600080600b600084815260200190815260200160002060009054906101000a900473ffffffffffffffffffffffffffffffffffffffff169050600073ffffffffffffffffffffffffffffffffffffffff168173ffffffffffffffffffffffffffffffffffffffff16141515156117d857600080fd5b80915050919050565b6000600c60008373ffffffffffffffffffffffffffffffffffffffff1673ffffffffffffffffffffffffffffffffffffffff168152602001908152602001600020549050919050565b6000611836838361220c565b80156118a15750600073ffffffffffffffffffffffffffffffffffffffff16600e600084815260200190815260200160002060009054906101000a900473ffffffffffffffffffffffffffffffffffffffff1673ffffffffffffffffffffffffffffffffffffffff16145b8061190a57508273ffffffffffffffffffffffffffffffffffffffff16600e600084815260200190815260200160002060009054906101000a900473ffffffffffffffffffffffffffffffffffffffff1673ffffffffffffffffffffffffffffffffffffffff16145b905092915050565b6000600e600083815260200190815260200160002060009054906101000a900473ffffffffffffffffffffffffffffffffffffffff169050919050565b60008060149054906101000a900460ff1615151561196c57600080fd5b600654611978336117e1565b10151561198457600080fd5b600460009054906101000a900463ffffffff1663ffffffff166001805490501015156119af57600080fd5b60055434101515156119c057600080fd5b6119c98261253c565b50600960009054906101000a900473ffffffffffffffffffffffffffffffffffffffff1673ffffffffffffffffffffffffffffffffffffffff166108fc6005549081150290604051600060405180830381858888f19350505050158015611a34573d6000803e3d6000fd5b50600554341115611a8e57600554340390508173ffffffffffffffffffffffffffffffffffffffff166108fc829081150290604051600060405180830381858888f19350505050158015611a8c573d6000803e3d6000fd5b505b5050565b6000809054906101000a900473ffffffffffffffffffffffffffffffffffffffff1673ffffffffffffffffffffffffffffffffffffffff163373ffffffffffffffffffffffffffffffffffffffff16141515611aed57600080fd5b600060149054906101000a900460ff16151515611b0957600080fd5b6001600060146101000a81548160ff021916908315150217905550565b6000600180549050905090565b6060806000606060008060026003600460009054906101000a900463ffffffff166007600860009054906101000a900473ffffffffffffffffffffffffffffffffffffffff16600a54858054600181600116156101000203166002900480601f016020809104026020016040519081016040528092919081815260200182805460018160011615610100020316600290048015611c115780601f10611be657610100808354040283529160200191611c11565b820191906000526020600020905b815481529060010190602001808311611bf457829003601f168201915b50505050509550848054600181600116156101000203166002900480601f016020809104026020016040519081016040528092919081815260200182805460018160011615610100020316600290048015611cad5780601f10611c8257610100808354040283529160200191611cad565b820191906000526020600020905b815481529060010190602001808311611c9057829003601f168201915b505050505094508363ffffffff169350828054600181600116156101000203166002900480601f016020809104026020016040519081016040528092919081815260200182805460018160011615610100020316600290048015611d525780601f10611d2757610100808354040283529160200191611d52565b820191906000526020600020905b815481529060010190602001808311611d3557829003601f168201915b50505050509250955095509550955095509550909192939495565b600060149054906101000a900460ff16151515611d8957600080fd5b600073ffffffffffffffffffffffffffffffffffffffff168273ffffffffffffffffffffffffffffffffffffffff1614151515611dc557600080fd5b3073ffffffffffffffffffffffffffffffffffffffff168273ffffffffffffffffffffffffffffffffffffffff1614151515611e0057600080fd5b611e0a338261220c565b1515611e1557600080fd5b611e2033838361233a565b600181815481101515611e2f57fe5b90600052602060002001600001600081819054906101000a900467ffffffffffffffff168092919060010191906101000a81548167ffffffffffffffff021916908367ffffffffffffffff160217905550505050565b600d6020528060005260406000206000915054906101000a900473ffffffffffffffffffffffffffffffffffffffff1681565b60106020528060005260406000206000915054906101000a900460ff1681565b600181815481101515611ee757fe5b90600052602060002001600001600081819054906101000a900467ffffffffffffffff168092919060010191906101000a81548167ffffffffffffffff021916908367ffffffffffffffff16021790555050600f600082815260200190815260200160002060006101000a81549060ff021916905550565b600c6020528060005260406000206000915090505481565b6001600f600083815260200190815260200160002060006101000a81548160ff02191690831515021790555050565b6060600060606000806000611fba876117e1565b94506000851415611ffd576000604051908082528060200260200182016040528015611ff55781602001602082028038833980820191505090505b5095506120e9565b8460405190808252806020026020018201604052801561202c5781602001602082028038833980820191505090505b509350612037611b26565b925060009150600190505b82811115156120e5578673ffffffffffffffffffffffffffffffffffffffff16600b600083815260200190815260200160002060009054906101000a900473ffffffffffffffffffffffffffffffffffffffff1673ffffffffffffffffffffffffffffffffffffffff1614156120d8578084838151811015156120c157fe5b906020019060200201818152505081806001019250505b8080600101915050612042565b8395505b5050505050919050565b6010600082815260200190815260200160002060006101000a81549060ff0219169055600e600082815260200190815260200160002060006101000a81549073ffffffffffffffffffffffffffffffffffffffff021916905550565b60018181548110151561215e57fe5b90600052602060002001600001600881819054906101000a900467ffffffffffffffff168092919060010191906101000a81548167ffffffffffffffff021916908367ffffffffffffffff160217905550506010600082815260200190815260200160002060006101000a81549060ff0219169055600e600082815260200190815260200160002060006101000a81549073ffffffffffffffffffffffffffffffffffffffff021916905550565b60008273ffffffffffffffffffffffffffffffffffffffff16600b600084815260200190815260200160002060009054906101000a900473ffffffffffffffffffffffffffffffffffffffff1673ffffffffffffffffffffffffffffffffffffffff1614905092915050565b80600d600084815260200190815260200160002060006101000a81548173ffffffffffffffffffffffffffffffffffffffff021916908373ffffffffffffffffffffffffffffffffffffffff1602179055505050565b60008273ffffffffffffffffffffffffffffffffffffffff16600d600084815260200190815260200160002060009054906101000a900473ffffffffffffffffffffffffffffffffffffffff1673ffffffffffffffffffffffffffffffffffffffff1614905092915050565b600c60008373ffffffffffffffffffffffffffffffffffffffff1673ffffffffffffffffffffffffffffffffffffffff1681526020019081526020016000206000815480929190600101919050555081600b600083815260200190815260200160002060006101000a81548173ffffffffffffffffffffffffffffffffffffffff021916908373ffffffffffffffffffffffffffffffffffffffff160217905550600073ffffffffffffffffffffffffffffffffffffffff168373ffffffffffffffffffffffffffffffffffffffff1614151561249857600c60008473ffffffffffffffffffffffffffffffffffffffff1673ffffffffffffffffffffffffffffffffffffffff1681526020019081526020016000206000815480929190600190039190505550600d600082815260200190815260200160002060006101000a81549073ffffffffffffffffffffffffffffffffffffffff02191690555b7fddf252ad1be2c89b69c2b068fc378daa952ba7f163c4a11628f55a4df523b3ef838383604051808473ffffffffffffffffffffffffffffffffffffffff1673ffffffffffffffffffffffffffffffffffffffff1681526020018373ffffffffffffffffffffffffffffffffffffffff1673ffffffffffffffffffffffffffffffffffffffff168152602001828152602001935050505060405180910390a1505050565b60006125466126f1565b600080612551611511565b11151561255d57600080fd5b606060405190810160405280600067ffffffffffffffff168152602001600067ffffffffffffffff168152602001426fffffffffffffffffffffffffffffffff1681525091506001808390806001815401808255809150509060018203906000526020600020016000909192909190915060008201518160000160006101000a81548167ffffffffffffffff021916908367ffffffffffffffff16021790555060208201518160000160086101000a81548167ffffffffffffffff021916908367ffffffffffffffff16021790555060408201518160000160106101000a8154816fffffffffffffffffffffffffffffffff02191690836fffffffffffffffffffffffffffffffff160217905550505003905061267c6000858361233a565b7f2416e874741589429bc41abb136b7621382afa31b8b896a5a49bc815a00fac0d8185604051808381526020018273ffffffffffffffffffffffffffffffffffffffff1673ffffffffffffffffffffffffffffffffffffffff1681526020019250505060405180910390a18092505050919050565b606060405190810160405280600067ffffffffffffffff168152602001600067ffffffffffffffff16815260200160006fffffffffffffffffffffffffffffffff16815250905600a165627a7a72305820ee4144b020684f748567aa9f32735ef5e95a99b1e7bdbcbd06360ae2faa635a90029",
  "source": "pragma solidity ^0.4.24;\n\nimport \"./BookTransaction.sol\";\nimport \"./BookCopyrightCreate.sol\";\n\ncontract BookOwnerShip is BookTransaction {    //\n    // \n    // @param _copyright \n    // @param _price \n    // @param _totalAmount \n    // @param _limitAmount    \n    constructor( uint256 _price, uint256 _totalAmount, uint256 _limitAmount) public {\n        authorAddress = msg.sender;\n        /*copyrightAddress = _copyright;\n        BookCopyrightCreate bookCopyright = BookCopyrightCreate(_copyright);\n        (bookName, author, authorAddress, ipfsHash, timestamp) = bookCopyright.getCopyright();*/\n        price = _price;\n        require(_totalAmount == uint32(_totalAmount));     //  2^32\n        require(_limitAmount == uint32(_limitAmount));     //  2^32\n        require(_price == uint128(_price));                // \n        totalAmount = uint32(_totalAmount);\n        limitAmount = uint32(_limitAmount);\n        _creatBook(authorAddress);                         // \n    }\n\n    //       ipfsHash,   )\n    function getCopyrightInfo()\n        external\n        view\n        returns (\n            string ,\n            string ,\n            uint256 ,\n            string ,\n            address ,\n            uint256\n        )\n    {\n        return (bookName, author, totalAmount, ipfsHash, copyrightAddress, timestamp);\n    }\n\n    //        )\n    function getBookInfo(uint256 _tokenId)\n        external\n        view\n        returns(\n            uint256,\n            uint256,\n            uint256,\n            address,\n            bool,\n            bool\n        )\n    {\n        return(\n            books[_tokenId].transactions,\n            books[_tokenId].rents,\n            books[_tokenId].creatTime,\n            bookIndexToOwner[_tokenId],\n            bookIndexToSell[_tokenId],\n            bookIndexToSell[_tokenId]\n        );\n    }\n\n    function allowToRead(address _owner, uint256 _tokenId) external view returns(bool) {  // \n        return( (_owns(_owner, _tokenId) && rentAllowedToAddress[_tokenId] == address(0)) || rentAllowedToAddress[_tokenId] == _owner );\n    }\n\n    function ownerOf(uint256 _tokenId) external view returns(address) {    //\n        address owner = bookIndexToOwner[_tokenId];\n        require(owner != address(0));\n        return owner;\n    }\n\n    function getApproved(uint256 _tokenId) external view returns (address) {\n        return bookIndexToApproved[_tokenId];\n    }\n\n    function tokenofOwner(address _owner) external view returns(uint256[] ownerTokens){ // \n        uint256 tokenCount = balanceOf(_owner);\n\n        if(tokenCount == 0) {\n            return new uint256[](0);\n        } else {\n            uint256[] memory result = new uint256[](tokenCount);\n            uint256 totalBooks = publishedAmount();\n            uint256 resultIndex = 0;\n\n            uint256 bookId;\n\n            for(bookId = 1; bookId <= totalBooks; bookId++) {\n                if(bookIndexToOwner[bookId] == _owner) {\n                    result[resultIndex] = bookId;\n                    resultIndex++;\n                }\n            }\n        }\n\n        return result;\n    }\n\n    function buyFromAuthor(address _buyer) external payable whenNotPaused{    // \n        require(balanceOf(msg.sender) < limitAmount);\n        require(books.length < totalAmount);\n        require(msg.value >= price);\n        _creatBook(_buyer);\n        authorAddress.transfer(price);\n        if(msg.value > price) {\n            uint256 excessPrice = msg.value - price;   // safemath ???\n            _buyer.transfer(excessPrice);\n        }\n    }\n\n\n}\n",
  "sourcePath": "F:\\ChainBook\\smartcontracts\\contracts\\BookOwnerShip.sol",
  "compiler": {
    "name": "solc",
    "version": "0.4.24+commit.e67f0147.Emscripten.clang"
  },
  "schemaVersion": "2.0.0",
  "updatedAt": "2018-06-03T16:52:08.033Z"
}