{
  "contractName": "BookOwnerShip",
  "abi": [
    {
      "constant": true,
      "inputs": [
        {
          "name": "_interfaceID",
          "type": "bytes4"
        }
      ],
      "name": "supportsInterface",
      "outputs": [
        {
          "name": "",
          "type": "bool"
        }
      ],
      "payable": false,
      "stateMutability": "view",
      "type": "function"
    },
    {
      "constant": true,
      "inputs": [
        {
          "name": "",
          "type": "uint256"
        }
      ],
      "name": "bookIndexToOwner",
      "outputs": [
        {
          "name": "",
          "type": "address"
        }
      ],
      "payable": false,
      "stateMutability": "view",
      "type": "function"
    },
    {
      "constant": false,
      "inputs": [
        {
          "name": "_to",
          "type": "address"
        },
        {
          "name": "_tokenId",
          "type": "uint256"
        }
      ],
      "name": "approve",
      "outputs": [],
      "payable": true,
      "stateMutability": "payable",
      "type": "function"
    },
    {
      "constant": true,
      "inputs": [],
      "name": "ceoAddress",
      "outputs": [
        {
          "name": "",
          "type": "address"
        }
      ],
      "payable": false,
      "stateMutability": "view",
      "type": "function"
    },
    {
      "constant": true,
      "inputs": [
        {
          "name": "_tokenId",
          "type": "uint256"
        }
      ],
      "name": "isRent",
      "outputs": [
        {
          "name": "",
          "type": "bool"
        }
      ],
      "payable": false,
      "stateMutability": "view",
      "type": "function"
    },
    {
      "constant": true,
      "inputs": [
        {
          "name": "_tokenId",
          "type": "uint256"
        }
      ],
      "name": "isSell",
      "outputs": [
        {
          "name": "",
          "type": "bool"
        }
      ],
      "payable": false,
      "stateMutability": "view",
      "type": "function"
    },
    {
      "constant": false,
      "inputs": [
        {
          "name": "_from",
          "type": "address"
        },
        {
          "name": "_to",
          "type": "address"
        },
        {
          "name": "_tokenId",
          "type": "uint256"
        }
      ],
      "name": "transferFrom",
      "outputs": [],
      "payable": true,
      "stateMutability": "payable",
      "type": "function"
    },
    {
      "constant": false,
      "inputs": [
        {
          "name": "_newCEO",
          "type": "address"
        }
      ],
      "name": "setCEO",
      "outputs": [],
      "payable": false,
      "stateMutability": "nonpayable",
      "type": "function"
    },
    {
      "constant": true,
      "inputs": [
        {
          "name": "",
          "type": "uint256"
        }
      ],
      "name": "rentAllowedToAddress",
      "outputs": [
        {
          "name": "",
          "type": "address"
        }
      ],
      "payable": false,
      "stateMutability": "view",
      "type": "function"
    },
    {
      "constant": false,
      "inputs": [],
      "name": "unpause",
      "outputs": [],
      "payable": false,
      "stateMutability": "nonpayable",
      "type": "function"
    },
    {
      "constant": true,
      "inputs": [],
      "name": "_remain",
      "outputs": [
        {
          "name": "",
          "type": "uint256"
        }
      ],
      "payable": false,
      "stateMutability": "view",
      "type": "function"
    },
    {
      "constant": false,
      "inputs": [
        {
          "name": "_tokenId",
          "type": "uint256"
        }
      ],
      "name": "sellcancel",
      "outputs": [],
      "payable": false,
      "stateMutability": "nonpayable",
      "type": "function"
    },
    {
      "constant": true,
      "inputs": [
        {
          "name": "",
          "type": "uint256"
        }
      ],
      "name": "bookIndexToSell",
      "outputs": [
        {
          "name": "",
          "type": "bool"
        }
      ],
      "payable": false,
      "stateMutability": "view",
      "type": "function"
    },
    {
      "constant": true,
      "inputs": [],
      "name": "paused",
      "outputs": [
        {
          "name": "",
          "type": "bool"
        }
      ],
      "payable": false,
      "stateMutability": "view",
      "type": "function"
    },
    {
      "constant": false,
      "inputs": [
        {
          "name": "_tokenId",
          "type": "uint256"
        },
        {
          "name": "_leaser",
          "type": "address"
        }
      ],
      "name": "rentTo",
      "outputs": [],
      "payable": false,
      "stateMutability": "nonpayable",
      "type": "function"
    },
    {
      "constant": false,
      "inputs": [
        {
          "name": "_tokenId",
          "type": "uint256"
        }
      ],
      "name": "creatRent",
      "outputs": [],
      "payable": false,
      "stateMutability": "nonpayable",
      "type": "function"
    },
    {
      "constant": true,
      "inputs": [
        {
          "name": "_owner",
          "type": "address"
        }
      ],
      "name": "balanceOf",
      "outputs": [
        {
          "name": "",
          "type": "uint256"
        }
      ],
      "payable": false,
      "stateMutability": "view",
      "type": "function"
    },
    {
      "constant": false,
      "inputs": [],
      "name": "pause",
      "outputs": [],
      "payable": false,
      "stateMutability": "nonpayable",
      "type": "function"
    },
    {
      "constant": true,
      "inputs": [],
      "name": "publishedAmount",
      "outputs": [
        {
          "name": "",
          "type": "uint256"
        }
      ],
      "payable": false,
      "stateMutability": "view",
      "type": "function"
    },
    {
      "constant": false,
      "inputs": [
        {
          "name": "_to",
          "type": "address"
        },
        {
          "name": "_tokenId",
          "type": "uint256"
        }
      ],
      "name": "transfer",
      "outputs": [],
      "payable": false,
      "stateMutability": "nonpayable",
      "type": "function"
    },
    {
      "constant": true,
      "inputs": [
        {
          "name": "",
          "type": "uint256"
        }
      ],
      "name": "bookIndexToApproved",
      "outputs": [
        {
          "name": "",
          "type": "address"
        }
      ],
      "payable": false,
      "stateMutability": "view",
      "type": "function"
    },
    {
      "constant": true,
      "inputs": [
        {
          "name": "",
          "type": "uint256"
        }
      ],
      "name": "bookIndexToRent",
      "outputs": [
        {
          "name": "",
          "type": "bool"
        }
      ],
      "payable": false,
      "stateMutability": "view",
      "type": "function"
    },
    {
      "constant": false,
      "inputs": [
        {
          "name": "_tokenId",
          "type": "uint256"
        }
      ],
      "name": "sellFinish",
      "outputs": [],
      "payable": false,
      "stateMutability": "nonpayable",
      "type": "function"
    },
    {
      "constant": true,
      "inputs": [
        {
          "name": "",
          "type": "address"
        }
      ],
      "name": "ownershipTokenCount",
      "outputs": [
        {
          "name": "",
          "type": "uint256"
        }
      ],
      "payable": false,
      "stateMutability": "view",
      "type": "function"
    },
    {
      "constant": false,
      "inputs": [
        {
          "name": "_tokenId",
          "type": "uint256"
        }
      ],
      "name": "creatSell",
      "outputs": [],
      "payable": false,
      "stateMutability": "nonpayable",
      "type": "function"
    },
    {
      "constant": false,
      "inputs": [
        {
          "name": "_tokenId",
          "type": "uint256"
        }
      ],
      "name": "rentCancel",
      "outputs": [],
      "payable": false,
      "stateMutability": "nonpayable",
      "type": "function"
    },
    {
      "constant": false,
      "inputs": [
        {
          "name": "_tokenId",
          "type": "uint256"
        }
      ],
      "name": "rentFinish",
      "outputs": [],
      "payable": false,
      "stateMutability": "nonpayable",
      "type": "function"
    },
    {
      "inputs": [
        {
          "name": "_copyright",
          "type": "address"
        },
        {
          "name": "_price",
          "type": "uint256"
        },
        {
          "name": "_totalAmount",
          "type": "uint256"
        },
        {
          "name": "_limitAmount",
          "type": "uint256"
        }
      ],
      "payable": false,
      "stateMutability": "nonpayable",
      "type": "constructor"
    },
    {
      "anonymous": false,
      "inputs": [
        {
          "indexed": true,
          "name": "_from",
          "type": "address"
        },
        {
          "indexed": true,
          "name": "_to",
          "type": "address"
        },
        {
          "indexed": true,
          "name": "_tokenId",
          "type": "uint256"
        }
      ],
      "name": "Transfer",
      "type": "event"
    },
    {
      "anonymous": false,
      "inputs": [
        {
          "indexed": true,
          "name": "_owner",
          "type": "address"
        },
        {
          "indexed": true,
          "name": "_approved",
          "type": "address"
        },
        {
          "indexed": true,
          "name": "_tokenId",
          "type": "uint256"
        }
      ],
      "name": "Approval",
      "type": "event"
    },
    {
      "anonymous": false,
      "inputs": [
        {
          "indexed": false,
          "name": "_tokenId",
          "type": "uint256"
        },
        {
          "indexed": false,
          "name": "_owner",
          "type": "address"
        }
      ],
      "name": "CreatBook",
      "type": "event"
    },
    {
      "constant": true,
      "inputs": [],
      "name": "getCopyrightInfo",
      "outputs": [
        {
          "name": "",
          "type": "string"
        },
        {
          "name": "",
          "type": "string"
        },
        {
          "name": "",
          "type": "uint256"
        },
        {
          "name": "",
          "type": "string"
        },
        {
          "name": "",
          "type": "address"
        },
        {
          "name": "",
          "type": "uint256"
        }
      ],
      "payable": false,
      "stateMutability": "view",
      "type": "function"
    },
    {
      "constant": true,
      "inputs": [
        {
          "name": "_tokenId",
          "type": "uint256"
        }
      ],
      "name": "getBookInfo",
      "outputs": [
        {
          "name": "",
          "type": "uint256"
        },
        {
          "name": "",
          "type": "uint256"
        },
        {
          "name": "",
          "type": "uint256"
        },
        {
          "name": "",
          "type": "address"
        }
      ],
      "payable": false,
      "stateMutability": "view",
      "type": "function"
    },
    {
      "constant": true,
      "inputs": [
        {
          "name": "_owner",
          "type": "address"
        },
        {
          "name": "_tokenId",
          "type": "uint256"
        }
      ],
      "name": "allowToRead",
      "outputs": [
        {
          "name": "",
          "type": "bool"
        }
      ],
      "payable": false,
      "stateMutability": "view",
      "type": "function"
    },
    {
      "constant": true,
      "inputs": [
        {
          "name": "_tokenId",
          "type": "uint256"
        }
      ],
      "name": "ownerOf",
      "outputs": [
        {
          "name": "",
          "type": "address"
        }
      ],
      "payable": false,
      "stateMutability": "view",
      "type": "function"
    },
    {
      "constant": true,
      "inputs": [
        {
          "name": "_tokenId",
          "type": "uint256"
        }
      ],
      "name": "getApproved",
      "outputs": [
        {
          "name": "",
          "type": "address"
        }
      ],
      "payable": false,
      "stateMutability": "view",
      "type": "function"
    },
    {
      "constant": true,
      "inputs": [
        {
          "name": "_owner",
          "type": "address"
        }
      ],
      "name": "tokenofOwner",
      "outputs": [
        {
          "name": "ownerTokens",
          "type": "uint256[]"
        }
      ],
      "payable": false,
      "stateMutability": "view",
      "type": "function"
    },
    {
      "constant": false,
      "inputs": [
        {
          "name": "_buyer",
          "type": "address"
        }
      ],
      "name": "buyFromAuthor",
      "outputs": [],
      "payable": true,
      "stateMutability": "payable",
      "type": "function"
    }
  ],
  "bytecode": "0x608060405260008060006101000a81548173ffffffffffffffffffffffffffffffffffffffff021916908373ffffffffffffffffffffffffffffffffffffffff1602179055506040805190810160405280600381526020017f57574200000000000000000000000000000000000000000000000000000000008152506002908051906020019062000092929190620008a4565b506040805190810160405280600381526020017f777762000000000000000000000000000000000000000000000000000000000081525060039080519060200190620000e0929190620008a4565b506103e8600460006101000a81548163ffffffff021916908363ffffffff160217905550600a6006553480156200011657600080fd5b5060405160808062002ffa83398101806040528101908080519060200190929190805190602001909291908051906020019092919080519060200190929190505050600084600860006101000a81548173ffffffffffffffffffffffffffffffffffffffff021916908373ffffffffffffffffffffffffffffffffffffffff1602179055508490508073ffffffffffffffffffffffffffffffffffffffff1663906589106040518163ffffffff167c0100000000000000000000000000000000000000000000000000000000028152600401600060405180830381600087803b1580156200020357600080fd5b505af115801562000218573d6000803e3d6000fd5b505050506040513d6000823e3d601f19601f8201168201806040525060a08110156200024357600080fd5b8101908080516401000000008111156200025c57600080fd5b828101905060208101848111156200027357600080fd5b81518560018202830111640100000000821117156200029157600080fd5b50509291906020018051640100000000811115620002ae57600080fd5b82810190506020810184811115620002c557600080fd5b8151856001820283011164010000000082111715620002e357600080fd5b50509291906020018051906020019092919080516401000000008111156200030a57600080fd5b828101905060208101848111156200032157600080fd5b81518560018202830111640100000000821117156200033f57600080fd5b50509291906020018051906020019092919050505060026000600360006009600060076000600a60008a9190505589919050908051906020019062000386929190620008a4565b508891906101000a81548173ffffffffffffffffffffffffffffffffffffffff021916908373ffffffffffffffffffffffffffffffffffffffff160217905550879190509080519060200190620003df929190620008a4565b50869190509080519060200190620003f9929190620008a4565b505050505050836005819055508263ffffffff16831415156200041b57600080fd5b8263ffffffff16821415156200043057600080fd5b82600460006101000a81548163ffffffff021916908363ffffffff1602179055508160068190555062000494600960009054906101000a900473ffffffffffffffffffffffffffffffffffffffff16620004a0640100000000026401000000009004565b5050505050506200099b565b6000620004ac6200092b565b600080620004c86200067a640100000000026401000000009004565b111515620004d557600080fd5b606060405190810160405280600067ffffffffffffffff168152602001600067ffffffffffffffff168152602001426fffffffffffffffffffffffffffffffff1681525091506001808390806001815401808255809150509060018203906000526020600020016000909192909190915060008201518160000160006101000a81548167ffffffffffffffff021916908367ffffffffffffffff16021790555060208201518160000160086101000a81548167ffffffffffffffff021916908367ffffffffffffffff16021790555060408201518160000160106101000a8154816fffffffffffffffffffffffffffffffff02191690836fffffffffffffffffffffffffffffffff16021790555050500390506200060560008583620006a1640100000000026401000000009004565b7f2416e874741589429bc41abb136b7621382afa31b8b896a5a49bc815a00fac0d8185604051808381526020018273ffffffffffffffffffffffffffffffffffffffff1673ffffffffffffffffffffffffffffffffffffffff1681526020019250505060405180910390a18092505050919050565b6000600180549050600460009054906101000a900463ffffffff1663ffffffff1603905090565b600c60008373ffffffffffffffffffffffffffffffffffffffff1673ffffffffffffffffffffffffffffffffffffffff1681526020019081526020016000206000815480929190600101919050555081600b600083815260200190815260200160002060006101000a81548173ffffffffffffffffffffffffffffffffffffffff021916908373ffffffffffffffffffffffffffffffffffffffff160217905550600073ffffffffffffffffffffffffffffffffffffffff168373ffffffffffffffffffffffffffffffffffffffff161415156200080057600c60008473ffffffffffffffffffffffffffffffffffffffff1673ffffffffffffffffffffffffffffffffffffffff1681526020019081526020016000206000815480929190600190039190505550600d600082815260200190815260200160002060006101000a81549073ffffffffffffffffffffffffffffffffffffffff02191690555b7fddf252ad1be2c89b69c2b068fc378daa952ba7f163c4a11628f55a4df523b3ef838383604051808473ffffffffffffffffffffffffffffffffffffffff1673ffffffffffffffffffffffffffffffffffffffff1681526020018373ffffffffffffffffffffffffffffffffffffffff1673ffffffffffffffffffffffffffffffffffffffff168152602001828152602001935050505060405180910390a1505050565b828054600181600116156101000203166002900490600052602060002090601f016020900481019282601f10620008e757805160ff191683800117855562000918565b8280016001018555821562000918579182015b8281111562000917578251825591602001919060010190620008fa565b5b50905062000927919062000973565b5090565b606060405190810160405280600067ffffffffffffffff168152602001600067ffffffffffffffff16815260200160006fffffffffffffffffffffffffffffffff1681525090565b6200099891905b80821115620009945760008160009055506001016200097a565b5090565b90565b61264f80620009ab6000396000f3006080604052600436106101ac576000357c0100000000000000000000000000000000000000000000000000000000900463ffffffff16806301ffc9a7146101b157806306787a0a14610215578063081812fc14610282578063095ea7b3146102ef5780630a0f81681461032f57806312b9cb47146103865780631b01e72c146103cb57806323b872dd1461041057806327d7874c1461047057806336df851f146104b35780633f4ba83a146105205780634312413814610537578063469ffd47146105625780634f3f8b7b1461058f57806357a26847146105d45780635c975abb14610656578063616735a51461068557806362d12877146106d25780636352211e146106ff57806370a082311461076c578063766dab21146107c35780637cec6ca8146108285780638456cb591461085e57806385cfdf3a1461087557806389ab6b3b146108a0578063a9059cbb14610a49578063ad87cbb414610a96578063b4e318a514610b03578063b97a15a314610b48578063cec21acb14610b75578063dadec2c414610bcc578063f3f8468e14610bf9578063f662045b14610c91578063f8c399aa14610cbe575b600080fd5b3480156101bd57600080fd5b506101fb60048036038101908080357bffffffffffffffffffffffffffffffffffffffffffffffffffffffff19169060200190929190505050610ceb565b604051808215151515815260200191505060405180910390f35b34801561022157600080fd5b506102406004803603810190808035906020019092919050505061106e565b604051808273ffffffffffffffffffffffffffffffffffffffff1673ffffffffffffffffffffffffffffffffffffffff16815260200191505060405180910390f35b34801561028e57600080fd5b506102ad600480360381019080803590602001909291905050506110a1565b604051808273ffffffffffffffffffffffffffffffffffffffff1673ffffffffffffffffffffffffffffffffffffffff16815260200191505060405180910390f35b61032d600480360381019080803573ffffffffffffffffffffffffffffffffffffffff169060200190929190803590602001909291905050506110de565b005b34801561033b57600080fd5b50610344611178565b604051808273ffffffffffffffffffffffffffffffffffffffff1673ffffffffffffffffffffffffffffffffffffffff16815260200191505060405180910390f35b34801561039257600080fd5b506103b16004803603810190808035906020019092919050505061119d565b604051808215151515815260200191505060405180910390f35b3480156103d757600080fd5b506103f6600480360381019080803590602001909291905050506111c7565b604051808215151515815260200191505060405180910390f35b61046e600480360381019080803573ffffffffffffffffffffffffffffffffffffffff169060200190929190803573ffffffffffffffffffffffffffffffffffffffff169060200190929190803590602001909291905050506111f1565b005b34801561047c57600080fd5b506104b1600480360381019080803573ffffffffffffffffffffffffffffffffffffffff1690602001909291905050506112be565b005b3480156104bf57600080fd5b506104de60048036038101908080359060200190929190505050611398565b604051808273ffffffffffffffffffffffffffffffffffffffff1673ffffffffffffffffffffffffffffffffffffffff16815260200191505060405180910390f35b34801561052c57600080fd5b506105356113cb565b005b34801561054357600080fd5b5061054c61145d565b6040518082815260200191505060405180910390f35b34801561056e57600080fd5b5061058d60048036038101908080359060200190929190505050611484565b005b34801561059b57600080fd5b506105ba600480360381019080803590602001909291905050506114aa565b604051808215151515815260200191505060405180910390f35b3480156105e057600080fd5b506105ff600480360381019080803590602001909291905050506114ca565b604051808581526020018481526020018381526020018273ffffffffffffffffffffffffffffffffffffffff1673ffffffffffffffffffffffffffffffffffffffff16815260200194505050505060405180910390f35b34801561066257600080fd5b5061066b6115dd565b604051808215151515815260200191505060405180910390f35b34801561069157600080fd5b506106d060048036038101908080359060200190929190803573ffffffffffffffffffffffffffffffffffffffff1690602001909291905050506115f0565b005b3480156106de57600080fd5b506106fd6004803603810190808035906020019092919050505061165b565b005b34801561070b57600080fd5b5061072a6004803603810190808035906020019092919050505061168a565b604051808273ffffffffffffffffffffffffffffffffffffffff1673ffffffffffffffffffffffffffffffffffffffff16815260200191505060405180910390f35b34801561077857600080fd5b506107ad600480360381019080803573ffffffffffffffffffffffffffffffffffffffff169060200190929190505050611708565b6040518082815260200191505060405180910390f35b3480156107cf57600080fd5b5061080e600480360381019080803573ffffffffffffffffffffffffffffffffffffffff16906020019092919080359060200190929190505050611751565b604051808215151515815260200191505060405180910390f35b61085c600480360381019080803573ffffffffffffffffffffffffffffffffffffffff169060200190929190505050611839565b005b34801561086a57600080fd5b5061087361197c565b005b34801561088157600080fd5b5061088a611a10565b6040518082815260200191505060405180910390f35b3480156108ac57600080fd5b506108b5611a1d565b604051808060200180602001878152602001806020018673ffffffffffffffffffffffffffffffffffffffff1673ffffffffffffffffffffffffffffffffffffffff16815260200185815260200184810384528a818151815260200191508051906020019080838360005b8381101561093b578082015181840152602081019050610920565b50505050905090810190601f1680156109685780820380516001836020036101000a031916815260200191505b50848103835289818151815260200191508051906020019080838360005b838110156109a1578082015181840152602081019050610986565b50505050905090810190601f1680156109ce5780820380516001836020036101000a031916815260200191505b50848103825287818151815260200191508051906020019080838360005b83811015610a075780820151818401526020810190506109ec565b50505050905090810190601f168015610a345780820380516001836020036101000a031916815260200191505b50995050505050505050505060405180910390f35b348015610a5557600080fd5b50610a94600480360381019080803573ffffffffffffffffffffffffffffffffffffffff16906020019092919080359060200190929190505050611c57565b005b348015610aa257600080fd5b50610ac160048036038101908080359060200190929190505050611d6f565b604051808273ffffffffffffffffffffffffffffffffffffffff1673ffffffffffffffffffffffffffffffffffffffff16815260200191505060405180910390f35b348015610b0f57600080fd5b50610b2e60048036038101908080359060200190929190505050611da2565b604051808215151515815260200191505060405180910390f35b348015610b5457600080fd5b50610b7360048036038101908080359060200190929190505050611dc2565b005b348015610b8157600080fd5b50610bb6600480360381019080803573ffffffffffffffffffffffffffffffffffffffff169060200190929190505050611e49565b6040518082815260200191505060405180910390f35b348015610bd857600080fd5b50610bf760048036038101908080359060200190929190505050611e61565b005b348015610c0557600080fd5b50610c3a600480360381019080803573ffffffffffffffffffffffffffffffffffffffff169060200190929190505050611e90565b6040518080602001828103825283818151815260200191508051906020019060200280838360005b83811015610c7d578082015181840152602081019050610c62565b505050509050019250505060405180910390f35b348015610c9d57600080fd5b50610cbc60048036038101908080359060200190929190505050611fdd565b005b348015610cca57600080fd5b50610ce960048036038101908080359060200190929190505050612039565b005b600060405180807f737570706f727473496e74657266616365286279746573342900000000000000815250601901905060405180910390207bffffffffffffffffffffffffffffffffffffffffffffffffffffffff1916827bffffffffffffffffffffffffffffffffffffffffffffffffffffffff19161480611067575060405180807f746f6b656e5552492875696e74323536290000000000000000000000000000008152506011019050604051809103902060405180807f676574417070726f7665642875696e74323536290000000000000000000000008152506014019050604051809103902060405180807f7472616e7366657246726f6d28616464726573732c616464726573732c75696e81526020017f74323536290000000000000000000000000000000000000000000000000000008152506025019050604051809103902060405180807f617070726f766528616464726573732c75696e743235362900000000000000008152506018019050604051809103902060405180807f6973417070726f766564466f72416c6c28616464726573732c6164647265737381526020017f29000000000000000000000000000000000000000000000000000000000000008152506021019050604051809103902060405180807f736574417070726f76616c466f72416c6c28616464726573732c626f6f6c2900815250601f019050604051809103902060405180807f736166655472616e7366657246726f6d28616464726573732c6164647265737381526020017f2c75696e743235362900000000000000000000000000000000000000000000008152506029019050604051809103902060405180807f736166655472616e7366657246726f6d28616464726573732c6164647265737381526020017f2c75696e743235362c6279746573290000000000000000000000000000000000815250602f019050604051809103902060405180807f6f776e65724f662875696e7432353629000000000000000000000000000000008152506010019050604051809103902060405180807f62616c616e63654f662861646472657373290000000000000000000000000000815250601201905060405180910390201818181818181818187bffffffffffffffffffffffffffffffffffffffffffffffffffffffff1916827bffffffffffffffffffffffffffffffffffffffffffffffffffffffff1916145b9050919050565b600b6020528060005260406000206000915054906101000a900473ffffffffffffffffffffffffffffffffffffffff1681565b6000600d600083815260200190815260200160002060009054906101000a900473ffffffffffffffffffffffffffffffffffffffff169050919050565b600060149054906101000a900460ff161515156110fa57600080fd5b61110433826120f6565b151561110f57600080fd5b6111198183612162565b808273ffffffffffffffffffffffffffffffffffffffff163373ffffffffffffffffffffffffffffffffffffffff167f8c5be1e5ebec7d5bd14f71427d1e84f3dd0314c0f7b2291e5b200ac8c7c3b92560405160405180910390a45050565b6000809054906101000a900473ffffffffffffffffffffffffffffffffffffffff1681565b60006010600083815260200190815260200160002060009054906101000a900460ff169050919050565b6000600f600083815260200190815260200160002060009054906101000a900460ff169050919050565b600060149054906101000a900460ff1615151561120d57600080fd5b600073ffffffffffffffffffffffffffffffffffffffff168273ffffffffffffffffffffffffffffffffffffffff161415151561124957600080fd5b3073ffffffffffffffffffffffffffffffffffffffff168273ffffffffffffffffffffffffffffffffffffffff161415151561128457600080fd5b61128e33826121b8565b151561129957600080fd5b6112a383826120f6565b15156112ae57600080fd5b6112b9838383612224565b505050565b6000809054906101000a900473ffffffffffffffffffffffffffffffffffffffff1673ffffffffffffffffffffffffffffffffffffffff163373ffffffffffffffffffffffffffffffffffffffff1614151561131957600080fd5b600073ffffffffffffffffffffffffffffffffffffffff168173ffffffffffffffffffffffffffffffffffffffff161415151561135557600080fd5b806000806101000a81548173ffffffffffffffffffffffffffffffffffffffff021916908373ffffffffffffffffffffffffffffffffffffffff16021790555050565b600e6020528060005260406000206000915054906101000a900473ffffffffffffffffffffffffffffffffffffffff1681565b6000809054906101000a900473ffffffffffffffffffffffffffffffffffffffff1673ffffffffffffffffffffffffffffffffffffffff163373ffffffffffffffffffffffffffffffffffffffff1614151561142657600080fd5b600060149054906101000a900460ff16151561144157600080fd5b60008060146101000a81548160ff021916908315150217905550565b6000600180549050600460009054906101000a900463ffffffff1663ffffffff1603905090565b600f600082815260200190815260200160002060006101000a81549060ff021916905550565b600f6020528060005260406000206000915054906101000a900460ff1681565b6000806000806001858154811015156114df57fe5b9060005260206000200160000160009054906101000a900467ffffffffffffffff1660018681548110151561151057fe5b9060005260206000200160000160089054906101000a900467ffffffffffffffff1660018781548110151561154157fe5b9060005260206000200160000160109054906101000a90046fffffffffffffffffffffffffffffffff16600b600089815260200190815260200160002060009054906101000a900473ffffffffffffffffffffffffffffffffffffffff168367ffffffffffffffff1693508267ffffffffffffffff169250816fffffffffffffffffffffffffffffffff16915093509350935093509193509193565b600060149054906101000a900460ff1681565b6115f98261119d565b15151561160557600080fd5b80600e600084815260200190815260200160002060006101000a81548173ffffffffffffffffffffffffffffffffffffffff021916908373ffffffffffffffffffffffffffffffffffffffff1602179055505050565b60016010600083815260200190815260200160002060006101000a81548160ff02191690831515021790555050565b600080600b600084815260200190815260200160002060009054906101000a900473ffffffffffffffffffffffffffffffffffffffff169050600073ffffffffffffffffffffffffffffffffffffffff168173ffffffffffffffffffffffffffffffffffffffff16141515156116ff57600080fd5b80915050919050565b6000600c60008373ffffffffffffffffffffffffffffffffffffffff1673ffffffffffffffffffffffffffffffffffffffff168152602001908152602001600020549050919050565b600061175d83836120f6565b80156117c85750600073ffffffffffffffffffffffffffffffffffffffff16600e600084815260200190815260200160002060009054906101000a900473ffffffffffffffffffffffffffffffffffffffff1673ffffffffffffffffffffffffffffffffffffffff16145b8061183157508273ffffffffffffffffffffffffffffffffffffffff16600e600084815260200190815260200160002060009054906101000a900473ffffffffffffffffffffffffffffffffffffffff1673ffffffffffffffffffffffffffffffffffffffff16145b905092915050565b60008060149054906101000a900460ff1615151561185657600080fd5b60065461186233611708565b10151561186e57600080fd5b600460009054906101000a900463ffffffff1663ffffffff1660018054905010151561189957600080fd5b60055434101515156118aa57600080fd5b6118b382612426565b50600960009054906101000a900473ffffffffffffffffffffffffffffffffffffffff1673ffffffffffffffffffffffffffffffffffffffff166108fc6005549081150290604051600060405180830381858888f1935050505015801561191e573d6000803e3d6000fd5b5060055434111561197857600554340390508173ffffffffffffffffffffffffffffffffffffffff166108fc829081150290604051600060405180830381858888f19350505050158015611976573d6000803e3d6000fd5b505b5050565b6000809054906101000a900473ffffffffffffffffffffffffffffffffffffffff1673ffffffffffffffffffffffffffffffffffffffff163373ffffffffffffffffffffffffffffffffffffffff161415156119d757600080fd5b600060149054906101000a900460ff161515156119f357600080fd5b6001600060146101000a81548160ff021916908315150217905550565b6000600180549050905090565b6060806000606060008060026003600460009054906101000a900463ffffffff166007600860009054906101000a900473ffffffffffffffffffffffffffffffffffffffff16600a54858054600181600116156101000203166002900480601f016020809104026020016040519081016040528092919081815260200182805460018160011615610100020316600290048015611afb5780601f10611ad057610100808354040283529160200191611afb565b820191906000526020600020905b815481529060010190602001808311611ade57829003601f168201915b50505050509550848054600181600116156101000203166002900480601f016020809104026020016040519081016040528092919081815260200182805460018160011615610100020316600290048015611b975780601f10611b6c57610100808354040283529160200191611b97565b820191906000526020600020905b815481529060010190602001808311611b7a57829003601f168201915b505050505094508363ffffffff169350828054600181600116156101000203166002900480601f016020809104026020016040519081016040528092919081815260200182805460018160011615610100020316600290048015611c3c5780601f10611c1157610100808354040283529160200191611c3c565b820191906000526020600020905b815481529060010190602001808311611c1f57829003601f168201915b50505050509250955095509550955095509550909192939495565b600060149054906101000a900460ff16151515611c7357600080fd5b600073ffffffffffffffffffffffffffffffffffffffff168273ffffffffffffffffffffffffffffffffffffffff1614151515611caf57600080fd5b3073ffffffffffffffffffffffffffffffffffffffff168273ffffffffffffffffffffffffffffffffffffffff1614151515611cea57600080fd5b611cf433826120f6565b1515611cff57600080fd5b611d0a338383612224565b600181815481101515611d1957fe5b90600052602060002001600001600081819054906101000a900467ffffffffffffffff168092919060010191906101000a81548167ffffffffffffffff021916908367ffffffffffffffff160217905550505050565b600d6020528060005260406000206000915054906101000a900473ffffffffffffffffffffffffffffffffffffffff1681565b60106020528060005260406000206000915054906101000a900460ff1681565b600181815481101515611dd157fe5b90600052602060002001600001600081819054906101000a900467ffffffffffffffff168092919060010191906101000a81548167ffffffffffffffff021916908367ffffffffffffffff16021790555050600f600082815260200190815260200160002060006101000a81549060ff021916905550565b600c6020528060005260406000206000915090505481565b6001600f600083815260200190815260200160002060006101000a81548160ff02191690831515021790555050565b6060600060606000806000611ea487611708565b94506000851415611ee7576000604051908082528060200260200182016040528015611edf5781602001602082028038833980820191505090505b509550611fd3565b84604051908082528060200260200182016040528015611f165781602001602082028038833980820191505090505b509350611f21611a10565b925060009150600190505b8281111515611fcf578673ffffffffffffffffffffffffffffffffffffffff16600b600083815260200190815260200160002060009054906101000a900473ffffffffffffffffffffffffffffffffffffffff1673ffffffffffffffffffffffffffffffffffffffff161415611fc257808483815181101515611fab57fe5b906020019060200201818152505081806001019250505b8080600101915050611f2c565b8395505b5050505050919050565b6010600082815260200190815260200160002060006101000a81549060ff0219169055600e600082815260200190815260200160002060006101000a81549073ffffffffffffffffffffffffffffffffffffffff021916905550565b60018181548110151561204857fe5b90600052602060002001600001600881819054906101000a900467ffffffffffffffff168092919060010191906101000a81548167ffffffffffffffff021916908367ffffffffffffffff160217905550506010600082815260200190815260200160002060006101000a81549060ff0219169055600e600082815260200190815260200160002060006101000a81549073ffffffffffffffffffffffffffffffffffffffff021916905550565b60008273ffffffffffffffffffffffffffffffffffffffff16600b600084815260200190815260200160002060009054906101000a900473ffffffffffffffffffffffffffffffffffffffff1673ffffffffffffffffffffffffffffffffffffffff1614905092915050565b80600d600084815260200190815260200160002060006101000a81548173ffffffffffffffffffffffffffffffffffffffff021916908373ffffffffffffffffffffffffffffffffffffffff1602179055505050565b60008273ffffffffffffffffffffffffffffffffffffffff16600d600084815260200190815260200160002060009054906101000a900473ffffffffffffffffffffffffffffffffffffffff1673ffffffffffffffffffffffffffffffffffffffff1614905092915050565b600c60008373ffffffffffffffffffffffffffffffffffffffff1673ffffffffffffffffffffffffffffffffffffffff1681526020019081526020016000206000815480929190600101919050555081600b600083815260200190815260200160002060006101000a81548173ffffffffffffffffffffffffffffffffffffffff021916908373ffffffffffffffffffffffffffffffffffffffff160217905550600073ffffffffffffffffffffffffffffffffffffffff168373ffffffffffffffffffffffffffffffffffffffff1614151561238257600c60008473ffffffffffffffffffffffffffffffffffffffff1673ffffffffffffffffffffffffffffffffffffffff1681526020019081526020016000206000815480929190600190039190505550600d600082815260200190815260200160002060006101000a81549073ffffffffffffffffffffffffffffffffffffffff02191690555b7fddf252ad1be2c89b69c2b068fc378daa952ba7f163c4a11628f55a4df523b3ef838383604051808473ffffffffffffffffffffffffffffffffffffffff1673ffffffffffffffffffffffffffffffffffffffff1681526020018373ffffffffffffffffffffffffffffffffffffffff1673ffffffffffffffffffffffffffffffffffffffff168152602001828152602001935050505060405180910390a1505050565b60006124306125db565b60008061243b61145d565b11151561244757600080fd5b606060405190810160405280600067ffffffffffffffff168152602001600067ffffffffffffffff168152602001426fffffffffffffffffffffffffffffffff1681525091506001808390806001815401808255809150509060018203906000526020600020016000909192909190915060008201518160000160006101000a81548167ffffffffffffffff021916908367ffffffffffffffff16021790555060208201518160000160086101000a81548167ffffffffffffffff021916908367ffffffffffffffff16021790555060408201518160000160106101000a8154816fffffffffffffffffffffffffffffffff02191690836fffffffffffffffffffffffffffffffff160217905550505003905061256660008583612224565b7f2416e874741589429bc41abb136b7621382afa31b8b896a5a49bc815a00fac0d8185604051808381526020018273ffffffffffffffffffffffffffffffffffffffff1673ffffffffffffffffffffffffffffffffffffffff1681526020019250505060405180910390a18092505050919050565b606060405190810160405280600067ffffffffffffffff168152602001600067ffffffffffffffff16815260200160006fffffffffffffffffffffffffffffffff16815250905600a165627a7a7230582046a5dbad2fbce360fd08828fbd614d63f067a497d3cf325e33840be59ac9bcd60029",
  "source": "pragma solidity ^0.4.24;\r\n\r\nimport \"./BookTransaction.sol\";\r\nimport \"./BookCopyrightCreate.sol\";\r\n\r\n\r\ncontract BookOwnerShip is BookTransaction {    // \r\n\r\n    constructor(address _copyright, uint256 _price, uint256 _totalAmount, uint256 _limitAmount) public {    //\r\n        copyrightAddress = _copyright;\r\n        BookCopyrightCreate bookCopyright = BookCopyrightCreate(_copyright);        \r\n         (bookName, author, authorAddress, ipfsHash, timestamp) = bookCopyright.getCopyright(); \r\n        price = _price;\r\n        require(_totalAmount == uint32(_totalAmount));\r\n        require(_limitAmount == uint32(_totalAmount));\r\n        totalAmount = uint32(_totalAmount);\r\n        limitAmount = _limitAmount;\r\n        _creatBook(authorAddress);\r\n    }  \r\n\r\n    //       ipfsHash,   )\r\n    function getCopyrightInfo()  \r\n        external \r\n        view \r\n        returns (\r\n            string ,\r\n            string ,\r\n            uint256 ,\r\n            string ,\r\n            address ,\r\n            uint256 \r\n        )\r\n    {\r\n        return (bookName, author, totalAmount, ipfsHash, copyrightAddress, timestamp);\r\n    }\r\n\r\n    //        )\r\n    function getBookInfo(uint256 _tokenId)     \r\n        external \r\n        view \r\n        returns(\r\n            uint256,\r\n            uint256,\r\n            uint256,\r\n            address\r\n            // bool,\r\n            // bool\r\n        )\r\n    {\r\n        return(\r\n            books[_tokenId].transactions, \r\n            books[_tokenId].rents, \r\n            books[_tokenId].creatTime, \r\n            bookIndexToOwner[_tokenId]\r\n            // bookInSell(_tokenId), \r\n            // bookInRent(_tokenId)\r\n        );\r\n    }\r\n\r\n    function allowToRead(address _owner, uint256 _tokenId) external view returns(bool) {  // \r\n        return( (_owns(_owner, _tokenId) && rentAllowedToAddress[_tokenId] == address(0)) || rentAllowedToAddress[_tokenId] == _owner );  \r\n    }\r\n\r\n    function ownerOf(uint256 _tokenId) external view returns(address) {    //\r\n        address owner = bookIndexToOwner[_tokenId];\r\n        require(owner != address(0));\r\n        return owner;\r\n    } \r\n\r\n    function getApproved(uint256 _tokenId) external view returns (address) {\r\n        return bookIndexToApproved[_tokenId];\r\n    }\r\n\r\n    function tokenofOwner(address _owner) external view returns(uint256[] ownerTokens){ // \r\n        uint256 tokenCount = balanceOf(_owner);\r\n\r\n        if(tokenCount == 0) {\r\n            return new uint256[](0);\r\n        } else {\r\n            uint256[] memory result = new uint256[](tokenCount);\r\n            uint256 totalBooks = publishedAmount();\r\n            uint256 resultIndex = 0;\r\n\r\n            uint256 bookId;\r\n\r\n            for(bookId = 1; bookId <= totalBooks; bookId++) {\r\n                if(bookIndexToOwner[bookId] == _owner) {\r\n                    result[resultIndex] = bookId;\r\n                    resultIndex++;\r\n                }\r\n            }\r\n        }\r\n\r\n        return result;\r\n    }\r\n\r\n    function buyFromAuthor(address _buyer) external payable whenNotPaused{    // \r\n        require(balanceOf(msg.sender) < limitAmount);\r\n        require(books.length < totalAmount);\r\n        require(msg.value >= price);\r\n        _creatBook(_buyer);\r\n        authorAddress.transfer(price);\r\n        if(msg.value > price) {\r\n            uint256 excessPrice = msg.value - price;   // safemath ??? \r\n            _buyer.transfer(excessPrice);\r\n        }\r\n    }\r\n\r\n\r\n}",
  "sourcePath": "D:\\github\\ChainBook\\smartcontracts\\contracts\\BookOwnerShip.sol",
  "compiler": {
    "name": "solc",
    "version": "0.4.24+commit.e67f0147.Emscripten.clang"
  },
  "schemaVersion": "2.0.0",
  "updatedAt": "2018-06-04T02:56:08.816Z"
}