{
  "contractName": "BookBase",
  "abi": [
    {
      "constant": true,
      "inputs": [],
      "name": "authorAddress",
      "outputs": [
        {
          "name": "",
          "type": "address"
        }
      ],
      "payable": false,
      "stateMutability": "view",
      "type": "function"
    },
    {
      "constant": true,
      "inputs": [
        {
          "name": "",
          "type": "uint256"
        }
      ],
      "name": "bookIndexToOwner",
      "outputs": [
        {
          "name": "",
          "type": "address"
        }
      ],
      "payable": false,
      "stateMutability": "view",
      "type": "function"
    },
    {
      "constant": true,
      "inputs": [],
      "name": "ceoAddress",
      "outputs": [
        {
          "name": "",
          "type": "address"
        }
      ],
      "payable": false,
      "stateMutability": "view",
      "type": "function"
    },
    {
      "constant": true,
      "inputs": [],
      "name": "totalAmount",
      "outputs": [
        {
          "name": "",
          "type": "uint32"
        }
      ],
      "payable": false,
      "stateMutability": "view",
      "type": "function"
    },
    {
      "constant": true,
      "inputs": [],
      "name": "bookName",
      "outputs": [
        {
          "name": "",
          "type": "string"
        }
      ],
      "payable": false,
      "stateMutability": "view",
      "type": "function"
    },
    {
      "constant": true,
      "inputs": [
        {
          "name": "",
          "type": "uint256"
        }
      ],
      "name": "bookIndexTorentTime",
      "outputs": [
        {
          "name": "",
          "type": "uint256"
        }
      ],
      "payable": false,
      "stateMutability": "view",
      "type": "function"
    },
    {
      "constant": false,
      "inputs": [
        {
          "name": "_newCEO",
          "type": "address"
        }
      ],
      "name": "setCEO",
      "outputs": [],
      "payable": false,
      "stateMutability": "nonpayable",
      "type": "function"
    },
    {
      "constant": true,
      "inputs": [
        {
          "name": "",
          "type": "uint256"
        }
      ],
      "name": "rentAllowedToAddress",
      "outputs": [
        {
          "name": "",
          "type": "address"
        }
      ],
      "payable": false,
      "stateMutability": "view",
      "type": "function"
    },
    {
      "constant": false,
      "inputs": [],
      "name": "unpause",
      "outputs": [],
      "payable": false,
      "stateMutability": "nonpayable",
      "type": "function"
    },
    {
      "constant": true,
      "inputs": [
        {
          "name": "",
          "type": "uint256"
        }
      ],
      "name": "bookIndexToSell",
      "outputs": [
        {
          "name": "",
          "type": "bool"
        }
      ],
      "payable": false,
      "stateMutability": "view",
      "type": "function"
    },
    {
      "constant": true,
      "inputs": [],
      "name": "paused",
      "outputs": [
        {
          "name": "",
          "type": "bool"
        }
      ],
      "payable": false,
      "stateMutability": "view",
      "type": "function"
    },
    {
      "constant": true,
      "inputs": [],
      "name": "limitAmount",
      "outputs": [
        {
          "name": "",
          "type": "uint256"
        }
      ],
      "payable": false,
      "stateMutability": "view",
      "type": "function"
    },
    {
      "constant": false,
      "inputs": [],
      "name": "pause",
      "outputs": [],
      "payable": false,
      "stateMutability": "nonpayable",
      "type": "function"
    },
    {
      "constant": true,
      "inputs": [],
      "name": "price",
      "outputs": [
        {
          "name": "",
          "type": "uint256"
        }
      ],
      "payable": false,
      "stateMutability": "view",
      "type": "function"
    },
    {
      "constant": true,
      "inputs": [],
      "name": "author",
      "outputs": [
        {
          "name": "",
          "type": "string"
        }
      ],
      "payable": false,
      "stateMutability": "view",
      "type": "function"
    },
    {
      "constant": true,
      "inputs": [
        {
          "name": "",
          "type": "uint256"
        }
      ],
      "name": "bookIndexToApproved",
      "outputs": [
        {
          "name": "",
          "type": "address"
        }
      ],
      "payable": false,
      "stateMutability": "view",
      "type": "function"
    },
    {
      "constant": true,
      "inputs": [
        {
          "name": "",
          "type": "uint256"
        }
      ],
      "name": "bookIndexToRent",
      "outputs": [
        {
          "name": "",
          "type": "bool"
        }
      ],
      "payable": false,
      "stateMutability": "view",
      "type": "function"
    },
    {
      "constant": true,
      "inputs": [
        {
          "name": "",
          "type": "address"
        }
      ],
      "name": "ownershipTokenCount",
      "outputs": [
        {
          "name": "",
          "type": "uint256"
        }
      ],
      "payable": false,
      "stateMutability": "view",
      "type": "function"
    },
    {
      "anonymous": false,
      "inputs": [
        {
          "indexed": false,
          "name": "_from",
          "type": "address"
        },
        {
          "indexed": false,
          "name": "_to",
          "type": "address"
        },
        {
          "indexed": false,
          "name": "_tokenId",
          "type": "uint256"
        }
      ],
      "name": "Transfer",
      "type": "event"
    },
    {
      "anonymous": false,
      "inputs": [
        {
          "indexed": false,
          "name": "_from",
          "type": "address"
        },
        {
          "indexed": false,
          "name": "_to",
          "type": "address"
        },
        {
          "indexed": false,
          "name": "_tokenId",
          "type": "uint256"
        }
      ],
      "name": "Approval",
      "type": "event"
    },
    {
      "anonymous": false,
      "inputs": [
        {
          "indexed": false,
          "name": "_tokenId",
          "type": "uint256"
        },
        {
          "indexed": false,
          "name": "_owner",
          "type": "address"
        }
      ],
      "name": "CreatBook",
      "type": "event"
    },
    {
      "constant": true,
      "inputs": [],
      "name": "_remain",
      "outputs": [
        {
          "name": "",
          "type": "uint256"
        }
      ],
      "payable": false,
      "stateMutability": "view",
      "type": "function"
    }
  ],
  "bytecode": "0x60806040526040805190810160405280600381526020017f57574200000000000000000000000000000000000000000000000000000000008152506002908051906020019061004f9291906100d6565b506040805190810160405280600381526020017f77776200000000000000000000000000000000000000000000000000000000008152506003908051906020019061009b9291906100d6565b506103e8600460006101000a81548163ffffffff021916908363ffffffff160217905550600a6006553480156100d057600080fd5b5061017b565b828054600181600116156101000203166002900490600052602060002090601f016020900481019282601f1061011757805160ff1916838001178555610145565b82800160010185558215610145579182015b82811115610144578251825591602001919060010190610129565b5b5090506101529190610156565b5090565b61017891905b8082111561017457600081600090555060010161015c565b5090565b90565b610bb38061018a6000396000f300608060405260043610610107576000357c0100000000000000000000000000000000000000000000000000000000900463ffffffff16806302a867811461010c57806306787a0a146101635780630a0f8168146101d05780631a39d8ef146102275780631d45f3bf1461025e57806320ac96a0146102ee57806327d7874c1461032f57806336df851f146103725780633f4ba83a146103df57806343124138146103f65780634f3f8b7b146104215780635c975abb1461046657806378abafaf146104955780638456cb59146104c0578063a035b1fe146104d7578063a6c3e6b914610502578063ad87cbb414610592578063b4e318a5146105ff578063cec21acb14610644575b600080fd5b34801561011857600080fd5b5061012161069b565b604051808273ffffffffffffffffffffffffffffffffffffffff1673ffffffffffffffffffffffffffffffffffffffff16815260200191505060405180910390f35b34801561016f57600080fd5b5061018e600480360381019080803590602001909291905050506106c1565b604051808273ffffffffffffffffffffffffffffffffffffffff1673ffffffffffffffffffffffffffffffffffffffff16815260200191505060405180910390f35b3480156101dc57600080fd5b506101e56106f4565b604051808273ffffffffffffffffffffffffffffffffffffffff1673ffffffffffffffffffffffffffffffffffffffff16815260200191505060405180910390f35b34801561023357600080fd5b5061023c610719565b604051808263ffffffff1663ffffffff16815260200191505060405180910390f35b34801561026a57600080fd5b5061027361072f565b6040518080602001828103825283818151815260200191508051906020019080838360005b838110156102b3578082015181840152602081019050610298565b50505050905090810190601f1680156102e05780820380516001836020036101000a031916815260200191505b509250505060405180910390f35b3480156102fa57600080fd5b50610319600480360381019080803590602001909291905050506107cd565b6040518082815260200191505060405180910390f35b34801561033b57600080fd5b50610370600480360381019080803573ffffffffffffffffffffffffffffffffffffffff1690602001909291905050506107e5565b005b34801561037e57600080fd5b5061039d600480360381019080803590602001909291905050506108bf565b604051808273ffffffffffffffffffffffffffffffffffffffff1673ffffffffffffffffffffffffffffffffffffffff16815260200191505060405180910390f35b3480156103eb57600080fd5b506103f46108f2565b005b34801561040257600080fd5b5061040b610984565b6040518082815260200191505060405180910390f35b34801561042d57600080fd5b5061044c600480360381019080803590602001909291905050506109ab565b604051808215151515815260200191505060405180910390f35b34801561047257600080fd5b5061047b6109cb565b604051808215151515815260200191505060405180910390f35b3480156104a157600080fd5b506104aa6109de565b6040518082815260200191505060405180910390f35b3480156104cc57600080fd5b506104d56109e4565b005b3480156104e357600080fd5b506104ec610a78565b6040518082815260200191505060405180910390f35b34801561050e57600080fd5b50610517610a7e565b6040518080602001828103825283818151815260200191508051906020019080838360005b8381101561055757808201518184015260208101905061053c565b50505050905090810190601f1680156105845780820380516001836020036101000a031916815260200191505b509250505060405180910390f35b34801561059e57600080fd5b506105bd60048036038101908080359060200190929190505050610b1c565b604051808273ffffffffffffffffffffffffffffffffffffffff1673ffffffffffffffffffffffffffffffffffffffff16815260200191505060405180910390f35b34801561060b57600080fd5b5061062a60048036038101908080359060200190929190505050610b4f565b604051808215151515815260200191505060405180910390f35b34801561065057600080fd5b50610685600480360381019080803573ffffffffffffffffffffffffffffffffffffffff169060200190929190505050610b6f565b6040518082815260200191505060405180910390f35b600960009054906101000a900473ffffffffffffffffffffffffffffffffffffffff1681565b600b6020528060005260406000206000915054906101000a900473ffffffffffffffffffffffffffffffffffffffff1681565b6000809054906101000a900473ffffffffffffffffffffffffffffffffffffffff1681565b600460009054906101000a900463ffffffff1681565b60028054600181600116156101000203166002900480601f0160208091040260200160405190810160405280929190818152602001828054600181600116156101000203166002900480156107c55780601f1061079a576101008083540402835291602001916107c5565b820191906000526020600020905b8154815290600101906020018083116107a857829003601f168201915b505050505081565b600f6020528060005260406000206000915090505481565b6000809054906101000a900473ffffffffffffffffffffffffffffffffffffffff1673ffffffffffffffffffffffffffffffffffffffff163373ffffffffffffffffffffffffffffffffffffffff1614151561084057600080fd5b600073ffffffffffffffffffffffffffffffffffffffff168173ffffffffffffffffffffffffffffffffffffffff161415151561087c57600080fd5b806000806101000a81548173ffffffffffffffffffffffffffffffffffffffff021916908373ffffffffffffffffffffffffffffffffffffffff16021790555050565b600e6020528060005260406000206000915054906101000a900473ffffffffffffffffffffffffffffffffffffffff1681565b6000809054906101000a900473ffffffffffffffffffffffffffffffffffffffff1673ffffffffffffffffffffffffffffffffffffffff163373ffffffffffffffffffffffffffffffffffffffff1614151561094d57600080fd5b600060149054906101000a900460ff16151561096857600080fd5b60008060146101000a81548160ff021916908315150217905550565b6000600180549050600460009054906101000a900463ffffffff1663ffffffff1603905090565b60106020528060005260406000206000915054906101000a900460ff1681565b600060149054906101000a900460ff1681565b60065481565b6000809054906101000a900473ffffffffffffffffffffffffffffffffffffffff1673ffffffffffffffffffffffffffffffffffffffff163373ffffffffffffffffffffffffffffffffffffffff16141515610a3f57600080fd5b600060149054906101000a900460ff16151515610a5b57600080fd5b6001600060146101000a81548160ff021916908315150217905550565b60055481565b60038054600181600116156101000203166002900480601f016020809104026020016040519081016040528092919081815260200182805460018160011615610100020316600290048015610b145780601f10610ae957610100808354040283529160200191610b14565b820191906000526020600020905b815481529060010190602001808311610af757829003601f168201915b505050505081565b600d6020528060005260406000206000915054906101000a900473ffffffffffffffffffffffffffffffffffffffff1681565b60116020528060005260406000206000915054906101000a900460ff1681565b600c60205280600052604060002060009150905054815600a165627a7a7230582009d07178bd72217501e63415a66d4dec599ddef95c6ae0c93b973efae4d63b520029",
  "source": "pragma solidity ^0.4.21;\n\nimport \"./AccessControl.sol\";\n\ncontract BookBase is AccessControl {      // 书籍的基本参数\n\n    event Transfer(address _from, address _to, uint256 _tokenId);\n    event Approval(address _from, address _to, uint256 _tokenId);\n    event CreatBook(uint256 _tokenId, address _owner);\n\n    struct Book {\n        uint64 transactions;    // 买卖次数\n        uint64 rents;        // 租赁次数\n        uint128 creatTime;    // 发布时间\n    }\n\n    Book[] books;   //所有书籍\n\n    // 书籍基本参数\n    string public bookName = \"WWB\";     // 书名\n    string public author = \"wwb\";   // 作者\n    uint32 public totalAmount = 1000;   // 总发行量\n    uint256 public price;  // 发行价格\n    uint256 public limitAmount =  10;    // 设置每个地址最多拥有几本书\n    // copyright\n    string internal ipfsHash;    // 书本ipfs-hash\n    address internal copyrightAddress;    // 版权地址\n    address public authorAddress;   // 作者地址\n    uint256 timestamp;  // 版权登记时间\n\n    mapping (uint256 => address) public bookIndexToOwner;       // 某本图书的拥有者\n    mapping (address => uint256) public ownershipTokenCount;    // 某个地址拥有的图书数量\n    mapping (uint256 => address) public bookIndexToApproved;    // 第三方中介地址\n    mapping (uint256 => address) public rentAllowedToAddress;   // 租赁图书的地址, 正在出租\n    mapping (uint256 => uint256) public bookIndexTorentTime;    // 租赁到期时间\n    mapping (uint256 => bool) public bookIndexToSell;           // 是否正在出售\n    mapping (uint256 => bool) public bookIndexToRent;           // 是否正在租赁\n\n    function _transfer(address _from, address _to, uint256 _tokenId) internal {\n        require(now > bookIndexTorentTime[_tokenId]);\n        // require(_to != address(0));\n        require(_to != address(this));\n        require(!bookIndexToRent[_tokenId]);\n        // require(bookIndexToOwner[_tokenId] == msg.sender);\n        require(!bookIndexToSell[_tokenId]);\n        ownershipTokenCount[_to]++;\n\n        bookIndexToOwner[_tokenId] = _to;\n\n         if (_from != address(0)) {                         // 不是合约产生的\n            ownershipTokenCount[_from]--;\n            delete rentAllowedToAddress[_tokenId];\n            delete bookIndexToApproved[_tokenId];\n            delete bookIndexTorentTime[_tokenId];\n        }\n        emit Transfer(_from, _to, _tokenId);\n    }\n\n    function _creatBook(address _owner) internal returns(uint256) {         // 由买家执行\n        require(_remain() > 0);                                             // 剩余图书大于0\n        Book memory _book = Book(uint64(0),uint64(0),uint128(now));         // 创建图书\n        uint256 tokenId = books.push(_book) - 1;\n        _transfer(0, _owner, tokenId);                                      // 将图书转移给买家\n        emit CreatBook(tokenId, _owner);                                    // 发送图书创建事件\n        return tokenId;                                                     // 返回tokenId\n    }\n\n      function _remain() public view returns(uint256) {                       // 查询剩余图书\n        return totalAmount - books.length;      // safemath???\n    }\n\n}\n",
  "sourcePath": "F:\\ChainBook\\smartcontracts\\contracts\\BookBase.sol",
  "compiler": {
    "name": "solc",
    "version": "0.4.24+commit.e67f0147.Emscripten.clang"
  },
  "schemaVersion": "2.0.0",
  "updatedAt": "2018-06-11T05:42:50.473Z"
}