{
  "contractName": "BookCopyrightCreate",
  "abi": [
    {
      "constant": true,
      "inputs": [],
      "name": "ceoAddress",
      "outputs": [
        {
          "name": "",
          "type": "address"
        }
      ],
      "payable": false,
      "stateMutability": "view",
      "type": "function"
    },
    {
      "constant": false,
      "inputs": [
        {
          "name": "_newCEO",
          "type": "address"
        }
      ],
      "name": "setCEO",
      "outputs": [],
      "payable": false,
      "stateMutability": "nonpayable",
      "type": "function"
    },
    {
      "constant": false,
      "inputs": [],
      "name": "unpause",
      "outputs": [],
      "payable": false,
      "stateMutability": "nonpayable",
      "type": "function"
    },
    {
      "constant": true,
      "inputs": [],
      "name": "paused",
      "outputs": [
        {
          "name": "",
          "type": "bool"
        }
      ],
      "payable": false,
      "stateMutability": "view",
      "type": "function"
    },
    {
      "constant": false,
      "inputs": [],
      "name": "pause",
      "outputs": [],
      "payable": false,
      "stateMutability": "nonpayable",
      "type": "function"
    },
    {
      "constant": true,
      "inputs": [],
      "name": "fees",
      "outputs": [
        {
          "name": "",
          "type": "uint256"
        }
      ],
      "payable": false,
      "stateMutability": "view",
      "type": "function"
    },
    {
      "inputs": [],
      "payable": false,
      "stateMutability": "nonpayable",
      "type": "constructor"
    },
    {
      "anonymous": false,
      "inputs": [
        {
          "indexed": false,
          "name": "_bookName",
          "type": "string"
        },
        {
          "indexed": false,
          "name": "authorName",
          "type": "string"
        },
        {
          "indexed": false,
          "name": "_authorAddress",
          "type": "address"
        },
        {
          "indexed": false,
          "name": "_copyrightAddress",
          "type": "string"
        },
        {
          "indexed": false,
          "name": "_timestamp",
          "type": "uint256"
        }
      ],
      "name": "_RegisterCopyright",
      "type": "event"
    },
    {
      "constant": false,
      "inputs": [
        {
          "name": "_fees",
          "type": "uint256"
        }
      ],
      "name": "setFees",
      "outputs": [],
      "payable": false,
      "stateMutability": "nonpayable",
      "type": "function"
    },
    {
      "constant": true,
      "inputs": [],
      "name": "getFees",
      "outputs": [
        {
          "name": "",
          "type": "uint256"
        }
      ],
      "payable": false,
      "stateMutability": "view",
      "type": "function"
    },
    {
      "constant": true,
      "inputs": [],
      "name": "getBookNum",
      "outputs": [
        {
          "name": "",
          "type": "uint256"
        }
      ],
      "payable": false,
      "stateMutability": "view",
      "type": "function"
    },
    {
      "constant": false,
      "inputs": [
        {
          "name": "_bookNum",
          "type": "uint256"
        }
      ],
      "name": "setBookNum",
      "outputs": [],
      "payable": false,
      "stateMutability": "nonpayable",
      "type": "function"
    },
    {
      "constant": false,
      "inputs": [
        {
          "name": "_bookName",
          "type": "string"
        },
        {
          "name": "_authorName",
          "type": "string"
        },
        {
          "name": "_authorAddress",
          "type": "address"
        },
        {
          "name": "_ipfsHash",
          "type": "string"
        }
      ],
      "name": "registerCopyright",
      "outputs": [
        {
          "name": "",
          "type": "uint256"
        }
      ],
      "payable": true,
      "stateMutability": "payable",
      "type": "function"
    },
    {
      "constant": true,
      "inputs": [
        {
          "name": "BookCopyrightId",
          "type": "uint256"
        }
      ],
      "name": "getCopyright",
      "outputs": [
        {
          "name": "",
          "type": "string"
        },
        {
          "name": "",
          "type": "string"
        },
        {
          "name": "",
          "type": "address"
        },
        {
          "name": "",
          "type": "string"
        },
        {
          "name": "",
          "type": "uint256"
        }
      ],
      "payable": false,
      "stateMutability": "view",
      "type": "function"
    }
  ],
  "bytecode": "0x60806040526000600155600060025534801561001a57600080fd5b50336000806101000a81548173ffffffffffffffffffffffffffffffffffffffff021916908373ffffffffffffffffffffffffffffffffffffffff1602179055506110b78061006a6000396000f3006080604052600436106100ba576000357c0100000000000000000000000000000000000000000000000000000000900463ffffffff1680630a0f8168146100bf5780631d083b00146101165780631fb84f221461014357806327d7874c146101d55780633d18678e146102185780633f4ba83a146102455780635c975abb1461025c5780635d1535af1461028b5780636f4eaff1146102b65780638456cb591461046e5780639af1d35a14610485578063db8d55f1146104b0575b600080fd5b3480156100cb57600080fd5b506100d46104db565b604051808273ffffffffffffffffffffffffffffffffffffffff1673ffffffffffffffffffffffffffffffffffffffff16815260200191505060405180910390f35b34801561012257600080fd5b5061014160048036038101908080359060200190929190505050610500565b005b6101bf600480360381019080803590602001908201803590602001919091929391929390803590602001908201803590602001919091929391929390803573ffffffffffffffffffffffffffffffffffffffff169060200190929190803590602001908201803590602001919091929391929390505050610565565b6040518082815260200191505060405180910390f35b3480156101e157600080fd5b50610216600480360381019080803573ffffffffffffffffffffffffffffffffffffffff169060200190929190505050610a5c565b005b34801561022457600080fd5b5061024360048036038101908080359060200190929190505050610b36565b005b34801561025157600080fd5b5061025a610b9b565b005b34801561026857600080fd5b50610271610c2d565b604051808215151515815260200191505060405180910390f35b34801561029757600080fd5b506102a0610c40565b6040518082815260200191505060405180910390f35b3480156102c257600080fd5b506102e160048036038101908080359060200190929190505050610c4a565b6040518080602001806020018673ffffffffffffffffffffffffffffffffffffffff1673ffffffffffffffffffffffffffffffffffffffff16815260200180602001858152602001848103845289818151815260200191508051906020019080838360005b83811015610361578082015181840152602081019050610346565b50505050905090810190601f16801561038e5780820380516001836020036101000a031916815260200191505b50848103835288818151815260200191508051906020019080838360005b838110156103c75780820151818401526020810190506103ac565b50505050905090810190601f1680156103f45780820380516001836020036101000a031916815260200191505b50848103825286818151815260200191508051906020019080838360005b8381101561042d578082015181840152602081019050610412565b50505050905090810190601f16801561045a5780820380516001836020036101000a031916815260200191505b509850505050505050505060405180910390f35b34801561047a57600080fd5b50610483610efc565b005b34801561049157600080fd5b5061049a610f90565b6040518082815260200191505060405180910390f35b3480156104bc57600080fd5b506104c5610f96565b6040518082815260200191505060405180910390f35b6000809054906101000a900473ffffffffffffffffffffffffffffffffffffffff1681565b6000809054906101000a900473ffffffffffffffffffffffffffffffffffffffff1673ffffffffffffffffffffffffffffffffffffffff163373ffffffffffffffffffffffffffffffffffffffff1614151561055b57600080fd5b8060028190555050565b600080610570610fa0565b600080600154341015151561058457600080fd5b42935060a0604051908101604052808d8d8080601f01602080910402602001604051908101604052809392919081815260200183838082843782019150505050505081526020018b8b8080601f01602080910402602001604051908101604052809392919081815260200183838082843782019150505050505081526020018973ffffffffffffffffffffffffffffffffffffffff16815260200188888080601f016020809104026020016040519081016040528093929190818152602001838380828437820191505050505050815260200185815250925060016008849080600181540180825580915050906001820390600052602060002090600502016000909192909190915060008201518160000190805190602001906106a9929190610fe6565b5060208201518160010190805190602001906106c6929190610fe6565b5060408201518160020160006101000a81548173ffffffffffffffffffffffffffffffffffffffff021916908373ffffffffffffffffffffffffffffffffffffffff160217905550606082015181600301908051906020019061072a929190610fe6565b506080820151816004015550500391507f370f59359a69ca4d9c8d749154cac481fd044a210e93fc5b61857fdfaeb5402160036004600560009054906101000a900473ffffffffffffffffffffffffffffffffffffffff166006886040518080602001806020018673ffffffffffffffffffffffffffffffffffffffff1673ffffffffffffffffffffffffffffffffffffffff1681526020018060200185815260200184810384528981815460018160011615610100020316600290048152602001915080546001816001161561010002031660029004801561084e5780601f106108235761010080835404028352916020019161084e565b820191906000526020600020905b81548152906001019060200180831161083157829003601f168201915b50508481038352888181546001816001161561010002031660029004815260200191508054600181600116156101000203166002900480156108d15780601f106108a6576101008083540402835291602001916108d1565b820191906000526020600020905b8154815290600101906020018083116108b457829003601f168201915b50508481038252868181546001816001161561010002031660029004815260200191508054600181600116156101000203166002900480156109545780601f1061092957610100808354040283529160200191610954565b820191906000526020600020905b81548152906001019060200180831161093757829003601f168201915b50509850505050505050505060405180910390a160006001541415156109df576000809054906101000a900473ffffffffffffffffffffffffffffffffffffffff1673ffffffffffffffffffffffffffffffffffffffff166108fc6001549081150290604051600060405180830381858888f193505050501580156109dd573d6000803e3d6000fd5b505b60015434039050600081141515610a38573373ffffffffffffffffffffffffffffffffffffffff166108fc829081150290604051600060405180830381858888f19350505050158015610a36573d6000803e3d6000fd5b505b60026000815480929190600101919050555081945050505050979650505050505050565b6000809054906101000a900473ffffffffffffffffffffffffffffffffffffffff1673ffffffffffffffffffffffffffffffffffffffff163373ffffffffffffffffffffffffffffffffffffffff16141515610ab757600080fd5b600073ffffffffffffffffffffffffffffffffffffffff168173ffffffffffffffffffffffffffffffffffffffff1614151515610af357600080fd5b806000806101000a81548173ffffffffffffffffffffffffffffffffffffffff021916908373ffffffffffffffffffffffffffffffffffffffff16021790555050565b6000809054906101000a900473ffffffffffffffffffffffffffffffffffffffff1673ffffffffffffffffffffffffffffffffffffffff163373ffffffffffffffffffffffffffffffffffffffff16141515610b9157600080fd5b8060018190555050565b6000809054906101000a900473ffffffffffffffffffffffffffffffffffffffff1673ffffffffffffffffffffffffffffffffffffffff163373ffffffffffffffffffffffffffffffffffffffff16141515610bf657600080fd5b600060149054906101000a900460ff161515610c1157600080fd5b60008060146101000a81548160ff021916908315150217905550565b600060149054906101000a900460ff1681565b6000600254905090565b606080600060606000600886815481101515610c6257fe5b9060005260206000209060050201600001600887815481101515610c8257fe5b9060005260206000209060050201600101600888815481101515610ca257fe5b906000526020600020906005020160020160009054906101000a900473ffffffffffffffffffffffffffffffffffffffff16600889815481101515610ce357fe5b906000526020600020906005020160030160088a815481101515610d0357fe5b906000526020600020906005020160040154848054600181600116156101000203166002900480601f016020809104026020016040519081016040528092919081815260200182805460018160011615610100020316600290048015610daa5780601f10610d7f57610100808354040283529160200191610daa565b820191906000526020600020905b815481529060010190602001808311610d8d57829003601f168201915b50505050509450838054600181600116156101000203166002900480601f016020809104026020016040519081016040528092919081815260200182805460018160011615610100020316600290048015610e465780601f10610e1b57610100808354040283529160200191610e46565b820191906000526020600020905b815481529060010190602001808311610e2957829003601f168201915b50505050509350818054600181600116156101000203166002900480601f016020809104026020016040519081016040528092919081815260200182805460018160011615610100020316600290048015610ee25780601f10610eb757610100808354040283529160200191610ee2565b820191906000526020600020905b815481529060010190602001808311610ec557829003601f168201915b505050505091509450945094509450945091939590929450565b6000809054906101000a900473ffffffffffffffffffffffffffffffffffffffff1673ffffffffffffffffffffffffffffffffffffffff163373ffffffffffffffffffffffffffffffffffffffff16141515610f5757600080fd5b600060149054906101000a900460ff16151515610f7357600080fd5b6001600060146101000a81548160ff021916908315150217905550565b60015481565b6000600154905090565b60a0604051908101604052806060815260200160608152602001600073ffffffffffffffffffffffffffffffffffffffff16815260200160608152602001600081525090565b828054600181600116156101000203166002900490600052602060002090601f016020900481019282601f1061102757805160ff1916838001178555611055565b82800160010185558215611055579182015b82811115611054578251825591602001919060010190611039565b5b5090506110629190611066565b5090565b61108891905b8082111561108457600081600090555060010161106c565b5090565b905600a165627a7a7230582057dd49f1a90a4673087a956fa474c1d77bc41cf4cbde639ababad8e3b44692ed0029",
  "source": "pragma solidity ^0.4.21;\n\nimport \"./AccessControl.sol\";\n\n\n// @dev 版权注册合约\n// @dev 合约说明， 由于版权注册登录信息不多，直接生成一个合约， 通过合约地址， 可以获取相关信息\n// @dev 作者首先上传资源到服务器，获取ipfs二次哈希，然后调用合约登记版权\n// @dev 第二种方案，  版权注册不生成合约， 而是在注册合约上面添加数据， 通过合约地址和版权tokenId 获取相关信息，一个版权就是一个ERC721\n// @param fees  版权注册手续费\n// @param bookName  书名\n// @param authorName 作者笔名\n// @param authorAddress 收款地址\n// @param ipfsHash  书本ipfs二次哈希\n// @param timestamp 版权登记时间， 返回从1970到现在的秒数\n// @function setFees  设置版权注册费用\n// @function registerCopyright 注册版权\n// @function getCopyrightInfo 获取版权信息\ncontract BookCopyrightCreate is AccessControl{           //目前的合约编写均没有考虑到其安全性和健壮性\n\n    constructor() public {\n        ceoAddress = msg.sender;\n    }\n\n    uint256 public fees = 0;\n    uint256 private bookNum = 0;     //每次添加书籍时,都需要使用set函数,使其加1\n\n    string private bookName;\n    string private authorName;\n    address private authorAddress;\n    string private ipfsHash;\n    uint256 private timestamp;\n\n    struct bookCopyRight{\n        string bookName;\n        string authorName;\n        address authorAddress;\n        string ipfsHash;\n        uint256 timestamp;\n    }\n\n    bookCopyRight[] private bookCopyrights;\n\n    event _RegisterCopyright(string _bookName, string authorName, address _authorAddress, string _copyrightAddress, uint256 _timestamp);\n\n    function setFees(uint256 _fees) external onlyCEO{   // 设置版权登记费用\n        fees = _fees;\n    }\n\n    function getFees() external view returns(uint256) {\n      return fees;\n    }\n\n    function getBookNum() external view returns(uint256) {   //获得已获得当前书籍版权个数\n        return bookNum;\n    }\n\n    function setBookNum(uint256 _bookNum) external onlyCEO {\n        bookNum = _bookNum;\n    }\n\n    // 注册版权\n    // @param  _bookName, _authorName, _authorAddress, _ipfsHash\n    function registerCopyright(\n        string _bookName,\n        string _authorName,\n        address _authorAddress,\n        string _ipfsHash\n        )\n        external\n        payable\n        returns (uint256)\n    {  // 注册版权\n        require(msg.value >= fees);\n        uint256 timestamp_now = now;\n        bookCopyRight memory _bookCopyRight = bookCopyRight({\n            bookName: _bookName,\n            authorName: _authorName,\n            authorAddress: _authorAddress,\n            ipfsHash: _ipfsHash,\n            timestamp: timestamp_now\n        });\n\n        uint256 newBookCopyrightId = bookCopyrights.push(_bookCopyRight) - 1;\n        emit _RegisterCopyright(bookName, authorName, authorAddress, ipfsHash, timestamp_now);\n\n        if(fees != 0) {                              //记录版权所需要消耗的费用\n            ceoAddress.transfer(fees);\n        }\n\n        uint256 excessPrice = msg.value - fees;\n        if(excessPrice != 0) {\n            msg.sender.transfer(excessPrice);\n        }\n        bookNum++;\n        return newBookCopyrightId;     //这个版权的ID需要存储在图书中,需要在js的后端来进行实现\n    }\n\n    // @dev 获取版权相关信息\n    // @return 书名， 作者笔名， 作者地址（用于收款）， ipfsHash， 登记时间\n    function getCopyright(uint256 BookCopyrightId)\n        external\n        view\n        returns(\n            string,\n            string,\n            address,\n            string,\n            uint256\n        )\n    {  // 获得版权信息\n        return (bookCopyrights[BookCopyrightId].bookName, bookCopyrights[BookCopyrightId].authorName, bookCopyrights[BookCopyrightId].authorAddress, bookCopyrights[BookCopyrightId].ipfsHash, bookCopyrights[BookCopyrightId].timestamp);\n    }\n\n}\n",
  "sourcePath": "F:\\ChainBook\\smartcontracts\\contracts\\BookCopyrightCreate.sol",
  "compiler": {
    "name": "solc",
    "version": "0.4.24+commit.e67f0147.Emscripten.clang"
  },
  "schemaVersion": "2.0.0",
  "updatedAt": "2018-06-11T15:18:35.829Z"
}