{
  "contractName": "BookBase",
  "abi": [
    {
      "constant": true,
      "inputs": [],
      "name": "authorAddress",
      "outputs": [
        {
          "name": "",
          "type": "address"
        }
      ],
      "payable": false,
      "stateMutability": "view",
      "type": "function"
    },
    {
      "constant": true,
      "inputs": [],
      "name": "buyAndSell",
      "outputs": [
        {
          "name": "",
          "type": "address"
        }
      ],
      "payable": false,
      "stateMutability": "view",
      "type": "function"
    },
    {
      "constant": true,
      "inputs": [
        {
          "name": "",
          "type": "uint256"
        }
      ],
      "name": "bookIndexToOwner",
      "outputs": [
        {
          "name": "",
          "type": "address"
        }
      ],
      "payable": false,
      "stateMutability": "view",
      "type": "function"
    },
    {
      "constant": true,
      "inputs": [],
      "name": "ceoAddress",
      "outputs": [
        {
          "name": "",
          "type": "address"
        }
      ],
      "payable": false,
      "stateMutability": "view",
      "type": "function"
    },
    {
      "constant": true,
      "inputs": [],
      "name": "totalAmount",
      "outputs": [
        {
          "name": "",
          "type": "uint32"
        }
      ],
      "payable": false,
      "stateMutability": "view",
      "type": "function"
    },
    {
      "constant": true,
      "inputs": [],
      "name": "bookName",
      "outputs": [
        {
          "name": "",
          "type": "string"
        }
      ],
      "payable": false,
      "stateMutability": "view",
      "type": "function"
    },
    {
      "constant": false,
      "inputs": [
        {
          "name": "_newCEO",
          "type": "address"
        }
      ],
      "name": "setCEO",
      "outputs": [],
      "payable": false,
      "stateMutability": "nonpayable",
      "type": "function"
    },
    {
      "constant": true,
      "inputs": [
        {
          "name": "",
          "type": "uint256"
        }
      ],
      "name": "rentAllowedToAddress",
      "outputs": [
        {
          "name": "",
          "type": "address"
        }
      ],
      "payable": false,
      "stateMutability": "view",
      "type": "function"
    },
    {
      "constant": false,
      "inputs": [],
      "name": "unpause",
      "outputs": [],
      "payable": false,
      "stateMutability": "nonpayable",
      "type": "function"
    },
    {
      "constant": true,
      "inputs": [],
      "name": "copyrightHash",
      "outputs": [
        {
          "name": "",
          "type": "string"
        }
      ],
      "payable": false,
      "stateMutability": "view",
      "type": "function"
    },
    {
      "constant": true,
      "inputs": [],
      "name": "rentAndLease",
      "outputs": [
        {
          "name": "",
          "type": "address"
        }
      ],
      "payable": false,
      "stateMutability": "view",
      "type": "function"
    },
    {
      "constant": true,
      "inputs": [],
      "name": "paused",
      "outputs": [
        {
          "name": "",
          "type": "bool"
        }
      ],
      "payable": false,
      "stateMutability": "view",
      "type": "function"
    },
    {
      "constant": false,
      "inputs": [],
      "name": "pause",
      "outputs": [],
      "payable": false,
      "stateMutability": "nonpayable",
      "type": "function"
    },
    {
      "constant": true,
      "inputs": [],
      "name": "author",
      "outputs": [
        {
          "name": "",
          "type": "string"
        }
      ],
      "payable": false,
      "stateMutability": "view",
      "type": "function"
    },
    {
      "constant": true,
      "inputs": [
        {
          "name": "",
          "type": "uint256"
        }
      ],
      "name": "bookIndexToApproved",
      "outputs": [
        {
          "name": "",
          "type": "address"
        }
      ],
      "payable": false,
      "stateMutability": "view",
      "type": "function"
    },
    {
      "constant": true,
      "inputs": [
        {
          "name": "",
          "type": "address"
        }
      ],
      "name": "ownershipTokenCount",
      "outputs": [
        {
          "name": "",
          "type": "uint256"
        }
      ],
      "payable": false,
      "stateMutability": "view",
      "type": "function"
    },
    {
      "anonymous": false,
      "inputs": [
        {
          "indexed": false,
          "name": "_from",
          "type": "address"
        },
        {
          "indexed": false,
          "name": "_to",
          "type": "address"
        },
        {
          "indexed": false,
          "name": "_tokenId",
          "type": "uint256"
        }
      ],
      "name": "Transfer",
      "type": "event"
    },
    {
      "anonymous": false,
      "inputs": [
        {
          "indexed": false,
          "name": "bookamount",
          "type": "uint256"
        }
      ],
      "name": "CreatBook",
      "type": "event"
    },
    {
      "constant": true,
      "inputs": [],
      "name": "_remain",
      "outputs": [
        {
          "name": "",
          "type": "uint256"
        }
      ],
      "payable": false,
      "stateMutability": "view",
      "type": "function"
    }
  ],
  "bytecode": "0x608060405260008060006101000a81548173ffffffffffffffffffffffffffffffffffffffff021916908373ffffffffffffffffffffffffffffffffffffffff1602179055506040805190810160405280600481526020017f746573740000000000000000000000000000000000000000000000000000000081525060029080519060200190610090929190610112565b506040805190810160405280600381526020017f7777620000000000000000000000000000000000000000000000000000000000815250600390805190602001906100dc929190610112565b506103e8600460006101000a81548163ffffffff021916908363ffffffff16021790555034801561010c57600080fd5b506101b7565b828054600181600116156101000203166002900490600052602060002090601f016020900481019282601f1061015357805160ff1916838001178555610181565b82800160010185558215610181579182015b82811115610180578251825591602001919060010190610165565b5b50905061018e9190610192565b5090565b6101b491905b808211156101b0576000816000905550600101610198565b5090565b90565b610c40806101c66000396000f3006080604052600436106100f1576000357c0100000000000000000000000000000000000000000000000000000000900463ffffffff16806302a86781146100f65780630469a6021461014d57806306787a0a146101a45780630a0f8168146102115780631a39d8ef146102685780631d45f3bf1461029f57806327d7874c1461032f57806336df851f146103725780633f4ba83a146103df5780634105a51a146103f6578063431241381461048657806344dd9bd7146104b15780635c975abb146105085780638456cb5914610537578063a6c3e6b91461054e578063ad87cbb4146105de578063cec21acb1461064b575b600080fd5b34801561010257600080fd5b5061010b6106a2565b604051808273ffffffffffffffffffffffffffffffffffffffff1673ffffffffffffffffffffffffffffffffffffffff16815260200191505060405180910390f35b34801561015957600080fd5b506101626106c8565b604051808273ffffffffffffffffffffffffffffffffffffffff1673ffffffffffffffffffffffffffffffffffffffff16815260200191505060405180910390f35b3480156101b057600080fd5b506101cf600480360381019080803590602001909291905050506106ee565b604051808273ffffffffffffffffffffffffffffffffffffffff1673ffffffffffffffffffffffffffffffffffffffff16815260200191505060405180910390f35b34801561021d57600080fd5b50610226610721565b604051808273ffffffffffffffffffffffffffffffffffffffff1673ffffffffffffffffffffffffffffffffffffffff16815260200191505060405180910390f35b34801561027457600080fd5b5061027d610746565b604051808263ffffffff1663ffffffff16815260200191505060405180910390f35b3480156102ab57600080fd5b506102b461075c565b6040518080602001828103825283818151815260200191508051906020019080838360005b838110156102f45780820151818401526020810190506102d9565b50505050905090810190601f1680156103215780820380516001836020036101000a031916815260200191505b509250505060405180910390f35b34801561033b57600080fd5b50610370600480360381019080803573ffffffffffffffffffffffffffffffffffffffff1690602001909291905050506107fa565b005b34801561037e57600080fd5b5061039d600480360381019080803590602001909291905050506108d4565b604051808273ffffffffffffffffffffffffffffffffffffffff1673ffffffffffffffffffffffffffffffffffffffff16815260200191505060405180910390f35b3480156103eb57600080fd5b506103f4610907565b005b34801561040257600080fd5b5061040b610999565b6040518080602001828103825283818151815260200191508051906020019080838360005b8381101561044b578082015181840152602081019050610430565b50505050905090810190601f1680156104785780820380516001836020036101000a031916815260200191505b509250505060405180910390f35b34801561049257600080fd5b5061049b610a37565b6040518082815260200191505060405180910390f35b3480156104bd57600080fd5b506104c6610a5e565b604051808273ffffffffffffffffffffffffffffffffffffffff1673ffffffffffffffffffffffffffffffffffffffff16815260200191505060405180910390f35b34801561051457600080fd5b5061051d610a84565b604051808215151515815260200191505060405180910390f35b34801561054357600080fd5b5061054c610a97565b005b34801561055a57600080fd5b50610563610b2b565b6040518080602001828103825283818151815260200191508051906020019080838360005b838110156105a3578082015181840152602081019050610588565b50505050905090810190601f1680156105d05780820380516001836020036101000a031916815260200191505b509250505060405180910390f35b3480156105ea57600080fd5b5061060960048036038101908080359060200190929190505050610bc9565b604051808273ffffffffffffffffffffffffffffffffffffffff1673ffffffffffffffffffffffffffffffffffffffff16815260200191505060405180910390f35b34801561065757600080fd5b5061068c600480360381019080803573ffffffffffffffffffffffffffffffffffffffff169060200190929190505050610bfc565b6040518082815260200191505060405180910390f35b600660009054906101000a900473ffffffffffffffffffffffffffffffffffffffff1681565b600d60009054906101000a900473ffffffffffffffffffffffffffffffffffffffff1681565b60096020528060005260406000206000915054906101000a900473ffffffffffffffffffffffffffffffffffffffff1681565b6000809054906101000a900473ffffffffffffffffffffffffffffffffffffffff1681565b600460009054906101000a900463ffffffff1681565b60028054600181600116156101000203166002900480601f0160208091040260200160405190810160405280929190818152602001828054600181600116156101000203166002900480156107f25780601f106107c7576101008083540402835291602001916107f2565b820191906000526020600020905b8154815290600101906020018083116107d557829003601f168201915b505050505081565b6000809054906101000a900473ffffffffffffffffffffffffffffffffffffffff1673ffffffffffffffffffffffffffffffffffffffff163373ffffffffffffffffffffffffffffffffffffffff1614151561085557600080fd5b600073ffffffffffffffffffffffffffffffffffffffff168173ffffffffffffffffffffffffffffffffffffffff161415151561089157600080fd5b806000806101000a81548173ffffffffffffffffffffffffffffffffffffffff021916908373ffffffffffffffffffffffffffffffffffffffff16021790555050565b600c6020528060005260406000206000915054906101000a900473ffffffffffffffffffffffffffffffffffffffff1681565b6000809054906101000a900473ffffffffffffffffffffffffffffffffffffffff1673ffffffffffffffffffffffffffffffffffffffff163373ffffffffffffffffffffffffffffffffffffffff1614151561096257600080fd5b600060149054906101000a900460ff16151561097d57600080fd5b60008060146101000a81548160ff021916908315150217905550565b60058054600181600116156101000203166002900480601f016020809104026020016040519081016040528092919081815260200182805460018160011615610100020316600290048015610a2f5780601f10610a0457610100808354040283529160200191610a2f565b820191906000526020600020905b815481529060010190602001808311610a1257829003601f168201915b505050505081565b6000600180549050600460009054906101000a900463ffffffff1663ffffffff1603905090565b600e60009054906101000a900473ffffffffffffffffffffffffffffffffffffffff1681565b600060149054906101000a900460ff1681565b6000809054906101000a900473ffffffffffffffffffffffffffffffffffffffff1673ffffffffffffffffffffffffffffffffffffffff163373ffffffffffffffffffffffffffffffffffffffff16141515610af257600080fd5b600060149054906101000a900460ff16151515610b0e57600080fd5b6001600060146101000a81548160ff021916908315150217905550565b60038054600181600116156101000203166002900480601f016020809104026020016040519081016040528092919081815260200182805460018160011615610100020316600290048015610bc15780601f10610b9657610100808354040283529160200191610bc1565b820191906000526020600020905b815481529060010190602001808311610ba457829003601f168201915b505050505081565b600b6020528060005260406000206000915054906101000a900473ffffffffffffffffffffffffffffffffffffffff1681565b600a60205280600052604060002060009150905054815600a165627a7a723058209489842e7dcc5583e2d56814759ca92918793e80a14c4deb5bb69e23f577c6c90029",
  "source": "pragma solidity ^0.4.24;\r\n\r\nimport \"./AccessControl.sol\";\r\nimport \"./BuyAndSell.sol\";\r\nimport \"./RentAndLease.sol\";\r\n\r\ncontract BookBase is AccessControl {\r\n    \r\n    event Transfer(address _from, address _to, uint256 _tokenId);\r\n\r\n    event CreatBook(uint256 bookamount);\r\n\r\n    struct Book {\r\n        uint64 transactions;    //交易次数\r\n        uint256 publishTime;    //发布时间\r\n    }\r\n\r\n    Book[] books;   //所有书籍\r\n    string public bookName = \"test\";\r\n    string public author = \"wwb\";\r\n    uint32 public totalAmount = 1000;\r\n    string public copyrightHash;\r\n    address public authorAddress;\r\n    uint256 timestamp;\r\n    uint256 price;\r\n\r\n    mapping (uint256 => address) public bookIndexToOwner;  // 某本图书的拥有者\r\n    mapping (address => uint256) public ownershipTokenCount;  // 某个地址拥有的图书数量\r\n    mapping (uint256 => address) public bookIndexToApproved;  // 第三方中介地址 \r\n    mapping (uint256 => address) public rentAllowedToAddress;   // 租赁图书的地址\r\n\r\n    BuyAndSell public buyAndSell;   //出租合约\r\n    RentAndLease public rentAndLease;   //租入合约\r\n\r\n    function _transfer(address _from, address _to, uint256 _tokenId) internal {  \r\n        ownershipTokenCount[_to]++;\r\n        bookIndexToOwner[_tokenId] = _to;\r\n\r\n         if (_from != address(0)) {  // 不是合约产生的\r\n            ownershipTokenCount[_from]--;  \r\n            delete rentAllowedToAddress[_tokenId];  \r\n            delete bookIndexToApproved[_tokenId];  \r\n        }  \r\n        Transfer(_from, _to, _tokenId); \r\n    }\r\n\r\n\r\n    function _creatBook(address _owner) internal returns(uint256) {       // 由买家执行       \r\n        Book memory _book = Book(0,now);\r\n        uint256 bookId = books.push(_book) - 1;\r\n        _transfer(0, _owner, bookId);\r\n        return books.length - 1; \r\n    }\r\n\r\n    function _remain() public view returns(uint256) {\r\n        return totalAmount - books.length;      // safemath???\r\n    }\r\n\r\n}",
  "sourcePath": "D:\\programming\\dapp\\ChainBook\\contracts\\BookBase.sol",
  "compiler": {
    "name": "solc",
    "version": "0.4.24+commit.e67f0147.Emscripten.clang"
  },
  "schemaVersion": "2.0.0",
  "updatedAt": "2018-06-01T15:07:29.122Z"
}