{
  "contractName": "BookOwnerShip",
  "abi": [
    {
      "constant": true,
      "inputs": [],
      "name": "authorAddress",
      "outputs": [
        {
          "name": "",
          "type": "address"
        }
      ],
      "payable": false,
      "stateMutability": "view",
      "type": "function"
    },
    {
      "constant": true,
      "inputs": [],
      "name": "buyAndSell",
      "outputs": [
        {
          "name": "",
          "type": "address"
        }
      ],
      "payable": false,
      "stateMutability": "view",
      "type": "function"
    },
    {
      "constant": true,
      "inputs": [
        {
          "name": "",
          "type": "uint256"
        }
      ],
      "name": "bookIndexToOwner",
      "outputs": [
        {
          "name": "",
          "type": "address"
        }
      ],
      "payable": false,
      "stateMutability": "view",
      "type": "function"
    },
    {
      "constant": true,
      "inputs": [],
      "name": "ceoAddress",
      "outputs": [
        {
          "name": "",
          "type": "address"
        }
      ],
      "payable": false,
      "stateMutability": "view",
      "type": "function"
    },
    {
      "constant": true,
      "inputs": [],
      "name": "totalAmount",
      "outputs": [
        {
          "name": "",
          "type": "uint32"
        }
      ],
      "payable": false,
      "stateMutability": "view",
      "type": "function"
    },
    {
      "constant": true,
      "inputs": [],
      "name": "bookName",
      "outputs": [
        {
          "name": "",
          "type": "string"
        }
      ],
      "payable": false,
      "stateMutability": "view",
      "type": "function"
    },
    {
      "constant": false,
      "inputs": [
        {
          "name": "_newCEO",
          "type": "address"
        }
      ],
      "name": "setCEO",
      "outputs": [],
      "payable": false,
      "stateMutability": "nonpayable",
      "type": "function"
    },
    {
      "constant": true,
      "inputs": [
        {
          "name": "",
          "type": "uint256"
        }
      ],
      "name": "rentAllowedToAddress",
      "outputs": [
        {
          "name": "",
          "type": "address"
        }
      ],
      "payable": false,
      "stateMutability": "view",
      "type": "function"
    },
    {
      "constant": false,
      "inputs": [],
      "name": "unpause",
      "outputs": [],
      "payable": false,
      "stateMutability": "nonpayable",
      "type": "function"
    },
    {
      "constant": true,
      "inputs": [],
      "name": "copyrightHash",
      "outputs": [
        {
          "name": "",
          "type": "string"
        }
      ],
      "payable": false,
      "stateMutability": "view",
      "type": "function"
    },
    {
      "constant": true,
      "inputs": [],
      "name": "_remain",
      "outputs": [
        {
          "name": "",
          "type": "uint256"
        }
      ],
      "payable": false,
      "stateMutability": "view",
      "type": "function"
    },
    {
      "constant": true,
      "inputs": [],
      "name": "rentAndLease",
      "outputs": [
        {
          "name": "",
          "type": "address"
        }
      ],
      "payable": false,
      "stateMutability": "view",
      "type": "function"
    },
    {
      "constant": true,
      "inputs": [],
      "name": "paused",
      "outputs": [
        {
          "name": "",
          "type": "bool"
        }
      ],
      "payable": false,
      "stateMutability": "view",
      "type": "function"
    },
    {
      "constant": false,
      "inputs": [],
      "name": "pause",
      "outputs": [],
      "payable": false,
      "stateMutability": "nonpayable",
      "type": "function"
    },
    {
      "constant": true,
      "inputs": [],
      "name": "author",
      "outputs": [
        {
          "name": "",
          "type": "string"
        }
      ],
      "payable": false,
      "stateMutability": "view",
      "type": "function"
    },
    {
      "constant": true,
      "inputs": [
        {
          "name": "",
          "type": "uint256"
        }
      ],
      "name": "bookIndexToApproved",
      "outputs": [
        {
          "name": "",
          "type": "address"
        }
      ],
      "payable": false,
      "stateMutability": "view",
      "type": "function"
    },
    {
      "constant": true,
      "inputs": [
        {
          "name": "",
          "type": "address"
        }
      ],
      "name": "ownershipTokenCount",
      "outputs": [
        {
          "name": "",
          "type": "uint256"
        }
      ],
      "payable": false,
      "stateMutability": "view",
      "type": "function"
    },
    {
      "anonymous": false,
      "inputs": [
        {
          "indexed": false,
          "name": "from",
          "type": "address"
        },
        {
          "indexed": false,
          "name": "to",
          "type": "address"
        },
        {
          "indexed": false,
          "name": "tokenId",
          "type": "uint256"
        }
      ],
      "name": "Transfer",
      "type": "event"
    },
    {
      "anonymous": false,
      "inputs": [
        {
          "indexed": false,
          "name": "owner",
          "type": "address"
        },
        {
          "indexed": false,
          "name": "approved",
          "type": "address"
        },
        {
          "indexed": false,
          "name": "tokenId",
          "type": "uint256"
        }
      ],
      "name": "Approval",
      "type": "event"
    },
    {
      "anonymous": false,
      "inputs": [
        {
          "indexed": false,
          "name": "bookamount",
          "type": "uint256"
        }
      ],
      "name": "CreatBook",
      "type": "event"
    },
    {
      "constant": true,
      "inputs": [
        {
          "name": "_interfaceID",
          "type": "bytes4"
        }
      ],
      "name": "supportsInterface",
      "outputs": [
        {
          "name": "",
          "type": "bool"
        }
      ],
      "payable": false,
      "stateMutability": "view",
      "type": "function"
    },
    {
      "constant": true,
      "inputs": [
        {
          "name": "_owner",
          "type": "address"
        }
      ],
      "name": "balanceOf",
      "outputs": [
        {
          "name": "",
          "type": "uint256"
        }
      ],
      "payable": false,
      "stateMutability": "view",
      "type": "function"
    },
    {
      "constant": true,
      "inputs": [],
      "name": "name",
      "outputs": [
        {
          "name": "",
          "type": "string"
        }
      ],
      "payable": false,
      "stateMutability": "view",
      "type": "function"
    },
    {
      "constant": true,
      "inputs": [],
      "name": "symbol",
      "outputs": [
        {
          "name": "",
          "type": "string"
        }
      ],
      "payable": false,
      "stateMutability": "view",
      "type": "function"
    },
    {
      "constant": false,
      "inputs": [
        {
          "name": "_to",
          "type": "address"
        },
        {
          "name": "_tokenId",
          "type": "uint256"
        }
      ],
      "name": "transfer",
      "outputs": [],
      "payable": false,
      "stateMutability": "nonpayable",
      "type": "function"
    },
    {
      "constant": false,
      "inputs": [
        {
          "name": "_to",
          "type": "address"
        },
        {
          "name": "_tokenId",
          "type": "uint256"
        }
      ],
      "name": "approve",
      "outputs": [],
      "payable": false,
      "stateMutability": "nonpayable",
      "type": "function"
    },
    {
      "constant": false,
      "inputs": [
        {
          "name": "_from",
          "type": "address"
        },
        {
          "name": "_to",
          "type": "address"
        },
        {
          "name": "_tokenId",
          "type": "uint256"
        }
      ],
      "name": "transferFrom",
      "outputs": [],
      "payable": false,
      "stateMutability": "nonpayable",
      "type": "function"
    },
    {
      "constant": true,
      "inputs": [],
      "name": "totalSupply",
      "outputs": [
        {
          "name": "",
          "type": "uint256"
        }
      ],
      "payable": false,
      "stateMutability": "view",
      "type": "function"
    },
    {
      "constant": true,
      "inputs": [],
      "name": "publishedAmount",
      "outputs": [
        {
          "name": "",
          "type": "uint256"
        }
      ],
      "payable": false,
      "stateMutability": "view",
      "type": "function"
    },
    {
      "constant": true,
      "inputs": [
        {
          "name": "_tokenId",
          "type": "uint256"
        }
      ],
      "name": "ownerOf",
      "outputs": [
        {
          "name": "owner",
          "type": "address"
        }
      ],
      "payable": false,
      "stateMutability": "view",
      "type": "function"
    },
    {
      "constant": true,
      "inputs": [
        {
          "name": "_owner",
          "type": "address"
        }
      ],
      "name": "tokenofOwner",
      "outputs": [
        {
          "name": "ownerTokens",
          "type": "uint256[]"
        }
      ],
      "payable": false,
      "stateMutability": "view",
      "type": "function"
    },
    {
      "constant": true,
      "inputs": [
        {
          "name": "_owner",
          "type": "address"
        }
      ],
      "name": "tokenInRent",
      "outputs": [
        {
          "name": "ownerRentToken",
          "type": "uint256[]"
        }
      ],
      "payable": false,
      "stateMutability": "view",
      "type": "function"
    }
  ],
  "bytecode": "0x608060405260008060006101000a81548173ffffffffffffffffffffffffffffffffffffffff021916908373ffffffffffffffffffffffffffffffffffffffff1602179055506040805190810160405280600481526020017f7465737400000000000000000000000000000000000000000000000000000000815250600290805190602001906200009292919062000118565b506040805190810160405280600381526020017f777762000000000000000000000000000000000000000000000000000000000081525060039080519060200190620000e092919062000118565b506103e8600460006101000a81548163ffffffff021916908363ffffffff1602179055503480156200011157600080fd5b50620001c7565b828054600181600116156101000203166002900490600052602060002090601f016020900481019282601f106200015b57805160ff19168380011785556200018c565b828001600101855582156200018c579182015b828111156200018b5782518255916020019190600101906200016e565b5b5090506200019b91906200019f565b5090565b620001c491905b80821115620001c0576000816000905550600101620001a6565b5090565b90565b611eb380620001d76000396000f300608060405260043610610175576000357c0100000000000000000000000000000000000000000000000000000000900463ffffffff16806301ffc9a71461017a57806302a86781146101de5780630469a6021461023557806306787a0a1461028c57806306fdde03146102f9578063095ea7b3146103895780630a0f8168146103d657806318160ddd1461042d5780631a39d8ef146104585780631d45f3bf1461048f57806323b872dd1461051f57806327d7874c1461058c57806336df851f146105cf5780633f4ba83a1461063c5780634105a51a1461065357806343124138146106e3578063446ad71b1461070e57806344dd9bd7146107a65780635c975abb146107fd5780636352211e1461082c57806370a08231146108995780638456cb59146108f057806385cfdf3a1461090757806395d89b4114610932578063a6c3e6b9146109c2578063a9059cbb14610a52578063ad87cbb414610a9f578063cec21acb14610b0c578063f3f8468e14610b63575b600080fd5b34801561018657600080fd5b506101c460048036038101908080357bffffffffffffffffffffffffffffffffffffffffffffffffffffffff19169060200190929190505050610bfb565b604051808215151515815260200191505060405180910390f35b3480156101ea57600080fd5b506101f3610f0c565b604051808273ffffffffffffffffffffffffffffffffffffffff1673ffffffffffffffffffffffffffffffffffffffff16815260200191505060405180910390f35b34801561024157600080fd5b5061024a610f32565b604051808273ffffffffffffffffffffffffffffffffffffffff1673ffffffffffffffffffffffffffffffffffffffff16815260200191505060405180910390f35b34801561029857600080fd5b506102b760048036038101908080359060200190929190505050610f58565b604051808273ffffffffffffffffffffffffffffffffffffffff1673ffffffffffffffffffffffffffffffffffffffff16815260200191505060405180910390f35b34801561030557600080fd5b5061030e610f8b565b6040518080602001828103825283818151815260200191508051906020019080838360005b8381101561034e578082015181840152602081019050610333565b50505050905090810190601f16801561037b5780820380516001836020036101000a031916815260200191505b509250505060405180910390f35b34801561039557600080fd5b506103d4600480360381019080803573ffffffffffffffffffffffffffffffffffffffff1690602001909291908035906020019092919050505061102d565b005b3480156103e257600080fd5b506103eb61110b565b604051808273ffffffffffffffffffffffffffffffffffffffff1673ffffffffffffffffffffffffffffffffffffffff16815260200191505060405180910390f35b34801561043957600080fd5b50610442611130565b6040518082815260200191505060405180910390f35b34801561046457600080fd5b5061046d611150565b604051808263ffffffff1663ffffffff16815260200191505060405180910390f35b34801561049b57600080fd5b506104a4611166565b6040518080602001828103825283818151815260200191508051906020019080838360005b838110156104e45780820151818401526020810190506104c9565b50505050905090810190601f1680156105115780820380516001836020036101000a031916815260200191505b509250505060405180910390f35b34801561052b57600080fd5b5061058a600480360381019080803573ffffffffffffffffffffffffffffffffffffffff169060200190929190803573ffffffffffffffffffffffffffffffffffffffff16906020019092919080359060200190929190505050611204565b005b34801561059857600080fd5b506105cd600480360381019080803573ffffffffffffffffffffffffffffffffffffffff1690602001909291905050506112d1565b005b3480156105db57600080fd5b506105fa600480360381019080803590602001909291905050506113ab565b604051808273ffffffffffffffffffffffffffffffffffffffff1673ffffffffffffffffffffffffffffffffffffffff16815260200191505060405180910390f35b34801561064857600080fd5b506106516113de565b005b34801561065f57600080fd5b50610668611470565b6040518080602001828103825283818151815260200191508051906020019080838360005b838110156106a857808201518184015260208101905061068d565b50505050905090810190601f1680156106d55780820380516001836020036101000a031916815260200191505b509250505060405180910390f35b3480156106ef57600080fd5b506106f861150e565b6040518082815260200191505060405180910390f35b34801561071a57600080fd5b5061074f600480360381019080803573ffffffffffffffffffffffffffffffffffffffff169060200190929190505050611535565b6040518080602001828103825283818151815260200191508051906020019060200280838360005b83811015610792578082015181840152602081019050610777565b505050509050019250505060405180910390f35b3480156107b257600080fd5b506107bb61153c565b604051808273ffffffffffffffffffffffffffffffffffffffff1673ffffffffffffffffffffffffffffffffffffffff16815260200191505060405180910390f35b34801561080957600080fd5b50610812611562565b604051808215151515815260200191505060405180910390f35b34801561083857600080fd5b5061085760048036038101908080359060200190929190505050611575565b604051808273ffffffffffffffffffffffffffffffffffffffff1673ffffffffffffffffffffffffffffffffffffffff16815260200191505060405180910390f35b3480156108a557600080fd5b506108da600480360381019080803573ffffffffffffffffffffffffffffffffffffffff1690602001909291905050506115ee565b6040518082815260200191505060405180910390f35b3480156108fc57600080fd5b50610905611637565b005b34801561091357600080fd5b5061091c6116cb565b6040518082815260200191505060405180910390f35b34801561093e57600080fd5b506109476116d8565b6040518080602001828103825283818151815260200191508051906020019080838360005b8381101561098757808201518184015260208101905061096c565b50505050905090810190601f1680156109b45780820380516001836020036101000a031916815260200191505b509250505060405180910390f35b3480156109ce57600080fd5b506109d761177a565b6040518080602001828103825283818151815260200191508051906020019080838360005b83811015610a175780820151818401526020810190506109fc565b50505050905090810190601f168015610a445780820380516001836020036101000a031916815260200191505b509250505060405180910390f35b348015610a5e57600080fd5b50610a9d600480360381019080803573ffffffffffffffffffffffffffffffffffffffff16906020019092919080359060200190929190505050611818565b005b348015610aab57600080fd5b50610aca60048036038101908080359060200190929190505050611989565b604051808273ffffffffffffffffffffffffffffffffffffffff1673ffffffffffffffffffffffffffffffffffffffff16815260200191505060405180910390f35b348015610b1857600080fd5b50610b4d600480360381019080803573ffffffffffffffffffffffffffffffffffffffff1690602001909291905050506119bc565b6040518082815260200191505060405180910390f35b348015610b6f57600080fd5b50610ba4600480360381019080803573ffffffffffffffffffffffffffffffffffffffff1690602001909291905050506119d4565b6040518080602001828103825283818151815260200191508051906020019060200280838360005b83811015610be7578082015181840152602081019050610bcc565b505050509050019250505060405180910390f35b600060405180807f737570706f727473496e74657266616365286279746573342900000000000000815250601901905060405180910390207bffffffffffffffffffffffffffffffffffffffffffffffffffffffff1916827bffffffffffffffffffffffffffffffffffffffffffffffffffffffff19161480610f05575060405180807f746f6b656e4d657461646174612875696e743235362c737472696e6729000000815250601d019050604051809103902060405180807f746f6b656e734f664f776e6572286164647265737329000000000000000000008152506016019050604051809103902060405180807f7472616e7366657246726f6d28616464726573732c616464726573732c75696e81526020017f74323536290000000000000000000000000000000000000000000000000000008152506025019050604051809103902060405180807f7472616e7366657228616464726573732c75696e7432353629000000000000008152506019019050604051809103902060405180807f617070726f766528616464726573732c75696e743235362900000000000000008152506018019050604051809103902060405180807f6f776e65724f662875696e7432353629000000000000000000000000000000008152506010019050604051809103902060405180807f62616c616e63654f6628616464726573732900000000000000000000000000008152506012019050604051809103902060405180807f746f74616c537570706c79282900000000000000000000000000000000000000815250600d019050604051809103902060405180807f73796d626f6c28290000000000000000000000000000000000000000000000008152506008019050604051809103902060405180807f6e616d6528290000000000000000000000000000000000000000000000000000815250600601905060405180910390201818181818181818187bffffffffffffffffffffffffffffffffffffffffffffffffffffffff1916827bffffffffffffffffffffffffffffffffffffffffffffffffffffffff1916145b9050919050565b600660009054906101000a900473ffffffffffffffffffffffffffffffffffffffff1681565b600d60009054906101000a900473ffffffffffffffffffffffffffffffffffffffff1681565b60096020528060005260406000206000915054906101000a900473ffffffffffffffffffffffffffffffffffffffff1681565b606060028054600181600116156101000203166002900480601f0160208091040260200160405190810160405280929190818152602001828054600181600116156101000203166002900480156110235780601f10610ff857610100808354040283529160200191611023565b820191906000526020600020905b81548152906001019060200180831161100657829003601f168201915b5050505050905090565b600060149054906101000a900460ff1615151561104957600080fd5b6110533382611b21565b151561105e57600080fd5b6110688183611b8d565b7f8c5be1e5ebec7d5bd14f71427d1e84f3dd0314c0f7b2291e5b200ac8c7c3b925338383604051808473ffffffffffffffffffffffffffffffffffffffff1673ffffffffffffffffffffffffffffffffffffffff1681526020018373ffffffffffffffffffffffffffffffffffffffff1673ffffffffffffffffffffffffffffffffffffffff168152602001828152602001935050505060405180910390a15050565b6000809054906101000a900473ffffffffffffffffffffffffffffffffffffffff1681565b6000600460009054906101000a900463ffffffff1663ffffffff16905090565b600460009054906101000a900463ffffffff1681565b60028054600181600116156101000203166002900480601f0160208091040260200160405190810160405280929190818152602001828054600181600116156101000203166002900480156111fc5780601f106111d1576101008083540402835291602001916111fc565b820191906000526020600020905b8154815290600101906020018083116111df57829003601f168201915b505050505081565b600060149054906101000a900460ff1615151561122057600080fd5b600073ffffffffffffffffffffffffffffffffffffffff168273ffffffffffffffffffffffffffffffffffffffff161415151561125c57600080fd5b3073ffffffffffffffffffffffffffffffffffffffff168273ffffffffffffffffffffffffffffffffffffffff161415151561129757600080fd5b6112a13382611be3565b15156112ac57600080fd5b6112b68382611b21565b15156112c157600080fd5b6112cc838383611c4f565b505050565b6000809054906101000a900473ffffffffffffffffffffffffffffffffffffffff1673ffffffffffffffffffffffffffffffffffffffff163373ffffffffffffffffffffffffffffffffffffffff1614151561132c57600080fd5b600073ffffffffffffffffffffffffffffffffffffffff168173ffffffffffffffffffffffffffffffffffffffff161415151561136857600080fd5b806000806101000a81548173ffffffffffffffffffffffffffffffffffffffff021916908373ffffffffffffffffffffffffffffffffffffffff16021790555050565b600c6020528060005260406000206000915054906101000a900473ffffffffffffffffffffffffffffffffffffffff1681565b6000809054906101000a900473ffffffffffffffffffffffffffffffffffffffff1673ffffffffffffffffffffffffffffffffffffffff163373ffffffffffffffffffffffffffffffffffffffff1614151561143957600080fd5b600060149054906101000a900460ff16151561145457600080fd5b60008060146101000a81548160ff021916908315150217905550565b60058054600181600116156101000203166002900480601f0160208091040260200160405190810160405280929190818152602001828054600181600116156101000203166002900480156115065780601f106114db57610100808354040283529160200191611506565b820191906000526020600020905b8154815290600101906020018083116114e957829003601f168201915b505050505081565b6000600180549050600460009054906101000a900463ffffffff1663ffffffff1603905090565b6060919050565b600e60009054906101000a900473ffffffffffffffffffffffffffffffffffffffff1681565b600060149054906101000a900460ff1681565b60006009600083815260200190815260200160002060009054906101000a900473ffffffffffffffffffffffffffffffffffffffff169050600073ffffffffffffffffffffffffffffffffffffffff168173ffffffffffffffffffffffffffffffffffffffff16141515156115e957600080fd5b919050565b6000600a60008373ffffffffffffffffffffffffffffffffffffffff1673ffffffffffffffffffffffffffffffffffffffff168152602001908152602001600020549050919050565b6000809054906101000a900473ffffffffffffffffffffffffffffffffffffffff1673ffffffffffffffffffffffffffffffffffffffff163373ffffffffffffffffffffffffffffffffffffffff1614151561169257600080fd5b600060149054906101000a900460ff161515156116ae57600080fd5b6001600060146101000a81548160ff021916908315150217905550565b6000600180549050905090565b606060038054600181600116156101000203166002900480601f0160208091040260200160405190810160405280929190818152602001828054600181600116156101000203166002900480156117705780601f1061174557610100808354040283529160200191611770565b820191906000526020600020905b81548152906001019060200180831161175357829003601f168201915b5050505050905090565b60038054600181600116156101000203166002900480601f0160208091040260200160405190810160405280929190818152602001828054600181600116156101000203166002900480156118105780601f106117e557610100808354040283529160200191611810565b820191906000526020600020905b8154815290600101906020018083116117f357829003601f168201915b505050505081565b600060149054906101000a900460ff1615151561183457600080fd5b600073ffffffffffffffffffffffffffffffffffffffff168273ffffffffffffffffffffffffffffffffffffffff161415151561187057600080fd5b3073ffffffffffffffffffffffffffffffffffffffff168273ffffffffffffffffffffffffffffffffffffffff16141515156118ab57600080fd5b600d60009054906101000a900473ffffffffffffffffffffffffffffffffffffffff1673ffffffffffffffffffffffffffffffffffffffff168273ffffffffffffffffffffffffffffffffffffffff161415151561190857600080fd5b600e60009054906101000a900473ffffffffffffffffffffffffffffffffffffffff1673ffffffffffffffffffffffffffffffffffffffff168273ffffffffffffffffffffffffffffffffffffffff161415151561196557600080fd5b61196f3382611b21565b151561197a57600080fd5b611985338383611c4f565b5050565b600b6020528060005260406000206000915054906101000a900473ffffffffffffffffffffffffffffffffffffffff1681565b600a6020528060005260406000206000915090505481565b60606000606060008060006119e8876115ee565b94506000851415611a2b576000604051908082528060200260200182016040528015611a235781602001602082028038833980820191505090505b509550611b17565b84604051908082528060200260200182016040528015611a5a5781602001602082028038833980820191505090505b509350611a656116cb565b925060009150600190505b8281111515611b13578673ffffffffffffffffffffffffffffffffffffffff166009600083815260200190815260200160002060009054906101000a900473ffffffffffffffffffffffffffffffffffffffff1673ffffffffffffffffffffffffffffffffffffffff161415611b0657808483815181101515611aef57fe5b906020019060200201818152505081806001019250505b8080600101915050611a70565b8395505b5050505050919050565b60008273ffffffffffffffffffffffffffffffffffffffff166009600084815260200190815260200160002060009054906101000a900473ffffffffffffffffffffffffffffffffffffffff1673ffffffffffffffffffffffffffffffffffffffff1614905092915050565b80600b600084815260200190815260200160002060006101000a81548173ffffffffffffffffffffffffffffffffffffffff021916908373ffffffffffffffffffffffffffffffffffffffff1602179055505050565b60008273ffffffffffffffffffffffffffffffffffffffff16600b600084815260200190815260200160002060009054906101000a900473ffffffffffffffffffffffffffffffffffffffff1673ffffffffffffffffffffffffffffffffffffffff1614905092915050565b600a60008373ffffffffffffffffffffffffffffffffffffffff1673ffffffffffffffffffffffffffffffffffffffff16815260200190815260200160002060008154809291906001019190505550816009600083815260200190815260200160002060006101000a81548173ffffffffffffffffffffffffffffffffffffffff021916908373ffffffffffffffffffffffffffffffffffffffff160217905550600073ffffffffffffffffffffffffffffffffffffffff168373ffffffffffffffffffffffffffffffffffffffff16141515611de357600a60008473ffffffffffffffffffffffffffffffffffffffff1673ffffffffffffffffffffffffffffffffffffffff1681526020019081526020016000206000815480929190600190039190505550600c600082815260200190815260200160002060006101000a81549073ffffffffffffffffffffffffffffffffffffffff0219169055600b600082815260200190815260200160002060006101000a81549073ffffffffffffffffffffffffffffffffffffffff02191690555b7fddf252ad1be2c89b69c2b068fc378daa952ba7f163c4a11628f55a4df523b3ef838383604051808473ffffffffffffffffffffffffffffffffffffffff1673ffffffffffffffffffffffffffffffffffffffff1681526020018373ffffffffffffffffffffffffffffffffffffffff1673ffffffffffffffffffffffffffffffffffffffff168152602001828152602001935050505060405180910390a15050505600a165627a7a723058203556849682f4377692ab79e39e13a63a7299d9c3bdecce3109edde68c5a6f2ba0029",
  "source": "pragma solidity ^0.4.24;\r\n\r\nimport \"./ERC721.sol\";\r\nimport \"./BookBase.sol\";\r\n\r\ncontract BookOwnerShip is BookBase, ERC721 {\r\n\r\n    bytes4 constant InterfaceSignature_ERC165 =  \r\n        bytes4(keccak256('supportsInterface(bytes4)'));\r\n\r\n    bytes4 constant InterfaceSignature_ERC721 =  \r\n        bytes4(keccak256('name()')) ^  \r\n        bytes4(keccak256('symbol()')) ^  \r\n        bytes4(keccak256('totalSupply()')) ^  \r\n        bytes4(keccak256('balanceOf(address)')) ^  \r\n        bytes4(keccak256('ownerOf(uint256)')) ^  \r\n        bytes4(keccak256('approve(address,uint256)')) ^  \r\n        bytes4(keccak256('transfer(address,uint256)')) ^  \r\n        bytes4(keccak256('transferFrom(address,address,uint256)')) ^  \r\n        bytes4(keccak256('tokensOfOwner(address)')) ^  \r\n        bytes4(keccak256('tokenMetadata(uint256,string)')); \r\n\r\n    function supportsInterface(bytes4 _interfaceID) external view returns (bool)  \r\n    {   \r\n  \r\n        return ((_interfaceID == InterfaceSignature_ERC165) || (_interfaceID == InterfaceSignature_ERC721));  \r\n    } \r\n\r\n    // function getCopyright() external view returns(string, string, string, address, uint256) {\r\n    //   return copyright.getCopyright();\r\n    // }\r\n    \r\n    function _owns(address _claimant, uint256 _tokenId) internal view returns(bool) {\r\n        return bookIndexToOwner[_tokenId] == _claimant;\r\n    }\r\n\r\n    function _approvedFor(address _claimant, uint256 _tokenId) internal view returns(bool) {\r\n        return bookIndexToApproved[_tokenId] == _claimant;\r\n    }\r\n\r\n    function _approve(uint256 _tokenId, address _approved) internal {\r\n        bookIndexToApproved[_tokenId] = _approved;\r\n    }\r\n\r\n    function balanceOf(address _owner) public view returns(uint256) {\r\n        return ownershipTokenCount[_owner];\r\n    }\r\n\r\n    function name() public view returns (string) {\r\n        return bookName;\r\n    }\r\n\r\n    function symbol() public view returns (string) {\r\n        return author;\r\n    }\r\n\r\n    function transfer(\r\n        address _to,\r\n        uint256 _tokenId\r\n    )\r\n    external\r\n    whenNotPaused \r\n    {\r\n        require(_to != address(0));  \r\n        require(_to != address(this));  \r\n        require(_to != address(buyAndSell));  \r\n        require(_to != address(rentAndLease)); \r\n        require(_owns(msg.sender, _tokenId));  \r\n        _transfer(msg.sender, _to, _tokenId); \r\n    }\r\n\r\n    function approve(  // transfer\r\n        address _to,  \r\n        uint256 _tokenId  \r\n    )  \r\n        external  \r\n        whenNotPaused  \r\n    {  \r\n        require(_owns(msg.sender, _tokenId));    \r\n        _approve(_tokenId, _to);   \r\n        Approval(msg.sender, _to, _tokenId);  \r\n    } \r\n\r\n    function transferFrom(  // transfer\r\n        address _from,  \r\n        address _to,  \r\n        uint256 _tokenId  \r\n    )  \r\n        external  \r\n        whenNotPaused  \r\n    {  \r\n        require(_to != address(0));  \r\n        require(_to != address(this));  \r\n        require(_approvedFor(msg.sender, _tokenId));  \r\n        require(_owns(_from, _tokenId));  \r\n   \r\n        _transfer(_from, _to, _tokenId);  \r\n    }  \r\n\r\n    function totalSupply() public view returns(uint256) {   //\r\n        return totalAmount;\r\n    }\r\n\r\n    function publishedAmount() public view returns(uint256) {   //\r\n        return books.length;\r\n    }\r\n\r\n    function ownerOf(uint256 _tokenId) external view returns(address owner){    //\r\n        owner = bookIndexToOwner[_tokenId];\r\n        require(owner != address(0));\r\n    } \r\n\r\n    function tokenofOwner(address _owner) external view returns(uint256[] ownerTokens){ // \r\n        uint256 tokenCount = balanceOf(_owner);\r\n\r\n        if(tokenCount == 0) {\r\n            return new uint256[](0);\r\n        } else {\r\n            uint256[] memory result = new uint256[](tokenCount);\r\n            uint256 totalBooks = publishedAmount();\r\n            uint256 resultIndex = 0;\r\n\r\n            uint256 bookId;\r\n\r\n            for(bookId = 1; bookId <= totalBooks; bookId++) {\r\n                if(bookIndexToOwner[bookId] == _owner) {\r\n                    result[resultIndex] = bookId;\r\n                    resultIndex++;\r\n                }\r\n            }\r\n        }\r\n\r\n        return result;\r\n    }\r\n\r\n    function tokenInRent(address _owner) external view returns(uint256[] ownerRentToken) {      // \r\n\r\n    }\r\n\r\n    //function tokenMetadata()\r\n\r\n}",
  "sourcePath": "D:\\programming\\dapp\\ChainBook\\contracts\\BookOwnerShip.sol",
  "compiler": {
    "name": "solc",
    "version": "0.4.24+commit.e67f0147.Emscripten.clang"
  },
  "schemaVersion": "2.0.0",
  "updatedAt": "2018-06-01T15:07:29.190Z"
}