{
  "contractName": "BookCopyrightCreate",
  "abi": [
    {
      "constant": true,
      "inputs": [],
      "name": "ceoAddress",
      "outputs": [
        {
          "name": "",
          "type": "address"
        }
      ],
      "payable": false,
      "stateMutability": "view",
      "type": "function"
    },
    {
      "constant": false,
      "inputs": [
        {
          "name": "_newCEO",
          "type": "address"
        }
      ],
      "name": "setCEO",
      "outputs": [],
      "payable": false,
      "stateMutability": "nonpayable",
      "type": "function"
    },
    {
      "constant": false,
      "inputs": [],
      "name": "unpause",
      "outputs": [],
      "payable": false,
      "stateMutability": "nonpayable",
      "type": "function"
    },
    {
      "constant": true,
      "inputs": [],
      "name": "paused",
      "outputs": [
        {
          "name": "",
          "type": "bool"
        }
      ],
      "payable": false,
      "stateMutability": "view",
      "type": "function"
    },
    {
      "constant": false,
      "inputs": [],
      "name": "pause",
      "outputs": [],
      "payable": false,
      "stateMutability": "nonpayable",
      "type": "function"
    },
    {
      "anonymous": false,
      "inputs": [
        {
          "indexed": false,
          "name": "_bookName",
          "type": "string"
        },
        {
          "indexed": false,
          "name": "authorName",
          "type": "string"
        },
        {
          "indexed": false,
          "name": "_authorAddress",
          "type": "address"
        },
        {
          "indexed": false,
          "name": "_copyrightAddress",
          "type": "string"
        },
        {
          "indexed": false,
          "name": "_timestamp",
          "type": "uint256"
        }
      ],
      "name": "_RegisterCopyright",
      "type": "event"
    },
    {
      "constant": false,
      "inputs": [
        {
          "name": "_fees",
          "type": "uint256"
        }
      ],
      "name": "setFees",
      "outputs": [],
      "payable": false,
      "stateMutability": "nonpayable",
      "type": "function"
    },
    {
      "constant": false,
      "inputs": [
        {
          "name": "_bookName",
          "type": "string"
        },
        {
          "name": "_authorName",
          "type": "string"
        },
        {
          "name": "_authorAddress",
          "type": "address"
        },
        {
          "name": "_ipfsHash",
          "type": "string"
        }
      ],
      "name": "registerCopyright",
      "outputs": [],
      "payable": true,
      "stateMutability": "payable",
      "type": "function"
    },
    {
      "constant": true,
      "inputs": [],
      "name": "getCopyright",
      "outputs": [
        {
          "name": "",
          "type": "string"
        },
        {
          "name": "",
          "type": "string"
        },
        {
          "name": "",
          "type": "address"
        },
        {
          "name": "",
          "type": "string"
        },
        {
          "name": "",
          "type": "uint256"
        }
      ],
      "payable": false,
      "stateMutability": "view",
      "type": "function"
    }
  ],
  "bytecode": "0x608060405260008060006101000a81548173ffffffffffffffffffffffffffffffffffffffff021916908373ffffffffffffffffffffffffffffffffffffffff160217905550600060015534801561005657600080fd5b50610cfa806100666000396000f30060806040526004361061008e576000357c0100000000000000000000000000000000000000000000000000000000900463ffffffff1680630a0f8168146100935780631fb84f22146100ea57806327d7874c146101685780633d18678e146101ab5780633f4ba83a146101d85780635c975abb146101ef5780638456cb591461021e5780639065891014610235575b600080fd5b34801561009f57600080fd5b506100a86103d7565b604051808273ffffffffffffffffffffffffffffffffffffffff1673ffffffffffffffffffffffffffffffffffffffff16815260200191505060405180910390f35b610166600480360381019080803590602001908201803590602001919091929391929390803590602001908201803590602001919091929391929390803573ffffffffffffffffffffffffffffffffffffffff1690602001909291908035906020019082018035906020019190919293919293905050506103fc565b005b34801561017457600080fd5b506101a9600480360381019080803573ffffffffffffffffffffffffffffffffffffffff169060200190929190505050610797565b005b3480156101b757600080fd5b506101d660048036038101908080359060200190929190505050610871565b005b3480156101e457600080fd5b506101ed6108d6565b005b3480156101fb57600080fd5b50610204610968565b604051808215151515815260200191505060405180910390f35b34801561022a57600080fd5b5061023361097b565b005b34801561024157600080fd5b5061024a610a0f565b6040518080602001806020018673ffffffffffffffffffffffffffffffffffffffff1673ffffffffffffffffffffffffffffffffffffffff16815260200180602001858152602001848103845289818151815260200191508051906020019080838360005b838110156102ca5780820151818401526020810190506102af565b50505050905090810190601f1680156102f75780820380516001836020036101000a031916815260200191505b50848103835288818151815260200191508051906020019080838360005b83811015610330578082015181840152602081019050610315565b50505050905090810190601f16801561035d5780820380516001836020036101000a031916815260200191505b50848103825286818151815260200191508051906020019080838360005b8381101561039657808201518184015260208101905061037b565b50505050905090810190601f1680156103c35780820380516001836020036101000a031916815260200191505b509850505050505050505060405180910390f35b6000809054906101000a900473ffffffffffffffffffffffffffffffffffffffff1681565b6000600154341015151561040f57600080fd5b878760029190610420929190610c29565b50858560039190610432929190610c29565b5083600460006101000a81548173ffffffffffffffffffffffffffffffffffffffff021916908373ffffffffffffffffffffffffffffffffffffffff160217905550828260059190610485929190610c29565b50426006819055507f370f59359a69ca4d9c8d749154cac481fd044a210e93fc5b61857fdfaeb5402160026003600460009054906101000a900473ffffffffffffffffffffffffffffffffffffffff1660056006546040518080602001806020018673ffffffffffffffffffffffffffffffffffffffff1673ffffffffffffffffffffffffffffffffffffffff168152602001806020018581526020018481038452898181546001816001161561010002031660029004815260200191508054600181600116156101000203166002900480156105a35780601f10610578576101008083540402835291602001916105a3565b820191906000526020600020905b81548152906001019060200180831161058657829003601f168201915b50508481038352888181546001816001161561010002031660029004815260200191508054600181600116156101000203166002900480156106265780601f106105fb57610100808354040283529160200191610626565b820191906000526020600020905b81548152906001019060200180831161060957829003601f168201915b50508481038252868181546001816001161561010002031660029004815260200191508054600181600116156101000203166002900480156106a95780601f1061067e576101008083540402835291602001916106a9565b820191906000526020600020905b81548152906001019060200180831161068c57829003601f168201915b50509850505050505050505060405180910390a16000600154141515610734576000809054906101000a900473ffffffffffffffffffffffffffffffffffffffff1673ffffffffffffffffffffffffffffffffffffffff166108fc6001549081150290604051600060405180830381858888f19350505050158015610732573d6000803e3d6000fd5b505b6001543403905060008114151561078d573373ffffffffffffffffffffffffffffffffffffffff166108fc829081150290604051600060405180830381858888f1935050505015801561078b573d6000803e3d6000fd5b505b5050505050505050565b6000809054906101000a900473ffffffffffffffffffffffffffffffffffffffff1673ffffffffffffffffffffffffffffffffffffffff163373ffffffffffffffffffffffffffffffffffffffff161415156107f257600080fd5b600073ffffffffffffffffffffffffffffffffffffffff168173ffffffffffffffffffffffffffffffffffffffff161415151561082e57600080fd5b806000806101000a81548173ffffffffffffffffffffffffffffffffffffffff021916908373ffffffffffffffffffffffffffffffffffffffff16021790555050565b6000809054906101000a900473ffffffffffffffffffffffffffffffffffffffff1673ffffffffffffffffffffffffffffffffffffffff163373ffffffffffffffffffffffffffffffffffffffff161415156108cc57600080fd5b8060018190555050565b6000809054906101000a900473ffffffffffffffffffffffffffffffffffffffff1673ffffffffffffffffffffffffffffffffffffffff163373ffffffffffffffffffffffffffffffffffffffff1614151561093157600080fd5b600060149054906101000a900460ff16151561094c57600080fd5b60008060146101000a81548160ff021916908315150217905550565b600060149054906101000a900460ff1681565b6000809054906101000a900473ffffffffffffffffffffffffffffffffffffffff1673ffffffffffffffffffffffffffffffffffffffff163373ffffffffffffffffffffffffffffffffffffffff161415156109d657600080fd5b600060149054906101000a900460ff161515156109f257600080fd5b6001600060146101000a81548160ff021916908315150217905550565b60608060006060600060026003600460009054906101000a900473ffffffffffffffffffffffffffffffffffffffff166005600654848054600181600116156101000203166002900480601f016020809104026020016040519081016040528092919081815260200182805460018160011615610100020316600290048015610ad95780601f10610aae57610100808354040283529160200191610ad9565b820191906000526020600020905b815481529060010190602001808311610abc57829003601f168201915b50505050509450838054600181600116156101000203166002900480601f016020809104026020016040519081016040528092919081815260200182805460018160011615610100020316600290048015610b755780601f10610b4a57610100808354040283529160200191610b75565b820191906000526020600020905b815481529060010190602001808311610b5857829003601f168201915b50505050509350818054600181600116156101000203166002900480601f016020809104026020016040519081016040528092919081815260200182805460018160011615610100020316600290048015610c115780601f10610be657610100808354040283529160200191610c11565b820191906000526020600020905b815481529060010190602001808311610bf457829003601f168201915b50505050509150945094509450945094509091929394565b828054600181600116156101000203166002900490600052602060002090601f016020900481019282601f10610c6a57803560ff1916838001178555610c98565b82800160010185558215610c98579182015b82811115610c97578235825591602001919060010190610c7c565b5b509050610ca59190610ca9565b5090565b610ccb91905b80821115610cc7576000816000905550600101610caf565b5090565b905600a165627a7a72305820351e79aae8ea479fb434ded838c960f10dd9b72006b68392be776bb82f51b9d40029",
  "source": "pragma solidity^0.4.24;\n\nimport \"./AccessControl.sol\";\n\n// 版权注册合约\n// 合约说明， 由于版权注册登录信息不多，直接生成一个合约， 通过合约地址， 可以获取相关信息\n// 作者首先上传资源到服务器，获取ipfs二次哈希，然后调用合约登记版权\n// 第二种方案，  版权注册生成合约， 而是在注册合约上面添加数据， 通过合约地址和版权tokenId 获取相关信息\n// @param fees  版权注册手续费\n// @param bookName  书名\n// @param authorName 作者笔名\n// @param authorAddress 收款地址\n// @ipfsHash  书本ipfs二次哈希\n// @timestamp 版权登记时间， 返回从1970到现在的秒数\ncontract BookCopyrightCreate is AccessControl{      \n\n    uint256 private fees = 0;\n    string private bookName;\n    string private authorName;\n    address private authorAddress;\n    string private ipfsHash;\n    uint256 private timestamp;\n\n    event _RegisterCopyright(string _bookName, string authorName, address _authorAddress, string _copyrightAddress, uint256 _timestamp);\n\n    function setFees(uint256 _fees) external onlyCEO{   // 设置版权登记费用\n        fees = _fees;\n    }\n\n\n    // 注册版权\n    // @param  _bookName, _authorName, _authorAddress, _ipfsHash \n    function registerCopyright(string _bookName, string _authorName, address _authorAddress, string _ipfsHash) external payable  {  // 注册版权\n        require(msg.value >= fees);\n        bookName = _bookName;\n        authorName = _authorName;\n        authorAddress = _authorAddress;\n        ipfsHash = _ipfsHash;\n        timestamp = now;\n        emit _RegisterCopyright(bookName, authorName, authorAddress, ipfsHash, timestamp);\n\n        if(fees != 0) {\n            ceoAddress.transfer(fees);\n        }\n        \n        uint256 excessPrice = msg.value - fees;\n        if(excessPrice != 0) {\n            msg.sender.transfer(excessPrice);\n        }     \n    }\n\n    // 获取版权相关信息\n    // 返回...\n    function getCopyright() external view returns(string, string, address, string, uint256) {  // 获得版权信息\n        return (bookName, authorName, authorAddress, ipfsHash, timestamp);\n    }\n}\n",
  "sourcePath": "F:\\ChainBook\\smartcontracts\\contracts\\BookCopyrightCreate.sol",
  "compiler": {
    "name": "solc",
    "version": "0.4.24+commit.e67f0147.Emscripten.clang"
  },
  "schemaVersion": "2.0.0",
  "updatedAt": "2018-06-03T16:52:07.409Z"
}