{
  "contractName": "BookOwnerShip",
  "abi": [
    {
      "constant": true,
      "inputs": [
        {
          "name": "_interfaceID",
          "type": "bytes4"
        }
      ],
      "name": "supportsInterface",
      "outputs": [
        {
          "name": "",
          "type": "bool"
        }
      ],
      "payable": false,
      "stateMutability": "view",
      "type": "function"
    },
    {
      "constant": true,
      "inputs": [],
      "name": "authorAddress",
      "outputs": [
        {
          "name": "",
          "type": "address"
        }
      ],
      "payable": false,
      "stateMutability": "view",
      "type": "function"
    },
    {
      "constant": true,
      "inputs": [
        {
          "name": "",
          "type": "uint256"
        }
      ],
      "name": "bookIndexToOwner",
      "outputs": [
        {
          "name": "",
          "type": "address"
        }
      ],
      "payable": false,
      "stateMutability": "view",
      "type": "function"
    },
    {
      "constant": false,
      "inputs": [
        {
          "name": "_to",
          "type": "address"
        },
        {
          "name": "_tokenId",
          "type": "uint256"
        }
      ],
      "name": "approve",
      "outputs": [],
      "payable": true,
      "stateMutability": "payable",
      "type": "function"
    },
    {
      "constant": true,
      "inputs": [],
      "name": "ceoAddress",
      "outputs": [
        {
          "name": "",
          "type": "address"
        }
      ],
      "payable": false,
      "stateMutability": "view",
      "type": "function"
    },
    {
      "constant": true,
      "inputs": [
        {
          "name": "_tokenId",
          "type": "uint256"
        }
      ],
      "name": "isRent",
      "outputs": [
        {
          "name": "",
          "type": "bool"
        }
      ],
      "payable": false,
      "stateMutability": "view",
      "type": "function"
    },
    {
      "constant": true,
      "inputs": [
        {
          "name": "_tokenId",
          "type": "uint256"
        }
      ],
      "name": "isLease",
      "outputs": [
        {
          "name": "",
          "type": "bool"
        }
      ],
      "payable": false,
      "stateMutability": "view",
      "type": "function"
    },
    {
      "constant": true,
      "inputs": [],
      "name": "totalAmount",
      "outputs": [
        {
          "name": "",
          "type": "uint32"
        }
      ],
      "payable": false,
      "stateMutability": "view",
      "type": "function"
    },
    {
      "constant": true,
      "inputs": [
        {
          "name": "_tokenId",
          "type": "uint256"
        }
      ],
      "name": "isSell",
      "outputs": [
        {
          "name": "",
          "type": "bool"
        }
      ],
      "payable": false,
      "stateMutability": "view",
      "type": "function"
    },
    {
      "constant": true,
      "inputs": [],
      "name": "bookName",
      "outputs": [
        {
          "name": "",
          "type": "string"
        }
      ],
      "payable": false,
      "stateMutability": "view",
      "type": "function"
    },
    {
      "constant": true,
      "inputs": [
        {
          "name": "",
          "type": "uint256"
        }
      ],
      "name": "bookIndexTorentTime",
      "outputs": [
        {
          "name": "",
          "type": "uint256"
        }
      ],
      "payable": false,
      "stateMutability": "view",
      "type": "function"
    },
    {
      "constant": false,
      "inputs": [
        {
          "name": "_from",
          "type": "address"
        },
        {
          "name": "_to",
          "type": "address"
        },
        {
          "name": "_tokenId",
          "type": "uint256"
        }
      ],
      "name": "transferFrom",
      "outputs": [],
      "payable": true,
      "stateMutability": "payable",
      "type": "function"
    },
    {
      "constant": false,
      "inputs": [
        {
          "name": "_newCEO",
          "type": "address"
        }
      ],
      "name": "setCEO",
      "outputs": [],
      "payable": false,
      "stateMutability": "nonpayable",
      "type": "function"
    },
    {
      "constant": true,
      "inputs": [],
      "name": "nowTime",
      "outputs": [
        {
          "name": "",
          "type": "uint256"
        }
      ],
      "payable": false,
      "stateMutability": "view",
      "type": "function"
    },
    {
      "constant": true,
      "inputs": [
        {
          "name": "",
          "type": "uint256"
        }
      ],
      "name": "rentAllowedToAddress",
      "outputs": [
        {
          "name": "",
          "type": "address"
        }
      ],
      "payable": false,
      "stateMutability": "view",
      "type": "function"
    },
    {
      "constant": false,
      "inputs": [
        {
          "name": "_tokenId",
          "type": "uint256"
        }
      ],
      "name": "sellCancel",
      "outputs": [],
      "payable": false,
      "stateMutability": "nonpayable",
      "type": "function"
    },
    {
      "constant": false,
      "inputs": [],
      "name": "unpause",
      "outputs": [],
      "payable": false,
      "stateMutability": "nonpayable",
      "type": "function"
    },
    {
      "constant": true,
      "inputs": [],
      "name": "_remain",
      "outputs": [
        {
          "name": "",
          "type": "uint256"
        }
      ],
      "payable": false,
      "stateMutability": "view",
      "type": "function"
    },
    {
      "constant": true,
      "inputs": [
        {
          "name": "",
          "type": "uint256"
        }
      ],
      "name": "bookIndexToSell",
      "outputs": [
        {
          "name": "",
          "type": "bool"
        }
      ],
      "payable": false,
      "stateMutability": "view",
      "type": "function"
    },
    {
      "constant": true,
      "inputs": [],
      "name": "paused",
      "outputs": [
        {
          "name": "",
          "type": "bool"
        }
      ],
      "payable": false,
      "stateMutability": "view",
      "type": "function"
    },
    {
      "constant": false,
      "inputs": [
        {
          "name": "_tokenId",
          "type": "uint256"
        }
      ],
      "name": "creatRent",
      "outputs": [],
      "payable": false,
      "stateMutability": "nonpayable",
      "type": "function"
    },
    {
      "constant": true,
      "inputs": [
        {
          "name": "_owner",
          "type": "address"
        }
      ],
      "name": "balanceOf",
      "outputs": [
        {
          "name": "",
          "type": "uint256"
        }
      ],
      "payable": false,
      "stateMutability": "view",
      "type": "function"
    },
    {
      "constant": true,
      "inputs": [],
      "name": "limitAmount",
      "outputs": [
        {
          "name": "",
          "type": "uint256"
        }
      ],
      "payable": false,
      "stateMutability": "view",
      "type": "function"
    },
    {
      "constant": false,
      "inputs": [],
      "name": "pause",
      "outputs": [],
      "payable": false,
      "stateMutability": "nonpayable",
      "type": "function"
    },
    {
      "constant": true,
      "inputs": [],
      "name": "publishedAmount",
      "outputs": [
        {
          "name": "",
          "type": "uint256"
        }
      ],
      "payable": false,
      "stateMutability": "view",
      "type": "function"
    },
    {
      "constant": true,
      "inputs": [],
      "name": "price",
      "outputs": [
        {
          "name": "",
          "type": "uint256"
        }
      ],
      "payable": false,
      "stateMutability": "view",
      "type": "function"
    },
    {
      "constant": false,
      "inputs": [
        {
          "name": "_tokenId",
          "type": "uint256"
        },
        {
          "name": "_leaser",
          "type": "address"
        },
        {
          "name": "_time",
          "type": "uint256"
        }
      ],
      "name": "rentTo",
      "outputs": [],
      "payable": false,
      "stateMutability": "nonpayable",
      "type": "function"
    },
    {
      "constant": true,
      "inputs": [],
      "name": "author",
      "outputs": [
        {
          "name": "",
          "type": "string"
        }
      ],
      "payable": false,
      "stateMutability": "view",
      "type": "function"
    },
    {
      "constant": false,
      "inputs": [
        {
          "name": "_to",
          "type": "address"
        },
        {
          "name": "_tokenId",
          "type": "uint256"
        }
      ],
      "name": "transfer",
      "outputs": [],
      "payable": false,
      "stateMutability": "nonpayable",
      "type": "function"
    },
    {
      "constant": true,
      "inputs": [
        {
          "name": "",
          "type": "uint256"
        }
      ],
      "name": "bookIndexToApproved",
      "outputs": [
        {
          "name": "",
          "type": "address"
        }
      ],
      "payable": false,
      "stateMutability": "view",
      "type": "function"
    },
    {
      "constant": true,
      "inputs": [
        {
          "name": "",
          "type": "uint256"
        }
      ],
      "name": "bookIndexToRent",
      "outputs": [
        {
          "name": "",
          "type": "bool"
        }
      ],
      "payable": false,
      "stateMutability": "view",
      "type": "function"
    },
    {
      "constant": false,
      "inputs": [
        {
          "name": "_tokenId",
          "type": "uint256"
        }
      ],
      "name": "sellFinish",
      "outputs": [],
      "payable": false,
      "stateMutability": "nonpayable",
      "type": "function"
    },
    {
      "constant": true,
      "inputs": [
        {
          "name": "_tokenId",
          "type": "uint256"
        }
      ],
      "name": "rentTimes",
      "outputs": [
        {
          "name": "",
          "type": "uint256"
        }
      ],
      "payable": false,
      "stateMutability": "view",
      "type": "function"
    },
    {
      "constant": true,
      "inputs": [
        {
          "name": "",
          "type": "address"
        }
      ],
      "name": "ownershipTokenCount",
      "outputs": [
        {
          "name": "",
          "type": "uint256"
        }
      ],
      "payable": false,
      "stateMutability": "view",
      "type": "function"
    },
    {
      "constant": false,
      "inputs": [
        {
          "name": "_tokenId",
          "type": "uint256"
        }
      ],
      "name": "creatSell",
      "outputs": [],
      "payable": false,
      "stateMutability": "nonpayable",
      "type": "function"
    },
    {
      "constant": true,
      "inputs": [
        {
          "name": "_tokenId",
          "type": "uint256"
        }
      ],
      "name": "tokenIdToLeaser",
      "outputs": [
        {
          "name": "",
          "type": "address"
        }
      ],
      "payable": false,
      "stateMutability": "view",
      "type": "function"
    },
    {
      "constant": false,
      "inputs": [
        {
          "name": "_tokenId",
          "type": "uint256"
        }
      ],
      "name": "rentCancel",
      "outputs": [],
      "payable": false,
      "stateMutability": "nonpayable",
      "type": "function"
    },
    {
      "inputs": [
        {
          "name": "_copyright",
          "type": "address"
        },
        {
          "name": "_copyrightId",
          "type": "uint256"
        },
        {
          "name": "_price",
          "type": "uint256"
        },
        {
          "name": "_totalAmount",
          "type": "uint256"
        },
        {
          "name": "_limitAmount",
          "type": "uint256"
        }
      ],
      "payable": false,
      "stateMutability": "nonpayable",
      "type": "constructor"
    },
    {
      "anonymous": false,
      "inputs": [
        {
          "indexed": true,
          "name": "_from",
          "type": "address"
        },
        {
          "indexed": true,
          "name": "_to",
          "type": "address"
        },
        {
          "indexed": true,
          "name": "_tokenId",
          "type": "uint256"
        }
      ],
      "name": "Transfer",
      "type": "event"
    },
    {
      "anonymous": false,
      "inputs": [
        {
          "indexed": true,
          "name": "_owner",
          "type": "address"
        },
        {
          "indexed": true,
          "name": "_approved",
          "type": "address"
        },
        {
          "indexed": true,
          "name": "_tokenId",
          "type": "uint256"
        }
      ],
      "name": "Approval",
      "type": "event"
    },
    {
      "anonymous": false,
      "inputs": [
        {
          "indexed": false,
          "name": "_tokenId",
          "type": "uint256"
        },
        {
          "indexed": false,
          "name": "_owner",
          "type": "address"
        }
      ],
      "name": "CreatBook",
      "type": "event"
    },
    {
      "constant": false,
      "inputs": [
        {
          "name": "_owner",
          "type": "address"
        }
      ],
      "name": "destoryContract",
      "outputs": [],
      "payable": false,
      "stateMutability": "nonpayable",
      "type": "function"
    },
    {
      "constant": true,
      "inputs": [],
      "name": "getCopyrightInfo",
      "outputs": [
        {
          "name": "",
          "type": "string"
        },
        {
          "name": "",
          "type": "string"
        },
        {
          "name": "",
          "type": "uint256"
        },
        {
          "name": "",
          "type": "string"
        },
        {
          "name": "",
          "type": "address"
        },
        {
          "name": "",
          "type": "uint256"
        }
      ],
      "payable": false,
      "stateMutability": "view",
      "type": "function"
    },
    {
      "constant": true,
      "inputs": [
        {
          "name": "_tokenId",
          "type": "uint256"
        }
      ],
      "name": "getBookInfo",
      "outputs": [
        {
          "name": "",
          "type": "uint256"
        },
        {
          "name": "",
          "type": "uint256"
        },
        {
          "name": "",
          "type": "uint256"
        },
        {
          "name": "",
          "type": "address"
        },
        {
          "name": "",
          "type": "bool"
        },
        {
          "name": "",
          "type": "bool"
        }
      ],
      "payable": false,
      "stateMutability": "view",
      "type": "function"
    },
    {
      "constant": true,
      "inputs": [
        {
          "name": "_owner",
          "type": "address"
        },
        {
          "name": "_tokenId",
          "type": "uint256"
        }
      ],
      "name": "allowToRead",
      "outputs": [
        {
          "name": "",
          "type": "bool"
        }
      ],
      "payable": false,
      "stateMutability": "view",
      "type": "function"
    },
    {
      "constant": true,
      "inputs": [
        {
          "name": "_tokenId",
          "type": "uint256"
        }
      ],
      "name": "ownerOf",
      "outputs": [
        {
          "name": "",
          "type": "address"
        }
      ],
      "payable": false,
      "stateMutability": "view",
      "type": "function"
    },
    {
      "constant": true,
      "inputs": [
        {
          "name": "_tokenId",
          "type": "uint256"
        }
      ],
      "name": "getApproved",
      "outputs": [
        {
          "name": "",
          "type": "address"
        }
      ],
      "payable": false,
      "stateMutability": "view",
      "type": "function"
    },
    {
      "constant": true,
      "inputs": [
        {
          "name": "_owner",
          "type": "address"
        }
      ],
      "name": "tokenofOwner",
      "outputs": [
        {
          "name": "ownerTokens",
          "type": "uint256[]"
        }
      ],
      "payable": false,
      "stateMutability": "view",
      "type": "function"
    },
    {
      "constant": false,
      "inputs": [
        {
          "name": "_price",
          "type": "uint256"
        }
      ],
      "name": "setPrice",
      "outputs": [],
      "payable": false,
      "stateMutability": "nonpayable",
      "type": "function"
    },
    {
      "constant": true,
      "inputs": [],
      "name": "getPrice",
      "outputs": [
        {
          "name": "",
          "type": "uint256"
        }
      ],
      "payable": false,
      "stateMutability": "view",
      "type": "function"
    },
    {
      "constant": true,
      "inputs": [],
      "name": "getAuthorAddress",
      "outputs": [
        {
          "name": "",
          "type": "address"
        }
      ],
      "payable": false,
      "stateMutability": "view",
      "type": "function"
    },
    {
      "constant": false,
      "inputs": [
        {
          "name": "_newAddress",
          "type": "address"
        }
      ],
      "name": "setNewAuthorAddress",
      "outputs": [],
      "payable": false,
      "stateMutability": "nonpayable",
      "type": "function"
    },
    {
      "constant": false,
      "inputs": [],
      "name": "buyFromAuthor",
      "outputs": [
        {
          "name": "",
          "type": "uint256"
        }
      ],
      "payable": true,
      "stateMutability": "payable",
      "type": "function"
    }
  ],
  "bytecode": "0x60806040526040805190810160405280600381526020017f5757420000000000000000000000000000000000000000000000000000000000815250600290805190602001906200005192919062000985565b506040805190810160405280600381526020017f7777620000000000000000000000000000000000000000000000000000000000815250600390805190602001906200009f92919062000985565b506103e8600460006101000a81548163ffffffff021916908363ffffffff160217905550600a600655348015620000d557600080fd5b5060405160a08062003c5c8339810180604052810190808051906020019092919080519060200190929190805190602001909291908051906020019092919080519060200190929190505050600085600860006101000a81548173ffffffffffffffffffffffffffffffffffffffff021916908373ffffffffffffffffffffffffffffffffffffffff1602179055508590508073ffffffffffffffffffffffffffffffffffffffff16636f4eaff1866040518263ffffffff167c010000000000000000000000000000000000000000000000000000000002815260040180828152602001915050600060405180830381600087803b158015620001d757600080fd5b505af1158015620001ec573d6000803e3d6000fd5b505050506040513d6000823e3d601f19601f8201168201806040525060a08110156200021757600080fd5b8101908080516401000000008111156200023057600080fd5b828101905060208101848111156200024757600080fd5b81518560018202830111640100000000821117156200026557600080fd5b505092919060200180516401000000008111156200028257600080fd5b828101905060208101848111156200029957600080fd5b8151856001820283011164010000000082111715620002b757600080fd5b5050929190602001805190602001909291908051640100000000811115620002de57600080fd5b82810190506020810184811115620002f557600080fd5b81518560018202830111640100000000821117156200031357600080fd5b50509291906020018051906020019092919050505060026000600360006009600060076000600a60008a919050558991905090805190602001906200035a92919062000985565b508891906101000a81548173ffffffffffffffffffffffffffffffffffffffff021916908373ffffffffffffffffffffffffffffffffffffffff160217905550879190509080519060200190620003b392919062000985565b50869190509080519060200190620003cd92919062000985565b505050505050836005819055508263ffffffff1683141515620003ef57600080fd5b8163ffffffff16821415156200040457600080fd5b836fffffffffffffffffffffffffffffffff16841415156200042557600080fd5b82600460006101000a81548163ffffffff021916908363ffffffff1602179055508163ffffffff166006819055506200046d336200047a640100000000026401000000009004565b5050505050505062000a7c565b60006200048662000a0c565b600080620004a262000654640100000000026401000000009004565b111515620004af57600080fd5b606060405190810160405280600067ffffffffffffffff168152602001600067ffffffffffffffff168152602001426fffffffffffffffffffffffffffffffff1681525091506001808390806001815401808255809150509060018203906000526020600020016000909192909190915060008201518160000160006101000a81548167ffffffffffffffff021916908367ffffffffffffffff16021790555060208201518160000160086101000a81548167ffffffffffffffff021916908367ffffffffffffffff16021790555060408201518160000160106101000a8154816fffffffffffffffffffffffffffffffff02191690836fffffffffffffffffffffffffffffffff1602179055505050039050620005df600085836200067b640100000000026401000000009004565b7f2416e874741589429bc41abb136b7621382afa31b8b896a5a49bc815a00fac0d8185604051808381526020018273ffffffffffffffffffffffffffffffffffffffff1673ffffffffffffffffffffffffffffffffffffffff1681526020019250505060405180910390a18092505050919050565b6000600180549050600460009054906101000a900463ffffffff1663ffffffff1603905090565b600f600082815260200190815260200160002054421115156200069d57600080fd5b3073ffffffffffffffffffffffffffffffffffffffff168273ffffffffffffffffffffffffffffffffffffffff1614151515620006d957600080fd5b6011600082815260200190815260200160002060009054906101000a900460ff161515156200070757600080fd5b6010600082815260200190815260200160002060009054906101000a900460ff161515156200073557600080fd5b600c60008373ffffffffffffffffffffffffffffffffffffffff1673ffffffffffffffffffffffffffffffffffffffff1681526020019081526020016000206000815480929190600101919050555081600b600083815260200190815260200160002060006101000a81548173ffffffffffffffffffffffffffffffffffffffff021916908373ffffffffffffffffffffffffffffffffffffffff160217905550600073ffffffffffffffffffffffffffffffffffffffff168373ffffffffffffffffffffffffffffffffffffffff16141515620008e157600c60008473ffffffffffffffffffffffffffffffffffffffff1673ffffffffffffffffffffffffffffffffffffffff1681526020019081526020016000206000815480929190600190039190505550600e600082815260200190815260200160002060006101000a81549073ffffffffffffffffffffffffffffffffffffffff0219169055600d600082815260200190815260200160002060006101000a81549073ffffffffffffffffffffffffffffffffffffffff0219169055600f6000828152602001908152602001600020600090555b7fddf252ad1be2c89b69c2b068fc378daa952ba7f163c4a11628f55a4df523b3ef838383604051808473ffffffffffffffffffffffffffffffffffffffff1673ffffffffffffffffffffffffffffffffffffffff1681526020018373ffffffffffffffffffffffffffffffffffffffff1673ffffffffffffffffffffffffffffffffffffffff168152602001828152602001935050505060405180910390a1505050565b828054600181600116156101000203166002900490600052602060002090601f016020900481019282601f10620009c857805160ff1916838001178555620009f9565b82800160010185558215620009f9579182015b82811115620009f8578251825591602001919060010190620009db565b5b50905062000a08919062000a54565b5090565b606060405190810160405280600067ffffffffffffffff168152602001600067ffffffffffffffff16815260200160006fffffffffffffffffffffffffffffffff1681525090565b62000a7991905b8082111562000a7557600081600090555060010162000a5b565b5090565b90565b6131d08062000a8c6000396000f300608060405260043610610251576000357c0100000000000000000000000000000000000000000000000000000000900463ffffffff16806301ffc9a71461025657806302a86781146102ba57806304c895f51461031157806306787a0a1461032f578063081812fc1461039c578063095ea7b3146104095780630a0f81681461044957806312b9cb47146104a05780631931ee79146104e55780631a39d8ef1461052a5780631b01e72c146105615780631d45f3bf146105a657806320ac96a01461063657806323b872dd1461067757806327d7874c146106d7578063335f1b371461071a57806336df851f146107455780633cb26817146107b25780633f4ba83a146107df57806343124138146107f65780634f3f8b7b1461082157806354686d411461086657806357a26847146108a95780635c975abb1461094157806362d12877146109705780636352211e1461099d57806370a0823114610a0a578063766dab2114610a6157806378abafaf14610ac65780638456cb5914610af157806385cfdf3a14610b0857806389ab6b3b14610b3357806391b7f5ed14610cdc57806398d5fdca14610d095780639d02a86614610d34578063a035b1fe14610d77578063a4300ee514610da2578063a53bb99014610df9578063a6c3e6b914610e50578063a9059cbb14610ee0578063ad87cbb414610f2d578063b4e318a514610f9a578063b97a15a314610fdf578063bff43dfd1461100c578063cec21acb1461104d578063dadec2c4146110a4578063ea2a7e18146110d1578063f3f8468e1461113e578063f662045b146111d6575b600080fd5b34801561026257600080fd5b506102a060048036038101908080357bffffffffffffffffffffffffffffffffffffffffffffffffffffffff19169060200190929190505050611203565b604051808215151515815260200191505060405180910390f35b3480156102c657600080fd5b506102cf611586565b604051808273ffffffffffffffffffffffffffffffffffffffff1673ffffffffffffffffffffffffffffffffffffffff16815260200191505060405180910390f35b6103196115ac565b6040518082815260200191505060405180910390f35b34801561033b57600080fd5b5061035a600480360381019080803590602001909291905050506116f7565b604051808273ffffffffffffffffffffffffffffffffffffffff1673ffffffffffffffffffffffffffffffffffffffff16815260200191505060405180910390f35b3480156103a857600080fd5b506103c76004803603810190808035906020019092919050505061172a565b604051808273ffffffffffffffffffffffffffffffffffffffff1673ffffffffffffffffffffffffffffffffffffffff16815260200191505060405180910390f35b610447600480360381019080803573ffffffffffffffffffffffffffffffffffffffff16906020019092919080359060200190929190505050611767565b005b34801561045557600080fd5b5061045e611816565b604051808273ffffffffffffffffffffffffffffffffffffffff1673ffffffffffffffffffffffffffffffffffffffff16815260200191505060405180910390f35b3480156104ac57600080fd5b506104cb6004803603810190808035906020019092919050505061183b565b604051808215151515815260200191505060405180910390f35b3480156104f157600080fd5b5061051060048036038101908080359060200190929190505050611883565b604051808215151515815260200191505060405180910390f35b34801561053657600080fd5b5061053f6118a2565b604051808263ffffffff1663ffffffff16815260200191505060405180910390f35b34801561056d57600080fd5b5061058c600480360381019080803590602001909291905050506118b8565b604051808215151515815260200191505060405180910390f35b3480156105b257600080fd5b506105bb6118e2565b6040518080602001828103825283818151815260200191508051906020019080838360005b838110156105fb5780820151818401526020810190506105e0565b50505050905090810190601f1680156106285780820380516001836020036101000a031916815260200191505b509250505060405180910390f35b34801561064257600080fd5b5061066160048036038101908080359060200190929190505050611980565b6040518082815260200191505060405180910390f35b6106d5600480360381019080803573ffffffffffffffffffffffffffffffffffffffff169060200190929190803573ffffffffffffffffffffffffffffffffffffffff16906020019092919080359060200190929190505050611998565b005b3480156106e357600080fd5b50610718600480360381019080803573ffffffffffffffffffffffffffffffffffffffff169060200190929190505050611a65565b005b34801561072657600080fd5b5061072f611b3f565b6040518082815260200191505060405180910390f35b34801561075157600080fd5b5061077060048036038101908080359060200190929190505050611b47565b604051808273ffffffffffffffffffffffffffffffffffffffff1673ffffffffffffffffffffffffffffffffffffffff16815260200191505060405180910390f35b3480156107be57600080fd5b506107dd60048036038101908080359060200190929190505050611b7a565b005b3480156107eb57600080fd5b506107f4611bb5565b005b34801561080257600080fd5b5061080b611c47565b6040518082815260200191505060405180910390f35b34801561082d57600080fd5b5061084c60048036038101908080359060200190929190505050611c6e565b604051808215151515815260200191505060405180910390f35b34801561087257600080fd5b506108a7600480360381019080803573ffffffffffffffffffffffffffffffffffffffff169060200190929190505050611c8e565b005b3480156108b557600080fd5b506108d460048036038101908080359060200190929190505050611d6a565b604051808781526020018681526020018581526020018473ffffffffffffffffffffffffffffffffffffffff1673ffffffffffffffffffffffffffffffffffffffff1681526020018315151515815260200182151515158152602001965050505050505060405180910390f35b34801561094d57600080fd5b50610956611ec8565b604051808215151515815260200191505060405180910390f35b34801561097c57600080fd5b5061099b60048036038101908080359060200190929190505050611edb565b005b3480156109a957600080fd5b506109c860048036038101908080359060200190929190505050611f77565b604051808273ffffffffffffffffffffffffffffffffffffffff1673ffffffffffffffffffffffffffffffffffffffff16815260200191505060405180910390f35b348015610a1657600080fd5b50610a4b600480360381019080803573ffffffffffffffffffffffffffffffffffffffff169060200190929190505050611ff5565b6040518082815260200191505060405180910390f35b348015610a6d57600080fd5b50610aac600480360381019080803573ffffffffffffffffffffffffffffffffffffffff1690602001909291908035906020019092919050505061203e565b604051808215151515815260200191505060405180910390f35b348015610ad257600080fd5b50610adb6120de565b6040518082815260200191505060405180910390f35b348015610afd57600080fd5b50610b066120e4565b005b348015610b1457600080fd5b50610b1d612178565b6040518082815260200191505060405180910390f35b348015610b3f57600080fd5b50610b48612185565b604051808060200180602001878152602001806020018673ffffffffffffffffffffffffffffffffffffffff1673ffffffffffffffffffffffffffffffffffffffff16815260200185815260200184810384528a818151815260200191508051906020019080838360005b83811015610bce578082015181840152602081019050610bb3565b50505050905090810190601f168015610bfb5780820380516001836020036101000a031916815260200191505b50848103835289818151815260200191508051906020019080838360005b83811015610c34578082015181840152602081019050610c19565b50505050905090810190601f168015610c615780820380516001836020036101000a031916815260200191505b50848103825287818151815260200191508051906020019080838360005b83811015610c9a578082015181840152602081019050610c7f565b50505050905090810190601f168015610cc75780820380516001836020036101000a031916815260200191505b50995050505050505050505060405180910390f35b348015610ce857600080fd5b50610d07600480360381019080803590602001909291905050506123bf565b005b348015610d1557600080fd5b50610d1e612445565b6040518082815260200191505060405180910390f35b348015610d4057600080fd5b50610d75600480360381019080803573ffffffffffffffffffffffffffffffffffffffff16906020019092919050505061244f565b005b348015610d8357600080fd5b50610d8c6124c3565b6040518082815260200191505060405180910390f35b348015610dae57600080fd5b50610db76124c9565b604051808273ffffffffffffffffffffffffffffffffffffffff1673ffffffffffffffffffffffffffffffffffffffff16815260200191505060405180910390f35b348015610e0557600080fd5b50610e4e60048036038101908080359060200190929190803573ffffffffffffffffffffffffffffffffffffffff169060200190929190803590602001909291905050506124f3565b005b348015610e5c57600080fd5b50610e6561268a565b6040518080602001828103825283818151815260200191508051906020019080838360005b83811015610ea5578082015181840152602081019050610e8a565b50505050905090810190601f168015610ed25780820380516001836020036101000a031916815260200191505b509250505060405180910390f35b348015610eec57600080fd5b50610f2b600480360381019080803573ffffffffffffffffffffffffffffffffffffffff16906020019092919080359060200190929190505050612728565b005b348015610f3957600080fd5b50610f5860048036038101908080359060200190929190505050612798565b604051808273ffffffffffffffffffffffffffffffffffffffff1673ffffffffffffffffffffffffffffffffffffffff16815260200191505060405180910390f35b348015610fa657600080fd5b50610fc5600480360381019080803590602001909291905050506127cb565b604051808215151515815260200191505060405180910390f35b348015610feb57600080fd5b5061100a600480360381019080803590602001909291905050506127eb565b005b34801561101857600080fd5b5061103760048036038101908080359060200190929190505050612887565b6040518082815260200191505060405180910390f35b34801561105957600080fd5b5061108e600480360381019080803573ffffffffffffffffffffffffffffffffffffffff1690602001909291905050506128a4565b6040518082815260200191505060405180910390f35b3480156110b057600080fd5b506110cf600480360381019080803590602001909291905050506128bc565b005b3480156110dd57600080fd5b506110fc60048036038101908080359060200190929190505050612900565b604051808273ffffffffffffffffffffffffffffffffffffffff1673ffffffffffffffffffffffffffffffffffffffff16815260200191505060405180910390f35b34801561114a57600080fd5b5061117f600480360381019080803573ffffffffffffffffffffffffffffffffffffffff16906020019092919050505061293d565b6040518080602001828103825283818151815260200191508051906020019060200280838360005b838110156111c25780820151818401526020810190506111a7565b505050509050019250505060405180910390f35b3480156111e257600080fd5b5061120160048036038101908080359060200190929190505050612a8a565b005b600060405180807f737570706f727473496e74657266616365286279746573342900000000000000815250601901905060405180910390207bffffffffffffffffffffffffffffffffffffffffffffffffffffffff1916827bffffffffffffffffffffffffffffffffffffffffffffffffffffffff1916148061157f575060405180807f746f6b656e5552492875696e74323536290000000000000000000000000000008152506011019050604051809103902060405180807f676574417070726f7665642875696e74323536290000000000000000000000008152506014019050604051809103902060405180807f7472616e7366657246726f6d28616464726573732c616464726573732c75696e81526020017f74323536290000000000000000000000000000000000000000000000000000008152506025019050604051809103902060405180807f617070726f766528616464726573732c75696e743235362900000000000000008152506018019050604051809103902060405180807f6973417070726f766564466f72416c6c28616464726573732c6164647265737381526020017f29000000000000000000000000000000000000000000000000000000000000008152506021019050604051809103902060405180807f736574417070726f76616c466f72416c6c28616464726573732c626f6f6c2900815250601f019050604051809103902060405180807f736166655472616e7366657246726f6d28616464726573732c6164647265737381526020017f2c75696e743235362900000000000000000000000000000000000000000000008152506029019050604051809103902060405180807f736166655472616e7366657246726f6d28616464726573732c6164647265737381526020017f2c75696e743235362c6279746573290000000000000000000000000000000000815250602f019050604051809103902060405180807f6f776e65724f662875696e7432353629000000000000000000000000000000008152506010019050604051809103902060405180807f62616c616e63654f662861646472657373290000000000000000000000000000815250601201905060405180910390201818181818181818187bffffffffffffffffffffffffffffffffffffffffffffffffffffffff1916827bffffffffffffffffffffffffffffffffffffffffffffffffffffffff1916145b9050919050565b600960009054906101000a900473ffffffffffffffffffffffffffffffffffffffff1681565b60008060008060149054906101000a900460ff161515156115cc57600080fd5b6006546115d833611ff5565b1015156115e457600080fd5b600460009054906101000a900463ffffffff1663ffffffff1660018054905010151561160f57600080fd5b600554341015151561162057600080fd5b61162933612b74565b9150600960009054906101000a900473ffffffffffffffffffffffffffffffffffffffff1673ffffffffffffffffffffffffffffffffffffffff166108fc6005549081150290604051600060405180830381858888f19350505050158015611695573d6000803e3d6000fd5b506005543411156116ef57600554340390503373ffffffffffffffffffffffffffffffffffffffff166108fc829081150290604051600060405180830381858888f193505050501580156116ed573d6000803e3d6000fd5b505b819250505090565b600b6020528060005260406000206000915054906101000a900473ffffffffffffffffffffffffffffffffffffffff1681565b6000600d600083815260200190815260200160002060009054906101000a900473ffffffffffffffffffffffffffffffffffffffff169050919050565b600060149054906101000a900460ff1615151561178357600080fd5b61178d3382612d29565b151561179857600080fd5b6117a0612178565b811015156117ad57600080fd5b6117b78183612d95565b808273ffffffffffffffffffffffffffffffffffffffff163373ffffffffffffffffffffffffffffffffffffffff167f8c5be1e5ebec7d5bd14f71427d1e84f3dd0314c0f7b2291e5b200ac8c7c3b92560405160405180910390a45050565b6000809054906101000a900473ffffffffffffffffffffffffffffffffffffffff1681565b60006011600083815260200190815260200160002060009054906101000a900460ff16801561187c5750600f60008381526020019081526020016000205442115b9050919050565b6000600f60008381526020019081526020016000205442109050919050565b600460009054906101000a900463ffffffff1681565b60006010600083815260200190815260200160002060009054906101000a900460ff169050919050565b60028054600181600116156101000203166002900480601f0160208091040260200160405190810160405280929190818152602001828054600181600116156101000203166002900480156119785780601f1061194d57610100808354040283529160200191611978565b820191906000526020600020905b81548152906001019060200180831161195b57829003601f168201915b505050505081565b600f6020528060005260406000206000915090505481565b600060149054906101000a900460ff161515156119b457600080fd5b600073ffffffffffffffffffffffffffffffffffffffff168273ffffffffffffffffffffffffffffffffffffffff16141515156119f057600080fd5b3073ffffffffffffffffffffffffffffffffffffffff168273ffffffffffffffffffffffffffffffffffffffff1614151515611a2b57600080fd5b611a353382612deb565b1515611a4057600080fd5b611a4a8382612d29565b1515611a5557600080fd5b611a60838383612e57565b505050565b6000809054906101000a900473ffffffffffffffffffffffffffffffffffffffff1673ffffffffffffffffffffffffffffffffffffffff163373ffffffffffffffffffffffffffffffffffffffff16141515611ac057600080fd5b600073ffffffffffffffffffffffffffffffffffffffff168173ffffffffffffffffffffffffffffffffffffffff1614151515611afc57600080fd5b806000806101000a81548173ffffffffffffffffffffffffffffffffffffffff021916908373ffffffffffffffffffffffffffffffffffffffff16021790555050565b600042905090565b600e6020528060005260406000206000915054906101000a900473ffffffffffffffffffffffffffffffffffffffff1681565b611b843382612d29565b1515611b8f57600080fd5b6010600082815260200190815260200160002060006101000a81549060ff021916905550565b6000809054906101000a900473ffffffffffffffffffffffffffffffffffffffff1673ffffffffffffffffffffffffffffffffffffffff163373ffffffffffffffffffffffffffffffffffffffff16141515611c1057600080fd5b600060149054906101000a900460ff161515611c2b57600080fd5b60008060146101000a81548160ff021916908315150217905550565b6000600180549050600460009054906101000a900463ffffffff1663ffffffff1603905090565b60106020528060005260406000206000915054906101000a900460ff1681565b600960009054906101000a900473ffffffffffffffffffffffffffffffffffffffff1673ffffffffffffffffffffffffffffffffffffffff163373ffffffffffffffffffffffffffffffffffffffff16141515611cea57600080fd5b600073ffffffffffffffffffffffffffffffffffffffff168173ffffffffffffffffffffffffffffffffffffffff1614151515611d2657600080fd5b80600960006101000a81548173ffffffffffffffffffffffffffffffffffffffff021916908373ffffffffffffffffffffffffffffffffffffffff16021790555050565b600080600080600080600187815481101515611d8257fe5b9060005260206000200160000160009054906101000a900467ffffffffffffffff16600188815481101515611db357fe5b9060005260206000200160000160089054906101000a900467ffffffffffffffff16600189815481101515611de457fe5b9060005260206000200160000160109054906101000a90046fffffffffffffffffffffffffffffffff16600b60008b815260200190815260200160002060009054906101000a900473ffffffffffffffffffffffffffffffffffffffff16601060008c815260200190815260200160002060009054906101000a900460ff16601160008d815260200190815260200160002060009054906101000a900460ff168567ffffffffffffffff1695508467ffffffffffffffff169450836fffffffffffffffffffffffffffffffff16935095509550955095509550955091939550919395565b600060149054906101000a900460ff1681565b3373ffffffffffffffffffffffffffffffffffffffff16600d600083815260200190815260200160002060009054906101000a900473ffffffffffffffffffffffffffffffffffffffff1673ffffffffffffffffffffffffffffffffffffffff16141515611f4857600080fd5b60016011600083815260200190815260200160002060006101000a81548160ff02191690831515021790555050565b600080600b600084815260200190815260200160002060009054906101000a900473ffffffffffffffffffffffffffffffffffffffff169050600073ffffffffffffffffffffffffffffffffffffffff168173ffffffffffffffffffffffffffffffffffffffff1614151515611fec57600080fd5b80915050919050565b6000600c60008373ffffffffffffffffffffffffffffffffffffffff1673ffffffffffffffffffffffffffffffffffffffff168152602001908152602001600020549050919050565b600061204a8383612d29565b801561205c575061205a82611883565b155b806120d657508273ffffffffffffffffffffffffffffffffffffffff16600e600084815260200190815260200160002060009054906101000a900473ffffffffffffffffffffffffffffffffffffffff1673ffffffffffffffffffffffffffffffffffffffff161480156120d557506120d482611883565b5b5b905092915050565b60065481565b6000809054906101000a900473ffffffffffffffffffffffffffffffffffffffff1673ffffffffffffffffffffffffffffffffffffffff163373ffffffffffffffffffffffffffffffffffffffff1614151561213f57600080fd5b600060149054906101000a900460ff1615151561215b57600080fd5b6001600060146101000a81548160ff021916908315150217905550565b6000600180549050905090565b6060806000606060008060026003600460009054906101000a900463ffffffff166007600860009054906101000a900473ffffffffffffffffffffffffffffffffffffffff16600a54858054600181600116156101000203166002900480601f0160208091040260200160405190810160405280929190818152602001828054600181600116156101000203166002900480156122635780601f1061223857610100808354040283529160200191612263565b820191906000526020600020905b81548152906001019060200180831161224657829003601f168201915b50505050509550848054600181600116156101000203166002900480601f0160208091040260200160405190810160405280929190818152602001828054600181600116156101000203166002900480156122ff5780601f106122d4576101008083540402835291602001916122ff565b820191906000526020600020905b8154815290600101906020018083116122e257829003601f168201915b505050505094508363ffffffff169350828054600181600116156101000203166002900480601f0160208091040260200160405190810160405280929190818152602001828054600181600116156101000203166002900480156123a45780601f10612379576101008083540402835291602001916123a4565b820191906000526020600020905b81548152906001019060200180831161238757829003601f168201915b50505050509250955095509550955095509550909192939495565b3373ffffffffffffffffffffffffffffffffffffffff16600960009054906101000a900473ffffffffffffffffffffffffffffffffffffffff1673ffffffffffffffffffffffffffffffffffffffff1614151561241b57600080fd5b806fffffffffffffffffffffffffffffffff168114151561243b57600080fd5b8060058190555050565b6000600554905090565b6000809054906101000a900473ffffffffffffffffffffffffffffffffffffffff1673ffffffffffffffffffffffffffffffffffffffff163373ffffffffffffffffffffffffffffffffffffffff161415156124aa57600080fd5b8073ffffffffffffffffffffffffffffffffffffffff16ff5b60055481565b6000600960009054906101000a900473ffffffffffffffffffffffffffffffffffffffff16905090565b6124fc83611883565b15151561250857600080fd5b3373ffffffffffffffffffffffffffffffffffffffff16600d600085815260200190815260200160002060009054906101000a900473ffffffffffffffffffffffffffffffffffffffff1673ffffffffffffffffffffffffffffffffffffffff1614151561257557600080fd5b806fffffffffffffffffffffffffffffffff168114151561259557600080fd5b6011600084815260200190815260200160002060006101000a81549060ff021916905581600e600085815260200190815260200160002060006101000a81548173ffffffffffffffffffffffffffffffffffffffff021916908373ffffffffffffffffffffffffffffffffffffffff160217905550804201600f60008581526020019081526020016000208190555060018381548110151561263357fe5b90600052602060002001600001600881819054906101000a900467ffffffffffffffff168092919060010191906101000a81548167ffffffffffffffff021916908367ffffffffffffffff16021790555050505050565b60038054600181600116156101000203166002900480601f0160208091040260200160405190810160405280929190818152602001828054600181600116156101000203166002900480156127205780601f106126f557610100808354040283529160200191612720565b820191906000526020600020905b81548152906001019060200180831161270357829003601f168201915b505050505081565b612733338383612e57565b60018181548110151561274257fe5b90600052602060002001600001600081819054906101000a900467ffffffffffffffff168092919060010191906101000a81548167ffffffffffffffff021916908367ffffffffffffffff160217905550505050565b600d6020528060005260406000206000915054906101000a900473ffffffffffffffffffffffffffffffffffffffff1681565b60116020528060005260406000206000915054906101000a900460ff1681565b6127f53382612d29565b151561280057600080fd5b60018181548110151561280f57fe5b90600052602060002001600001600081819054906101000a900467ffffffffffffffff168092919060010191906101000a81548167ffffffffffffffff021916908367ffffffffffffffff160217905550506010600082815260200190815260200160002060006101000a81549060ff021916905550565b6000600f6000838152602001908152602001600020549050919050565b600c6020528060005260406000206000915090505481565b6128c63382612d29565b15156128d157600080fd5b60016010600083815260200190815260200160002060006101000a81548160ff02191690831515021790555050565b6000600e600083815260200190815260200160002060009054906101000a900473ffffffffffffffffffffffffffffffffffffffff169050919050565b606060006060600080600061295187611ff5565b9450600085141561299457600060405190808252806020026020018201604052801561298c5781602001602082028038833980820191505090505b509550612a80565b846040519080825280602002602001820160405280156129c35781602001602082028038833980820191505090505b5093506129ce612178565b925060009150600190505b8281111515612a7c578673ffffffffffffffffffffffffffffffffffffffff16600b600083815260200190815260200160002060009054906101000a900473ffffffffffffffffffffffffffffffffffffffff1673ffffffffffffffffffffffffffffffffffffffff161415612a6f57808483815181101515612a5857fe5b906020019060200201818152505081806001019250505b80806001019150506129d9565b8395505b5050505050919050565b600d600082815260200190815260200160002060009054906101000a900473ffffffffffffffffffffffffffffffffffffffff1673ffffffffffffffffffffffffffffffffffffffff163373ffffffffffffffffffffffffffffffffffffffff16141515612af757600080fd5b600f60008281526020019081526020016000205442111515612b1857600080fd5b6011600082815260200190815260200160002060006101000a81549060ff0219169055600e600082815260200190815260200160002060006101000a81549073ffffffffffffffffffffffffffffffffffffffff021916905550565b6000612b7e61315c565b600080612b89611c47565b111515612b9557600080fd5b606060405190810160405280600067ffffffffffffffff168152602001600067ffffffffffffffff168152602001426fffffffffffffffffffffffffffffffff1681525091506001808390806001815401808255809150509060018203906000526020600020016000909192909190915060008201518160000160006101000a81548167ffffffffffffffff021916908367ffffffffffffffff16021790555060208201518160000160086101000a81548167ffffffffffffffff021916908367ffffffffffffffff16021790555060408201518160000160106101000a8154816fffffffffffffffffffffffffffffffff02191690836fffffffffffffffffffffffffffffffff1602179055505050039050612cb460008583612e57565b7f2416e874741589429bc41abb136b7621382afa31b8b896a5a49bc815a00fac0d8185604051808381526020018273ffffffffffffffffffffffffffffffffffffffff1673ffffffffffffffffffffffffffffffffffffffff1681526020019250505060405180910390a18092505050919050565b60008273ffffffffffffffffffffffffffffffffffffffff16600b600084815260200190815260200160002060009054906101000a900473ffffffffffffffffffffffffffffffffffffffff1673ffffffffffffffffffffffffffffffffffffffff1614905092915050565b80600d600084815260200190815260200160002060006101000a81548173ffffffffffffffffffffffffffffffffffffffff021916908373ffffffffffffffffffffffffffffffffffffffff1602179055505050565b60008273ffffffffffffffffffffffffffffffffffffffff16600d600084815260200190815260200160002060009054906101000a900473ffffffffffffffffffffffffffffffffffffffff1673ffffffffffffffffffffffffffffffffffffffff1614905092915050565b600f60008281526020019081526020016000205442111515612e7857600080fd5b3073ffffffffffffffffffffffffffffffffffffffff168273ffffffffffffffffffffffffffffffffffffffff1614151515612eb357600080fd5b6011600082815260200190815260200160002060009054906101000a900460ff16151515612ee057600080fd5b6010600082815260200190815260200160002060009054906101000a900460ff16151515612f0d57600080fd5b600c60008373ffffffffffffffffffffffffffffffffffffffff1673ffffffffffffffffffffffffffffffffffffffff1681526020019081526020016000206000815480929190600101919050555081600b600083815260200190815260200160002060006101000a81548173ffffffffffffffffffffffffffffffffffffffff021916908373ffffffffffffffffffffffffffffffffffffffff160217905550600073ffffffffffffffffffffffffffffffffffffffff168373ffffffffffffffffffffffffffffffffffffffff161415156130b857600c60008473ffffffffffffffffffffffffffffffffffffffff1673ffffffffffffffffffffffffffffffffffffffff1681526020019081526020016000206000815480929190600190039190505550600e600082815260200190815260200160002060006101000a81549073ffffffffffffffffffffffffffffffffffffffff0219169055600d600082815260200190815260200160002060006101000a81549073ffffffffffffffffffffffffffffffffffffffff0219169055600f6000828152602001908152602001600020600090555b7fddf252ad1be2c89b69c2b068fc378daa952ba7f163c4a11628f55a4df523b3ef838383604051808473ffffffffffffffffffffffffffffffffffffffff1673ffffffffffffffffffffffffffffffffffffffff1681526020018373ffffffffffffffffffffffffffffffffffffffff1673ffffffffffffffffffffffffffffffffffffffff168152602001828152602001935050505060405180910390a1505050565b606060405190810160405280600067ffffffffffffffff168152602001600067ffffffffffffffff16815260200160006fffffffffffffffffffffffffffffffff16815250905600a165627a7a723058202fc93bb618890ecd924cc8b8d911ab16764cb941a7c509a8bc3016967c2a6dc20029",
  "source": "pragma solidity ^0.4.21;\n\nimport \"./BookTransaction.sol\";\nimport \"./BookCopyrightCreate.sol\";\n\n// @dev \n// @function constructor tokenId0\n// @function destoryContract ,ceo\n// @function getCopyrightInfo  \n// @function getBookInfo \n// @function allowToRead   / \n// @function tokenOfOwner (tokenId)\n// @function buyFromAuthor  \ncontract BookOwnerShip is BookTransaction {    //\n    // \n    // @param _copyright \n    // @param _price \n    // @param _totalAmount \n    // @param _limitAmount    \n    constructor(\n        address _copyright,\n        uint256 _copyrightId,\n        uint256 _price,\n        uint256 _totalAmount,\n        uint256 _limitAmount\n        )\n        public\n    {\n        copyrightAddress = _copyright;\n        BookCopyrightCreate bookCopyright = BookCopyrightCreate(_copyright);\n        (bookName, author, authorAddress, ipfsHash, timestamp) = bookCopyright.getCopyright(_copyrightId);\n        price = _price;\n        require(_totalAmount == uint32(_totalAmount));     //  2^32\n        require(_limitAmount == uint32(_limitAmount));     //  2^32\n        require(_price == uint128(_price));                // \n        totalAmount = uint32(_totalAmount);\n        limitAmount = uint32(_limitAmount);\n        // ceoAddress = address();                          // ====  ====\n        _creatBook(msg.sender);                         // \n    }\n\n    // \n    function destoryContract(address _owner) external onlyCEO {\n        selfdestruct(_owner);\n    }\n\n    //       ipfsHash,   )\n    function getCopyrightInfo()\n        external\n        view\n        returns (\n            string ,\n            string ,\n            uint256 ,\n            string ,\n            address ,\n            uint256\n        )\n    {\n        return (bookName, author, totalAmount, ipfsHash, copyrightAddress, timestamp);\n    }\n\n    //        )\n    function getBookInfo(uint256 _tokenId)\n        external\n        view\n        returns(\n            uint256,\n            uint256,\n            uint256,\n            address,\n            bool,\n            bool\n        )\n    {\n        return(\n            books[_tokenId].transactions,\n            books[_tokenId].rents,\n            books[_tokenId].creatTime,\n            bookIndexToOwner[_tokenId],\n            bookIndexToSell[_tokenId],\n            bookIndexToRent[_tokenId]\n        );\n    }\n\n    function allowToRead(address _owner, uint256 _tokenId) external view returns(bool) {  // \n        return(\n            (_owns(_owner, _tokenId) && !isLease(_tokenId))                               // \n            || ( rentAllowedToAddress[_tokenId] == _owner && isLease(_tokenId))           // \n        );\n    }\n\n    function ownerOf(uint256 _tokenId) external view returns(address) {    //\n        address owner = bookIndexToOwner[_tokenId];\n        require(owner != address(0));\n        return owner;\n    }\n\n\n    // token\n    function getApproved(uint256 _tokenId) external view returns (address) {\n        return bookIndexToApproved[_tokenId];\n    }\n\n    // \n    function tokenofOwner(address _owner) external view returns(uint256[] ownerTokens){\n        uint256 tokenCount = balanceOf(_owner);\n\n        if(tokenCount == 0) {\n            return new uint256[](0);\n        } else {\n            uint256[] memory result = new uint256[](tokenCount);\n            uint256 totalBooks = publishedAmount();\n            uint256 resultIndex = 0;\n\n            uint256 bookId;\n\n            for(bookId = 1; bookId <= totalBooks; bookId++) {\n                if(bookIndexToOwner[bookId] == _owner) {\n                    result[resultIndex] = bookId;\n                    resultIndex++;\n                }\n            }\n        }\n\n        return result;\n    }\n\n    // @dev \n    function setPrice(uint256 _price) external {\n        require(authorAddress == msg.sender);\n        require(_price == uint128(_price));\n        price = _price;\n    }\n\n    // @dev \n    function getPrice() external view returns(uint256){\n      return price;\n    }\n\n    function getAuthorAddress() external view returns(address) {\n      return authorAddress;\n    }\n\n    // @dev \n    function setNewAuthorAddress(address _newAddress) external {\n        require(msg.sender == authorAddress);\n        require(_newAddress != address(0));\n        authorAddress = _newAddress;\n    }\n\n    // @dev \n    function buyFromAuthor() external payable whenNotPaused returns(uint256) {\n        require(balanceOf(msg.sender) < limitAmount);\n        require(books.length < totalAmount);\n        require(msg.value >= price);\n        uint256 _tokenId = _creatBook(msg.sender);\n        authorAddress.transfer(price);\n        if(msg.value > price) {\n            uint256 excessPrice = msg.value - price;   // safemath ???\n            msg.sender.transfer(excessPrice);\n        }\n        return _tokenId;\n    }\n}\n",
  "sourcePath": "F:\\ChainBook\\smartcontracts\\contracts\\BookOwnerShip.sol",
  "compiler": {
    "name": "solc",
    "version": "0.4.24+commit.e67f0147.Emscripten.clang"
  },
  "schemaVersion": "2.0.0",
  "updatedAt": "2018-06-11T15:18:35.853Z"
}