{
  "contractName": "BookBase",
  "abi": [
    {
      "constant": true,
      "inputs": [
        {
          "name": "",
          "type": "uint256"
        }
      ],
      "name": "bookIndexToOwner",
      "outputs": [
        {
          "name": "",
          "type": "address"
        }
      ],
      "payable": false,
      "stateMutability": "view",
      "type": "function"
    },
    {
      "constant": true,
      "inputs": [],
      "name": "ceoAddress",
      "outputs": [
        {
          "name": "",
          "type": "address"
        }
      ],
      "payable": false,
      "stateMutability": "view",
      "type": "function"
    },
    {
      "constant": false,
      "inputs": [
        {
          "name": "_newCEO",
          "type": "address"
        }
      ],
      "name": "setCEO",
      "outputs": [],
      "payable": false,
      "stateMutability": "nonpayable",
      "type": "function"
    },
    {
      "constant": true,
      "inputs": [
        {
          "name": "",
          "type": "uint256"
        }
      ],
      "name": "rentAllowedToAddress",
      "outputs": [
        {
          "name": "",
          "type": "address"
        }
      ],
      "payable": false,
      "stateMutability": "view",
      "type": "function"
    },
    {
      "constant": false,
      "inputs": [],
      "name": "unpause",
      "outputs": [],
      "payable": false,
      "stateMutability": "nonpayable",
      "type": "function"
    },
    {
      "constant": true,
      "inputs": [
        {
          "name": "",
          "type": "uint256"
        }
      ],
      "name": "bookIndexToSell",
      "outputs": [
        {
          "name": "",
          "type": "bool"
        }
      ],
      "payable": false,
      "stateMutability": "view",
      "type": "function"
    },
    {
      "constant": true,
      "inputs": [],
      "name": "paused",
      "outputs": [
        {
          "name": "",
          "type": "bool"
        }
      ],
      "payable": false,
      "stateMutability": "view",
      "type": "function"
    },
    {
      "constant": false,
      "inputs": [],
      "name": "pause",
      "outputs": [],
      "payable": false,
      "stateMutability": "nonpayable",
      "type": "function"
    },
    {
      "constant": true,
      "inputs": [
        {
          "name": "",
          "type": "uint256"
        }
      ],
      "name": "bookIndexToApproved",
      "outputs": [
        {
          "name": "",
          "type": "address"
        }
      ],
      "payable": false,
      "stateMutability": "view",
      "type": "function"
    },
    {
      "constant": true,
      "inputs": [
        {
          "name": "",
          "type": "uint256"
        }
      ],
      "name": "bookIndexToRent",
      "outputs": [
        {
          "name": "",
          "type": "bool"
        }
      ],
      "payable": false,
      "stateMutability": "view",
      "type": "function"
    },
    {
      "constant": true,
      "inputs": [
        {
          "name": "",
          "type": "address"
        }
      ],
      "name": "ownershipTokenCount",
      "outputs": [
        {
          "name": "",
          "type": "uint256"
        }
      ],
      "payable": false,
      "stateMutability": "view",
      "type": "function"
    },
    {
      "anonymous": false,
      "inputs": [
        {
          "indexed": false,
          "name": "_from",
          "type": "address"
        },
        {
          "indexed": false,
          "name": "_to",
          "type": "address"
        },
        {
          "indexed": false,
          "name": "_tokenId",
          "type": "uint256"
        }
      ],
      "name": "Transfer",
      "type": "event"
    },
    {
      "anonymous": false,
      "inputs": [
        {
          "indexed": false,
          "name": "_tokenId",
          "type": "uint256"
        },
        {
          "indexed": false,
          "name": "_owner",
          "type": "address"
        }
      ],
      "name": "CreatBook",
      "type": "event"
    },
    {
      "constant": true,
      "inputs": [],
      "name": "_remain",
      "outputs": [
        {
          "name": "",
          "type": "uint256"
        }
      ],
      "payable": false,
      "stateMutability": "view",
      "type": "function"
    }
  ],
  "bytecode": "0x608060405260008060006101000a81548173ffffffffffffffffffffffffffffffffffffffff021916908373ffffffffffffffffffffffffffffffffffffffff1602179055506040805190810160405280600381526020017f575742000000000000000000000000000000000000000000000000000000000081525060029080519060200190610090929190610117565b506040805190810160405280600381526020017f7777620000000000000000000000000000000000000000000000000000000000815250600390805190602001906100dc929190610117565b506103e8600460006101000a81548163ffffffff021916908363ffffffff160217905550600a60065534801561011157600080fd5b506101bc565b828054600181600116156101000203166002900490600052602060002090601f016020900481019282601f1061015857805160ff1916838001178555610186565b82800160010185558215610186579182015b8281111561018557825182559160200191906001019061016a565b5b5090506101939190610197565b5090565b6101b991905b808211156101b557600081600090555060010161019d565b5090565b90565b610785806101cb6000396000f3006080604052600436106100ba576000357c0100000000000000000000000000000000000000000000000000000000900463ffffffff16806306787a0a146100bf5780630a0f81681461012c57806327d7874c1461018357806336df851f146101c65780633f4ba83a14610233578063431241381461024a5780634f3f8b7b146102755780635c975abb146102ba5780638456cb59146102e9578063ad87cbb414610300578063b4e318a51461036d578063cec21acb146103b2575b600080fd5b3480156100cb57600080fd5b506100ea60048036038101908080359060200190929190505050610409565b604051808273ffffffffffffffffffffffffffffffffffffffff1673ffffffffffffffffffffffffffffffffffffffff16815260200191505060405180910390f35b34801561013857600080fd5b5061014161043c565b604051808273ffffffffffffffffffffffffffffffffffffffff1673ffffffffffffffffffffffffffffffffffffffff16815260200191505060405180910390f35b34801561018f57600080fd5b506101c4600480360381019080803573ffffffffffffffffffffffffffffffffffffffff169060200190929190505050610461565b005b3480156101d257600080fd5b506101f16004803603810190808035906020019092919050505061053b565b604051808273ffffffffffffffffffffffffffffffffffffffff1673ffffffffffffffffffffffffffffffffffffffff16815260200191505060405180910390f35b34801561023f57600080fd5b5061024861056e565b005b34801561025657600080fd5b5061025f610600565b6040518082815260200191505060405180910390f35b34801561028157600080fd5b506102a060048036038101908080359060200190929190505050610627565b604051808215151515815260200191505060405180910390f35b3480156102c657600080fd5b506102cf610647565b604051808215151515815260200191505060405180910390f35b3480156102f557600080fd5b506102fe61065a565b005b34801561030c57600080fd5b5061032b600480360381019080803590602001909291905050506106ee565b604051808273ffffffffffffffffffffffffffffffffffffffff1673ffffffffffffffffffffffffffffffffffffffff16815260200191505060405180910390f35b34801561037957600080fd5b5061039860048036038101908080359060200190929190505050610721565b604051808215151515815260200191505060405180910390f35b3480156103be57600080fd5b506103f3600480360381019080803573ffffffffffffffffffffffffffffffffffffffff169060200190929190505050610741565b6040518082815260200191505060405180910390f35b600b6020528060005260406000206000915054906101000a900473ffffffffffffffffffffffffffffffffffffffff1681565b6000809054906101000a900473ffffffffffffffffffffffffffffffffffffffff1681565b6000809054906101000a900473ffffffffffffffffffffffffffffffffffffffff1673ffffffffffffffffffffffffffffffffffffffff163373ffffffffffffffffffffffffffffffffffffffff161415156104bc57600080fd5b600073ffffffffffffffffffffffffffffffffffffffff168173ffffffffffffffffffffffffffffffffffffffff16141515156104f857600080fd5b806000806101000a81548173ffffffffffffffffffffffffffffffffffffffff021916908373ffffffffffffffffffffffffffffffffffffffff16021790555050565b600e6020528060005260406000206000915054906101000a900473ffffffffffffffffffffffffffffffffffffffff1681565b6000809054906101000a900473ffffffffffffffffffffffffffffffffffffffff1673ffffffffffffffffffffffffffffffffffffffff163373ffffffffffffffffffffffffffffffffffffffff161415156105c957600080fd5b600060149054906101000a900460ff1615156105e457600080fd5b60008060146101000a81548160ff021916908315150217905550565b6000600180549050600460009054906101000a900463ffffffff1663ffffffff1603905090565b600f6020528060005260406000206000915054906101000a900460ff1681565b600060149054906101000a900460ff1681565b6000809054906101000a900473ffffffffffffffffffffffffffffffffffffffff1673ffffffffffffffffffffffffffffffffffffffff163373ffffffffffffffffffffffffffffffffffffffff161415156106b557600080fd5b600060149054906101000a900460ff161515156106d157600080fd5b6001600060146101000a81548160ff021916908315150217905550565b600d6020528060005260406000206000915054906101000a900473ffffffffffffffffffffffffffffffffffffffff1681565b60106020528060005260406000206000915054906101000a900460ff1681565b600c60205280600052604060002060009150905054815600a165627a7a72305820b3795b3342071d5a62267784644605e394a7937da82c68512d3648fb65a1284a0029",
  "source": "pragma solidity ^0.4.24;\n\nimport \"./AccessControl.sol\";\n\ncontract BookBase is AccessControl {      // 书籍的基本参数\n\n    event Transfer(address _from, address _to, uint256 _tokenId);\n\n    event CreatBook(uint256 _tokenId, address _owner);\n\n    struct Book {\n        uint64 transactions;    // 买卖次数\n        uint64 rents;        // 租赁次数\n        uint128 creatTime;    // 发布时间\n    }\n\n    Book[] books;   //所有书籍\n\n    // 书籍基本参数\n    string internal bookName = \"WWB\";     // 书名\n    string internal author = \"wwb\";   // 作者\n    uint32 internal totalAmount = 1000;   // 总发行量\n    uint256 internal price;  // 发行价格\n    uint256 internal limitAmount =  10;    // 设置每个地址最多拥有几本书\n    // copyright\n    string internal ipfsHash;    // 书本ipfs-hash\n    address internal copyrightAddress;    // 版权地址\n    address internal authorAddress;   // 作者地址\n    uint256 timestamp;  // 版权登记时间\n\n    mapping (uint256 => address) public bookIndexToOwner;       // 某本图书的拥有者\n    mapping (address => uint256) public ownershipTokenCount;    // 某个地址拥有的图书数量\n    mapping (uint256 => address) public bookIndexToApproved;    // 第三方中介地址\n    mapping (uint256 => address) public rentAllowedToAddress;   // 租赁图书的地址, 正在出租\n    mapping (uint256 => bool) public bookIndexToSell;         // 是否正在出售\n    mapping (uint256 => bool) public bookIndexToRent;         // 是否正在租赁\n\n    function _transfer(address _from, address _to, uint256 _tokenId) internal {\n        ownershipTokenCount[_to]++;\n\n        bookIndexToOwner[_tokenId] = _to;\n\n         if (_from != address(0)) {  // 不是合约产生的\n            ownershipTokenCount[_from]--;\n            // delete rentAllowedToAddress[_tokenId];\n            delete bookIndexToApproved[_tokenId];\n        }\n        emit Transfer(_from, _to, _tokenId);\n    }\n\n    function _creatBook(address _owner) internal returns(uint256) {       // 由买家执行\n        require(_remain() > 0);\n        Book memory _book = Book(uint64(0),uint64(0),uint128(now));\n        uint256 tokenId = books.push(_book) - 1;\n        _transfer(0, _owner, tokenId);\n        emit CreatBook(tokenId, _owner);\n        return tokenId;\n    }\n\n    function _remain() public view returns(uint256) {\n        return totalAmount - books.length;      // safemath???\n    }\n\n}\n",
  "sourcePath": "F:\\ChainBook\\smartcontracts\\contracts\\BookBase.sol",
  "compiler": {
    "name": "solc",
    "version": "0.4.24+commit.e67f0147.Emscripten.clang"
  },
  "schemaVersion": "2.0.0",
  "updatedAt": "2018-06-03T16:07:19.013Z"
}