{
  "contractName": "BuyAndSell",
  "abi": [
    {
      "constant": true,
      "inputs": [],
      "name": "isready",
      "outputs": [
        {
          "name": "",
          "type": "bool"
        }
      ],
      "payable": false,
      "stateMutability": "view",
      "type": "function"
    },
    {
      "constant": true,
      "inputs": [],
      "name": "nonFungibleContract",
      "outputs": [
        {
          "name": "",
          "type": "address"
        }
      ],
      "payable": false,
      "stateMutability": "view",
      "type": "function"
    },
    {
      "anonymous": false,
      "inputs": [
        {
          "indexed": false,
          "name": "tokenId",
          "type": "uint256"
        },
        {
          "indexed": false,
          "name": "price",
          "type": "uint256"
        },
        {
          "indexed": false,
          "name": "seller",
          "type": "address"
        },
        {
          "indexed": false,
          "name": "sellTime",
          "type": "uint256"
        }
      ],
      "name": "SellCreated",
      "type": "event"
    },
    {
      "anonymous": false,
      "inputs": [
        {
          "indexed": false,
          "name": "tokenId",
          "type": "uint256"
        },
        {
          "indexed": false,
          "name": "price",
          "type": "uint256"
        },
        {
          "indexed": false,
          "name": "buyer",
          "type": "address"
        }
      ],
      "name": "SellSuccessful",
      "type": "event"
    },
    {
      "anonymous": false,
      "inputs": [
        {
          "indexed": false,
          "name": "tokenId",
          "type": "uint256"
        }
      ],
      "name": "AuctionCancelled",
      "type": "event"
    },
    {
      "constant": true,
      "inputs": [],
      "name": "isReady",
      "outputs": [
        {
          "name": "",
          "type": "bool"
        }
      ],
      "payable": false,
      "stateMutability": "view",
      "type": "function"
    },
    {
      "constant": false,
      "inputs": [
        {
          "name": "_nftAddress",
          "type": "address"
        },
        {
          "name": "_cut",
          "type": "uint256"
        }
      ],
      "name": "setERC721Address",
      "outputs": [],
      "payable": false,
      "stateMutability": "nonpayable",
      "type": "function"
    },
    {
      "constant": false,
      "inputs": [],
      "name": "withdrawBalance",
      "outputs": [],
      "payable": false,
      "stateMutability": "nonpayable",
      "type": "function"
    },
    {
      "constant": false,
      "inputs": [
        {
          "name": "_tokenId",
          "type": "uint256"
        },
        {
          "name": "_price",
          "type": "uint256"
        },
        {
          "name": "_seller",
          "type": "address"
        }
      ],
      "name": "sell",
      "outputs": [],
      "payable": false,
      "stateMutability": "nonpayable",
      "type": "function"
    },
    {
      "constant": false,
      "inputs": [
        {
          "name": "_tokenId",
          "type": "uint256"
        },
        {
          "name": "_seller",
          "type": "address"
        }
      ],
      "name": "cancelSell",
      "outputs": [],
      "payable": false,
      "stateMutability": "nonpayable",
      "type": "function"
    },
    {
      "constant": false,
      "inputs": [
        {
          "name": "_tokenId",
          "type": "uint256"
        }
      ],
      "name": "buy",
      "outputs": [],
      "payable": true,
      "stateMutability": "payable",
      "type": "function"
    },
    {
      "constant": true,
      "inputs": [
        {
          "name": "_tokenId",
          "type": "uint256"
        }
      ],
      "name": "getSellInfo",
      "outputs": [
        {
          "name": "seller",
          "type": "address"
        },
        {
          "name": "price",
          "type": "uint256"
        },
        {
          "name": "sellTime",
          "type": "uint256"
        }
      ],
      "payable": false,
      "stateMutability": "view",
      "type": "function"
    },
    {
      "constant": false,
      "inputs": [
        {
          "name": "_tokenId",
          "type": "uint256"
        },
        {
          "name": "_price",
          "type": "uint256"
        }
      ],
      "name": "setPrice",
      "outputs": [],
      "payable": false,
      "stateMutability": "nonpayable",
      "type": "function"
    }
  ],
  "bytecode": "0x60806040526000600360006101000a81548160ff02191690831515021790555034801561002b57600080fd5b50610ca58061003b6000396000f3006080604052600436106100a4576000357c0100000000000000000000000000000000000000000000000000000000900463ffffffff1680635f07dfea146100a95780635fd8c710146100d8578063a094a031146100ef578063adbfdd701461011e578063ccf93f411461016b578063d04c6983146101b8578063d96a094a1461020f578063dd1b7a0f1461022f578063e9bc63f714610286578063f7d9757714610301575b600080fd5b3480156100b557600080fd5b506100be610338565b604051808215151515815260200191505060405180910390f35b3480156100e457600080fd5b506100ed61034b565b005b3480156100fb57600080fd5b506101046103fe565b604051808215151515815260200191505060405180910390f35b34801561012a57600080fd5b5061016960048036038101908080359060200190929190803573ffffffffffffffffffffffffffffffffffffffff169060200190929190505050610415565b005b34801561017757600080fd5b506101b6600480360381019080803573ffffffffffffffffffffffffffffffffffffffff169060200190929190803590602001909291905050506104b2565b005b3480156101c457600080fd5b5061020d6004803603810190808035906020019092919080359060200190929190803573ffffffffffffffffffffffffffffffffffffffff169060200190929190505050610645565b005b61022d60048036038101908080359060200190929190505050610691565b005b34801561023b57600080fd5b506102446106a9565b604051808273ffffffffffffffffffffffffffffffffffffffff1673ffffffffffffffffffffffffffffffffffffffff16815260200191505060405180910390f35b34801561029257600080fd5b506102b1600480360381019080803590602001909291905050506106ce565b604051808473ffffffffffffffffffffffffffffffffffffffff1673ffffffffffffffffffffffffffffffffffffffff168152602001838152602001828152602001935050505060405180910390f35b34801561030d57600080fd5b50610336600480360381019080803590602001909291908035906020019092919050505061073a565b005b600360009054906101000a900460ff1681565b6000806000809054906101000a900473ffffffffffffffffffffffffffffffffffffffff1691508173ffffffffffffffffffffffffffffffffffffffff163373ffffffffffffffffffffffffffffffffffffffff161415156103ac57600080fd5b8173ffffffffffffffffffffffffffffffffffffffff166108fc3073ffffffffffffffffffffffffffffffffffffffff16319081150290604051600060405180830381858888f1935050505090505050565b6000600360009054906101000a900460ff16905090565b600080600260008581526020019081526020016000209150610436826107f6565b151561044157600080fd5b8160000160009054906101000a900473ffffffffffffffffffffffffffffffffffffffff1690508073ffffffffffffffffffffffffffffffffffffffff168373ffffffffffffffffffffffffffffffffffffffff161415156104a257600080fd5b6104ac8482610806565b50505050565b600061271082111515156104c557600080fd5b816001819055508290508073ffffffffffffffffffffffffffffffffffffffff166301ffc9a7639a20483d7c0100000000000000000000000000000000000000000000000000000000026040518263ffffffff167c010000000000000000000000000000000000000000000000000000000002815260040180827bffffffffffffffffffffffffffffffffffffffffffffffffffffffff19167bffffffffffffffffffffffffffffffffffffffffffffffffffffffff19168152602001915050602060405180830381600087803b15801561059f57600080fd5b505af11580156105b3573d6000803e3d6000fd5b505050506040513d60208110156105c957600080fd5b810190808051906020019092919050505015156105e557600080fd5b806000806101000a81548173ffffffffffffffffffffffffffffffffffffffff021916908373ffffffffffffffffffffffffffffffffffffffff1602179055506001600360006101000a81548160ff021916908315150217905550505050565b61064d610c41565b6060604051908101604052808373ffffffffffffffffffffffffffffffffffffffff16815260200184815260200142815250905061068b8482610854565b50505050565b61069b813461094d565b506106a63382610af6565b50565b6000809054906101000a900473ffffffffffffffffffffffffffffffffffffffff1681565b6000806000806002600086815260200190815260200160002090506106f2816107f6565b15156106fd57600080fd5b8060000160009054906101000a900473ffffffffffffffffffffffffffffffffffffffff1681600101548260020154935093509350509193909250565b60008060026000858152602001908152602001600020915061075b826107f6565b151561076657600080fd5b8160000160009054906101000a900473ffffffffffffffffffffffffffffffffffffffff1690508073ffffffffffffffffffffffffffffffffffffffff163373ffffffffffffffffffffffffffffffffffffffff161415156107c757600080fd5b82831415156107d557600080fd5b82600260008681526020019081526020016000206001018190555050505050565b6000808260020154119050919050565b61080f82610bd6565b6108198183610af6565b7f2809c7e17bf978fbc7194c0a694b638c4215e9140cacc6c38ca36010b45697df826040518082815260200191505060405180910390a15050565b806002600084815260200190815260200160002060008201518160000160006101000a81548173ffffffffffffffffffffffffffffffffffffffff021916908373ffffffffffffffffffffffffffffffffffffffff16021790555060208201518160010155604082015181600201559050507f40de101f4cb7aabed340f355654449f4d4293a843d2c80d6e6285dfb39af3ba0828260200151836000015142604051808581526020018481526020018373ffffffffffffffffffffffffffffffffffffffff1673ffffffffffffffffffffffffffffffffffffffff16815260200182815260200194505050505060405180910390a15050565b6000806000806000806000600260008a81526020019081526020016000209550610976866107f6565b151561098157600080fd5b8560010154945084881015151561099757600080fd5b8560000160009054906101000a900473ffffffffffffffffffffffffffffffffffffffff1693506109c789610bd6565b6000851115610a28576109d985610c26565b925082850391508373ffffffffffffffffffffffffffffffffffffffff166108fc839081150290604051600060405180830381858888f19350505050158015610a26573d6000803e3d6000fd5b505b84880390503373ffffffffffffffffffffffffffffffffffffffff166108fc829081150290604051600060405180830381858888f19350505050158015610a73573d6000803e3d6000fd5b507f5f3b9537f93f08f56dadeca54152fc09f2ce8589177a0f4f44fb4f3f6d287bb4898633604051808481526020018381526020018273ffffffffffffffffffffffffffffffffffffffff1673ffffffffffffffffffffffffffffffffffffffff168152602001935050505060405180910390a184965050505050505092915050565b6000809054906101000a900473ffffffffffffffffffffffffffffffffffffffff1673ffffffffffffffffffffffffffffffffffffffff1663a9059cbb83836040518363ffffffff167c0100000000000000000000000000000000000000000000000000000000028152600401808373ffffffffffffffffffffffffffffffffffffffff1673ffffffffffffffffffffffffffffffffffffffff16815260200182815260200192505050600060405180830381600087803b158015610bba57600080fd5b505af1158015610bce573d6000803e3d6000fd5b505050505050565b60026000828152602001908152602001600020600080820160006101000a81549073ffffffffffffffffffffffffffffffffffffffff021916905560018201600090556002820160009055505050565b60006127106001548302811515610c3957fe5b049050919050565b606060405190810160405280600073ffffffffffffffffffffffffffffffffffffffff168152602001600081526020016000815250905600a165627a7a723058200552dd4010e86b8b5aa0a91276c6facb2ca05faaddcc7f26bad8496ebbba9afe0029",
  "source": "pragma solidity ^0.4.24;\r\n\r\nimport \"./BuyAndSellBase.sol\";\r\n\r\ncontract BuyAndSell is BuyAndSellBase {\r\n    bool public isready = false;\r\n    bytes4 constant InterfaceSignature_ERC721 = bytes4(0x9a20483d);\r\n\r\n    function isReady() public view returns(bool) {\r\n        return isready;\r\n    }\r\n\r\n    function setERC721Address(address _nftAddress, uint256 _cut) public {\r\n        require(_cut <= 10000);\r\n        ownerCut = _cut;    \r\n\r\n        ERC721 candidateContract = ERC721(_nftAddress);  \r\n        require(candidateContract.supportsInterface(InterfaceSignature_ERC721));  \r\n        nonFungibleContract = candidateContract;  \r\n        isready = true;\r\n    }\r\n\r\n    function withdrawBalance() external {\r\n        address nftAddress = address(nonFungibleContract);\r\n        require(  \r\n        //    msg.sender == owner ||  \r\n            msg.sender == nftAddress  \r\n        );  \r\n        bool res = nftAddress.send(this.balance); \r\n    }\r\n\r\n    function sell(uint256 _tokenId, uint256 _price, address _seller) external {\r\n        Transaction memory transaction = Transaction(_seller,_price,now);\r\n        _addSellRequest(_tokenId, transaction);\r\n    }\r\n\r\n    function cancelSell(uint256 _tokenId, address _seller) external {\r\n        Transaction storage transaction = tokenIdToTransaction[_tokenId];\r\n        require(_isOnSell(transaction));\r\n        address seller = transaction.seller;\r\n        require(_seller == seller);\r\n        _cancelSell(_tokenId, seller);\r\n    }\r\n\r\n    function buy(uint256 _tokenId) external payable {\r\n        _buy(_tokenId, msg.value);\r\n        _transfer(msg.sender, _tokenId);\r\n    }\r\n\r\n    function getSellInfo(uint256 _tokenId) external view returns\r\n    (\r\n        address seller,\r\n        uint256 price,\r\n        uint256 sellTime\r\n    )\r\n    {\r\n        Transaction storage transaction = tokenIdToTransaction[_tokenId];\r\n        require(_isOnSell(transaction));\r\n        return (transaction.seller, transaction.price, transaction.sellTime);\r\n    }\r\n\r\n    function setPrice(uint256 _tokenId, uint256 _price) external {\r\n        Transaction storage transaction = tokenIdToTransaction[_tokenId];\r\n        require(_isOnSell(transaction));\r\n        address seller = transaction.seller;\r\n        require(msg.sender == seller);\r\n        require(uint256(_price) == _price);\r\n        tokenIdToTransaction[_tokenId].price = _price;\r\n    }\r\n\r\n}",
  "sourcePath": "D:\\programming\\dapp\\ChainBook\\contracts\\BuyAndSell.sol",
  "compiler": {
    "name": "solc",
    "version": "0.4.24+commit.e67f0147.Emscripten.clang"
  },
  "schemaVersion": "2.0.0",
  "updatedAt": "2018-06-01T15:07:29.154Z"
}