{
  "contractName": "BuyAndSellBase",
  "abi": [
    {
      "constant": true,
      "inputs": [],
      "name": "buyCut",
      "outputs": [
        {
          "name": "",
          "type": "uint256"
        }
      ],
      "payable": false,
      "stateMutability": "view",
      "type": "function"
    },
    {
      "anonymous": false,
      "inputs": [
        {
          "indexed": false,
          "name": "_index",
          "type": "bytes32"
        },
        {
          "components": [
            {
              "name": "contractAddress",
              "type": "address"
            },
            {
              "name": "tokenId",
              "type": "uint256"
            },
            {
              "name": "seller",
              "type": "address"
            },
            {
              "name": "price",
              "type": "uint256"
            },
            {
              "name": "sellTime",
              "type": "uint256"
            }
          ],
          "indexed": false,
          "name": "_transaction",
          "type": "tuple"
        }
      ],
      "name": "SellCreated",
      "type": "event"
    },
    {
      "anonymous": false,
      "inputs": [
        {
          "indexed": false,
          "name": "_index",
          "type": "bytes32"
        },
        {
          "indexed": false,
          "name": "_buyer",
          "type": "address"
        }
      ],
      "name": "SellSuccessful",
      "type": "event"
    },
    {
      "anonymous": false,
      "inputs": [
        {
          "indexed": false,
          "name": "_index",
          "type": "bytes32"
        }
      ],
      "name": "SellCancelled",
      "type": "event"
    },
    {
      "constant": false,
      "inputs": [
        {
          "name": "_contract",
          "type": "address"
        },
        {
          "name": "_owner",
          "type": "address"
        },
        {
          "name": "_tokenId",
          "type": "uint256"
        }
      ],
      "name": "_escrow",
      "outputs": [],
      "payable": false,
      "stateMutability": "nonpayable",
      "type": "function"
    }
  ],
  "bytecode": "0x608060405234801561001057600080fd5b50610215806100206000396000f30060806040526004361061004c576000357c0100000000000000000000000000000000000000000000000000000000900463ffffffff168063c09bdd0614610051578063cfddada7146100be575b600080fd5b34801561005d57600080fd5b506100bc600480360381019080803573ffffffffffffffffffffffffffffffffffffffff169060200190929190803573ffffffffffffffffffffffffffffffffffffffff169060200190929190803590602001909291905050506100e9565b005b3480156100ca57600080fd5b506100d36101e3565b6040518082815260200191505060405180910390f35b60008390508073ffffffffffffffffffffffffffffffffffffffff166323b872dd8430856040518463ffffffff167c0100000000000000000000000000000000000000000000000000000000028152600401808473ffffffffffffffffffffffffffffffffffffffff1673ffffffffffffffffffffffffffffffffffffffff1681526020018373ffffffffffffffffffffffffffffffffffffffff1673ffffffffffffffffffffffffffffffffffffffff1681526020018281526020019350505050600060405180830381600087803b1580156101c557600080fd5b505af11580156101d9573d6000803e3d6000fd5b5050505050505050565b600054815600a165627a7a72305820df39420d0d692db4091b7306d3cc5f70a3149cddae2f6955d6749e2e60470bd10029",
  "source": "pragma solidity ^0.4.24;\n\nimport \"./ERC721Expand.sol\";\n\ncontract BuyAndSellBase {\n    struct Transaction {\n        address contractAddress;      // 合约地址\n        uint256 tokenId;              // tokenId\n        address seller;               // 卖家\n        uint256 price;                // 价格\n        uint256 sellTime;             // 售卖时间\n    }\n\n    uint256 public buyCut;   // 手续费\n\n    mapping (bytes32 => Transaction) indexToTransaction;             // index 对应的 交易\n\n    event SellCreated(bytes32 _index, Transaction _transaction);     // 交易产生\n\n    event SellSuccessful(bytes32 _index, address _buyer);            // 交易完成\n\n    event SellCancelled(bytes32 _index);                             // 交易取消\n\n    function _owns(address _contract, address _claimant, uint256 _tokenId) internal view returns(bool) {    // 卖家是否拥有token\n        ERC721Expand  nonFungibleContract = ERC721Expand(_contract);\n        return (nonFungibleContract.ownerOf(_tokenId) == _claimant) ;\n    }\n\n    function _escrow(address _contract, address _owner, uint256 _tokenId) public {    // 将token所有权转移到合约\n        ERC721Expand  nonFungibleContract = ERC721Expand(_contract);\n        nonFungibleContract.transferFrom(_owner, this, _tokenId);\n    }\n\n    function _transfer(address _contract, address _receiver, uint256 _tokenId) internal {   // 将token所有权转移到卖家/买家\n        ERC721Expand  nonFungibleContract = ERC721Expand(_contract);\n        nonFungibleContract.transfer(_receiver, _tokenId);\n    }\n\n    function _addSell(address _contract, uint256 _tokenId, Transaction _transaction) internal {  // 添加买卖交易\n        ERC721Expand  nonFungibleContract = ERC721Expand(_contract);\n        require(_owns(_contract, _transaction.seller, _tokenId));       // 拥有合约\n        require(!nonFungibleContract.isRent(_tokenId));\n        require(nonFungibleContract.tokenIdToRenter(_tokenId) == address(0));\n        _escrow(_contract, _transaction.seller, _tokenId);              // 将token所有权移交到交易合约\n        nonFungibleContract.creatSell(_tokenId);                        // 记录交易\n\n        bytes32 index = _computeIndex(_contract, _tokenId);             //\n        indexToTransaction[index] = _transaction;                       // 登记交易信息\n\n        emit SellCreated(                                               // 发送交易事件\n            index,\n            _transaction\n        );\n    }\n\n    function _cancelSell(address _contract, uint256 _tokenId, address _seller) internal {    // 交易取消\n        ERC721Expand  nonFungibleContract = ERC721Expand(_contract);\n        require(_owns(_contract, _seller, _tokenId));       // _seller 拥有 token\n        require(nonFungibleContract.isSell(_tokenId));      // token 正在售卖\n        nonFungibleContract.sellCancel(_tokenId);           // token 取消售卖\n        bytes32 index = _computeIndex(_contract, _tokenId); // 计算交易index\n        _removeSell(_contract, _tokenId);                   // 下架售卖\n        _transfer(_contract, _seller, _tokenId);            // 归还token\n        emit SellCancelled(index);                          // 发送交易取消事件\n    }\n\n    function _removeSell(address _contract, uint256 _tokenId) internal {    // 交易下架（完成/取消）\n        bytes32 index = _computeIndex(_contract, _tokenId);     // 计算交易index\n        delete indexToTransaction[index];                       // 删除交易信息\n    }\n\n    function _isOnSell(Transaction storage _transaction) internal view returns(bool) {  // token是否正在等待交易\n        return (_transaction.sellTime > 0);\n    }\n\n    function _buy(address _contract, uint256 _tokenId, uint256 _price) internal returns(uint256) {      // 购买token\n        bytes32 index = _computeIndex(_contract, _tokenId);\n        Transaction storage transaction = indexToTransaction[index];\n\n        require(_isOnSell(transaction));\n\n        uint256 price = transaction.price;\n        require(_price >= price);\n\n        address seller = transaction.seller;\n\n        _removeSell(_contract, _tokenId);\n\n        if(price > 0) {\n            uint256 auctioneerCut = _computeCut(price);\n            uint256 sellerProceeds = price - auctioneerCut;\n\n            seller.transfer(sellerProceeds);\n        }\n        uint256 buyExcess = _price - price;\n        msg.sender.transfer(buyExcess);\n\n        _transfer(_contract, msg.sender, _tokenId);\n\n        ERC721Expand  nonFungibleContract = ERC721Expand(_contract);\n        nonFungibleContract.sellFinish(_tokenId);\n        emit SellSuccessful(index, msg.sender);\n\n        return price;\n    }\n\n    function _computeIndex(address _contract, uint256 _tokenId) internal view returns(bytes32) {    // 计算相应token的index\n        return keccak256(_contract, _tokenId);\n    }\n\n    function _computeCut(uint256 _price) internal view returns (uint256) {      // 计算平台分红\n        return _price * buyCut / 10000;  // safemath ???\n    }\n}\n",
  "sourcePath": "F:\\ChainBook\\smartcontracts\\contracts\\BuyAndSellBase.sol",
  "compiler": {
    "name": "solc",
    "version": "0.4.24+commit.e67f0147.Emscripten.clang"
  },
  "schemaVersion": "2.0.0",
  "updatedAt": "2018-06-03T15:44:40.229Z"
}