{
  "contractName": "BuyAndSellBase",
  "abi": [
    {
      "constant": true,
      "inputs": [],
      "name": "ceoAddress",
      "outputs": [
        {
          "name": "",
          "type": "address"
        }
      ],
      "payable": false,
      "stateMutability": "view",
      "type": "function"
    },
    {
      "constant": false,
      "inputs": [
        {
          "name": "addrs",
          "type": "address[]"
        }
      ],
      "name": "removeAddressesFromWhitelist",
      "outputs": [
        {
          "name": "success",
          "type": "bool"
        }
      ],
      "payable": false,
      "stateMutability": "nonpayable",
      "type": "function"
    },
    {
      "constant": false,
      "inputs": [
        {
          "name": "_newCEO",
          "type": "address"
        }
      ],
      "name": "setCEO",
      "outputs": [],
      "payable": false,
      "stateMutability": "nonpayable",
      "type": "function"
    },
    {
      "constant": false,
      "inputs": [
        {
          "name": "addr",
          "type": "address"
        }
      ],
      "name": "removeAddressFromWhitelist",
      "outputs": [
        {
          "name": "success",
          "type": "bool"
        }
      ],
      "payable": false,
      "stateMutability": "nonpayable",
      "type": "function"
    },
    {
      "constant": false,
      "inputs": [],
      "name": "unpause",
      "outputs": [],
      "payable": false,
      "stateMutability": "nonpayable",
      "type": "function"
    },
    {
      "constant": true,
      "inputs": [],
      "name": "paused",
      "outputs": [
        {
          "name": "",
          "type": "bool"
        }
      ],
      "payable": false,
      "stateMutability": "view",
      "type": "function"
    },
    {
      "constant": false,
      "inputs": [
        {
          "name": "addr",
          "type": "address"
        }
      ],
      "name": "addAddressToWhitelist",
      "outputs": [
        {
          "name": "success",
          "type": "bool"
        }
      ],
      "payable": false,
      "stateMutability": "nonpayable",
      "type": "function"
    },
    {
      "constant": false,
      "inputs": [],
      "name": "pause",
      "outputs": [],
      "payable": false,
      "stateMutability": "nonpayable",
      "type": "function"
    },
    {
      "constant": true,
      "inputs": [
        {
          "name": "",
          "type": "address"
        }
      ],
      "name": "whitelist",
      "outputs": [
        {
          "name": "",
          "type": "bool"
        }
      ],
      "payable": false,
      "stateMutability": "view",
      "type": "function"
    },
    {
      "constant": true,
      "inputs": [],
      "name": "buyCut",
      "outputs": [
        {
          "name": "",
          "type": "uint256"
        }
      ],
      "payable": false,
      "stateMutability": "view",
      "type": "function"
    },
    {
      "constant": false,
      "inputs": [
        {
          "name": "addrs",
          "type": "address[]"
        }
      ],
      "name": "addAddressesToWhitelist",
      "outputs": [
        {
          "name": "success",
          "type": "bool"
        }
      ],
      "payable": false,
      "stateMutability": "nonpayable",
      "type": "function"
    },
    {
      "anonymous": false,
      "inputs": [
        {
          "indexed": false,
          "name": "_contract",
          "type": "address"
        },
        {
          "indexed": false,
          "name": "_tokenId",
          "type": "uint256"
        },
        {
          "components": [
            {
              "name": "contractAddress",
              "type": "address"
            },
            {
              "name": "tokenId",
              "type": "uint256"
            },
            {
              "name": "seller",
              "type": "address"
            },
            {
              "name": "price",
              "type": "uint256"
            },
            {
              "name": "sellTime",
              "type": "uint256"
            }
          ],
          "indexed": false,
          "name": "_transaction",
          "type": "tuple"
        }
      ],
      "name": "SellCreated",
      "type": "event"
    },
    {
      "anonymous": false,
      "inputs": [
        {
          "indexed": false,
          "name": "_contract",
          "type": "address"
        },
        {
          "indexed": false,
          "name": "_tokenId",
          "type": "uint256"
        },
        {
          "indexed": false,
          "name": "_buyer",
          "type": "address"
        }
      ],
      "name": "SellSuccessful",
      "type": "event"
    },
    {
      "anonymous": false,
      "inputs": [
        {
          "indexed": false,
          "name": "_contract",
          "type": "address"
        },
        {
          "indexed": false,
          "name": "_tokenId",
          "type": "uint256"
        }
      ],
      "name": "SellCancelled",
      "type": "event"
    },
    {
      "anonymous": false,
      "inputs": [
        {
          "indexed": false,
          "name": "addr",
          "type": "address"
        }
      ],
      "name": "WhitelistedAddressAdded",
      "type": "event"
    },
    {
      "anonymous": false,
      "inputs": [
        {
          "indexed": false,
          "name": "addr",
          "type": "address"
        }
      ],
      "name": "WhitelistedAddressRemoved",
      "type": "event"
    }
  ],
  "bytecode": "0x608060405234801561001057600080fd5b50610aa7806100206000396000f3006080604052600436106100af576000357c0100000000000000000000000000000000000000000000000000000000900463ffffffff1680630a0f8168146100b457806324953eaa1461010b57806327d7874c14610189578063286dd3f5146101cc5780633f4ba83a146102275780635c975abb1461023e5780637b9417c81461026d5780638456cb59146102c85780639b19251a146102df578063cfddada71461033a578063e2ec6ec314610365575b600080fd5b3480156100c057600080fd5b506100c96103e3565b604051808273ffffffffffffffffffffffffffffffffffffffff1673ffffffffffffffffffffffffffffffffffffffff16815260200191505060405180910390f35b34801561011757600080fd5b5061016f60048036038101908080359060200190820180359060200190808060200260200160405190810160405280939291908181526020018383602002808284378201915050505050509192919290505050610408565b604051808215151515815260200191505060405180910390f35b34801561019557600080fd5b506101ca600480360381019080803573ffffffffffffffffffffffffffffffffffffffff1690602001909291905050506104b1565b005b3480156101d857600080fd5b5061020d600480360381019080803573ffffffffffffffffffffffffffffffffffffffff16906020019092919050505061058b565b604051808215151515815260200191505060405180910390f35b34801561023357600080fd5b5061023c6106ff565b005b34801561024a57600080fd5b50610253610791565b604051808215151515815260200191505060405180910390f35b34801561027957600080fd5b506102ae600480360381019080803573ffffffffffffffffffffffffffffffffffffffff1690602001909291905050506107a4565b604051808215151515815260200191505060405180910390f35b3480156102d457600080fd5b506102dd610918565b005b3480156102eb57600080fd5b50610320600480360381019080803573ffffffffffffffffffffffffffffffffffffffff1690602001909291905050506109ac565b604051808215151515815260200191505060405180910390f35b34801561034657600080fd5b5061034f6109cc565b6040518082815260200191505060405180910390f35b34801561037157600080fd5b506103c9600480360381019080803590602001908201803590602001908080602002602001604051908101604052809392919081815260200183836020028082843782019150505050505091929192905050506109d2565b604051808215151515815260200191505060405180910390f35b6000809054906101000a900473ffffffffffffffffffffffffffffffffffffffff1681565b6000806000809054906101000a900473ffffffffffffffffffffffffffffffffffffffff1673ffffffffffffffffffffffffffffffffffffffff163373ffffffffffffffffffffffffffffffffffffffff1614151561046657600080fd5b600090505b82518110156104ab57610494838281518110151561048557fe5b9060200190602002015161058b565b1561049e57600191505b808060010191505061046b565b50919050565b6000809054906101000a900473ffffffffffffffffffffffffffffffffffffffff1673ffffffffffffffffffffffffffffffffffffffff163373ffffffffffffffffffffffffffffffffffffffff1614151561050c57600080fd5b600073ffffffffffffffffffffffffffffffffffffffff168173ffffffffffffffffffffffffffffffffffffffff161415151561054857600080fd5b806000806101000a81548173ffffffffffffffffffffffffffffffffffffffff021916908373ffffffffffffffffffffffffffffffffffffffff16021790555050565b60008060009054906101000a900473ffffffffffffffffffffffffffffffffffffffff1673ffffffffffffffffffffffffffffffffffffffff163373ffffffffffffffffffffffffffffffffffffffff161415156105e857600080fd5b600160008373ffffffffffffffffffffffffffffffffffffffff1673ffffffffffffffffffffffffffffffffffffffff16815260200190815260200160002060009054906101000a900460ff16156106fa576000600160008473ffffffffffffffffffffffffffffffffffffffff1673ffffffffffffffffffffffffffffffffffffffff16815260200190815260200160002060006101000a81548160ff0219169083151502179055507ff1abf01a1043b7c244d128e8595cf0c1d10743b022b03a02dffd8ca3bf729f5a82604051808273ffffffffffffffffffffffffffffffffffffffff1673ffffffffffffffffffffffffffffffffffffffff16815260200191505060405180910390a1600190505b919050565b6000809054906101000a900473ffffffffffffffffffffffffffffffffffffffff1673ffffffffffffffffffffffffffffffffffffffff163373ffffffffffffffffffffffffffffffffffffffff1614151561075a57600080fd5b600060149054906101000a900460ff16151561077557600080fd5b60008060146101000a81548160ff021916908315150217905550565b600060149054906101000a900460ff1681565b60008060009054906101000a900473ffffffffffffffffffffffffffffffffffffffff1673ffffffffffffffffffffffffffffffffffffffff163373ffffffffffffffffffffffffffffffffffffffff1614151561080157600080fd5b600160008373ffffffffffffffffffffffffffffffffffffffff1673ffffffffffffffffffffffffffffffffffffffff16815260200190815260200160002060009054906101000a900460ff1615156109135760018060008473ffffffffffffffffffffffffffffffffffffffff1673ffffffffffffffffffffffffffffffffffffffff16815260200190815260200160002060006101000a81548160ff0219169083151502179055507fd1bba68c128cc3f427e5831b3c6f99f480b6efa6b9e80c757768f6124158cc3f82604051808273ffffffffffffffffffffffffffffffffffffffff1673ffffffffffffffffffffffffffffffffffffffff16815260200191505060405180910390a1600190505b919050565b6000809054906101000a900473ffffffffffffffffffffffffffffffffffffffff1673ffffffffffffffffffffffffffffffffffffffff163373ffffffffffffffffffffffffffffffffffffffff1614151561097357600080fd5b600060149054906101000a900460ff1615151561098f57600080fd5b6001600060146101000a81548160ff021916908315150217905550565b60016020528060005260406000206000915054906101000a900460ff1681565b60025481565b6000806000809054906101000a900473ffffffffffffffffffffffffffffffffffffffff1673ffffffffffffffffffffffffffffffffffffffff163373ffffffffffffffffffffffffffffffffffffffff16141515610a3057600080fd5b600090505b8251811015610a7557610a5e8382815181101515610a4f57fe5b906020019060200201516107a4565b15610a6857600191505b8080600101915050610a35565b509190505600a165627a7a723058205c2d791c43f912586f4ada9fb4c4a43d4d979cc6568354022896482ba740bbb70029",
  "source": "pragma solidity ^0.4.21;\n\nimport \"./ERC721Expand.sol\";\nimport \"./Whitelist.sol\";\nimport \"./SafeMath.sol\";\n\ncontract BuyAndSellBase is Whitelist {\n    using SafeMath for uint256;\n\n    struct Transaction {\n        address contractAddress;      // 合约地址\n        uint256 tokenId;              // tokenId\n        address seller;               // 卖家\n        uint256 price;                // 价格\n        uint256 sellTime;             // 售卖时间\n    }\n\n    uint256 public buyCut;   // 手续费\n\n    mapping (bytes32 => Transaction) indexToTransaction;             // index 对应的 交易\n\n    event SellCreated(address _contract, uint256 _tokenId, Transaction _transaction);     // 交易产生\n\n    event SellSuccessful(address _contract, uint256 _tokenId, address _buyer);            // 交易完成\n\n    event SellCancelled(address _contract, uint256 _tokenId);                             // 交易取消\n\n    function _owns(address _contract, address _claimant, uint256 _tokenId) internal view returns(bool) {    // 卖家是否拥有token\n        ERC721 nonFungibleContract = ERC721(_contract);\n        return (nonFungibleContract.ownerOf(_tokenId) == _claimant) ;\n    }\n\n    // function _escrow(address _contract, address _owner, uint256 _tokenId) public {    // 将token所有权转移到合约\n    //     ERC721Expand  nonFungibleContract = ERC721Expand(_contract);\n    //     nonFungibleContract.transferFrom(_owner, this, _tokenId);\n    // }\n\n    // function _transfer(address _contract, address _receiver, uint256 _tokenId) internal {   // 将token所有权转移到卖家/买家\n    //     ERC721Expand  nonFungibleContract = ERC721Expand(_contract);\n    //     nonFungibleContract.transfer(_receiver, _tokenId);\n    // }\n\n\n    // 添加买卖交易\n    function _addSell(address _contract, uint256 _tokenId, Transaction _transaction) internal returns(bytes32) {\n        ERC721Expand  nonFungibleContract = ERC721Expand(_contract);\n        require(_owns(_contract, msg.sender , _tokenId));       // 拥有合约\n        require(!nonFungibleContract.isRent(_tokenId));\n\n        bytes32 index = _computeIndex(_contract, _tokenId);             //\n        indexToTransaction[index] = _transaction;                       // 登记交易信息\n\n        return index;\n        emit SellCreated(                                               // 发送交易事件\n            _contract,\n            _tokenId,\n            _transaction\n        );\n    }\n\n    function _cancelSell(address _contract, uint256 _tokenId) internal {    // 交易取消\n        //ERC721Expand  nonFungibleContract = ERC721Expand(_contract);\n        require(_owns(_contract, msg.sender, _tokenId));       // msg.sender 拥有 token\n        //require(nonFungibleContract.isSell(_tokenId));      // token 正在售卖\n        _removeSell(_contract, _tokenId);                   // 下架售卖\n        emit SellCancelled(_contract,_tokenId);                          // 发送交易取消事件\n    }\n\n    function _removeSell(address _contract, uint256 _tokenId) internal {    // 交易下架（完成/取消）\n        bytes32 index = _computeIndex(_contract, _tokenId);     // 计算交易index\n        delete indexToTransaction[index];                       // 删除交易信息\n    }\n\n    function _isOnSell(Transaction storage _transaction) internal view returns(bool) {  // token是否正在等待交易\n        return (_transaction.sellTime > uint256(10));\n    }\n\n    // @dev 购买token\n    // @param 合约地址， tokenId,  购买时发送的数量\n    // @return 购买是否成功， 平台所得， 作者所得， 买家所得（多余部分）\n    function _buy(\n        address _contract,\n        uint256 _tokenId,\n        uint256 _price\n        )\n        internal\n        returns(\n            bool,\n            address,\n            uint256,\n            uint256,\n            uint256\n        )\n    {      // 购买token\n        bytes32 index = keccak256(abi.encodePacked(_contract, _tokenId));\n        Transaction storage transaction = indexToTransaction[index];\n\n        require(_isOnSell(transaction));\n\n        uint256 price = transaction.price;\n        require(_price >= price);\n\n        _removeSell(_contract, _tokenId);\n\n        // if(price > 0) {\n            // uint256 auctioneerCut = _computeCut(price);\n            // uint256 sellerProceeds = price - _computeCut(price);\n\n            // seller.transfer(sellerProceeds);\n        // }\n        // uint256 buyExcess = _price - price;\n        // msg.sender.transfer(buyExcess);\n\n        // _transfer(_contract, msg.sender, _tokenId);\n\n        // ERC721Expand  nonFungibleContract = ERC721Expand(_contract);\n        // nonFungibleContract.sellFinish(_tokenId);\n        emit SellSuccessful(_contract, _tokenId, msg.sender);\n\n        return (true, transaction.seller, _computeCut(price), price - _computeCut(price), _price - price);\n    }\n\n    // @dev 计算index\n    function _computeIndex(address _contract, uint256 _tokenId) internal pure returns(bytes32) {\n        return keccak256(abi.encodePacked(_contract, _tokenId));\n    }\n\n    // @dev 计算平台分成\n    function _computeCut(uint256 _price) internal view returns (uint256) {\n        return _price.mul(buyCut).div(10000);\n    }\n\n}\n",
  "sourcePath": "F:\\ChainBook\\smartcontracts\\contracts\\BuyAndSellBase.sol",
  "compiler": {
    "name": "solc",
    "version": "0.4.24+commit.e67f0147.Emscripten.clang"
  },
  "schemaVersion": "2.0.0",
  "updatedAt": "2018-06-11T15:18:35.841Z"
}