{
  "contractName": "BuyAndSellBase",
  "abi": [
    {
      "constant": true,
      "inputs": [],
      "name": "buyCut",
      "outputs": [
        {
          "name": "",
          "type": "uint256"
        }
      ],
      "payable": false,
      "stateMutability": "view",
      "type": "function"
    },
    {
      "anonymous": false,
      "inputs": [
        {
          "indexed": false,
          "name": "_index",
          "type": "bytes32"
        },
        {
          "components": [
            {
              "name": "contractAddress",
              "type": "address"
            },
            {
              "name": "tokenId",
              "type": "uint256"
            },
            {
              "name": "seller",
              "type": "address"
            },
            {
              "name": "price",
              "type": "uint256"
            },
            {
              "name": "sellTime",
              "type": "uint256"
            }
          ],
          "indexed": false,
          "name": "_transaction",
          "type": "tuple"
        }
      ],
      "name": "SellCreated",
      "type": "event"
    },
    {
      "anonymous": false,
      "inputs": [
        {
          "indexed": false,
          "name": "_index",
          "type": "bytes32"
        },
        {
          "indexed": false,
          "name": "_buyer",
          "type": "address"
        }
      ],
      "name": "SellSuccessful",
      "type": "event"
    },
    {
      "anonymous": false,
      "inputs": [
        {
          "indexed": false,
          "name": "_index",
          "type": "bytes32"
        }
      ],
      "name": "AuctionCancelled",
      "type": "event"
    }
  ],
  "bytecode": "0x6080604052348015600f57600080fd5b50609e8061001e6000396000f300608060405260043610603f576000357c0100000000000000000000000000000000000000000000000000000000900463ffffffff168063cfddada7146044575b600080fd5b348015604f57600080fd5b506056606c565b6040518082815260200191505060405180910390f35b600054815600a165627a7a723058200d21d3af454686f36e812824b20129843e867df04fbca5f0d132bb58e075090a0029",
  "source": "pragma solidity ^0.4.24;\r\n\r\nimport \"./ERC721Expand.sol\";\r\n\r\ncontract BuyAndSellBase {\r\n    struct Transaction {\r\n        address contractAddress;      // 合约地址 \r\n        uint256 tokenId;             // tokenId\r\n        address seller;             // 卖家\r\n        uint256 price;             // 价格\r\n        uint256 sellTime;         // 售卖时间\r\n    }\r\n\r\n    uint256 public buyCut;   // 手续费\r\n\r\n    mapping (bytes32 => Transaction) indexToTransaction;  // index 对应的 交易\r\n\r\n    event SellCreated(bytes32 _index, Transaction _transaction);    // 交易产生\r\n\r\n    event SellSuccessful(bytes32 _index, address _buyer);   // 交易完成\r\n\r\n    event AuctionCancelled(bytes32 _index);     // 交易取消\r\n\r\n    function _owns(address _contract, address _claimant, uint256 _tokenId) internal view returns(bool) {    // 卖家是否拥有token\r\n        ERC721Expand  nonFungibleContract = ERC721Expand(_contract);\r\n        return (nonFungibleContract.ownerOf(_tokenId) == _claimant) ;\r\n    }\r\n\r\n    function _escrow(address _contract, address _owner, uint256 _tokenId) internal {    // 将token所有权转移到合约\r\n        ERC721Expand  nonFungibleContract = ERC721Expand(_contract);\r\n        nonFungibleContract.transferFrom(_owner, this, _tokenId);  \r\n    }  \r\n\r\n    function _transfer(address _contract, address _receiver, uint256 _tokenId) internal {   // 将token所有权转移到卖家/买家\r\n        ERC721Expand  nonFungibleContract = ERC721Expand(_contract);\r\n        // nonFungibleContract.transfer(_receiver, _tokenId);  \r\n    }  \r\n\r\n    function _addSell(address _contract, uint256 _tokenId, Transaction _transaction) internal {  // 添加买卖交易\r\n        ERC721Expand  nonFungibleContract = ERC721Expand(_contract);\r\n        require(_owns(_contract, _transaction.seller, _tokenId));      // 拥有合约\r\n        nonFungibleContract.approve(this, _tokenId) ;\r\n        _escrow(_contract, _transaction.seller, _tokenId);\r\n        nonFungibleContract.creatSell(_tokenId);\r\n\r\n        bytes32 index = _computeIndex(_contract, _tokenId);   \r\n        indexToTransaction[index] = _transaction; \r\n        \r\n        emit SellCreated(  \r\n            index,\r\n            _transaction  \r\n        );  \r\n    }  \r\n\r\n    function _cancelSell(address _contract, uint256 _tokenId, address _seller) internal {    // 交易取消\r\n        bytes32 index = _computeIndex(_contract, _tokenId);\r\n        _removeSell(_contract, _tokenId);  \r\n        _transfer(_contract, _seller, _tokenId);  \r\n        emit AuctionCancelled(index);  \r\n    } \r\n\r\n    function _removeSell(address _contract, uint256 _tokenId) internal {    // 交易下架（完成/取消）\r\n        bytes32 index = _computeIndex(_contract, _tokenId);\r\n        delete indexToTransaction[index];  \r\n    }  \r\n\r\n    function _isOnSell(Transaction storage _transaction) internal view returns(bool) {  // token是否正在等待交易\r\n        return (_transaction.sellTime > 0);\r\n    }\r\n\r\n    function _buy(address _contract, uint256 _tokenId, uint256 _price) internal returns(uint256) {      // 购买token\r\n        bytes32 index = _computeIndex(_contract, _tokenId);\r\n        Transaction storage transaction = indexToTransaction[index];\r\n\r\n        require(_isOnSell(transaction));\r\n\r\n        uint256 price = transaction.price;\r\n        require(_price >= price);\r\n\r\n        address seller = transaction.seller;\r\n\r\n        _removeSell(_contract, _tokenId);\r\n\r\n        if(price > 0) {\r\n            uint256 auctioneerCut = _computeCut(price);  \r\n            uint256 sellerProceeds = price - auctioneerCut;  \r\n\r\n            seller.transfer(sellerProceeds);\r\n        }\r\n        uint256 buyExcess = _price - price;\r\n        msg.sender.transfer(buyExcess);\r\n\r\n        _transfer(_contract, msg.sender, _tokenId);\r\n        emit SellSuccessful(index, msg.sender);\r\n\r\n        return price;\r\n    }\r\n\r\n    function _computeIndex(address _contract, uint256 _tokenId) internal view returns(bytes32) {    // 计算相应token的index\r\n        return keccak256(_contract, _tokenId);\r\n    }\r\n\r\n    function _computeCut(uint256 _price) internal view returns (uint256) {      // 计算平台分红\r\n        return _price * buyCut / 10000;  \r\n    }  \r\n}",
  "sourcePath": "D:\\github\\ChainBook\\smartcontracts\\contracts\\BuyAndSellBase.sol",
  "compiler": {
    "name": "solc",
    "version": "0.4.24+commit.e67f0147.Emscripten.clang"
  },
  "schemaVersion": "2.0.0",
  "updatedAt": "2018-06-04T02:56:08.798Z"
}