{
  "contractName": "BuyAndSellBase",
  "abi": [
    {
      "constant": true,
      "inputs": [],
      "name": "nonFungibleContract",
      "outputs": [
        {
          "name": "",
          "type": "address"
        }
      ],
      "payable": false,
      "stateMutability": "view",
      "type": "function"
    },
    {
      "anonymous": false,
      "inputs": [
        {
          "indexed": false,
          "name": "tokenId",
          "type": "uint256"
        },
        {
          "indexed": false,
          "name": "price",
          "type": "uint256"
        },
        {
          "indexed": false,
          "name": "seller",
          "type": "address"
        },
        {
          "indexed": false,
          "name": "sellTime",
          "type": "uint256"
        }
      ],
      "name": "SellCreated",
      "type": "event"
    },
    {
      "anonymous": false,
      "inputs": [
        {
          "indexed": false,
          "name": "tokenId",
          "type": "uint256"
        },
        {
          "indexed": false,
          "name": "price",
          "type": "uint256"
        },
        {
          "indexed": false,
          "name": "buyer",
          "type": "address"
        }
      ],
      "name": "SellSuccessful",
      "type": "event"
    },
    {
      "anonymous": false,
      "inputs": [
        {
          "indexed": false,
          "name": "tokenId",
          "type": "uint256"
        }
      ],
      "name": "AuctionCancelled",
      "type": "event"
    }
  ],
  "bytecode": "0x608060405234801561001057600080fd5b5060e98061001f6000396000f300608060405260043610603f576000357c0100000000000000000000000000000000000000000000000000000000900463ffffffff168063dd1b7a0f146044575b600080fd5b348015604f57600080fd5b5060566098565b604051808273ffffffffffffffffffffffffffffffffffffffff1673ffffffffffffffffffffffffffffffffffffffff16815260200191505060405180910390f35b6000809054906101000a900473ffffffffffffffffffffffffffffffffffffffff16815600a165627a7a72305820fd50d5b02f19f72e12d3281c7a3287aaf0f362d7094385f5191db93b67b87c560029",
  "source": "pragma solidity ^0.4.24;\r\n\r\nimport \"./ERC721.sol\";\r\n\r\ncontract BuyAndSellBase {\r\n    struct Transaction {\r\n        address seller;\r\n        uint256 price;\r\n        uint256 sellTime;\r\n    }\r\n\r\n    ERC721 public nonFungibleContract;\r\n\r\n    uint256 ownerCut;   // 手续费\r\n\r\n    mapping (uint256 => Transaction) tokenIdToTransaction;\r\n\r\n    event SellCreated(uint256 tokenId, uint256 price, address seller, uint256 sellTime);\r\n\r\n    event SellSuccessful(uint256 tokenId, uint256 price, address buyer);\r\n\r\n    event AuctionCancelled(uint256 tokenId);\r\n\r\n    function _owns(address _claimant, uint256 _tokenId) internal view returns(bool) {\r\n        return (nonFungibleContract.ownerOf(_tokenId) == _claimant) ;\r\n    }\r\n\r\n    function _escrow(address _owner, uint256 _tokenId) internal {  \r\n        nonFungibleContract.transferFrom(_owner, this, _tokenId);  \r\n    }  \r\n\r\n    function _transfer(address _receiver, uint256 _tokenId) internal {  \r\n        nonFungibleContract.transfer(_receiver, _tokenId);  \r\n    }  \r\n\r\n    function _addSellRequest(uint256 _tokenId, Transaction _transaction) internal {     \r\n        tokenIdToTransaction[_tokenId] = _transaction;  \r\n  \r\n        SellCreated(  \r\n            uint256(_tokenId),  \r\n            uint256(_transaction.price),\r\n             _transaction.seller , \r\n            now       \r\n        );  \r\n    }  \r\n\r\n    function _cancelSell(uint256 _tokenId, address _seller) internal {  \r\n        _removeSell(_tokenId);  \r\n        _transfer(_seller, _tokenId);  \r\n        AuctionCancelled(_tokenId);  \r\n    } \r\n\r\n    function _removeSell(uint256 _tokenId) internal {  \r\n        delete tokenIdToTransaction[_tokenId];  \r\n    }  \r\n\r\n    function _isOnSell(Transaction storage _transaction) internal view returns(bool) {\r\n        return (_transaction.sellTime > 0);\r\n    }\r\n\r\n    function _buy(uint256 _tokenId, uint256 _price) internal returns(uint256) {\r\n        Transaction storage transaction = tokenIdToTransaction[_tokenId];\r\n\r\n        require(_isOnSell(transaction));\r\n\r\n        uint256 price = transaction.price;\r\n        require(_price >= price);\r\n\r\n        address seller = transaction.seller;\r\n\r\n        _removeSell(_tokenId);\r\n\r\n        if(price > 0) {\r\n            uint256 auctioneerCut = _computeCut(price);  \r\n            uint256 sellerProceeds = price - auctioneerCut;  \r\n\r\n            seller.transfer(sellerProceeds);\r\n        }\r\n\r\n        uint256 buyExcess = _price - price;\r\n        msg.sender.transfer(buyExcess);\r\n\r\n        SellSuccessful(_tokenId, price, msg.sender);\r\n\r\n        return price;\r\n    }\r\n\r\n    function _computeCut(uint256 _price) internal view returns (uint256) {  \r\n        return _price * ownerCut / 10000;  \r\n    }  \r\n}",
  "sourcePath": "D:\\programming\\dapp\\ChainBook\\contracts\\BuyAndSellBase.sol",
  "compiler": {
    "name": "solc",
    "version": "0.4.24+commit.e67f0147.Emscripten.clang"
  },
  "schemaVersion": "2.0.0",
  "updatedAt": "2018-06-01T15:07:29.149Z"
}