{
  "contractName": "BuyAndSell",
  "abi": [
    {
      "constant": true,
      "inputs": [],
      "name": "ceoAddress",
      "outputs": [
        {
          "name": "",
          "type": "address"
        }
      ],
      "payable": false,
      "stateMutability": "view",
      "type": "function"
    },
    {
      "constant": false,
      "inputs": [
        {
          "name": "addrs",
          "type": "address[]"
        }
      ],
      "name": "removeAddressesFromWhitelist",
      "outputs": [
        {
          "name": "success",
          "type": "bool"
        }
      ],
      "payable": false,
      "stateMutability": "nonpayable",
      "type": "function"
    },
    {
      "constant": false,
      "inputs": [
        {
          "name": "_newCEO",
          "type": "address"
        }
      ],
      "name": "setCEO",
      "outputs": [],
      "payable": false,
      "stateMutability": "nonpayable",
      "type": "function"
    },
    {
      "constant": false,
      "inputs": [
        {
          "name": "addr",
          "type": "address"
        }
      ],
      "name": "removeAddressFromWhitelist",
      "outputs": [
        {
          "name": "success",
          "type": "bool"
        }
      ],
      "payable": false,
      "stateMutability": "nonpayable",
      "type": "function"
    },
    {
      "constant": false,
      "inputs": [],
      "name": "unpause",
      "outputs": [],
      "payable": false,
      "stateMutability": "nonpayable",
      "type": "function"
    },
    {
      "constant": true,
      "inputs": [],
      "name": "paused",
      "outputs": [
        {
          "name": "",
          "type": "bool"
        }
      ],
      "payable": false,
      "stateMutability": "view",
      "type": "function"
    },
    {
      "constant": false,
      "inputs": [
        {
          "name": "addr",
          "type": "address"
        }
      ],
      "name": "addAddressToWhitelist",
      "outputs": [
        {
          "name": "success",
          "type": "bool"
        }
      ],
      "payable": false,
      "stateMutability": "nonpayable",
      "type": "function"
    },
    {
      "constant": false,
      "inputs": [],
      "name": "pause",
      "outputs": [],
      "payable": false,
      "stateMutability": "nonpayable",
      "type": "function"
    },
    {
      "constant": true,
      "inputs": [
        {
          "name": "",
          "type": "address"
        }
      ],
      "name": "whitelist",
      "outputs": [
        {
          "name": "",
          "type": "bool"
        }
      ],
      "payable": false,
      "stateMutability": "view",
      "type": "function"
    },
    {
      "constant": true,
      "inputs": [],
      "name": "buyCut",
      "outputs": [
        {
          "name": "",
          "type": "uint256"
        }
      ],
      "payable": false,
      "stateMutability": "view",
      "type": "function"
    },
    {
      "constant": false,
      "inputs": [
        {
          "name": "addrs",
          "type": "address[]"
        }
      ],
      "name": "addAddressesToWhitelist",
      "outputs": [
        {
          "name": "success",
          "type": "bool"
        }
      ],
      "payable": false,
      "stateMutability": "nonpayable",
      "type": "function"
    },
    {
      "inputs": [],
      "payable": false,
      "stateMutability": "nonpayable",
      "type": "constructor"
    },
    {
      "anonymous": false,
      "inputs": [
        {
          "indexed": false,
          "name": "_contract",
          "type": "address"
        },
        {
          "indexed": false,
          "name": "_tokenId",
          "type": "uint256"
        },
        {
          "components": [
            {
              "name": "contractAddress",
              "type": "address"
            },
            {
              "name": "tokenId",
              "type": "uint256"
            },
            {
              "name": "seller",
              "type": "address"
            },
            {
              "name": "price",
              "type": "uint256"
            },
            {
              "name": "sellTime",
              "type": "uint256"
            }
          ],
          "indexed": false,
          "name": "_transaction",
          "type": "tuple"
        }
      ],
      "name": "SellCreated",
      "type": "event"
    },
    {
      "anonymous": false,
      "inputs": [
        {
          "indexed": false,
          "name": "_contract",
          "type": "address"
        },
        {
          "indexed": false,
          "name": "_tokenId",
          "type": "uint256"
        },
        {
          "indexed": false,
          "name": "_buyer",
          "type": "address"
        }
      ],
      "name": "SellSuccessful",
      "type": "event"
    },
    {
      "anonymous": false,
      "inputs": [
        {
          "indexed": false,
          "name": "_contract",
          "type": "address"
        },
        {
          "indexed": false,
          "name": "_tokenId",
          "type": "uint256"
        }
      ],
      "name": "SellCancelled",
      "type": "event"
    },
    {
      "anonymous": false,
      "inputs": [
        {
          "indexed": false,
          "name": "addr",
          "type": "address"
        }
      ],
      "name": "WhitelistedAddressAdded",
      "type": "event"
    },
    {
      "anonymous": false,
      "inputs": [
        {
          "indexed": false,
          "name": "addr",
          "type": "address"
        }
      ],
      "name": "WhitelistedAddressRemoved",
      "type": "event"
    },
    {
      "constant": false,
      "inputs": [
        {
          "name": "_price",
          "type": "uint256"
        }
      ],
      "name": "setFees",
      "outputs": [],
      "payable": false,
      "stateMutability": "nonpayable",
      "type": "function"
    },
    {
      "constant": true,
      "inputs": [],
      "name": "getFees",
      "outputs": [
        {
          "name": "",
          "type": "uint256"
        }
      ],
      "payable": false,
      "stateMutability": "view",
      "type": "function"
    },
    {
      "constant": false,
      "inputs": [
        {
          "name": "_contract",
          "type": "address"
        },
        {
          "name": "_tokenId",
          "type": "uint256"
        },
        {
          "name": "_price",
          "type": "uint256"
        },
        {
          "name": "_seller",
          "type": "address"
        }
      ],
      "name": "sell",
      "outputs": [],
      "payable": false,
      "stateMutability": "nonpayable",
      "type": "function"
    },
    {
      "constant": false,
      "inputs": [
        {
          "name": "_contract",
          "type": "address"
        },
        {
          "name": "_tokenId",
          "type": "uint256"
        },
        {
          "name": "_sender",
          "type": "address"
        }
      ],
      "name": "cancelSell",
      "outputs": [],
      "payable": false,
      "stateMutability": "nonpayable",
      "type": "function"
    },
    {
      "constant": false,
      "inputs": [
        {
          "name": "_contract",
          "type": "address"
        },
        {
          "name": "_tokenId",
          "type": "uint256"
        },
        {
          "name": "_sendAmount",
          "type": "uint256"
        }
      ],
      "name": "buy",
      "outputs": [
        {
          "name": "",
          "type": "bool"
        },
        {
          "name": "",
          "type": "address"
        },
        {
          "name": "",
          "type": "uint256"
        },
        {
          "name": "",
          "type": "uint256"
        },
        {
          "name": "",
          "type": "uint256"
        }
      ],
      "payable": false,
      "stateMutability": "nonpayable",
      "type": "function"
    },
    {
      "constant": true,
      "inputs": [
        {
          "name": "_contract",
          "type": "address"
        },
        {
          "name": "_tokenId",
          "type": "uint256"
        }
      ],
      "name": "getSellInfo",
      "outputs": [
        {
          "name": "seller",
          "type": "address"
        },
        {
          "name": "price",
          "type": "uint256"
        },
        {
          "name": "sellTime",
          "type": "uint256"
        }
      ],
      "payable": false,
      "stateMutability": "view",
      "type": "function"
    },
    {
      "constant": false,
      "inputs": [
        {
          "name": "_contract",
          "type": "address"
        },
        {
          "name": "_tokenId",
          "type": "uint256"
        },
        {
          "name": "_price",
          "type": "uint256"
        },
        {
          "name": "_sender",
          "type": "address"
        }
      ],
      "name": "setPrice",
      "outputs": [
        {
          "name": "",
          "type": "uint256"
        }
      ],
      "payable": false,
      "stateMutability": "nonpayable",
      "type": "function"
    },
    {
      "constant": true,
      "inputs": [
        {
          "name": "_contract",
          "type": "address"
        },
        {
          "name": "_tokenId",
          "type": "uint256"
        }
      ],
      "name": "getSeller",
      "outputs": [
        {
          "name": "",
          "type": "address"
        }
      ],
      "payable": false,
      "stateMutability": "view",
      "type": "function"
    }
  ],
  "bytecode": "0x608060405234801561001057600080fd5b50336000806101000a81548173ffffffffffffffffffffffffffffffffffffffff021916908373ffffffffffffffffffffffffffffffffffffffff160217905550611b06806100606000396000f300608060405260043610610107576000357c0100000000000000000000000000000000000000000000000000000000900463ffffffff1680630a0f81681461010c5780630db81a3514610163578063189ecff1146101d057806324953eaa1461025d57806327d7874c146102db578063286dd3f51461031e5780632dc8f867146103795780633d18678e146103f05780633f4ba83a1461041d57806359075354146104345780635c975abb146104bf5780637b9417c8146104ee5780638456cb59146105495780639b19251a14610560578063a59ac6dd146105bb578063cfddada714610672578063db8d55f11461069d578063e2ec6ec3146106c8578063ff7b8d5a14610746575b600080fd5b34801561011857600080fd5b506101216107e1565b604051808273ffffffffffffffffffffffffffffffffffffffff1673ffffffffffffffffffffffffffffffffffffffff16815260200191505060405180910390f35b34801561016f57600080fd5b506101ce600480360381019080803573ffffffffffffffffffffffffffffffffffffffff16906020019092919080359060200190929190803573ffffffffffffffffffffffffffffffffffffffff169060200190929190505050610806565b005b3480156101dc57600080fd5b5061021b600480360381019080803573ffffffffffffffffffffffffffffffffffffffff16906020019092919080359060200190929190505050610913565b604051808273ffffffffffffffffffffffffffffffffffffffff1673ffffffffffffffffffffffffffffffffffffffff16815260200191505060405180910390f35b34801561026957600080fd5b506102c16004803603810190808035906020019082018035906020019080806020026020016040519081016040528093929190818152602001838360200280828437820191505050505050919291929050505061096a565b604051808215151515815260200191505060405180910390f35b3480156102e757600080fd5b5061031c600480360381019080803573ffffffffffffffffffffffffffffffffffffffff169060200190929190505050610a13565b005b34801561032a57600080fd5b5061035f600480360381019080803573ffffffffffffffffffffffffffffffffffffffff169060200190929190505050610aed565b604051808215151515815260200191505060405180910390f35b34801561038557600080fd5b506103ee600480360381019080803573ffffffffffffffffffffffffffffffffffffffff1690602001909291908035906020019092919080359060200190929190803573ffffffffffffffffffffffffffffffffffffffff169060200190929190505050610c61565b005b3480156103fc57600080fd5b5061041b60048036038101908080359060200190929190505050610d5e565b005b34801561042957600080fd5b50610432610d68565b005b34801561044057600080fd5b506104a9600480360381019080803573ffffffffffffffffffffffffffffffffffffffff1690602001909291908035906020019092919080359060200190929190803573ffffffffffffffffffffffffffffffffffffffff169060200190929190505050610dfa565b6040518082815260200191505060405180910390f35b3480156104cb57600080fd5b506104d4610f35565b604051808215151515815260200191505060405180910390f35b3480156104fa57600080fd5b5061052f600480360381019080803573ffffffffffffffffffffffffffffffffffffffff169060200190929190505050610f48565b604051808215151515815260200191505060405180910390f35b34801561055557600080fd5b5061055e6110bc565b005b34801561056c57600080fd5b506105a1600480360381019080803573ffffffffffffffffffffffffffffffffffffffff169060200190929190505050611150565b604051808215151515815260200191505060405180910390f35b3480156105c757600080fd5b50610610600480360381019080803573ffffffffffffffffffffffffffffffffffffffff1690602001909291908035906020019092919080359060200190929190505050611170565b60405180861515151581526020018573ffffffffffffffffffffffffffffffffffffffff1673ffffffffffffffffffffffffffffffffffffffff1681526020018481526020018381526020018281526020019550505050505060405180910390f35b34801561067e57600080fd5b50610687611204565b6040518082815260200191505060405180910390f35b3480156106a957600080fd5b506106b261120a565b6040518082815260200191505060405180910390f35b3480156106d457600080fd5b5061072c60048036038101908080359060200190820180359060200190808060200260200160405190810160405280939291908181526020018383602002808284378201915050505050509192919290505050611214565b604051808215151515815260200191505060405180910390f35b34801561075257600080fd5b50610791600480360381019080803573ffffffffffffffffffffffffffffffffffffffff169060200190929190803590602001909291905050506112bd565b604051808473ffffffffffffffffffffffffffffffffffffffff1673ffffffffffffffffffffffffffffffffffffffff168152602001838152602001828152602001935050505060405180910390f35b6000809054906101000a900473ffffffffffffffffffffffffffffffffffffffff1681565b6000806000600160003373ffffffffffffffffffffffffffffffffffffffff1673ffffffffffffffffffffffffffffffffffffffff16815260200190815260200160002060009054906101000a900460ff16151561086357600080fd5b61086d8686611340565b925060036000846000191660001916815260200190815260200160002091506108958261140f565b15156108a057600080fd5b8160020160009054906101000a900473ffffffffffffffffffffffffffffffffffffffff1690508073ffffffffffffffffffffffffffffffffffffffff168473ffffffffffffffffffffffffffffffffffffffff1614151561090157600080fd5b61090b8686611420565b505050505050565b6000806109208484611340565b905060036000826000191660001916815260200190815260200160002060020160009054906101000a900473ffffffffffffffffffffffffffffffffffffffff1691505092915050565b6000806000809054906101000a900473ffffffffffffffffffffffffffffffffffffffff1673ffffffffffffffffffffffffffffffffffffffff163373ffffffffffffffffffffffffffffffffffffffff161415156109c857600080fd5b600090505b8251811015610a0d576109f683828151811015156109e757fe5b90602001906020020151610aed565b15610a0057600191505b80806001019150506109cd565b50919050565b6000809054906101000a900473ffffffffffffffffffffffffffffffffffffffff1673ffffffffffffffffffffffffffffffffffffffff163373ffffffffffffffffffffffffffffffffffffffff16141515610a6e57600080fd5b600073ffffffffffffffffffffffffffffffffffffffff168173ffffffffffffffffffffffffffffffffffffffff1614151515610aaa57600080fd5b806000806101000a81548173ffffffffffffffffffffffffffffffffffffffff021916908373ffffffffffffffffffffffffffffffffffffffff16021790555050565b60008060009054906101000a900473ffffffffffffffffffffffffffffffffffffffff1673ffffffffffffffffffffffffffffffffffffffff163373ffffffffffffffffffffffffffffffffffffffff16141515610b4a57600080fd5b600160008373ffffffffffffffffffffffffffffffffffffffff1673ffffffffffffffffffffffffffffffffffffffff16815260200190815260200160002060009054906101000a900460ff1615610c5c576000600160008473ffffffffffffffffffffffffffffffffffffffff1673ffffffffffffffffffffffffffffffffffffffff16815260200190815260200160002060006101000a81548160ff0219169083151502179055507ff1abf01a1043b7c244d128e8595cf0c1d10743b022b03a02dffd8ca3bf729f5a82604051808273ffffffffffffffffffffffffffffffffffffffff1673ffffffffffffffffffffffffffffffffffffffff16815260200191505060405180910390a1600190505b919050565b610c69611a7e565b600160003373ffffffffffffffffffffffffffffffffffffffff1673ffffffffffffffffffffffffffffffffffffffff16815260200190815260200160002060009054906101000a900460ff161515610cc157600080fd5b8363ffffffff1684141515610cd557600080fd5b826fffffffffffffffffffffffffffffffff1683141515610cf557600080fd5b60a0604051908101604052808673ffffffffffffffffffffffffffffffffffffffff1681526020018581526020018373ffffffffffffffffffffffffffffffffffffffff168152602001848152602001428152509050610d568585836114af565b505050505050565b8060028190555050565b6000809054906101000a900473ffffffffffffffffffffffffffffffffffffffff1673ffffffffffffffffffffffffffffffffffffffff163373ffffffffffffffffffffffffffffffffffffffff16141515610dc357600080fd5b600060149054906101000a900460ff161515610dde57600080fd5b60008060146101000a81548160ff021916908315150217905550565b600080600080600160003373ffffffffffffffffffffffffffffffffffffffff1673ffffffffffffffffffffffffffffffffffffffff16815260200190815260200160002060009054906101000a900460ff161515610e5857600080fd5b610e628888611340565b92506003600084600019166000191681526020019081526020016000209150610e8a8261140f565b1515610e9557600080fd5b8160020160009054906101000a900473ffffffffffffffffffffffffffffffffffffffff1690508073ffffffffffffffffffffffffffffffffffffffff168573ffffffffffffffffffffffffffffffffffffffff16141515610ef657600080fd5b8586141515610f0457600080fd5b8560036000856000191660001916815260200190815260200160002060030181905550859350505050949350505050565b600060149054906101000a900460ff1681565b60008060009054906101000a900473ffffffffffffffffffffffffffffffffffffffff1673ffffffffffffffffffffffffffffffffffffffff163373ffffffffffffffffffffffffffffffffffffffff16141515610fa557600080fd5b600160008373ffffffffffffffffffffffffffffffffffffffff1673ffffffffffffffffffffffffffffffffffffffff16815260200190815260200160002060009054906101000a900460ff1615156110b75760018060008473ffffffffffffffffffffffffffffffffffffffff1673ffffffffffffffffffffffffffffffffffffffff16815260200190815260200160002060006101000a81548160ff0219169083151502179055507fd1bba68c128cc3f427e5831b3c6f99f480b6efa6b9e80c757768f6124158cc3f82604051808273ffffffffffffffffffffffffffffffffffffffff1673ffffffffffffffffffffffffffffffffffffffff16815260200191505060405180910390a1600190505b919050565b6000809054906101000a900473ffffffffffffffffffffffffffffffffffffffff1673ffffffffffffffffffffffffffffffffffffffff163373ffffffffffffffffffffffffffffffffffffffff1614151561111757600080fd5b600060149054906101000a900460ff1615151561113357600080fd5b6001600060146101000a81548160ff021916908315150217905550565b60016020528060005260406000206000915054906101000a900460ff1681565b6000806000806000600160003373ffffffffffffffffffffffffffffffffffffffff1673ffffffffffffffffffffffffffffffffffffffff16815260200190815260200160002060009054906101000a900460ff1615156111d057600080fd5b8663ffffffff16871415156111e457600080fd5b6111ef888888611666565b94509450945094509450939792965093509350565b60025481565b6000600254905090565b6000806000809054906101000a900473ffffffffffffffffffffffffffffffffffffffff1673ffffffffffffffffffffffffffffffffffffffff163373ffffffffffffffffffffffffffffffffffffffff1614151561127257600080fd5b600090505b82518110156112b7576112a0838281518110151561129157fe5b90602001906020020151610f48565b156112aa57600191505b8080600101915050611277565b50919050565b60008060008060006112cf8787611340565b915060036000836000191660001916815260200190815260200160002090506112f78161140f565b151561130257600080fd5b8060020160009054906101000a900473ffffffffffffffffffffffffffffffffffffffff168160030154826004015494509450945050509250925092565b60008282604051602001808373ffffffffffffffffffffffffffffffffffffffff1673ffffffffffffffffffffffffffffffffffffffff166c01000000000000000000000000028152601401828152602001925050506040516020818303038152906040526040518082805190602001908083835b6020831015156113da57805182526020820191506020810190506020830392506113b5565b6001836020036101000a0380198251168184511680821785525050505050509050019150506040518091039020905092915050565b6000600a8260040154119050919050565b61142b82338361187f565b151561143657600080fd5b6114408282611967565b7f37d267acf7fdf1a80cfbeb488e238947fbd27bc0f161e298bb66f9fabce7a8d78282604051808373ffffffffffffffffffffffffffffffffffffffff1673ffffffffffffffffffffffffffffffffffffffff1681526020018281526020019250505060405180910390a15050565b60008060008591506114c286338761187f565b15156114cd57600080fd5b8173ffffffffffffffffffffffffffffffffffffffff166312b9cb47866040518263ffffffff167c010000000000000000000000000000000000000000000000000000000002815260040180828152602001915050602060405180830381600087803b15801561153c57600080fd5b505af1158015611550573d6000803e3d6000fd5b505050506040513d602081101561156657600080fd5b810190808051906020019092919050505015151561158357600080fd5b61158d8686611340565b90508360036000836000191660001916815260200190815260200160002060008201518160000160006101000a81548173ffffffffffffffffffffffffffffffffffffffff021916908373ffffffffffffffffffffffffffffffffffffffff1602179055506020820151816001015560408201518160020160006101000a81548173ffffffffffffffffffffffffffffffffffffffff021916908373ffffffffffffffffffffffffffffffffffffffff160217905550606082015181600301556080820151816004015590505080925050509392505050565b6000806000806000806000808a8a604051602001808373ffffffffffffffffffffffffffffffffffffffff1673ffffffffffffffffffffffffffffffffffffffff166c01000000000000000000000000028152601401828152602001925050506040516020818303038152906040526040518082805190602001908083835b60208310151561170a57805182526020820191506020810190506020830392506116e5565b6001836020036101000a03801982511681845116808217855250505050505090500191505060405180910390209250600360008460001916600019168152602001908152602001600020915061175f8261140f565b151561176a57600080fd5b8160030154905080891015151561178057600080fd5b61178a8b8b611967565b7fcfa4964f0b979b9500613cfa060c7fcf443cd8ccb5e7d96b16eae331f75bf5818b8b33604051808473ffffffffffffffffffffffffffffffffffffffff1673ffffffffffffffffffffffffffffffffffffffff1681526020018381526020018273ffffffffffffffffffffffffffffffffffffffff1673ffffffffffffffffffffffffffffffffffffffff168152602001935050505060405180910390a160018260020160009054906101000a900473ffffffffffffffffffffffffffffffffffffffff16611859836119fe565b611862846119fe565b8403848d0397509750975097509750505050939792965093509350565b6000808490508373ffffffffffffffffffffffffffffffffffffffff168173ffffffffffffffffffffffffffffffffffffffff16636352211e856040518263ffffffff167c010000000000000000000000000000000000000000000000000000000002815260040180828152602001915050602060405180830381600087803b15801561190b57600080fd5b505af115801561191f573d6000803e3d6000fd5b505050506040513d602081101561193557600080fd5b810190808051906020019092919050505073ffffffffffffffffffffffffffffffffffffffff16149150509392505050565b60006119738383611340565b9050600360008260001916600019168152602001908152602001600020600080820160006101000a81549073ffffffffffffffffffffffffffffffffffffffff021916905560018201600090556002820160006101000a81549073ffffffffffffffffffffffffffffffffffffffff0219169055600382016000905560048201600090555050505050565b6000611a29612710611a1b60025485611a3090919063ffffffff16565b611a6890919063ffffffff16565b9050919050565b600080831415611a435760009050611a62565b8183029050818382811515611a5457fe5b04141515611a5e57fe5b8090505b92915050565b60008183811515611a7557fe5b04905092915050565b60a060405190810160405280600073ffffffffffffffffffffffffffffffffffffffff16815260200160008152602001600073ffffffffffffffffffffffffffffffffffffffff168152602001600081526020016000815250905600a165627a7a72305820af131f7c7273a24765d0c0a145279b5aa61be7fb7197b6d9e395b10792cfcefa0029",
  "source": "pragma solidity ^0.4.21;\n\nimport \"./BuyAndSellBase.sol\";\n\ncontract BuyAndSell is BuyAndSellBase {\n\n    // @dev 构造函数，初始化ceo地址\n    constructor() public {\n        ceoAddress = msg.sender;\n    }\n\n    function setFees(uint256 _price) external  {\n        buyCut = _price;\n    }\n\n    function getFees() external view returns(uint256) {\n        return buyCut;\n    }\n\n    // @dev 开始售卖\n    // @param 合约地址， tokenId, 售卖价格， 售卖人地址\n    function sell(\n        address _contract,\n        uint256 _tokenId,\n        uint256 _price,\n        address _seller\n        )\n        external\n        onlyWhitelisted\n    {\n        require(_tokenId == uint32(_tokenId));\n        require(_price == uint128(_price));\n        Transaction memory transaction = Transaction(_contract, _tokenId, _seller, _price, now);\n        _addSell(_contract, _tokenId, transaction);\n    }\n\n    // @dev 取消售卖\n    // @param 合约地址， tokenId, 调用合约的地址\n    function cancelSell(address _contract, uint256 _tokenId, address _sender) external onlyWhitelisted {\n        bytes32 index = _computeIndex(_contract, _tokenId);\n        Transaction storage transaction = indexToTransaction[index];\n        require(_isOnSell(transaction));\n        address seller = transaction.seller;\n        require(_sender == seller);\n        _cancelSell(_contract, _tokenId);\n    }\n\n    // @dev 购买token\n    // @param 合约地址， tokenId,  购买时候发送的eth数量\n    // @return 购买是否成功， 平台所得， 作者所得， 买家所得（多余部分）\n    function buy(\n        address _contract,\n        uint256 _tokenId,\n        uint256 _sendAmount\n        )\n        external\n        onlyWhitelisted\n        returns(\n            bool,\n            address,\n            uint256,\n            uint256,\n            uint256\n        )\n    {       //购买\n        require(_tokenId == uint32(_tokenId));\n        return _buy(_contract, _tokenId, _sendAmount);\n    }\n\n    // @dev 获得交易信息\n    // @return  卖家地址， 售卖价格， 售卖时间\n    function getSellInfo(\n        address _contract,\n        uint256 _tokenId\n        )\n        external\n        view\n        returns(\n            address seller,\n            uint256 price,\n            uint256 sellTime\n        )\n    {\n        bytes32 index = _computeIndex(_contract, _tokenId);\n        Transaction storage transaction = indexToTransaction[index];\n        require(_isOnSell(transaction));\n        return (transaction.seller, transaction.price, transaction.sellTime);\n    }\n\n\n    // @dev 设置价格\n    // @param 合约地址， tokenId, 售卖价格， 合约调用地址\n    // @return 新价格\n    function setPrice(\n        address _contract,\n        uint256 _tokenId,\n        uint256 _price,\n        address _sender\n        )\n        external\n        onlyWhitelisted\n        returns(uint256)\n    {\n        bytes32 index = _computeIndex(_contract, _tokenId);\n        Transaction storage transaction = indexToTransaction[index];\n        require(_isOnSell(transaction));\n        address seller = transaction.seller;\n        require(_sender == seller);\n        require(uint256(_price) == _price);\n        indexToTransaction[index].price = _price;\n        return _price;\n    }\n\n    function getSeller(address _contract, uint256 _tokenId) external view returns(address) {\n        bytes32 index = _computeIndex(_contract, _tokenId);\n        return indexToTransaction[index].seller;\n    }\n\n}\n",
  "sourcePath": "F:\\ChainBook\\smartcontracts\\contracts\\BuyAndSell.sol",
  "compiler": {
    "name": "solc",
    "version": "0.4.24+commit.e67f0147.Emscripten.clang"
  },
  "schemaVersion": "2.0.0",
  "updatedAt": "2018-06-11T15:18:35.872Z"
}