{
  "contractName": "BuyAndSell",
  "abi": [
    {
      "constant": true,
      "inputs": [],
      "name": "buyCut",
      "outputs": [
        {
          "name": "",
          "type": "uint256"
        }
      ],
      "payable": false,
      "stateMutability": "view",
      "type": "function"
    },
    {
      "anonymous": false,
      "inputs": [
        {
          "indexed": false,
          "name": "_index",
          "type": "bytes32"
        },
        {
          "components": [
            {
              "name": "contractAddress",
              "type": "address"
            },
            {
              "name": "tokenId",
              "type": "uint256"
            },
            {
              "name": "seller",
              "type": "address"
            },
            {
              "name": "price",
              "type": "uint256"
            },
            {
              "name": "sellTime",
              "type": "uint256"
            }
          ],
          "indexed": false,
          "name": "_transaction",
          "type": "tuple"
        }
      ],
      "name": "SellCreated",
      "type": "event"
    },
    {
      "anonymous": false,
      "inputs": [
        {
          "indexed": false,
          "name": "_index",
          "type": "bytes32"
        },
        {
          "indexed": false,
          "name": "_buyer",
          "type": "address"
        }
      ],
      "name": "SellSuccessful",
      "type": "event"
    },
    {
      "anonymous": false,
      "inputs": [
        {
          "indexed": false,
          "name": "_index",
          "type": "bytes32"
        }
      ],
      "name": "AuctionCancelled",
      "type": "event"
    },
    {
      "constant": false,
      "inputs": [
        {
          "name": "_contract",
          "type": "address"
        },
        {
          "name": "_tokenId",
          "type": "uint256"
        },
        {
          "name": "_price",
          "type": "uint256"
        }
      ],
      "name": "sell",
      "outputs": [],
      "payable": false,
      "stateMutability": "nonpayable",
      "type": "function"
    },
    {
      "constant": false,
      "inputs": [
        {
          "name": "_contract",
          "type": "address"
        },
        {
          "name": "_tokenId",
          "type": "uint256"
        },
        {
          "name": "_seller",
          "type": "address"
        }
      ],
      "name": "cancelSell",
      "outputs": [],
      "payable": false,
      "stateMutability": "nonpayable",
      "type": "function"
    },
    {
      "constant": false,
      "inputs": [
        {
          "name": "_contract",
          "type": "address"
        },
        {
          "name": "_tokenId",
          "type": "uint256"
        },
        {
          "name": "_buyer",
          "type": "address"
        }
      ],
      "name": "buy",
      "outputs": [],
      "payable": true,
      "stateMutability": "payable",
      "type": "function"
    },
    {
      "constant": true,
      "inputs": [
        {
          "name": "_contract",
          "type": "address"
        },
        {
          "name": "_tokenId",
          "type": "uint256"
        }
      ],
      "name": "getSellInfo",
      "outputs": [
        {
          "name": "seller",
          "type": "address"
        },
        {
          "name": "price",
          "type": "uint256"
        },
        {
          "name": "sellTime",
          "type": "uint256"
        }
      ],
      "payable": false,
      "stateMutability": "view",
      "type": "function"
    },
    {
      "constant": false,
      "inputs": [
        {
          "name": "_contract",
          "type": "address"
        },
        {
          "name": "_tokenId",
          "type": "uint256"
        },
        {
          "name": "_price",
          "type": "uint256"
        }
      ],
      "name": "setPrice",
      "outputs": [],
      "payable": false,
      "stateMutability": "nonpayable",
      "type": "function"
    }
  ],
  "bytecode": "0x608060405234801561001057600080fd5b50610dc8806100206000396000f300608060405260043610610078576000357c0100000000000000000000000000000000000000000000000000000000900463ffffffff1680630db81a351461007d5780633011e16a146100ea5780636a27246214610141578063cfddada714610198578063db61c76e146101c3578063ff7b8d5a14610223575b600080fd5b34801561008957600080fd5b506100e8600480360381019080803573ffffffffffffffffffffffffffffffffffffffff16906020019092919080359060200190929190803573ffffffffffffffffffffffffffffffffffffffff1690602001909291905050506102be565b005b3480156100f657600080fd5b5061013f600480360381019080803573ffffffffffffffffffffffffffffffffffffffff1690602001909291908035906020019092919080359060200190929190505050610374565b005b34801561014d57600080fd5b50610196600480360381019080803573ffffffffffffffffffffffffffffffffffffffff1690602001909291908035906020019092919080359060200190929190505050610450565b005b3480156101a457600080fd5b506101ad6104bf565b6040518082815260200191505060405180910390f35b610221600480360381019080803573ffffffffffffffffffffffffffffffffffffffff16906020019092919080359060200190929190803573ffffffffffffffffffffffffffffffffffffffff1690602001909291905050506104c5565b005b34801561022f57600080fd5b5061026e600480360381019080803573ffffffffffffffffffffffffffffffffffffffff169060200190929190803590602001909291905050506104e1565b604051808473ffffffffffffffffffffffffffffffffffffffff1673ffffffffffffffffffffffffffffffffffffffff168152602001838152602001828152602001935050505060405180910390f35b60008060006102cd8686610564565b925060016000846000191660001916815260200190815260200160002091506102f5826105c7565b151561030057600080fd5b8160020160009054906101000a900473ffffffffffffffffffffffffffffffffffffffff1690508073ffffffffffffffffffffffffffffffffffffffff168473ffffffffffffffffffffffffffffffffffffffff1614151561036157600080fd5b61036c8686836105d7565b505050505050565b60008060006103838686610564565b925060016000846000191660001916815260200190815260200160002091506103ab826105c7565b15156103b657600080fd5b8160020160009054906101000a900473ffffffffffffffffffffffffffffffffffffffff1690508073ffffffffffffffffffffffffffffffffffffffff163373ffffffffffffffffffffffffffffffffffffffff1614151561041757600080fd5b838414151561042557600080fd5b8360016000856000191660001916815260200190815260200160002060030181905550505050505050565b610458610d40565b60a0604051908101604052808573ffffffffffffffffffffffffffffffffffffffff1681526020018481526020013373ffffffffffffffffffffffffffffffffffffffff1681526020018381526020014281525090506104b984848361063f565b50505050565b60005481565b6104d08383346108d5565b506104dc838284610aa1565b505050565b60008060008060006104f38787610564565b9150600160008360001916600019168152602001908152602001600020905061051b816105c7565b151561052657600080fd5b8060020160009054906101000a900473ffffffffffffffffffffffffffffffffffffffff168160030154826004015494509450945050509250925092565b60008282604051808373ffffffffffffffffffffffffffffffffffffffff1673ffffffffffffffffffffffffffffffffffffffff166c01000000000000000000000000028152601401828152602001925050506040518091039020905092915050565b6000808260040154119050919050565b60006105e38484610564565b90506105ef8484610aac565b6105fa848385610aa1565b7fd88fab4b08bf76f15cf2d6e03e382acf1edd6790ab82967e406abac37db202888160405180826000191660001916815260200191505060405180910390a150505050565b60008084915061065485846040015186610b43565b151561065f57600080fd5b8173ffffffffffffffffffffffffffffffffffffffff1663095ea7b330866040518363ffffffff167c0100000000000000000000000000000000000000000000000000000000028152600401808373ffffffffffffffffffffffffffffffffffffffff1673ffffffffffffffffffffffffffffffffffffffff16815260200182815260200192505050600060405180830381600087803b15801561070257600080fd5b505af1158015610716573d6000803e3d6000fd5b5050505061072985846040015186610c2b565b8173ffffffffffffffffffffffffffffffffffffffff1663dadec2c4856040518263ffffffff167c010000000000000000000000000000000000000000000000000000000002815260040180828152602001915050600060405180830381600087803b15801561079857600080fd5b505af11580156107ac573d6000803e3d6000fd5b505050506107ba8585610564565b90508260016000836000191660001916815260200190815260200160002060008201518160000160006101000a81548173ffffffffffffffffffffffffffffffffffffffff021916908373ffffffffffffffffffffffffffffffffffffffff1602179055506020820151816001015560408201518160020160006101000a81548173ffffffffffffffffffffffffffffffffffffffff021916908373ffffffffffffffffffffffffffffffffffffffff16021790555060608201518160030155608082015181600401559050507f41cfe649e96a6279fcd2525d82251b039ba6e646fadf650b93e5f824cb59bb3981846040518083600019166000191681526020018281526020019250505060405180910390a15050505050565b6000806000806000806000806108eb8b8b610564565b96506001600088600019166000191681526020019081526020016000209550610913866105c7565b151561091e57600080fd5b8560030154945084891015151561093457600080fd5b8560020160009054906101000a900473ffffffffffffffffffffffffffffffffffffffff1693506109658b8b610aac565b60008511156109c65761097785610d25565b925082850391508373ffffffffffffffffffffffffffffffffffffffff166108fc839081150290604051600060405180830381858888f193505050501580156109c4573d6000803e3d6000fd5b505b84890390503373ffffffffffffffffffffffffffffffffffffffff166108fc829081150290604051600060405180830381858888f19350505050158015610a11573d6000803e3d6000fd5b50610a1d8b338c610aa1565b7f4f9c5adf598c066d0264cb49d916cbece839566255d3587b8744f67e802f6edc87336040518083600019166000191681526020018273ffffffffffffffffffffffffffffffffffffffff1673ffffffffffffffffffffffffffffffffffffffff1681526020019250505060405180910390a1849750505050505050509392505050565b600083905050505050565b6000610ab88383610564565b9050600160008260001916600019168152602001908152602001600020600080820160006101000a81549073ffffffffffffffffffffffffffffffffffffffff021916905560018201600090556002820160006101000a81549073ffffffffffffffffffffffffffffffffffffffff0219169055600382016000905560048201600090555050505050565b6000808490508373ffffffffffffffffffffffffffffffffffffffff168173ffffffffffffffffffffffffffffffffffffffff16636352211e856040518263ffffffff167c010000000000000000000000000000000000000000000000000000000002815260040180828152602001915050602060405180830381600087803b158015610bcf57600080fd5b505af1158015610be3573d6000803e3d6000fd5b505050506040513d6020811015610bf957600080fd5b810190808051906020019092919050505073ffffffffffffffffffffffffffffffffffffffff16149150509392505050565b60008390508073ffffffffffffffffffffffffffffffffffffffff166323b872dd8430856040518463ffffffff167c0100000000000000000000000000000000000000000000000000000000028152600401808473ffffffffffffffffffffffffffffffffffffffff1673ffffffffffffffffffffffffffffffffffffffff1681526020018373ffffffffffffffffffffffffffffffffffffffff1673ffffffffffffffffffffffffffffffffffffffff1681526020018281526020019350505050600060405180830381600087803b158015610d0757600080fd5b505af1158015610d1b573d6000803e3d6000fd5b5050505050505050565b60006127106000548302811515610d3857fe5b049050919050565b60a060405190810160405280600073ffffffffffffffffffffffffffffffffffffffff16815260200160008152602001600073ffffffffffffffffffffffffffffffffffffffff168152602001600081526020016000815250905600a165627a7a7230582031f1e30a7f7beaa77f7cb79ec0efa63d6f7d4d5fe4b36a67b546981143d997af0029",
  "source": "pragma solidity ^0.4.24;\r\n\r\nimport \"./BuyAndSellBase.sol\";\r\n\r\n\r\ncontract BuyAndSell is BuyAndSellBase {\r\n\r\n    // function withdrawBalance() external {\r\n    //     address nftAddress = address(nonFungibleContract);\r\n    //     require(  \r\n    //       //  msg.sender == owner ||  \r\n    //         msg.sender == nftAddress  \r\n    //     );  \r\n    //     bool res = nftAddress.send(this.balance); \r\n    // }\r\n\r\n    function sell(address _contract, uint256 _tokenId, uint256 _price) external {     // 出售\r\n        Transaction memory transaction = Transaction(_contract, _tokenId, msg.sender, _price, now);\r\n        _addSell(_contract, _tokenId, transaction);\r\n    }\r\n\r\n    function cancelSell(address _contract, uint256 _tokenId, address _seller) external {       // 取消出售\r\n        bytes32 index = _computeIndex(_contract, _tokenId);\r\n        Transaction storage transaction = indexToTransaction[index];\r\n        require(_isOnSell(transaction));\r\n        address seller = transaction.seller;\r\n        require(_seller == seller);\r\n        _cancelSell(_contract, _tokenId, seller);\r\n    }\r\n\r\n    function buy(address _contract, uint256 _tokenId, address _buyer) external payable {       //购买\r\n        _buy(_contract, _tokenId, msg.value);\r\n        _transfer(_contract, _buyer, _tokenId);\r\n        \r\n    }\r\n\r\n    function getSellInfo(address _contract, uint256 _tokenId) external view returns    // 获得交易信息\r\n    (\r\n        address seller,\r\n        uint256 price,\r\n        uint256 sellTime\r\n    )\r\n    {\r\n        bytes32 index = _computeIndex(_contract, _tokenId);\r\n        Transaction storage transaction = indexToTransaction[index];\r\n        require(_isOnSell(transaction));\r\n        return (transaction.seller, transaction.price, transaction.sellTime);\r\n    }\r\n\r\n    function setPrice(address _contract, uint256 _tokenId, uint256 _price) external {   // 设置价格\r\n        bytes32 index = _computeIndex(_contract, _tokenId);\r\n        Transaction storage transaction = indexToTransaction[index];\r\n        require(_isOnSell(transaction));\r\n        address seller = transaction.seller;\r\n        require(msg.sender == seller);\r\n        require(uint256(_price) == _price);\r\n        indexToTransaction[index].price = _price;\r\n    }\r\n\r\n}",
  "sourcePath": "D:\\github\\ChainBook\\smartcontracts\\contracts\\BuyAndSell.sol",
  "compiler": {
    "name": "solc",
    "version": "0.4.24+commit.e67f0147.Emscripten.clang"
  },
  "schemaVersion": "2.0.0",
  "updatedAt": "2018-06-04T02:56:08.801Z"
}