{
  "contractName": "BuyAndSell",
  "abi": [
    {
      "constant": false,
      "inputs": [
        {
          "name": "_contract",
          "type": "address"
        },
        {
          "name": "_owner",
          "type": "address"
        },
        {
          "name": "_tokenId",
          "type": "uint256"
        }
      ],
      "name": "_escrow",
      "outputs": [],
      "payable": false,
      "stateMutability": "nonpayable",
      "type": "function"
    },
    {
      "constant": true,
      "inputs": [],
      "name": "buyCut",
      "outputs": [
        {
          "name": "",
          "type": "uint256"
        }
      ],
      "payable": false,
      "stateMutability": "view",
      "type": "function"
    },
    {
      "anonymous": false,
      "inputs": [
        {
          "indexed": false,
          "name": "_index",
          "type": "bytes32"
        },
        {
          "components": [
            {
              "name": "contractAddress",
              "type": "address"
            },
            {
              "name": "tokenId",
              "type": "uint256"
            },
            {
              "name": "seller",
              "type": "address"
            },
            {
              "name": "price",
              "type": "uint256"
            },
            {
              "name": "sellTime",
              "type": "uint256"
            }
          ],
          "indexed": false,
          "name": "_transaction",
          "type": "tuple"
        }
      ],
      "name": "SellCreated",
      "type": "event"
    },
    {
      "anonymous": false,
      "inputs": [
        {
          "indexed": false,
          "name": "_index",
          "type": "bytes32"
        },
        {
          "indexed": false,
          "name": "_buyer",
          "type": "address"
        }
      ],
      "name": "SellSuccessful",
      "type": "event"
    },
    {
      "anonymous": false,
      "inputs": [
        {
          "indexed": false,
          "name": "_index",
          "type": "bytes32"
        }
      ],
      "name": "SellCancelled",
      "type": "event"
    },
    {
      "constant": false,
      "inputs": [],
      "name": "withdrawBalance",
      "outputs": [],
      "payable": false,
      "stateMutability": "nonpayable",
      "type": "function"
    },
    {
      "constant": false,
      "inputs": [
        {
          "name": "_price",
          "type": "uint256"
        }
      ],
      "name": "setFees",
      "outputs": [],
      "payable": false,
      "stateMutability": "nonpayable",
      "type": "function"
    },
    {
      "constant": false,
      "inputs": [
        {
          "name": "_contract",
          "type": "address"
        },
        {
          "name": "_tokenId",
          "type": "uint256"
        },
        {
          "name": "_price",
          "type": "uint256"
        },
        {
          "name": "_seller",
          "type": "address"
        }
      ],
      "name": "sell",
      "outputs": [],
      "payable": false,
      "stateMutability": "nonpayable",
      "type": "function"
    },
    {
      "constant": false,
      "inputs": [
        {
          "name": "_contract",
          "type": "address"
        },
        {
          "name": "_tokenId",
          "type": "uint256"
        },
        {
          "name": "_seller",
          "type": "address"
        }
      ],
      "name": "cancelSell",
      "outputs": [],
      "payable": false,
      "stateMutability": "nonpayable",
      "type": "function"
    },
    {
      "constant": false,
      "inputs": [
        {
          "name": "_contract",
          "type": "address"
        },
        {
          "name": "_tokenId",
          "type": "uint256"
        },
        {
          "name": "_buyer",
          "type": "address"
        }
      ],
      "name": "buy",
      "outputs": [],
      "payable": true,
      "stateMutability": "payable",
      "type": "function"
    },
    {
      "constant": true,
      "inputs": [
        {
          "name": "_contract",
          "type": "address"
        },
        {
          "name": "_tokenId",
          "type": "uint256"
        }
      ],
      "name": "getSellInfo",
      "outputs": [
        {
          "name": "seller",
          "type": "address"
        },
        {
          "name": "price",
          "type": "uint256"
        },
        {
          "name": "sellTime",
          "type": "uint256"
        }
      ],
      "payable": false,
      "stateMutability": "view",
      "type": "function"
    },
    {
      "constant": false,
      "inputs": [
        {
          "name": "_contract",
          "type": "address"
        },
        {
          "name": "_tokenId",
          "type": "uint256"
        },
        {
          "name": "_price",
          "type": "uint256"
        }
      ],
      "name": "setPrice",
      "outputs": [],
      "payable": false,
      "stateMutability": "nonpayable",
      "type": "function"
    }
  ],
  "bytecode": "0x608060405234801561001057600080fd5b50611245806100206000396000f300608060405260043610610099576000357c0100000000000000000000000000000000000000000000000000000000900463ffffffff1680630db81a351461009e5780632dc8f8671461010b5780633011e16a146101825780633d18678e146101d95780635fd8c71014610206578063c09bdd061461021d578063cfddada71461028a578063db61c76e146102b5578063ff7b8d5a14610315575b600080fd5b3480156100aa57600080fd5b50610109600480360381019080803573ffffffffffffffffffffffffffffffffffffffff16906020019092919080359060200190929190803573ffffffffffffffffffffffffffffffffffffffff1690602001909291905050506103b0565b005b34801561011757600080fd5b50610180600480360381019080803573ffffffffffffffffffffffffffffffffffffffff1690602001909291908035906020019092919080359060200190929190803573ffffffffffffffffffffffffffffffffffffffff169060200190929190505050610466565b005b34801561018e57600080fd5b506101d7600480360381019080803573ffffffffffffffffffffffffffffffffffffffff16906020019092919080359060200190929190803590602001909291905050506104d6565b005b3480156101e557600080fd5b50610204600480360381019080803590602001909291905050506105b2565b005b34801561021257600080fd5b5061021b6105bc565b005b34801561022957600080fd5b50610288600480360381019080803573ffffffffffffffffffffffffffffffffffffffff169060200190929190803573ffffffffffffffffffffffffffffffffffffffff169060200190929190803590602001909291905050506105be565b005b34801561029657600080fd5b5061029f6106b8565b6040518082815260200191505060405180910390f35b610313600480360381019080803573ffffffffffffffffffffffffffffffffffffffff16906020019092919080359060200190929190803573ffffffffffffffffffffffffffffffffffffffff1690602001909291905050506106be565b005b34801561032157600080fd5b50610360600480360381019080803573ffffffffffffffffffffffffffffffffffffffff169060200190929190803590602001909291905050506106da565b604051808473ffffffffffffffffffffffffffffffffffffffff1673ffffffffffffffffffffffffffffffffffffffff168152602001838152602001828152602001935050505060405180910390f35b60008060006103bf868661075d565b925060016000846000191660001916815260200190815260200160002091506103e7826107c0565b15156103f257600080fd5b8160020160009054906101000a900473ffffffffffffffffffffffffffffffffffffffff1690508073ffffffffffffffffffffffffffffffffffffffff168473ffffffffffffffffffffffffffffffffffffffff1614151561045357600080fd5b61045e8686836107d0565b505050505050565b61046e6111bd565b60a0604051908101604052808673ffffffffffffffffffffffffffffffffffffffff1681526020018581526020018373ffffffffffffffffffffffffffffffffffffffff1681526020018481526020014281525090506104cf85858361098f565b5050505050565b60008060006104e5868661075d565b9250600160008460001916600019168152602001908152602001600020915061050d826107c0565b151561051857600080fd5b8160020160009054906101000a900473ffffffffffffffffffffffffffffffffffffffff1690508073ffffffffffffffffffffffffffffffffffffffff163373ffffffffffffffffffffffffffffffffffffffff1614151561057957600080fd5b838414151561058757600080fd5b8360016000856000191660001916815260200190815260200160002060030181905550505050505050565b8060008190555050565b565b60008390508073ffffffffffffffffffffffffffffffffffffffff166323b872dd8430856040518463ffffffff167c0100000000000000000000000000000000000000000000000000000000028152600401808473ffffffffffffffffffffffffffffffffffffffff1673ffffffffffffffffffffffffffffffffffffffff1681526020018373ffffffffffffffffffffffffffffffffffffffff1673ffffffffffffffffffffffffffffffffffffffff1681526020018281526020019350505050600060405180830381600087803b15801561069a57600080fd5b505af11580156106ae573d6000803e3d6000fd5b5050505050505050565b60005481565b6106c9838334610d04565b506106d5838284610f5d565b505050565b60008060008060006106ec878761075d565b91506001600083600019166000191681526020019081526020016000209050610714816107c0565b151561071f57600080fd5b8060020160009054906101000a900473ffffffffffffffffffffffffffffffffffffffff168160030154826004015494509450945050509250925092565b60008282604051808373ffffffffffffffffffffffffffffffffffffffff1673ffffffffffffffffffffffffffffffffffffffff166c01000000000000000000000000028152601401828152602001925050506040518091039020905092915050565b6000808260040154119050919050565b6000808491506107e1858486611023565b15156107ec57600080fd5b8173ffffffffffffffffffffffffffffffffffffffff16631b01e72c856040518263ffffffff167c010000000000000000000000000000000000000000000000000000000002815260040180828152602001915050602060405180830381600087803b15801561085b57600080fd5b505af115801561086f573d6000803e3d6000fd5b505050506040513d602081101561088557600080fd5b810190808051906020019092919050505015156108a157600080fd5b8173ffffffffffffffffffffffffffffffffffffffff16633cb26817856040518263ffffffff167c010000000000000000000000000000000000000000000000000000000002815260040180828152602001915050600060405180830381600087803b15801561091057600080fd5b505af1158015610924573d6000803e3d6000fd5b50505050610932858561075d565b905061093e858561110b565b610949858486610f5d565b7f32ba94a7e3f6db6895d17eaa6ef6e587251e826472c7fcc4e66d57b3c8b6caba8160405180826000191660001916815260200191505060405180910390a15050505050565b6000808491506109a485846040015186611023565b15156109af57600080fd5b8173ffffffffffffffffffffffffffffffffffffffff166312b9cb47856040518263ffffffff167c010000000000000000000000000000000000000000000000000000000002815260040180828152602001915050602060405180830381600087803b158015610a1e57600080fd5b505af1158015610a32573d6000803e3d6000fd5b505050506040513d6020811015610a4857600080fd5b8101908080519060200190929190505050151515610a6557600080fd5b600073ffffffffffffffffffffffffffffffffffffffff168273ffffffffffffffffffffffffffffffffffffffff1663786b5a0d866040518263ffffffff167c010000000000000000000000000000000000000000000000000000000002815260040180828152602001915050602060405180830381600087803b158015610aec57600080fd5b505af1158015610b00573d6000803e3d6000fd5b505050506040513d6020811015610b1657600080fd5b810190808051906020019092919050505073ffffffffffffffffffffffffffffffffffffffff16141515610b4957600080fd5b610b58858460400151866105be565b8173ffffffffffffffffffffffffffffffffffffffff1663dadec2c4856040518263ffffffff167c010000000000000000000000000000000000000000000000000000000002815260040180828152602001915050600060405180830381600087803b158015610bc757600080fd5b505af1158015610bdb573d6000803e3d6000fd5b50505050610be9858561075d565b90508260016000836000191660001916815260200190815260200160002060008201518160000160006101000a81548173ffffffffffffffffffffffffffffffffffffffff021916908373ffffffffffffffffffffffffffffffffffffffff1602179055506020820151816001015560408201518160020160006101000a81548173ffffffffffffffffffffffffffffffffffffffff021916908373ffffffffffffffffffffffffffffffffffffffff16021790555060608201518160030155608082015181600401559050507f41cfe649e96a6279fcd2525d82251b039ba6e646fadf650b93e5f824cb59bb3981846040518083600019166000191681526020018281526020019250505060405180910390a15050505050565b6000806000806000806000806000610d1c8c8c61075d565b97506001600089600019166000191681526020019081526020016000209650610d44876107c0565b1515610d4f57600080fd5b86600301549550858a10151515610d6557600080fd5b8660020160009054906101000a900473ffffffffffffffffffffffffffffffffffffffff169450610d968c8c61110b565b6000861115610df757610da8866111a2565b935083860392508473ffffffffffffffffffffffffffffffffffffffff166108fc849081150290604051600060405180830381858888f19350505050158015610df5573d6000803e3d6000fd5b505b858a0391503373ffffffffffffffffffffffffffffffffffffffff166108fc839081150290604051600060405180830381858888f19350505050158015610e42573d6000803e3d6000fd5b50610e4e8c338d610f5d565b8b90508073ffffffffffffffffffffffffffffffffffffffff1663b97a15a38c6040518263ffffffff167c010000000000000000000000000000000000000000000000000000000002815260040180828152602001915050600060405180830381600087803b158015610ec057600080fd5b505af1158015610ed4573d6000803e3d6000fd5b505050507f4f9c5adf598c066d0264cb49d916cbece839566255d3587b8744f67e802f6edc88336040518083600019166000191681526020018273ffffffffffffffffffffffffffffffffffffffff1673ffffffffffffffffffffffffffffffffffffffff1681526020019250505060405180910390a185985050505050505050509392505050565b60008390508073ffffffffffffffffffffffffffffffffffffffff1663a9059cbb84846040518363ffffffff167c0100000000000000000000000000000000000000000000000000000000028152600401808373ffffffffffffffffffffffffffffffffffffffff1673ffffffffffffffffffffffffffffffffffffffff16815260200182815260200192505050600060405180830381600087803b15801561100557600080fd5b505af1158015611019573d6000803e3d6000fd5b5050505050505050565b6000808490508373ffffffffffffffffffffffffffffffffffffffff168173ffffffffffffffffffffffffffffffffffffffff16636352211e856040518263ffffffff167c010000000000000000000000000000000000000000000000000000000002815260040180828152602001915050602060405180830381600087803b1580156110af57600080fd5b505af11580156110c3573d6000803e3d6000fd5b505050506040513d60208110156110d957600080fd5b810190808051906020019092919050505073ffffffffffffffffffffffffffffffffffffffff16149150509392505050565b6000611117838361075d565b9050600160008260001916600019168152602001908152602001600020600080820160006101000a81549073ffffffffffffffffffffffffffffffffffffffff021916905560018201600090556002820160006101000a81549073ffffffffffffffffffffffffffffffffffffffff0219169055600382016000905560048201600090555050505050565b600061271060005483028115156111b557fe5b049050919050565b60a060405190810160405280600073ffffffffffffffffffffffffffffffffffffffff16815260200160008152602001600073ffffffffffffffffffffffffffffffffffffffff168152602001600081526020016000815250905600a165627a7a723058204d295fcf26a2fcdad22532349209c2819fec28582d241f78e10ab82cf0cbc0ba0029",
  "source": "pragma solidity ^0.4.24;\n\nimport \"./BuyAndSellBase.sol\";\n\n\ncontract BuyAndSell is BuyAndSellBase {\n\n    function withdrawBalance() external {\n        // require(\n        //   //  msg.sender == owner ||\n        //     msg.sender == nftAddress\n        // );\n        // nftAddress.send(this.balance);\n    }\n\n    function setFees(uint256 _price) external { // === onlyCEO ===\n        buyCut = _price;\n    }\n\n    function sell(address _contract, uint256 _tokenId, uint256 _price, address _seller) external {     // 出售\n        Transaction memory transaction = Transaction(_contract, _tokenId, _seller, _price, now);\n        _addSell(_contract, _tokenId, transaction);\n    }\n\n    function cancelSell(address _contract, uint256 _tokenId, address _seller) external {       // 取消出售\n        bytes32 index = _computeIndex(_contract, _tokenId);\n        Transaction storage transaction = indexToTransaction[index];\n        require(_isOnSell(transaction));\n        address seller = transaction.seller;\n        require(_seller == seller);\n        _cancelSell(_contract, _tokenId, seller);\n    }\n\n    function buy(address _contract, uint256 _tokenId, address _buyer) external payable {       //购买\n        _buy(_contract, _tokenId, msg.value);\n        _transfer(_contract, _buyer, _tokenId);\n\n    }\n\n    function getSellInfo(address _contract, uint256 _tokenId) external view returns    // 获得交易信息\n    (\n        address seller,\n        uint256 price,\n        uint256 sellTime\n    )\n    {\n        bytes32 index = _computeIndex(_contract, _tokenId);\n        Transaction storage transaction = indexToTransaction[index];\n        require(_isOnSell(transaction));\n        return (transaction.seller, transaction.price, transaction.sellTime);\n    }\n\n    function setPrice(address _contract, uint256 _tokenId, uint256 _price) external {   // 设置价格\n        bytes32 index = _computeIndex(_contract, _tokenId);\n        Transaction storage transaction = indexToTransaction[index];\n        require(_isOnSell(transaction));\n        address seller = transaction.seller;\n        require(msg.sender == seller);\n        require(uint256(_price) == _price);\n        indexToTransaction[index].price = _price;\n    }\n}\n",
  "sourcePath": "F:\\ChainBook\\smartcontracts\\contracts\\BuyAndSell.sol",
  "compiler": {
    "name": "solc",
    "version": "0.4.24+commit.e67f0147.Emscripten.clang"
  },
  "schemaVersion": "2.0.0",
  "updatedAt": "2018-06-03T15:44:40.215Z"
}