{
  "contractName": "helloWorld",
  "abi": [
    {
      "inputs": [],
      "payable": false,
      "stateMutability": "nonpayable",
      "type": "constructor"
    },
    {
      "constant": false,
      "inputs": [],
      "name": "sayHello",
      "outputs": [
        {
          "name": "",
          "type": "string"
        }
      ],
      "payable": false,
      "stateMutability": "nonpayable",
      "type": "function"
    },
    {
      "constant": true,
      "inputs": [
        {
          "name": "name",
          "type": "string"
        }
      ],
      "name": "echo",
      "outputs": [
        {
          "name": "",
          "type": "string"
        }
      ],
      "payable": false,
      "stateMutability": "view",
      "type": "function"
    }
  ],
  "bytecode": "0x608060405234801561001057600080fd5b50610236806100206000396000f30060806040526004361061004c576000357c0100000000000000000000000000000000000000000000000000000000900463ffffffff168063ef5fb05b14610051578063f15da729146100e1575b600080fd5b34801561005d57600080fd5b506100666101c3565b6040518080602001828103825283818151815260200191508051906020019080838360005b838110156100a657808201518184015260208101905061008b565b50505050905090810190601f1680156100d35780820380516001836020036101000a031916815260200191505b509250505060405180910390f35b3480156100ed57600080fd5b50610148600480360381019080803590602001908201803590602001908080601f0160208091040260200160405190810160405280939291908181526020018383808284378201915050505050509192919290505050610200565b6040518080602001828103825283818151815260200191508051906020019080838360005b8381101561018857808201518184015260208101905061016d565b50505050905090810190601f1680156101b55780820380516001836020036101000a031916815260200191505b509250505060405180910390f35b60606040805190810160405280600a81526020017f68656c6c6f576f726c6400000000000000000000000000000000000000000000815250905090565b60608190509190505600a165627a7a723058206bcda0949a7963742a479b15d2d29517dd812bf82661160f7d01b79dee7bfc950029",
  "source": "pragma solidity ^0.4.4;\n\n\ncontract helloWorld {\n  function helloWorld(){\n    // constructor\n\n  }\n\n  function sayHello() returns(string) {\n      return (\"helloWorld\");\n  }\n\n  function echo(string name) constant returns (string){\n      return name;\n  }\n}\n",
  "sourcePath": "F:\\ChainBook\\smartcontracts\\contracts\\helloWorld.sol",
  "compiler": {
    "name": "solc",
    "version": "0.4.24+commit.e67f0147.Emscripten.clang"
  },
  "schemaVersion": "2.0.0",
  "updatedAt": "2018-06-03T16:52:06.973Z"
}