{
  "contractName": "helloaWorld",
  "abi": [
    {
      "constant": false,
      "inputs": [],
      "name": "helloWorld",
      "outputs": [],
      "payable": false,
      "stateMutability": "nonpayable",
      "type": "function"
    },
    {
      "constant": false,
      "inputs": [],
      "name": "sayHello",
      "outputs": [
        {
          "name": "",
          "type": "string"
        }
      ],
      "payable": false,
      "stateMutability": "nonpayable",
      "type": "function"
    },
    {
      "constant": true,
      "inputs": [
        {
          "name": "name",
          "type": "string"
        }
      ],
      "name": "echo",
      "outputs": [
        {
          "name": "",
          "type": "string"
        }
      ],
      "payable": false,
      "stateMutability": "view",
      "type": "function"
    }
  ],
  "bytecode": "0x608060405234801561001057600080fd5b5061025a806100206000396000f300608060405260043610610057576000357c0100000000000000000000000000000000000000000000000000000000900463ffffffff168063c605f76c1461005c578063ef5fb05b14610073578063f15da72914610103575b600080fd5b34801561006857600080fd5b506100716101e5565b005b34801561007f57600080fd5b506100886101e7565b6040518080602001828103825283818151815260200191508051906020019080838360005b838110156100c85780820151818401526020810190506100ad565b50505050905090810190601f1680156100f55780820380516001836020036101000a031916815260200191505b509250505060405180910390f35b34801561010f57600080fd5b5061016a600480360381019080803590602001908201803590602001908080601f0160208091040260200160405190810160405280939291908181526020018383808284378201915050505050509192919290505050610224565b6040518080602001828103825283818151815260200191508051906020019080838360005b838110156101aa57808201518184015260208101905061018f565b50505050905090810190601f1680156101d75780820380516001836020036101000a031916815260200191505b509250505060405180910390f35b565b60606040805190810160405280600a81526020017f68656c6c6f576f726c6400000000000000000000000000000000000000000000815250905090565b60608190509190505600a165627a7a72305820e318c1ff6724f352b6a61d5307c084d53269f174ac4ebb61742a6d697eb5ffb40029",
  "source": "pragma solidity ^0.4.4;\n\n\ncontract helloaWorld {\n  function helloWorld(){\n    // constructor\n\n  }\n\n  function sayHello() returns(string) {\n      return (\"helloWorld\");\n  }\n\n  function echo(string name) constant returns (string){\n      return name;\n  }\n}\n",
  "sourcePath": "D:\\github\\ChainBook2\\ChainBook2\\smartcontracts\\contracts\\helloWorld.sol",
  "compiler": {
    "name": "solc",
    "version": "0.4.24+commit.e67f0147.Emscripten.clang"
  },
  "schemaVersion": "2.0.0",
  "updatedAt": "2018-05-28T04:16:22.339Z"
}