{
  "contractName": "RentAndLeaseBase",
  "abi": [
    {
      "constant": true,
      "inputs": [],
      "name": "ceoAddress",
      "outputs": [
        {
          "name": "",
          "type": "address"
        }
      ],
      "payable": false,
      "stateMutability": "view",
      "type": "function"
    },
    {
      "constant": false,
      "inputs": [
        {
          "name": "addrs",
          "type": "address[]"
        }
      ],
      "name": "removeAddressesFromWhitelist",
      "outputs": [
        {
          "name": "success",
          "type": "bool"
        }
      ],
      "payable": false,
      "stateMutability": "nonpayable",
      "type": "function"
    },
    {
      "constant": false,
      "inputs": [
        {
          "name": "_newCEO",
          "type": "address"
        }
      ],
      "name": "setCEO",
      "outputs": [],
      "payable": false,
      "stateMutability": "nonpayable",
      "type": "function"
    },
    {
      "constant": false,
      "inputs": [
        {
          "name": "addr",
          "type": "address"
        }
      ],
      "name": "removeAddressFromWhitelist",
      "outputs": [
        {
          "name": "success",
          "type": "bool"
        }
      ],
      "payable": false,
      "stateMutability": "nonpayable",
      "type": "function"
    },
    {
      "constant": false,
      "inputs": [],
      "name": "unpause",
      "outputs": [],
      "payable": false,
      "stateMutability": "nonpayable",
      "type": "function"
    },
    {
      "constant": true,
      "inputs": [],
      "name": "paused",
      "outputs": [
        {
          "name": "",
          "type": "bool"
        }
      ],
      "payable": false,
      "stateMutability": "view",
      "type": "function"
    },
    {
      "constant": false,
      "inputs": [
        {
          "name": "addr",
          "type": "address"
        }
      ],
      "name": "addAddressToWhitelist",
      "outputs": [
        {
          "name": "success",
          "type": "bool"
        }
      ],
      "payable": false,
      "stateMutability": "nonpayable",
      "type": "function"
    },
    {
      "constant": false,
      "inputs": [],
      "name": "pause",
      "outputs": [],
      "payable": false,
      "stateMutability": "nonpayable",
      "type": "function"
    },
    {
      "constant": true,
      "inputs": [
        {
          "name": "",
          "type": "address"
        }
      ],
      "name": "whitelist",
      "outputs": [
        {
          "name": "",
          "type": "bool"
        }
      ],
      "payable": false,
      "stateMutability": "view",
      "type": "function"
    },
    {
      "constant": false,
      "inputs": [
        {
          "name": "addrs",
          "type": "address[]"
        }
      ],
      "name": "addAddressesToWhitelist",
      "outputs": [
        {
          "name": "success",
          "type": "bool"
        }
      ],
      "payable": false,
      "stateMutability": "nonpayable",
      "type": "function"
    },
    {
      "anonymous": false,
      "inputs": [
        {
          "indexed": false,
          "name": "_index",
          "type": "bytes32"
        },
        {
          "components": [
            {
              "name": "_contract",
              "type": "address"
            },
            {
              "name": "tokenId",
              "type": "uint256"
            },
            {
              "name": "renter",
              "type": "address"
            },
            {
              "name": "leaser",
              "type": "address"
            },
            {
              "name": "price",
              "type": "uint256"
            },
            {
              "name": "rentTime",
              "type": "uint256"
            },
            {
              "name": "beginTime",
              "type": "uint256"
            }
          ],
          "indexed": false,
          "name": "_rent",
          "type": "tuple"
        }
      ],
      "name": "RentCreat",
      "type": "event"
    },
    {
      "anonymous": false,
      "inputs": [
        {
          "indexed": false,
          "name": "_contract",
          "type": "address"
        },
        {
          "indexed": false,
          "name": "_tokenId",
          "type": "uint256"
        },
        {
          "indexed": false,
          "name": "_renter",
          "type": "address"
        }
      ],
      "name": "RentCancelled",
      "type": "event"
    },
    {
      "anonymous": false,
      "inputs": [
        {
          "indexed": false,
          "name": "addr",
          "type": "address"
        }
      ],
      "name": "WhitelistedAddressAdded",
      "type": "event"
    },
    {
      "anonymous": false,
      "inputs": [
        {
          "indexed": false,
          "name": "addr",
          "type": "address"
        }
      ],
      "name": "WhitelistedAddressRemoved",
      "type": "event"
    }
  ],
  "bytecode": "0x608060405234801561001057600080fd5b50610a6b806100206000396000f3006080604052600436106100a4576000357c0100000000000000000000000000000000000000000000000000000000900463ffffffff1680630a0f8168146100a957806324953eaa1461010057806327d7874c1461017e578063286dd3f5146101c15780633f4ba83a1461021c5780635c975abb146102335780637b9417c8146102625780638456cb59146102bd5780639b19251a146102d4578063e2ec6ec31461032f575b600080fd5b3480156100b557600080fd5b506100be6103ad565b604051808273ffffffffffffffffffffffffffffffffffffffff1673ffffffffffffffffffffffffffffffffffffffff16815260200191505060405180910390f35b34801561010c57600080fd5b50610164600480360381019080803590602001908201803590602001908080602002602001604051908101604052809392919081815260200183836020028082843782019150505050505091929192905050506103d2565b604051808215151515815260200191505060405180910390f35b34801561018a57600080fd5b506101bf600480360381019080803573ffffffffffffffffffffffffffffffffffffffff16906020019092919050505061047b565b005b3480156101cd57600080fd5b50610202600480360381019080803573ffffffffffffffffffffffffffffffffffffffff169060200190929190505050610555565b604051808215151515815260200191505060405180910390f35b34801561022857600080fd5b506102316106c9565b005b34801561023f57600080fd5b5061024861075b565b604051808215151515815260200191505060405180910390f35b34801561026e57600080fd5b506102a3600480360381019080803573ffffffffffffffffffffffffffffffffffffffff16906020019092919050505061076e565b604051808215151515815260200191505060405180910390f35b3480156102c957600080fd5b506102d26108e2565b005b3480156102e057600080fd5b50610315600480360381019080803573ffffffffffffffffffffffffffffffffffffffff169060200190929190505050610976565b604051808215151515815260200191505060405180910390f35b34801561033b57600080fd5b5061039360048036038101908080359060200190820180359060200190808060200260200160405190810160405280939291908181526020018383602002808284378201915050505050509192919290505050610996565b604051808215151515815260200191505060405180910390f35b6000809054906101000a900473ffffffffffffffffffffffffffffffffffffffff1681565b6000806000809054906101000a900473ffffffffffffffffffffffffffffffffffffffff1673ffffffffffffffffffffffffffffffffffffffff163373ffffffffffffffffffffffffffffffffffffffff1614151561043057600080fd5b600090505b82518110156104755761045e838281518110151561044f57fe5b90602001906020020151610555565b1561046857600191505b8080600101915050610435565b50919050565b6000809054906101000a900473ffffffffffffffffffffffffffffffffffffffff1673ffffffffffffffffffffffffffffffffffffffff163373ffffffffffffffffffffffffffffffffffffffff161415156104d657600080fd5b600073ffffffffffffffffffffffffffffffffffffffff168173ffffffffffffffffffffffffffffffffffffffff161415151561051257600080fd5b806000806101000a81548173ffffffffffffffffffffffffffffffffffffffff021916908373ffffffffffffffffffffffffffffffffffffffff16021790555050565b60008060009054906101000a900473ffffffffffffffffffffffffffffffffffffffff1673ffffffffffffffffffffffffffffffffffffffff163373ffffffffffffffffffffffffffffffffffffffff161415156105b257600080fd5b600160008373ffffffffffffffffffffffffffffffffffffffff1673ffffffffffffffffffffffffffffffffffffffff16815260200190815260200160002060009054906101000a900460ff16156106c4576000600160008473ffffffffffffffffffffffffffffffffffffffff1673ffffffffffffffffffffffffffffffffffffffff16815260200190815260200160002060006101000a81548160ff0219169083151502179055507ff1abf01a1043b7c244d128e8595cf0c1d10743b022b03a02dffd8ca3bf729f5a82604051808273ffffffffffffffffffffffffffffffffffffffff1673ffffffffffffffffffffffffffffffffffffffff16815260200191505060405180910390a1600190505b919050565b6000809054906101000a900473ffffffffffffffffffffffffffffffffffffffff1673ffffffffffffffffffffffffffffffffffffffff163373ffffffffffffffffffffffffffffffffffffffff1614151561072457600080fd5b600060149054906101000a900460ff16151561073f57600080fd5b60008060146101000a81548160ff021916908315150217905550565b600060149054906101000a900460ff1681565b60008060009054906101000a900473ffffffffffffffffffffffffffffffffffffffff1673ffffffffffffffffffffffffffffffffffffffff163373ffffffffffffffffffffffffffffffffffffffff161415156107cb57600080fd5b600160008373ffffffffffffffffffffffffffffffffffffffff1673ffffffffffffffffffffffffffffffffffffffff16815260200190815260200160002060009054906101000a900460ff1615156108dd5760018060008473ffffffffffffffffffffffffffffffffffffffff1673ffffffffffffffffffffffffffffffffffffffff16815260200190815260200160002060006101000a81548160ff0219169083151502179055507fd1bba68c128cc3f427e5831b3c6f99f480b6efa6b9e80c757768f6124158cc3f82604051808273ffffffffffffffffffffffffffffffffffffffff1673ffffffffffffffffffffffffffffffffffffffff16815260200191505060405180910390a1600190505b919050565b6000809054906101000a900473ffffffffffffffffffffffffffffffffffffffff1673ffffffffffffffffffffffffffffffffffffffff163373ffffffffffffffffffffffffffffffffffffffff1614151561093d57600080fd5b600060149054906101000a900460ff1615151561095957600080fd5b6001600060146101000a81548160ff021916908315150217905550565b60016020528060005260406000206000915054906101000a900460ff1681565b6000806000809054906101000a900473ffffffffffffffffffffffffffffffffffffffff1673ffffffffffffffffffffffffffffffffffffffff163373ffffffffffffffffffffffffffffffffffffffff161415156109f457600080fd5b600090505b8251811015610a3957610a228382815181101515610a1357fe5b9060200190602002015161076e565b15610a2c57600191505b80806001019150506109f9565b509190505600a165627a7a7230582018c033bd7fb33b3d39ca07f741802cc9312a1318b74d3a27ab61a94524cb5dbd0029",
  "source": "pragma solidity^0.4.21;\r\n\r\nimport \"./Whitelist.sol\";\r\nimport \"./ERC721Expand.sol\";\r\n\r\n\r\ncontract RentAndLeaseBase is Whitelist {\r\n\r\n    struct Rent {           // 出租信息\r\n        address _contract;   // 合约地址\r\n        uint256 tokenId;    // tokenId\r\n        address renter;     // 出租人\r\n        address leaser;     // 租赁人地址\r\n        uint256 price;      // 价格\r\n        uint256 rentTime;   // 出租时长\r\n        uint256 beginTime;  // 什么开始出租（不是出租给租赁方的时间）\r\n    }\r\n\r\n\r\n    uint256 rentCut;                      //  === 平台手续费 ===\r\n\r\n    mapping(bytes32 => Rent) IndexToRent;\r\n\r\n    event RentCreat(bytes32 _index, Rent _rent);\r\n    // event RentProcess(uint256 _tokenId, uint256 _price, address _leaser);\r\n    // event RentSucessful(uint256 _tokenId);\r\n    event RentCancelled(address _contract, uint256 _tokenId, address _renter);\r\n\r\n    // @dev 判断某个地址是否拥有某个token\r\n    // @return true/fasle\r\n    function _owns(\r\n        address _contract,\r\n        address _claimant,\r\n        uint256 _tokenId\r\n        )\r\n        internal\r\n        view\r\n        returns(bool)\r\n    {\r\n        ERC721Expand nonFungibleContract = ERC721Expand(_contract);\r\n        return (nonFungibleContract.ownerOf(_tokenId) == _claimant);\r\n    }\r\n\r\n    // // @dev 将token所有权暂存到合约\r\n    // // @notice 必须先获得approve\r\n    // function _escrow(address _contract, address _owner, uint256 _tokenId) internal {\r\n    //     ERC721Expand nonFungibleContract = ERC721Expand(_contract);\r\n    //     nonFungibleContract.transferFrom(_owner, this, _tokenId);\r\n    // }\r\n\r\n    // // @dev 转移token所有权\r\n    // function _transfer(address _contract, address _renter, uint256 _tokenId) internal {    // 转移书籍所有者\r\n    //     ERC721Expand nonFungibleContract = ERC721Expand(_contract);\r\n    //     nonFungibleContract.transfer(_renter, _tokenId);\r\n    // }\r\n\r\n    // @dev 某个token是否正在等待出租\r\n    function _isOnRent(Rent _rent) internal pure returns(bool) {\r\n        return (_rent.beginTime > 0);\r\n    }\r\n\r\n    // @dev 某个token是否正在租赁状态\r\n    function _isOnLease(Rent _rent) internal pure returns(bool) {\r\n        return (_rent.renter != address(0) && _rent.beginTime == 0);\r\n    }\r\n\r\n    // @dev 取消租赁\r\n    // @notice 转移token所有权，修改token数据\r\n    // @return 返回取消的index\r\n    function _cancelRent(\r\n        address _contract,\r\n        uint256 _tokenId,\r\n        address _renter\r\n        )\r\n        internal\r\n        returns(bytes32)\r\n    {\r\n        bytes32 index = _computeIndex(_contract, _tokenId);\r\n        // require(_isOnRent(IndexToRent[index]) == false );\r\n        require(IndexToRent[index].renter == _renter);\r\n        delete IndexToRent[index];\r\n        // _transfer(_contract, _renter, _tokenId);\r\n        emit RentCancelled(_contract, _tokenId, _renter);\r\n        return index;\r\n    }\r\n\r\n    // @dev 正在租赁， 下架平台租赁， 保留租赁数据和token所有权\r\n    function _removeRent(address _contract, uint256 _tokenId) internal {   // 正在租赁，下架租赁\r\n        bytes32 index = _computeIndex(_contract, _tokenId);\r\n        IndexToRent[index].renter = address(0);\r\n    }\r\n\r\n\r\n    function _creatRent(\r\n        address _contract,\r\n        uint256 _tokenId,\r\n        Rent _rent\r\n        )\r\n        internal\r\n        returns(bytes32)\r\n    {    // 创建一个租赁合约\r\n        require(_rent.rentTime >= 1 minutes);\r\n        bytes32 index = _computeIndex(_contract, _tokenId);\r\n        IndexToRent[index] = _rent;\r\n        emit RentCreat(\r\n            index,\r\n            _rent\r\n        );\r\n        return index;\r\n    }\r\n\r\n\r\n    // @dev 租赁token\r\n    // @param ...\r\n    // @return 返回租赁地址\r\n    function _lease(\r\n        address _contract,\r\n        uint256 _tokenId,\r\n        uint256 _price,\r\n        address _leaser\r\n        )\r\n        internal\r\n        returns(\r\n            bool,\r\n            uint256,\r\n            address,\r\n            uint256,\r\n            uint256,\r\n            uint256\r\n            )\r\n    {\r\n\r\n        //ERC721Expand  nonFungibleContract = ERC721Expand(_contract);\r\n        //nonFungibleContract.rentTo(_tokenId, _leaser);\r\n        IndexToRent[_computeIndex(_contract, _tokenId)].leaser = _leaser;\r\n        Rent memory _rent = IndexToRent[_computeIndex(_contract, _tokenId)];\r\n        require(_isOnRent(_rent));\r\n        uint256 price = _rent.price;\r\n        require(_price >= price);\r\n\r\n        _removeRent(_contract,_tokenId);\r\n        // emit RentProcess(_tokenId, price, msg.sender);\r\n        return (true, _rent.rentTime, _rent.renter, _computeCut(price), price - _computeCut(price), _price - price);\r\n    }\r\n\r\n    // @ 租赁成功，删除租赁数据， 归还token\r\n    function  _rentFinish(address _contract, uint256 _tokenId) internal {     // 租赁成功\r\n        // ERC721Expand  nonFungibleContract = ERC721Expand(_contract);\r\n        // nonFungibleContract.rentFinish(_tokenId);\r\n        bytes32 index = _computeIndex(_contract, _tokenId);\r\n        // address renter = IndexToRent[index].renter;\r\n        delete IndexToRent[index];\r\n        // _transfer(_contract, renter, _tokenId);\r\n    }\r\n\r\n    // @dev 重新设置价格和时长\r\n    function _reset(\r\n        address _contract,\r\n        uint256 _tokenId,\r\n        uint256 _price,\r\n        uint256 _rentTime,\r\n        address _renter\r\n        )\r\n        internal\r\n    {\r\n        // ERC721Expand nonFungibleContract = ERC721Expand(_contract);\r\n        // require(nonFungibleContract.ownerOf(_tokenId) == _renter);\r\n        bytes32 index = _computeIndex(_contract, _tokenId);\r\n        Rent storage _rent = IndexToRent[index];\r\n        require(_isOnRent(_rent));\r\n        require(_renter == _rent.renter);\r\n        _rent.price = _price;\r\n        _rent.rentTime = _rentTime;\r\n    }\r\n\r\n\r\n    // @dev 计算平台手续费\r\n    // @param 交易金额\r\n    // @return 平台手续费\r\n    function _computeCut(uint256 _price) internal view returns (uint256) {\r\n        return _price * rentCut / 10000;  /// 注意修改safemath\r\n    }\r\n\r\n\r\n    // @dev 计算交易index\r\n    // @returns 交易index （通过 合约地址 和 tokenId 进行哈希）\r\n    function _computeIndex(address _contract, uint256 _tokenId) internal pure returns(bytes32) {\r\n        return keccak256(abi.encodePacked(_contract, _tokenId));\r\n    }\r\n\r\n}\r\n",
  "sourcePath": "F:\\ChainBook\\smartcontracts\\contracts\\RentAndLeaseBase.sol",
  "compiler": {
    "name": "solc",
    "version": "0.4.24+commit.e67f0147.Emscripten.clang"
  },
  "schemaVersion": "2.0.0",
  "updatedAt": "2018-06-11T08:27:52.957Z"
}