{
  "contractName": "RentAndLeaseBase",
  "abi": [
    {
      "constant": true,
      "inputs": [],
      "name": "nonFungibleContract",
      "outputs": [
        {
          "name": "",
          "type": "address"
        }
      ],
      "payable": false,
      "stateMutability": "view",
      "type": "function"
    },
    {
      "anonymous": false,
      "inputs": [
        {
          "indexed": false,
          "name": "_tokenId",
          "type": "uint256"
        },
        {
          "indexed": false,
          "name": "_renter",
          "type": "address"
        },
        {
          "indexed": false,
          "name": "_price",
          "type": "uint256"
        },
        {
          "indexed": false,
          "name": "_rentTime",
          "type": "uint256"
        }
      ],
      "name": "RentCreat",
      "type": "event"
    },
    {
      "anonymous": false,
      "inputs": [
        {
          "indexed": false,
          "name": "_tokenId",
          "type": "uint256"
        },
        {
          "indexed": false,
          "name": "_price",
          "type": "uint256"
        },
        {
          "indexed": false,
          "name": "_leaser",
          "type": "address"
        }
      ],
      "name": "RentProcess",
      "type": "event"
    },
    {
      "anonymous": false,
      "inputs": [
        {
          "indexed": false,
          "name": "_tokenId",
          "type": "uint256"
        }
      ],
      "name": "RentSucessful",
      "type": "event"
    },
    {
      "anonymous": false,
      "inputs": [
        {
          "indexed": false,
          "name": "_tokenId",
          "type": "uint256"
        },
        {
          "indexed": false,
          "name": "_renter",
          "type": "address"
        }
      ],
      "name": "RentCancelled",
      "type": "event"
    }
  ],
  "bytecode": "0x608060405234801561001057600080fd5b5060e98061001f6000396000f300608060405260043610603f576000357c0100000000000000000000000000000000000000000000000000000000900463ffffffff168063dd1b7a0f146044575b600080fd5b348015604f57600080fd5b5060566098565b604051808273ffffffffffffffffffffffffffffffffffffffff1673ffffffffffffffffffffffffffffffffffffffff16815260200191505060405180910390f35b6000809054906101000a900473ffffffffffffffffffffffffffffffffffffffff16815600a165627a7a7230582095c4671b67e7db6fe128baaf2fcc4afa4c1b04b48ac009930a5a234b44b9ad9e0029",
  "source": "pragma solidity ^0.4.24;\r\n\r\nimport \"./ERC721.sol\";\r\n\r\ncontract RentAndLeaseBase {\r\n    struct Rent {\r\n        address renter;\r\n        uint256 price;\r\n        uint256 rentTime;\r\n        uint256 beginTime;\r\n    }\r\n\r\n    ERC721 public nonFungibleContract;\r\n\r\n    uint256 ownerCut;\r\n\r\n    mapping(uint256 => Rent) tokenIdToRent;\r\n    mapping(uint256 => address) tokenIdToRenter;\r\n    mapping(uint256 => address) tokenIdToLeaser;\r\n\r\n    event RentCreat(uint256 _tokenId, address _renter, uint256 _price, uint256 _rentTime);\r\n    event RentProcess(uint256 _tokenId, uint256 _price, address _leaser);\r\n    event RentSucessful(uint256 _tokenId);\r\n    event RentCancelled(uint256 _tokenId, address _renter);\r\n\r\n    function _owns(address _claimant, uint256 _tokenId ) internal returns(bool) {\r\n        return (nonFungibleContract.ownerOf(_tokenId) == _claimant);\r\n    }\r\n\r\n    function _escrow(address _owner, uint256 _tokenId) internal {\r\n        nonFungibleContract.transferFrom(_owner, this, _tokenId);\r\n    }\r\n    \r\n    function _transfer(address _renter, uint256 _tokenId) internal {\r\n        nonFungibleContract.transfer(_renter, _tokenId);\r\n    }\r\n\r\n    function _isOnRent(Rent _rent) internal view returns(bool) {\r\n        return _rent.beginTime > 0;\r\n    }\r\n\r\n    function _cancelRent(uint256 _tokenId, address _renter) internal {\r\n        _removeRent(_tokenId);\r\n        _transfer(_renter, _tokenId);\r\n        RentCancelled(_tokenId, _renter);\r\n    }\r\n\r\n    function _removeRent(uint256 _tokenId) internal {\r\n        delete tokenIdToRent[_tokenId];\r\n    }\r\n\r\n    function _creatRent(uint256 _tokenId, Rent _rent) internal {\r\n        require(_rent.rentTime >= 1 minutes);\r\n        tokenIdToRent[_tokenId] = _rent;\r\n        tokenIdToRenter[_tokenId] = _rent.renter;\r\n        RentCreat(\r\n            uint256(_tokenId),\r\n            address(_rent.renter),\r\n            uint256(_rent.price),\r\n            uint256(_rent.rentTime)\r\n        );\r\n\r\n    }\r\n\r\n    function _addRent(uint256 _tokenId, uint256 _price) internal {\r\n        Rent storage rent = tokenIdToRent[_tokenId];\r\n        require(_isOnRent(rent));\r\n\r\n        uint256 price = rent.price;\r\n        require(_price >= price);\r\n\r\n        address renter = rent.renter;\r\n        _removeRent(_tokenId);\r\n\r\n        if(_price > 0) {\r\n            uint256 contractFees = _computeCut(price);\r\n            uint256 sellerProceeds = price - contractFees;\r\n\r\n            renter.transfer(sellerProceeds);\r\n        }\r\n\r\n        uint256 excessPrice = _price - price;\r\n        msg.sender.transfer(excessPrice);\r\n        RentProcess(_tokenId, price, msg.sender);\r\n    }\r\n\r\n    function  _rentSuccess(uint256 _tokenId) internal{\r\n        address  renter = tokenIdToRenter[_tokenId];\r\n        delete tokenIdToRenter[_tokenId];\r\n        _transfer( renter, _tokenId);\r\n\r\n    }\r\n    function _computeCut(uint256 _price) internal view returns (uint256) {  \r\n        return _price * ownerCut / 10000;  /// 注意修改safemath\r\n    } \r\n}",
  "sourcePath": "D:\\programming\\dapp\\ChainBook\\contracts\\RentAndLeaseBase.sol",
  "compiler": {
    "name": "solc",
    "version": "0.4.24+commit.e67f0147.Emscripten.clang"
  },
  "schemaVersion": "2.0.0",
  "updatedAt": "2018-06-01T15:07:29.175Z"
}