{
  "contractName": "RentAndLease",
  "abi": [
    {
      "constant": true,
      "inputs": [],
      "name": "isready",
      "outputs": [
        {
          "name": "",
          "type": "bool"
        }
      ],
      "payable": false,
      "stateMutability": "view",
      "type": "function"
    },
    {
      "constant": true,
      "inputs": [],
      "name": "nonFungibleContract",
      "outputs": [
        {
          "name": "",
          "type": "address"
        }
      ],
      "payable": false,
      "stateMutability": "view",
      "type": "function"
    },
    {
      "anonymous": false,
      "inputs": [
        {
          "indexed": false,
          "name": "_tokenId",
          "type": "uint256"
        },
        {
          "indexed": false,
          "name": "_renter",
          "type": "address"
        },
        {
          "indexed": false,
          "name": "_price",
          "type": "uint256"
        },
        {
          "indexed": false,
          "name": "_rentTime",
          "type": "uint256"
        }
      ],
      "name": "RentCreat",
      "type": "event"
    },
    {
      "anonymous": false,
      "inputs": [
        {
          "indexed": false,
          "name": "_tokenId",
          "type": "uint256"
        },
        {
          "indexed": false,
          "name": "_price",
          "type": "uint256"
        },
        {
          "indexed": false,
          "name": "_leaser",
          "type": "address"
        }
      ],
      "name": "RentProcess",
      "type": "event"
    },
    {
      "anonymous": false,
      "inputs": [
        {
          "indexed": false,
          "name": "_tokenId",
          "type": "uint256"
        }
      ],
      "name": "RentSucessful",
      "type": "event"
    },
    {
      "anonymous": false,
      "inputs": [
        {
          "indexed": false,
          "name": "_tokenId",
          "type": "uint256"
        },
        {
          "indexed": false,
          "name": "_renter",
          "type": "address"
        }
      ],
      "name": "RentCancelled",
      "type": "event"
    },
    {
      "constant": true,
      "inputs": [],
      "name": "isReady",
      "outputs": [
        {
          "name": "",
          "type": "bool"
        }
      ],
      "payable": false,
      "stateMutability": "view",
      "type": "function"
    },
    {
      "constant": false,
      "inputs": [
        {
          "name": "_nftAddress",
          "type": "address"
        },
        {
          "name": "_cut",
          "type": "uint256"
        }
      ],
      "name": "setERC721Address",
      "outputs": [],
      "payable": false,
      "stateMutability": "nonpayable",
      "type": "function"
    },
    {
      "constant": false,
      "inputs": [],
      "name": "withdrawBalance",
      "outputs": [],
      "payable": false,
      "stateMutability": "nonpayable",
      "type": "function"
    },
    {
      "constant": false,
      "inputs": [
        {
          "name": "_tokenId",
          "type": "uint256"
        },
        {
          "name": "_price",
          "type": "uint256"
        },
        {
          "name": "_rentTime",
          "type": "uint256"
        },
        {
          "name": "_renter",
          "type": "address"
        }
      ],
      "name": "rent",
      "outputs": [],
      "payable": false,
      "stateMutability": "nonpayable",
      "type": "function"
    },
    {
      "constant": false,
      "inputs": [
        {
          "name": "_tokenId",
          "type": "uint256"
        }
      ],
      "name": "lease",
      "outputs": [],
      "payable": true,
      "stateMutability": "payable",
      "type": "function"
    },
    {
      "constant": true,
      "inputs": [
        {
          "name": "_tokenId",
          "type": "uint256"
        }
      ],
      "name": "getRentInfo",
      "outputs": [
        {
          "name": "",
          "type": "address"
        },
        {
          "name": "",
          "type": "uint256"
        },
        {
          "name": "",
          "type": "uint256"
        },
        {
          "name": "",
          "type": "uint256"
        }
      ],
      "payable": false,
      "stateMutability": "view",
      "type": "function"
    },
    {
      "constant": false,
      "inputs": [
        {
          "name": "_tokenId",
          "type": "uint256"
        },
        {
          "name": "_renter",
          "type": "address"
        }
      ],
      "name": "cancelRent",
      "outputs": [],
      "payable": false,
      "stateMutability": "nonpayable",
      "type": "function"
    },
    {
      "constant": false,
      "inputs": [
        {
          "name": "_ownercut",
          "type": "uint256"
        }
      ],
      "name": "setOwnerCut",
      "outputs": [],
      "payable": false,
      "stateMutability": "nonpayable",
      "type": "function"
    }
  ],
  "bytecode": "0x60806040526000600560006101000a81548160ff02191690831515021790555034801561002b57600080fd5b50610cc08061003b6000396000f3006080604052600436106100a4576000357c0100000000000000000000000000000000000000000000000000000000900463ffffffff1680630f7c89df146100a957806327d6051d146100f65780632e35249714610178578063317efe90146101985780635f07dfea146101f95780635fd8c71014610228578063757de5731461023f578063a094a0311461026c578063ccf93f411461029b578063dd1b7a0f146102e8575b600080fd5b3480156100b557600080fd5b506100f460048036038101908080359060200190929190803573ffffffffffffffffffffffffffffffffffffffff16906020019092919050505061033f565b005b34801561010257600080fd5b5061012160048036038101908080359060200190929190505050610408565b604051808573ffffffffffffffffffffffffffffffffffffffff1673ffffffffffffffffffffffffffffffffffffffff16815260200184815260200183815260200182815260200194505050505060405180910390f35b6101966004803603810190808035906020019092919050505061050f565b005b3480156101a457600080fd5b506101f7600480360381019080803590602001909291908035906020019092919080359060200190929190803573ffffffffffffffffffffffffffffffffffffffff169060200190929190505050610512565b005b34801561020557600080fd5b5061020e6105d5565b604051808215151515815260200191505060405180910390f35b34801561023457600080fd5b5061023d6105e8565b005b34801561024b57600080fd5b5061026a6004803603810190808035906020019092919050505061069b565b005b34801561027857600080fd5b506102816106a5565b604051808215151515815260200191505060405180910390f35b3480156102a757600080fd5b506102e6600480360381019080803573ffffffffffffffffffffffffffffffffffffffff169060200190929190803590602001909291905050506106bc565b005b3480156102f457600080fd5b506102fd61084f565b604051808273ffffffffffffffffffffffffffffffffffffffff1673ffffffffffffffffffffffffffffffffffffffff16815260200191505060405180910390f35b6103498183610874565b151561035457600080fd5b6103ef60026000848152602001908152602001600020608060405190810160405290816000820160009054906101000a900473ffffffffffffffffffffffffffffffffffffffff1673ffffffffffffffffffffffffffffffffffffffff1673ffffffffffffffffffffffffffffffffffffffff1681526020016001820154815260200160028201548152602001600382015481525050610977565b15156103fa57600080fd5b6104048282610987565b5050565b60008060008060006104ab60026000888152602001908152602001600020608060405190810160405290816000820160009054906101000a900473ffffffffffffffffffffffffffffffffffffffff1673ffffffffffffffffffffffffffffffffffffffff1673ffffffffffffffffffffffffffffffffffffffff1681526020016001820154815260200160028201548152602001600382015481525050610977565b15156104b657600080fd5b6002600087815260200190815260200160002090508060000160009054906101000a900473ffffffffffffffffffffffffffffffffffffffff168160010154826003015483600201549450945094509450509193509193565b50565b61051a610c55565b6105248286610874565b151561052f57600080fd5b6000809054906101000a900473ffffffffffffffffffffffffffffffffffffffff1673ffffffffffffffffffffffffffffffffffffffff163373ffffffffffffffffffffffffffffffffffffffff1614151561058a57600080fd5b6105948286610a09565b6080604051908101604052808373ffffffffffffffffffffffffffffffffffffffff1681526020018581526020018481526020014281525090505050505050565b600560009054906101000a900460ff1681565b6000806000809054906101000a900473ffffffffffffffffffffffffffffffffffffffff1691508173ffffffffffffffffffffffffffffffffffffffff163373ffffffffffffffffffffffffffffffffffffffff1614151561064957600080fd5b8173ffffffffffffffffffffffffffffffffffffffff166108fc3073ffffffffffffffffffffffffffffffffffffffff16319081150290604051600060405180830381858888f1935050505090505050565b8060018190555050565b6000600560009054906101000a900460ff16905090565b600061271082111515156106cf57600080fd5b816001819055508290508073ffffffffffffffffffffffffffffffffffffffff166301ffc9a7639a20483d7c0100000000000000000000000000000000000000000000000000000000026040518263ffffffff167c010000000000000000000000000000000000000000000000000000000002815260040180827bffffffffffffffffffffffffffffffffffffffffffffffffffffffff19167bffffffffffffffffffffffffffffffffffffffffffffffffffffffff19168152602001915050602060405180830381600087803b1580156107a957600080fd5b505af11580156107bd573d6000803e3d6000fd5b505050506040513d60208110156107d357600080fd5b810190808051906020019092919050505015156107ef57600080fd5b806000806101000a81548173ffffffffffffffffffffffffffffffffffffffff021916908373ffffffffffffffffffffffffffffffffffffffff1602179055506001600560006101000a81548160ff021916908315150217905550505050565b6000809054906101000a900473ffffffffffffffffffffffffffffffffffffffff1681565b60008273ffffffffffffffffffffffffffffffffffffffff166000809054906101000a900473ffffffffffffffffffffffffffffffffffffffff1673ffffffffffffffffffffffffffffffffffffffff16636352211e846040518263ffffffff167c010000000000000000000000000000000000000000000000000000000002815260040180828152602001915050602060405180830381600087803b15801561091d57600080fd5b505af1158015610931573d6000803e3d6000fd5b505050506040513d602081101561094757600080fd5b810190808051906020019092919050505073ffffffffffffffffffffffffffffffffffffffff1614905092915050565b6000808260600151119050919050565b61099082610b1d565b61099a8183610b75565b7fbfffc3b3bda31bc215106fb4e41a950c5dd58c268a6af8a7959b7a80e9f50e4e8282604051808381526020018273ffffffffffffffffffffffffffffffffffffffff1673ffffffffffffffffffffffffffffffffffffffff1681526020019250505060405180910390a15050565b6000809054906101000a900473ffffffffffffffffffffffffffffffffffffffff1673ffffffffffffffffffffffffffffffffffffffff166323b872dd8330846040518463ffffffff167c0100000000000000000000000000000000000000000000000000000000028152600401808473ffffffffffffffffffffffffffffffffffffffff1673ffffffffffffffffffffffffffffffffffffffff1681526020018373ffffffffffffffffffffffffffffffffffffffff1673ffffffffffffffffffffffffffffffffffffffff1681526020018281526020019350505050600060405180830381600087803b158015610b0157600080fd5b505af1158015610b15573d6000803e3d6000fd5b505050505050565b60026000828152602001908152602001600020600080820160006101000a81549073ffffffffffffffffffffffffffffffffffffffff0219169055600182016000905560028201600090556003820160009055505050565b6000809054906101000a900473ffffffffffffffffffffffffffffffffffffffff1673ffffffffffffffffffffffffffffffffffffffff1663a9059cbb83836040518363ffffffff167c0100000000000000000000000000000000000000000000000000000000028152600401808373ffffffffffffffffffffffffffffffffffffffff1673ffffffffffffffffffffffffffffffffffffffff16815260200182815260200192505050600060405180830381600087803b158015610c3957600080fd5b505af1158015610c4d573d6000803e3d6000fd5b505050505050565b608060405190810160405280600073ffffffffffffffffffffffffffffffffffffffff16815260200160008152602001600081526020016000815250905600a165627a7a7230582092c9ee980900e4a4671b266a4d2c07545f06d9d42208a8af32d4d4c7b8b7449b0029",
  "source": "pragma solidity ^0.4.24;\r\n\r\nimport \"./RentAndLeaseBase.sol\";\r\n\r\ncontract RentAndLease is RentAndLeaseBase {\r\n\r\n    bool public isready = false;\r\n    bytes4 constant InterfaceSignature_ERC721 = bytes4(0x9a20483d);\r\n\r\n    function isReady() public view returns(bool) {\r\n        return isready;\r\n    }\r\n\r\n    function setERC721Address(address _nftAddress, uint256 _cut) public {\r\n        require(_cut <= 10000);\r\n        ownerCut = _cut;    \r\n\r\n        ERC721 candidateContract = ERC721(_nftAddress);  \r\n        require(candidateContract.supportsInterface(InterfaceSignature_ERC721));  \r\n        nonFungibleContract = candidateContract;  \r\n        isready = true;\r\n    }\r\n\r\n    function withdrawBalance() external {\r\n        address nftAddress = address(nonFungibleContract);\r\n        require(  \r\n        //    msg.sender == owner ||  \r\n            msg.sender == nftAddress  \r\n        );  \r\n        bool res = nftAddress.send(this.balance);\r\n    }\r\n\r\n    function rent(uint256 _tokenId, uint256 _price, uint256 _rentTime, address _renter) external {\r\n        require(_owns(_renter, _tokenId));\r\n\r\n        require(msg.sender == address(nonFungibleContract));\r\n        _escrow(_renter, _tokenId);\r\n\r\n        Rent memory newrent = Rent(_renter, _price, _rentTime, now);\r\n        // _addRent(_tokenId, newrent);\r\n    }\r\n\r\n    function lease(uint256 _tokenId) external payable {\r\n\r\n    }\r\n\r\n    function getRentInfo(uint256 _tokenId) external view returns(address, uint256, uint256, uint256) {\r\n        require(_isOnRent(tokenIdToRent[_tokenId]));\r\n        Rent storage rent = tokenIdToRent[_tokenId];\r\n        return (rent.renter, rent.price, rent.beginTime, rent.rentTime);\r\n    }\r\n\r\n    function cancelRent(uint256 _tokenId, address _renter) external  {\r\n        require(_owns(_renter,_tokenId));\r\n        require(_isOnRent(tokenIdToRent[_tokenId]));\r\n        _cancelRent(_tokenId, _renter);\r\n    }\r\n\r\n    function setOwnerCut(uint256 _ownercut) external {\r\n        ownerCut = _ownercut;\r\n    }\r\n}",
  "sourcePath": "D:\\programming\\dapp\\ChainBook\\contracts\\RentAndLease.sol",
  "compiler": {
    "name": "solc",
    "version": "0.4.24+commit.e67f0147.Emscripten.clang"
  },
  "schemaVersion": "2.0.0",
  "updatedAt": "2018-06-01T15:07:29.142Z"
}