{
  "contractName": "Transaction",
  "abi": [
    {
      "constant": true,
      "inputs": [],
      "name": "totalPayments",
      "outputs": [
        {
          "name": "",
          "type": "uint256"
        }
      ],
      "payable": false,
      "stateMutability": "view",
      "type": "function"
    },
    {
      "constant": true,
      "inputs": [],
      "name": "buyAndSell",
      "outputs": [
        {
          "name": "",
          "type": "address"
        }
      ],
      "payable": false,
      "stateMutability": "view",
      "type": "function"
    },
    {
      "constant": true,
      "inputs": [],
      "name": "ceoAddress",
      "outputs": [
        {
          "name": "",
          "type": "address"
        }
      ],
      "payable": false,
      "stateMutability": "view",
      "type": "function"
    },
    {
      "constant": false,
      "inputs": [
        {
          "name": "_newCEO",
          "type": "address"
        }
      ],
      "name": "setCEO",
      "outputs": [],
      "payable": false,
      "stateMutability": "nonpayable",
      "type": "function"
    },
    {
      "constant": false,
      "inputs": [],
      "name": "unpause",
      "outputs": [],
      "payable": false,
      "stateMutability": "nonpayable",
      "type": "function"
    },
    {
      "constant": true,
      "inputs": [],
      "name": "newContract",
      "outputs": [
        {
          "name": "",
          "type": "address"
        }
      ],
      "payable": false,
      "stateMutability": "view",
      "type": "function"
    },
    {
      "constant": true,
      "inputs": [],
      "name": "rentAndLease",
      "outputs": [
        {
          "name": "",
          "type": "address"
        }
      ],
      "payable": false,
      "stateMutability": "view",
      "type": "function"
    },
    {
      "constant": true,
      "inputs": [],
      "name": "paused",
      "outputs": [
        {
          "name": "",
          "type": "bool"
        }
      ],
      "payable": false,
      "stateMutability": "view",
      "type": "function"
    },
    {
      "constant": false,
      "inputs": [],
      "name": "withdrawPayments",
      "outputs": [],
      "payable": false,
      "stateMutability": "nonpayable",
      "type": "function"
    },
    {
      "constant": false,
      "inputs": [],
      "name": "pause",
      "outputs": [],
      "payable": false,
      "stateMutability": "nonpayable",
      "type": "function"
    },
    {
      "constant": true,
      "inputs": [
        {
          "name": "",
          "type": "address"
        }
      ],
      "name": "payments",
      "outputs": [
        {
          "name": "",
          "type": "uint256"
        }
      ],
      "payable": false,
      "stateMutability": "view",
      "type": "function"
    },
    {
      "inputs": [],
      "payable": false,
      "stateMutability": "nonpayable",
      "type": "constructor"
    },
    {
      "anonymous": false,
      "inputs": [
        {
          "indexed": false,
          "name": "_contract",
          "type": "address"
        },
        {
          "indexed": false,
          "name": "_tokenId",
          "type": "uint256"
        },
        {
          "indexed": false,
          "name": "_buyer",
          "type": "address"
        }
      ],
      "name": "Buy",
      "type": "event"
    },
    {
      "anonymous": false,
      "inputs": [
        {
          "indexed": false,
          "name": "_contract",
          "type": "address"
        },
        {
          "indexed": false,
          "name": "_tokenId",
          "type": "uint256"
        },
        {
          "indexed": false,
          "name": "_seller",
          "type": "address"
        }
      ],
      "name": "Sell",
      "type": "event"
    },
    {
      "anonymous": false,
      "inputs": [
        {
          "indexed": false,
          "name": "_contract",
          "type": "address"
        },
        {
          "indexed": false,
          "name": "_tokenId",
          "type": "uint256"
        },
        {
          "indexed": false,
          "name": "_renter",
          "type": "address"
        }
      ],
      "name": "Rent",
      "type": "event"
    },
    {
      "anonymous": false,
      "inputs": [
        {
          "indexed": false,
          "name": "_contract",
          "type": "address"
        },
        {
          "indexed": false,
          "name": "_tokenId",
          "type": "uint256"
        },
        {
          "indexed": false,
          "name": "_leaser",
          "type": "address"
        }
      ],
      "name": "Lease",
      "type": "event"
    },
    {
      "anonymous": false,
      "inputs": [
        {
          "indexed": false,
          "name": "_contract",
          "type": "address"
        },
        {
          "indexed": false,
          "name": "_tokenId",
          "type": "uint256"
        }
      ],
      "name": "BuyCancel",
      "type": "event"
    },
    {
      "anonymous": false,
      "inputs": [
        {
          "indexed": false,
          "name": "_contract",
          "type": "address"
        },
        {
          "indexed": false,
          "name": "_tokenId",
          "type": "uint256"
        }
      ],
      "name": "RentCancel",
      "type": "event"
    },
    {
      "constant": false,
      "inputs": [],
      "name": "fallback",
      "outputs": [],
      "payable": true,
      "stateMutability": "payable",
      "type": "function"
    },
    {
      "constant": false,
      "inputs": [],
      "name": "withdraw",
      "outputs": [],
      "payable": false,
      "stateMutability": "nonpayable",
      "type": "function"
    },
    {
      "constant": false,
      "inputs": [
        {
          "name": "_addr",
          "type": "address"
        }
      ],
      "name": "setBuyAndSell",
      "outputs": [],
      "payable": false,
      "stateMutability": "nonpayable",
      "type": "function"
    },
    {
      "constant": false,
      "inputs": [
        {
          "name": "_addr",
          "type": "address"
        }
      ],
      "name": "setRentAndLease",
      "outputs": [],
      "payable": false,
      "stateMutability": "nonpayable",
      "type": "function"
    },
    {
      "constant": false,
      "inputs": [
        {
          "name": "_addr",
          "type": "address"
        }
      ],
      "name": "setNewAddress",
      "outputs": [],
      "payable": false,
      "stateMutability": "nonpayable",
      "type": "function"
    },
    {
      "constant": false,
      "inputs": [
        {
          "name": "_price",
          "type": "uint256"
        }
      ],
      "name": "setBuyFees",
      "outputs": [],
      "payable": false,
      "stateMutability": "nonpayable",
      "type": "function"
    },
    {
      "constant": false,
      "inputs": [
        {
          "name": "_price",
          "type": "uint256"
        }
      ],
      "name": "setLeaseFess",
      "outputs": [],
      "payable": false,
      "stateMutability": "nonpayable",
      "type": "function"
    },
    {
      "constant": true,
      "inputs": [
        {
          "name": "_contract",
          "type": "address"
        },
        {
          "name": "_tokenId",
          "type": "uint256"
        }
      ],
      "name": "getApproved",
      "outputs": [
        {
          "name": "",
          "type": "bool"
        }
      ],
      "payable": false,
      "stateMutability": "view",
      "type": "function"
    },
    {
      "constant": false,
      "inputs": [
        {
          "name": "_contract",
          "type": "address"
        },
        {
          "name": "_tokenId",
          "type": "uint256"
        },
        {
          "name": "_price",
          "type": "uint256"
        }
      ],
      "name": "sell",
      "outputs": [
        {
          "name": "",
          "type": "bytes32"
        }
      ],
      "payable": false,
      "stateMutability": "nonpayable",
      "type": "function"
    },
    {
      "constant": false,
      "inputs": [
        {
          "name": "_contract",
          "type": "address"
        },
        {
          "name": "_tokenId",
          "type": "uint256"
        },
        {
          "name": "_price",
          "type": "uint256"
        },
        {
          "name": "_rentTime",
          "type": "uint256"
        }
      ],
      "name": "rent",
      "outputs": [
        {
          "name": "",
          "type": "bytes32"
        }
      ],
      "payable": false,
      "stateMutability": "nonpayable",
      "type": "function"
    },
    {
      "constant": false,
      "inputs": [
        {
          "name": "_contract",
          "type": "address"
        },
        {
          "name": "_tokenId",
          "type": "uint256"
        }
      ],
      "name": "buy",
      "outputs": [],
      "payable": true,
      "stateMutability": "payable",
      "type": "function"
    },
    {
      "constant": false,
      "inputs": [
        {
          "name": "_contract",
          "type": "address"
        },
        {
          "name": "_tokenId",
          "type": "uint256"
        }
      ],
      "name": "lease",
      "outputs": [],
      "payable": true,
      "stateMutability": "payable",
      "type": "function"
    },
    {
      "constant": false,
      "inputs": [
        {
          "name": "_contract",
          "type": "address"
        },
        {
          "name": "_tokenId",
          "type": "uint256"
        }
      ],
      "name": "cancelSell",
      "outputs": [],
      "payable": false,
      "stateMutability": "nonpayable",
      "type": "function"
    },
    {
      "constant": false,
      "inputs": [
        {
          "name": "_contract",
          "type": "address"
        },
        {
          "name": "_tokenId",
          "type": "uint256"
        }
      ],
      "name": "cancelRent",
      "outputs": [],
      "payable": false,
      "stateMutability": "nonpayable",
      "type": "function"
    },
    {
      "constant": false,
      "inputs": [
        {
          "name": "_contract",
          "type": "address"
        },
        {
          "name": "_tokenId",
          "type": "uint256"
        },
        {
          "name": "_price",
          "type": "uint256"
        }
      ],
      "name": "setSellPrice",
      "outputs": [],
      "payable": false,
      "stateMutability": "nonpayable",
      "type": "function"
    },
    {
      "constant": false,
      "inputs": [
        {
          "name": "_contract",
          "type": "address"
        },
        {
          "name": "_tokenId",
          "type": "uint256"
        },
        {
          "name": "_price",
          "type": "uint256"
        },
        {
          "name": "_rentTime",
          "type": "uint256"
        }
      ],
      "name": "setRentInfo",
      "outputs": [],
      "payable": false,
      "stateMutability": "nonpayable",
      "type": "function"
    },
    {
      "constant": true,
      "inputs": [
        {
          "name": "_contract",
          "type": "address"
        },
        {
          "name": "_tokenId",
          "type": "uint256"
        }
      ],
      "name": "getSellInfo",
      "outputs": [
        {
          "name": "",
          "type": "address"
        },
        {
          "name": "",
          "type": "uint256"
        },
        {
          "name": "",
          "type": "uint256"
        }
      ],
      "payable": false,
      "stateMutability": "view",
      "type": "function"
    },
    {
      "constant": true,
      "inputs": [
        {
          "name": "_contract",
          "type": "address"
        },
        {
          "name": "_tokenId",
          "type": "uint256"
        }
      ],
      "name": "getRentInfo",
      "outputs": [
        {
          "name": "",
          "type": "address"
        },
        {
          "name": "",
          "type": "uint256"
        },
        {
          "name": "",
          "type": "uint256"
        },
        {
          "name": "",
          "type": "uint256"
        }
      ],
      "payable": false,
      "stateMutability": "view",
      "type": "function"
    },
    {
      "constant": false,
      "inputs": [],
      "name": "pauseContract",
      "outputs": [],
      "payable": false,
      "stateMutability": "nonpayable",
      "type": "function"
    },
    {
      "constant": false,
      "inputs": [],
      "name": "unpauseContract",
      "outputs": [],
      "payable": false,
      "stateMutability": "nonpayable",
      "type": "function"
    }
  ],
  "bytecode": "0x608060405234801561001057600080fd5b50336000806101000a81548173ffffffffffffffffffffffffffffffffffffffff021916908373ffffffffffffffffffffffffffffffffffffffff1602179055506131a6806100606000396000f30060806040526004361061018a576000357c0100000000000000000000000000000000000000000000000000000000900463ffffffff1680625b44871461018f5780630469a602146101ba578063098f2366146102115780630a0f8168146102765780631bfb69a3146102cd57806327d7874c1461036f57806332647920146103b25780633ccfd60b146104095780633f4ba83a146104205780634313b53114610437578063439766ce1461048e57806344dd9bd7146104a5578063520c8684146104fc578063552079dc1461055d5780635c975abb146105675780636103d70b146105965780636336c4ac146105ad5780636a272462146105f057806371587988146106635780638456cb59146106a65780638781137d146106bd57806388369ad7146106fd57806390dc68ff1461077a578063aa6ecb55146107bd578063b33712c51461080a578063b44d5e8e14610821578063b4de7df71461086e578063cce7ec131461089b578063dcf7aef3146108db578063e2982c2114610908578063ff7b8d5a1461095f575b600080fd5b34801561019b57600080fd5b506101a46109fa565b6040518082815260200191505060405180910390f35b3480156101c657600080fd5b506101cf610a00565b604051808273ffffffffffffffffffffffffffffffffffffffff1673ffffffffffffffffffffffffffffffffffffffff16815260200191505060405180910390f35b34801561021d57600080fd5b5061025c600480360381019080803573ffffffffffffffffffffffffffffffffffffffff16906020019092919080359060200190929190505050610a26565b604051808215151515815260200191505060405180910390f35b34801561028257600080fd5b5061028b610b0d565b604051808273ffffffffffffffffffffffffffffffffffffffff1673ffffffffffffffffffffffffffffffffffffffff16815260200191505060405180910390f35b3480156102d957600080fd5b50610318600480360381019080803573ffffffffffffffffffffffffffffffffffffffff16906020019092919080359060200190929190505050610b32565b604051808573ffffffffffffffffffffffffffffffffffffffff1673ffffffffffffffffffffffffffffffffffffffff16815260200184815260200183815260200182815260200194505050505060405180910390f35b34801561037b57600080fd5b506103b0600480360381019080803573ffffffffffffffffffffffffffffffffffffffff169060200190929190505050610c67565b005b3480156103be57600080fd5b50610407600480360381019080803573ffffffffffffffffffffffffffffffffffffffff1690602001909291908035906020019092919080359060200190929190505050610d41565b005b34801561041557600080fd5b5061041e610e83565b005b34801561042c57600080fd5b50610435610ea9565b005b34801561044357600080fd5b5061044c610f3b565b604051808273ffffffffffffffffffffffffffffffffffffffff1673ffffffffffffffffffffffffffffffffffffffff16815260200191505060405180910390f35b34801561049a57600080fd5b506104a3610f61565b005b3480156104b157600080fd5b506104ba610fe2565b604051808273ffffffffffffffffffffffffffffffffffffffff1673ffffffffffffffffffffffffffffffffffffffff16815260200191505060405180910390f35b34801561050857600080fd5b5061055b600480360381019080803573ffffffffffffffffffffffffffffffffffffffff169060200190929190803590602001909291908035906020019092919080359060200190929190505050611008565b005b61056561114f565b005b34801561057357600080fd5b5061057c611151565b604051808215151515815260200191505060405180910390f35b3480156105a257600080fd5b506105ab611164565b005b3480156105b957600080fd5b506105ee600480360381019080803573ffffffffffffffffffffffffffffffffffffffff16906020019092919050505061128d565b005b3480156105fc57600080fd5b50610645600480360381019080803573ffffffffffffffffffffffffffffffffffffffff169060200190929190803590602001909291908035906020019092919050505061132c565b60405180826000191660001916815260200191505060405180910390f35b34801561066f57600080fd5b506106a4600480360381019080803573ffffffffffffffffffffffffffffffffffffffff169060200190929190505050611729565b005b3480156106b257600080fd5b506106bb6117d0565b005b6106fb600480360381019080803573ffffffffffffffffffffffffffffffffffffffff16906020019092919080359060200190929190505050611864565b005b34801561070957600080fd5b5061075c600480360381019080803573ffffffffffffffffffffffffffffffffffffffff169060200190929190803590602001909291908035906020019092919080359060200190929190505050611bb9565b60405180826000191660001916815260200191505060405180910390f35b34801561078657600080fd5b506107bb600480360381019080803573ffffffffffffffffffffffffffffffffffffffff169060200190929190505050611ff4565b005b3480156107c957600080fd5b50610808600480360381019080803573ffffffffffffffffffffffffffffffffffffffff16906020019092919080359060200190929190505050612093565b005b34801561081657600080fd5b5061081f61243d565b005b34801561082d57600080fd5b5061086c600480360381019080803573ffffffffffffffffffffffffffffffffffffffff169060200190929190803590602001909291905050506124bd565b005b34801561087a57600080fd5b50610899600480360381019080803590602001909291905050506127ac565b005b6108d9600480360381019080803573ffffffffffffffffffffffffffffffffffffffff169060200190929190803590602001909291905050506128b3565b005b3480156108e757600080fd5b5061090660048036038101908080359060200190929190505050612c43565b005b34801561091457600080fd5b50610949600480360381019080803573ffffffffffffffffffffffffffffffffffffffff169060200190929190505050612d4a565b6040518082815260200191505060405180910390f35b34801561096b57600080fd5b506109aa600480360381019080803573ffffffffffffffffffffffffffffffffffffffff16906020019092919080359060200190929190505050612d62565b604051808473ffffffffffffffffffffffffffffffffffffffff1673ffffffffffffffffffffffffffffffffffffffff168152602001838152602001828152602001935050505060405180910390f35b60025481565b600360009054906101000a900473ffffffffffffffffffffffffffffffffffffffff1681565b6000808390503073ffffffffffffffffffffffffffffffffffffffff168173ffffffffffffffffffffffffffffffffffffffff1663081812fc856040518263ffffffff167c010000000000000000000000000000000000000000000000000000000002815260040180828152602001915050602060405180830381600087803b158015610ab257600080fd5b505af1158015610ac6573d6000803e3d6000fd5b505050506040513d6020811015610adc57600080fd5b810190808051906020019092919050505073ffffffffffffffffffffffffffffffffffffffff161491505092915050565b6000809054906101000a900473ffffffffffffffffffffffffffffffffffffffff1681565b600080600080600460009054906101000a900473ffffffffffffffffffffffffffffffffffffffff1673ffffffffffffffffffffffffffffffffffffffff16631bfb69a387876040518363ffffffff167c0100000000000000000000000000000000000000000000000000000000028152600401808373ffffffffffffffffffffffffffffffffffffffff1673ffffffffffffffffffffffffffffffffffffffff16815260200182815260200192505050608060405180830381600087803b158015610bfd57600080fd5b505af1158015610c11573d6000803e3d6000fd5b505050506040513d6080811015610c2757600080fd5b8101908080519060200190929190805190602001909291908051906020019092919080519060200190929190505050935093509350935092959194509250565b6000809054906101000a900473ffffffffffffffffffffffffffffffffffffffff1673ffffffffffffffffffffffffffffffffffffffff163373ffffffffffffffffffffffffffffffffffffffff16141515610cc257600080fd5b600073ffffffffffffffffffffffffffffffffffffffff168173ffffffffffffffffffffffffffffffffffffffff1614151515610cfe57600080fd5b806000806101000a81548173ffffffffffffffffffffffffffffffffffffffff021916908373ffffffffffffffffffffffffffffffffffffffff16021790555050565b600360009054906101000a900473ffffffffffffffffffffffffffffffffffffffff1673ffffffffffffffffffffffffffffffffffffffff166359075354848484336040518563ffffffff167c0100000000000000000000000000000000000000000000000000000000028152600401808573ffffffffffffffffffffffffffffffffffffffff1673ffffffffffffffffffffffffffffffffffffffff1681526020018481526020018381526020018273ffffffffffffffffffffffffffffffffffffffff1673ffffffffffffffffffffffffffffffffffffffff168152602001945050505050602060405180830381600087803b158015610e4257600080fd5b505af1158015610e56573d6000803e3d6000fd5b505050506040513d6020811015610e6c57600080fd5b810190808051906020019092919050505050505050565b600060149054906101000a900460ff16151515610e9f57600080fd5b610ea7611164565b565b6000809054906101000a900473ffffffffffffffffffffffffffffffffffffffff1673ffffffffffffffffffffffffffffffffffffffff163373ffffffffffffffffffffffffffffffffffffffff16141515610f0457600080fd5b600060149054906101000a900460ff161515610f1f57600080fd5b60008060146101000a81548160ff021916908315150217905550565b600560009054906101000a900473ffffffffffffffffffffffffffffffffffffffff1681565b6000809054906101000a900473ffffffffffffffffffffffffffffffffffffffff1673ffffffffffffffffffffffffffffffffffffffff163373ffffffffffffffffffffffffffffffffffffffff16141515610fbc57600080fd5b600060149054906101000a900460ff16151515610fd857600080fd5b610fe06117d0565b565b600460009054906101000a900473ffffffffffffffffffffffffffffffffffffffff1681565b806fffffffffffffffffffffffffffffffff168114151561102857600080fd5b600460009054906101000a900473ffffffffffffffffffffffffffffffffffffffff1673ffffffffffffffffffffffffffffffffffffffff16630f895ed085858585336040518663ffffffff167c0100000000000000000000000000000000000000000000000000000000028152600401808673ffffffffffffffffffffffffffffffffffffffff1673ffffffffffffffffffffffffffffffffffffffff1681526020018581526020018481526020018381526020018273ffffffffffffffffffffffffffffffffffffffff1673ffffffffffffffffffffffffffffffffffffffff16815260200195505050505050600060405180830381600087803b15801561113157600080fd5b505af1158015611145573d6000803e3d6000fd5b5050505050505050565b565b600060149054906101000a900460ff1681565b600080339150600160008373ffffffffffffffffffffffffffffffffffffffff1673ffffffffffffffffffffffffffffffffffffffff168152602001908152602001600020549050600081141515156111bc57600080fd5b803073ffffffffffffffffffffffffffffffffffffffff1631101515156111e257600080fd5b6111f781600254612e8890919063ffffffff16565b6002819055506000600160008473ffffffffffffffffffffffffffffffffffffffff1673ffffffffffffffffffffffffffffffffffffffff168152602001908152602001600020819055508173ffffffffffffffffffffffffffffffffffffffff166108fc829081150290604051600060405180830381858888f19350505050158015611288573d6000803e3d6000fd5b505050565b6000809054906101000a900473ffffffffffffffffffffffffffffffffffffffff1673ffffffffffffffffffffffffffffffffffffffff163373ffffffffffffffffffffffffffffffffffffffff161415156112e857600080fd5b80600360006101000a81548173ffffffffffffffffffffffffffffffffffffffff021916908373ffffffffffffffffffffffffffffffffffffffff16021790555050565b600080600060149054906101000a900460ff1615151561134b57600080fd5b6113558585610a26565b151561136057600080fd5b600073ffffffffffffffffffffffffffffffffffffffff16600360009054906101000a900473ffffffffffffffffffffffffffffffffffffffff1673ffffffffffffffffffffffffffffffffffffffff16141515156113be57600080fd5b826fffffffffffffffffffffffffffffffff16831415156113de57600080fd5b8363ffffffff16841415156113f257600080fd5b8490503373ffffffffffffffffffffffffffffffffffffffff168173ffffffffffffffffffffffffffffffffffffffff16636352211e866040518263ffffffff167c010000000000000000000000000000000000000000000000000000000002815260040180828152602001915050602060405180830381600087803b15801561147b57600080fd5b505af115801561148f573d6000803e3d6000fd5b505050506040513d60208110156114a557600080fd5b810190808051906020019092919050505073ffffffffffffffffffffffffffffffffffffffff161415156114d857600080fd5b6114e28585612ea1565b600360009054906101000a900473ffffffffffffffffffffffffffffffffffffffff1673ffffffffffffffffffffffffffffffffffffffff16632dc8f867868686336040518563ffffffff167c0100000000000000000000000000000000000000000000000000000000028152600401808573ffffffffffffffffffffffffffffffffffffffff1673ffffffffffffffffffffffffffffffffffffffff1681526020018481526020018381526020018273ffffffffffffffffffffffffffffffffffffffff1673ffffffffffffffffffffffffffffffffffffffff168152602001945050505050600060405180830381600087803b1580156115e357600080fd5b505af11580156115f7573d6000803e3d6000fd5b505050508073ffffffffffffffffffffffffffffffffffffffff1663dadec2c4856040518263ffffffff167c010000000000000000000000000000000000000000000000000000000002815260040180828152602001915050600060405180830381600087803b15801561166a57600080fd5b505af115801561167e573d6000803e3d6000fd5b505050507f13e27488d3903156416f608dfaa252b814fd0a3257781daa4694b9ad5479aadd858533604051808473ffffffffffffffffffffffffffffffffffffffff1673ffffffffffffffffffffffffffffffffffffffff1681526020018381526020018273ffffffffffffffffffffffffffffffffffffffff1673ffffffffffffffffffffffffffffffffffffffff168152602001935050505060405180910390a1509392505050565b6000809054906101000a900473ffffffffffffffffffffffffffffffffffffffff1673ffffffffffffffffffffffffffffffffffffffff163373ffffffffffffffffffffffffffffffffffffffff1614151561178457600080fd5b80600560006101000a81548173ffffffffffffffffffffffffffffffffffffffff021916908373ffffffffffffffffffffffffffffffffffffffff1602179055506117cd6117d0565b50565b6000809054906101000a900473ffffffffffffffffffffffffffffffffffffffff1673ffffffffffffffffffffffffffffffffffffffff163373ffffffffffffffffffffffffffffffffffffffff1614151561182b57600080fd5b600060149054906101000a900460ff1615151561184757600080fd5b6001600060146101000a81548160ff021916908315150217905550565b60008060008060008060008060149054906101000a900460ff1615151561188a57600080fd5b8896508763ffffffff16881415156118a157600080fd5b600460009054906101000a900473ffffffffffffffffffffffffffffffffffffffff1673ffffffffffffffffffffffffffffffffffffffff1663c7afd5ca8a8a33346040518563ffffffff167c0100000000000000000000000000000000000000000000000000000000028152600401808573ffffffffffffffffffffffffffffffffffffffff1673ffffffffffffffffffffffffffffffffffffffff1681526020018481526020018373ffffffffffffffffffffffffffffffffffffffff1673ffffffffffffffffffffffffffffffffffffffff16815260200182815260200194505050505060c060405180830381600087803b1580156119a257600080fd5b505af11580156119b6573d6000803e3d6000fd5b505050506040513d60c08110156119cc57600080fd5b81019080805190602001909291908051906020019092919080519060200190929190805190602001909291908051906020019092919080519060200190929190505050809950819a50829b508396508498508597505050505050508115611a4c57611a373087612faf565b611a418186612faf565b611a4b3385612faf565b5b8673ffffffffffffffffffffffffffffffffffffffff1663a53bb9908933866040518463ffffffff167c0100000000000000000000000000000000000000000000000000000000028152600401808481526020018373ffffffffffffffffffffffffffffffffffffffff1673ffffffffffffffffffffffffffffffffffffffff1681526020018281526020019350505050600060405180830381600087803b158015611af757600080fd5b505af1158015611b0b573d6000803e3d6000fd5b505050507fa4bd8b7cbaa44fffeac85934fa11bc73781459c86ec1faa048f7398b27a60559898933604051808473ffffffffffffffffffffffffffffffffffffffff1673ffffffffffffffffffffffffffffffffffffffff1681526020018381526020018273ffffffffffffffffffffffffffffffffffffffff1673ffffffffffffffffffffffffffffffffffffffff168152602001935050505060405180910390a1505050505050505050565b600080600060149054906101000a900460ff16151515611bd857600080fd5b600073ffffffffffffffffffffffffffffffffffffffff16600460009054906101000a900473ffffffffffffffffffffffffffffffffffffffff1673ffffffffffffffffffffffffffffffffffffffff1614151515611c3657600080fd5b8463ffffffff1685141515611c4a57600080fd5b836fffffffffffffffffffffffffffffffff1684141515611c6a57600080fd5b603c8310151515611c7a57600080fd5b826fffffffffffffffffffffffffffffffff1683141515611c9a57600080fd5b8590503373ffffffffffffffffffffffffffffffffffffffff168173ffffffffffffffffffffffffffffffffffffffff16636352211e876040518263ffffffff167c010000000000000000000000000000000000000000000000000000000002815260040180828152602001915050602060405180830381600087803b158015611d2357600080fd5b505af1158015611d37573d6000803e3d6000fd5b505050506040513d6020811015611d4d57600080fd5b810190808051906020019092919050505073ffffffffffffffffffffffffffffffffffffffff16141515611d8057600080fd5b600460009054906101000a900473ffffffffffffffffffffffffffffffffffffffff1673ffffffffffffffffffffffffffffffffffffffff1663f4072e8687878787336040518663ffffffff167c0100000000000000000000000000000000000000000000000000000000028152600401808673ffffffffffffffffffffffffffffffffffffffff1673ffffffffffffffffffffffffffffffffffffffff1681526020018581526020018481526020018381526020018273ffffffffffffffffffffffffffffffffffffffff1673ffffffffffffffffffffffffffffffffffffffff16815260200195505050505050602060405180830381600087803b158015611e8957600080fd5b505af1158015611e9d573d6000803e3d6000fd5b505050506040513d6020811015611eb357600080fd5b8101908080519060200190929190505050508073ffffffffffffffffffffffffffffffffffffffff166362d12877866040518263ffffffff167c010000000000000000000000000000000000000000000000000000000002815260040180828152602001915050600060405180830381600087803b158015611f3457600080fd5b505af1158015611f48573d6000803e3d6000fd5b505050507f9f26174787b9339ca882260ff1ef9522fd62adc128147caf2d9e8cf765cfdecd868633604051808473ffffffffffffffffffffffffffffffffffffffff1673ffffffffffffffffffffffffffffffffffffffff1681526020018381526020018273ffffffffffffffffffffffffffffffffffffffff1673ffffffffffffffffffffffffffffffffffffffff168152602001935050505060405180910390a150949350505050565b6000809054906101000a900473ffffffffffffffffffffffffffffffffffffffff1673ffffffffffffffffffffffffffffffffffffffff163373ffffffffffffffffffffffffffffffffffffffff1614151561204f57600080fd5b80600460006101000a81548173ffffffffffffffffffffffffffffffffffffffff021916908373ffffffffffffffffffffffffffffffffffffffff16021790555050565b60008163ffffffff16821415156120a957600080fd5b3373ffffffffffffffffffffffffffffffffffffffff16600360009054906101000a900473ffffffffffffffffffffffffffffffffffffffff1673ffffffffffffffffffffffffffffffffffffffff1663189ecff185856040518363ffffffff167c0100000000000000000000000000000000000000000000000000000000028152600401808373ffffffffffffffffffffffffffffffffffffffff1673ffffffffffffffffffffffffffffffffffffffff16815260200182815260200192505050602060405180830381600087803b15801561218557600080fd5b505af1158015612199573d6000803e3d6000fd5b505050506040513d60208110156121af57600080fd5b810190808051906020019092919050505073ffffffffffffffffffffffffffffffffffffffff161415156121e257600080fd5b829050600360009054906101000a900473ffffffffffffffffffffffffffffffffffffffff1673ffffffffffffffffffffffffffffffffffffffff16630db81a358484336040518463ffffffff167c0100000000000000000000000000000000000000000000000000000000028152600401808473ffffffffffffffffffffffffffffffffffffffff1673ffffffffffffffffffffffffffffffffffffffff1681526020018381526020018273ffffffffffffffffffffffffffffffffffffffff1673ffffffffffffffffffffffffffffffffffffffff1681526020019350505050600060405180830381600087803b1580156122de57600080fd5b505af11580156122f2573d6000803e3d6000fd5b505050508073ffffffffffffffffffffffffffffffffffffffff16633cb26817836040518263ffffffff167c010000000000000000000000000000000000000000000000000000000002815260040180828152602001915050600060405180830381600087803b15801561236557600080fd5b505af1158015612379573d6000803e3d6000fd5b505050508073ffffffffffffffffffffffffffffffffffffffff1663a9059cbb33846040518363ffffffff167c0100000000000000000000000000000000000000000000000000000000028152600401808373ffffffffffffffffffffffffffffffffffffffff1673ffffffffffffffffffffffffffffffffffffffff16815260200182815260200192505050600060405180830381600087803b15801561242057600080fd5b505af1158015612434573d6000803e3d6000fd5b50505050505050565b6000809054906101000a900473ffffffffffffffffffffffffffffffffffffffff1673ffffffffffffffffffffffffffffffffffffffff163373ffffffffffffffffffffffffffffffffffffffff1614151561249857600080fd5b600060149054906101000a900460ff1615156124b357600080fd5b6124bb610ea9565b565b60008163ffffffff16821415156124d357600080fd5b3373ffffffffffffffffffffffffffffffffffffffff16600460009054906101000a900473ffffffffffffffffffffffffffffffffffffffff1673ffffffffffffffffffffffffffffffffffffffff16639f5fdfc485856040518363ffffffff167c0100000000000000000000000000000000000000000000000000000000028152600401808373ffffffffffffffffffffffffffffffffffffffff1673ffffffffffffffffffffffffffffffffffffffff16815260200182815260200192505050602060405180830381600087803b1580156125af57600080fd5b505af11580156125c3573d6000803e3d6000fd5b505050506040513d60208110156125d957600080fd5b810190808051906020019092919050505073ffffffffffffffffffffffffffffffffffffffff1614151561260c57600080fd5b8290508073ffffffffffffffffffffffffffffffffffffffff1663f662045b836040518263ffffffff167c010000000000000000000000000000000000000000000000000000000002815260040180828152602001915050600060405180830381600087803b15801561267e57600080fd5b505af1158015612692573d6000803e3d6000fd5b50505050600460009054906101000a900473ffffffffffffffffffffffffffffffffffffffff1673ffffffffffffffffffffffffffffffffffffffff16634c98aa098484336040518463ffffffff167c0100000000000000000000000000000000000000000000000000000000028152600401808473ffffffffffffffffffffffffffffffffffffffff1673ffffffffffffffffffffffffffffffffffffffff1681526020018381526020018273ffffffffffffffffffffffffffffffffffffffff1673ffffffffffffffffffffffffffffffffffffffff1681526020019350505050600060405180830381600087803b15801561278f57600080fd5b505af11580156127a3573d6000803e3d6000fd5b50505050505050565b6000809054906101000a900473ffffffffffffffffffffffffffffffffffffffff1673ffffffffffffffffffffffffffffffffffffffff163373ffffffffffffffffffffffffffffffffffffffff1614151561280757600080fd5b600460009054906101000a900473ffffffffffffffffffffffffffffffffffffffff1673ffffffffffffffffffffffffffffffffffffffff16633d18678e826040518263ffffffff167c010000000000000000000000000000000000000000000000000000000002815260040180828152602001915050600060405180830381600087803b15801561289857600080fd5b505af11580156128ac573d6000803e3d6000fd5b5050505050565b600080600080600080600060149054906101000a900460ff161515156128d857600080fd5b8663ffffffff16871415156128ec57600080fd5b879550600360009054906101000a900473ffffffffffffffffffffffffffffffffffffffff1673ffffffffffffffffffffffffffffffffffffffff1663a59ac6dd8989346040518463ffffffff167c0100000000000000000000000000000000000000000000000000000000028152600401808473ffffffffffffffffffffffffffffffffffffffff1673ffffffffffffffffffffffffffffffffffffffff168152602001838152602001828152602001935050505060a060405180830381600087803b1580156129bc57600080fd5b505af11580156129d0573d6000803e3d6000fd5b505050506040513d60a08110156129e657600080fd5b81019080805190602001909291908051906020019092919080519060200190929190805190602001909291908051906020019092919050505080975081985082995083955084965050505050508115612a5857612a433086612faf565b612a4d8185612faf565b612a573384612faf565b5b8573ffffffffffffffffffffffffffffffffffffffff1663b97a15a3886040518263ffffffff167c010000000000000000000000000000000000000000000000000000000002815260040180828152602001915050600060405180830381600087803b158015612ac757600080fd5b505af1158015612adb573d6000803e3d6000fd5b505050508573ffffffffffffffffffffffffffffffffffffffff1663a9059cbb33896040518363ffffffff167c0100000000000000000000000000000000000000000000000000000000028152600401808373ffffffffffffffffffffffffffffffffffffffff1673ffffffffffffffffffffffffffffffffffffffff16815260200182815260200192505050600060405180830381600087803b158015612b8257600080fd5b505af1158015612b96573d6000803e3d6000fd5b505050507f3319bb4966eaaeb523ecad57fa1daeb3bf6e5a6e559ac95bc4ed8d2042fcaf2c888833604051808473ffffffffffffffffffffffffffffffffffffffff1673ffffffffffffffffffffffffffffffffffffffff1681526020018381526020018273ffffffffffffffffffffffffffffffffffffffff1673ffffffffffffffffffffffffffffffffffffffff168152602001935050505060405180910390a15050505050505050565b6000809054906101000a900473ffffffffffffffffffffffffffffffffffffffff1673ffffffffffffffffffffffffffffffffffffffff163373ffffffffffffffffffffffffffffffffffffffff16141515612c9e57600080fd5b600360009054906101000a900473ffffffffffffffffffffffffffffffffffffffff1673ffffffffffffffffffffffffffffffffffffffff16633d18678e826040518263ffffffff167c010000000000000000000000000000000000000000000000000000000002815260040180828152602001915050600060405180830381600087803b158015612d2f57600080fd5b505af1158015612d43573d6000803e3d6000fd5b5050505050565b60016020528060005260406000206000915090505481565b6000806000600360009054906101000a900473ffffffffffffffffffffffffffffffffffffffff1673ffffffffffffffffffffffffffffffffffffffff1663ff7b8d5a86866040518363ffffffff167c0100000000000000000000000000000000000000000000000000000000028152600401808373ffffffffffffffffffffffffffffffffffffffff1673ffffffffffffffffffffffffffffffffffffffff16815260200182815260200192505050606060405180830381600087803b158015612e2c57600080fd5b505af1158015612e40573d6000803e3d6000fd5b505050506040513d6060811015612e5657600080fd5b810190808051906020019092919080519060200190929190805190602001909291905050509250925092509250925092565b6000828211151515612e9657fe5b818303905092915050565b6000612ead8383613063565b1515612eb857600080fd5b8290508073ffffffffffffffffffffffffffffffffffffffff166323b872dd3330856040518463ffffffff167c0100000000000000000000000000000000000000000000000000000000028152600401808473ffffffffffffffffffffffffffffffffffffffff1673ffffffffffffffffffffffffffffffffffffffff1681526020018373ffffffffffffffffffffffffffffffffffffffff1673ffffffffffffffffffffffffffffffffffffffff1681526020018281526020019350505050600060405180830381600087803b158015612f9257600080fd5b505af1158015612fa6573d6000803e3d6000fd5b50505050505050565b61300181600160008573ffffffffffffffffffffffffffffffffffffffff1673ffffffffffffffffffffffffffffffffffffffff1681526020019081526020016000205461315e90919063ffffffff16565b600160008473ffffffffffffffffffffffffffffffffffffffff1673ffffffffffffffffffffffffffffffffffffffff168152602001908152602001600020819055506130598160025461315e90919063ffffffff16565b6002819055505050565b6000808263ffffffff168314151561307a57600080fd5b8390503373ffffffffffffffffffffffffffffffffffffffff168173ffffffffffffffffffffffffffffffffffffffff16636352211e856040518263ffffffff167c010000000000000000000000000000000000000000000000000000000002815260040180828152602001915050602060405180830381600087803b15801561310357600080fd5b505af1158015613117573d6000803e3d6000fd5b505050506040513d602081101561312d57600080fd5b810190808051906020019092919050505073ffffffffffffffffffffffffffffffffffffffff161491505092915050565b6000818301905082811015151561317157fe5b809050929150505600a165627a7a7230582008a34fc14bdfded71ea8bdd3c644ebbf490b7c1d1ccff16baf077547f3a2a5a80029",
  "source": "pragma solidity ^0.4.24;\r\n\r\nimport \"./AccessControl.sol\";\r\nimport \"./BuyAndSell.sol\";\r\nimport \"./PullPayment.sol\";\r\nimport \"./RentAndLease.sol\";\r\n\r\n\r\n// \r\n//  tokenID)   \r\n//  tokenId,  sha3index \r\n// @param  transaction  \r\n// @param  rentAndLease \r\n// @param  newContract  \r\ncontract Transaction is AccessControl, PullPayment {\r\n\r\n\r\n    BuyAndSell public buyAndSell;           // \r\n    RentAndLease public rentAndLease;       // \r\n    Transaction public newContract;         // \r\n\r\n    constructor() public {\r\n        ceoAddress = msg.sender;\r\n    }\r\n\r\n    function fallback() external payable {\r\n\r\n    }\r\n\r\n    event Buy(address _contract, uint256 _tokenId, address _buyer);\r\n    event Sell(address _contract, uint256 _tokenId, address _seller);\r\n    event Rent(address _contract, uint256 _tokenId, address _renter);\r\n    event Lease(address _contract, uint256 _tokenId, address _leaser);\r\n    event BuyCancel(address _contract, uint256 _tokenId);\r\n    event RentCancel(address _contract, uint256 _tokenId);\r\n\r\n    // @dev ceo\r\n    // @notice \r\n    function withdraw() external whenNotPaused {\r\n        withdrawPayments();\r\n    }\r\n\r\n    // @dev \r\n    function _owns(address _contract, uint256 _tokenId) internal view returns(bool) {\r\n        require(_tokenId == uint32(_tokenId));\r\n        ERC721  nonFungibleContract = ERC721(_contract);\r\n        return nonFungibleContract.ownerOf(_tokenId) == msg.sender;\r\n    }\r\n\r\n    // @dev token\r\n    function _transferToOwner(address _contract, address _to, uint256 _tokenId) internal {\r\n        ERC721Expand  nonFungibleContract = ERC721Expand(_contract);\r\n        nonFungibleContract.transfer(_to, _tokenId);\r\n    }\r\n\r\n    // @dev token\r\n    function _transferToContract(address _contract, uint256 _tokenId) internal {\r\n        require(_owns(_contract, _tokenId));\r\n        ERC721 nonFungibleContract = ERC721(_contract);\r\n        nonFungibleContract.transferFrom(msg.sender, this, _tokenId);    // \r\n    }\r\n\r\n    // @dev \r\n    function setBuyAndSell(address _addr) external onlyCEO {\r\n       buyAndSell = BuyAndSell(_addr);\r\n    }\r\n\r\n\r\n    // @dev \r\n    function setRentAndLease(address _addr) external onlyCEO {\r\n        rentAndLease = RentAndLease(_addr);\r\n    }\r\n\r\n    // @dev  \r\n    function setNewAddress(address _addr) external onlyCEO {\r\n        newContract = Transaction(_addr);\r\n        super.pause();\r\n    }\r\n\r\n\r\n    // ceo\r\n    function setBuyFees(uint256 _price) external onlyCEO {\r\n        buyAndSell.setFees(_price);\r\n    }\r\n\r\n    // ceo\r\n    function setLeaseFess(uint256 _price) external onlyCEO {\r\n        rentAndLease.setFees(_price);\r\n    }\r\n\r\n\r\n    //  ()token\r\n    function getApproved(address _contract, uint256 _tokenId) public view returns(bool) {\r\n        ERC721  nonFungibleContract = ERC721(_contract);\r\n        return nonFungibleContract.getApproved(_tokenId) == address(this);\r\n    }\r\n\r\n    // \r\n    // @param: _contract:  \r\n    // @param: _tokenId:   tokenId\r\n    // @param: _price:     \r\n    // @notice: approve\r\n    // @return index mapping(index => _contract and _tokenId),\r\n    function sell(\r\n        address _contract,\r\n        uint256 _tokenId,\r\n        uint256 _price\r\n        )\r\n        external\r\n        whenNotPaused\r\n        returns(bytes32)\r\n    {\r\n        require(getApproved(_contract,_tokenId));   // \r\n        require(buyAndSell != address(0));\r\n        require(_price == uint128(_price));\r\n        require(_tokenId == uint32(_tokenId));\r\n        ERC721Expand  nonFungibleContract = ERC721Expand(_contract);\r\n        require(nonFungibleContract.ownerOf(_tokenId) == msg.sender);\r\n        _transferToContract(_contract, _tokenId);\r\n        buyAndSell.sell(_contract, _tokenId, _price, msg.sender);\r\n        nonFungibleContract.creatSell(_tokenId);\r\n        emit Sell(_contract, _tokenId, msg.sender);\r\n    }\r\n\r\n    // @dev token\r\n    // @notice \r\n    // @param: _contract:  \r\n    // @param: _tokenId:   tokenId\r\n    // @param: _price:     \r\n    // @param: _rentTime:  \r\n    // @return index  mapping(index => _contract and _tokenId),\r\n    function rent(\r\n        address _contract,\r\n        uint256 _tokenId,\r\n        uint256 _price,\r\n        uint256 _rentTime\r\n        )\r\n        external\r\n        whenNotPaused\r\n        returns(bytes32)\r\n    {\r\n        require(rentAndLease != address(0));\r\n        require(_tokenId == uint32(_tokenId));\r\n        require(_price == uint128(_price));\r\n        require(_rentTime >= 1 minutes);\r\n        require(_rentTime == uint128(_rentTime));\r\n        ERC721Expand  nonFungibleContract = ERC721Expand(_contract);\r\n        require(nonFungibleContract.ownerOf(_tokenId) == msg.sender);\r\n        // nonFungibleContract.transferFrom(msg.sender, this, _tokenId);\r\n        rentAndLease.rent(_contract, _tokenId, _price, _rentTime, msg.sender);\r\n        nonFungibleContract.creatRent(_tokenId);\r\n        emit Rent(_contract, _tokenId, msg.sender);\r\n    }\r\n\r\n\r\n    // function rentFinish(address _contract, uint256 _tokenId) external onlyCEO {\r\n    //     rentAndLease.rentFinish(_contract,_tokenId);\r\n    // }\r\n\r\n\r\n    // @dev \r\n    // @param: _contract:  \r\n    // @param: _tokenId:   tokenId\r\n    function buy(address _contract, uint256 _tokenId) external payable whenNotPaused {  // token\r\n        require(_tokenId == uint32(_tokenId));\r\n        ERC721Expand  nonFungibleContract = ERC721Expand(_contract);\r\n        uint256  _this;   uint256  _author; uint256  _sender;\r\n        bool  success;    address  sellerAddress;\r\n        (success, sellerAddress, _this, _author, _sender)  = buyAndSell.buy(_contract, _tokenId, msg.value);\r\n        if( success ) {\r\n            asyncSend(this, _this);\r\n            asyncSend(sellerAddress, _author);\r\n            asyncSend(msg.sender, _sender);\r\n        }\r\n        nonFungibleContract.sellFinish(_tokenId);\r\n        nonFungibleContract.transfer(msg.sender, _tokenId);\r\n        emit Buy(_contract, _tokenId, msg.sender);\r\n    }\r\n\r\n    // token\r\n    // @param: _contract:  \r\n    // @param: _tokenId:   tokenId\r\n    function lease(address _contract, uint256 _tokenId) external payable whenNotPaused {\r\n        ERC721Expand  nonFungibleContract = ERC721Expand(_contract);\r\n        require(_tokenId == uint32(_tokenId));\r\n        uint256  _this;     uint256  _author;  uint256  _sender;\r\n        uint256 _rentTime;  bool  success;     address  renterAddress;\r\n        (success, _rentTime, renterAddress, _this, _author, _sender) = rentAndLease.lease(_contract, _tokenId, msg.sender, msg.value);\r\n        if( success ) {\r\n            asyncSend(this, _this);\r\n            asyncSend(renterAddress, _author);\r\n            asyncSend(msg.sender, _sender);\r\n        }\r\n        nonFungibleContract.rentTo(_tokenId, msg.sender, _rentTime);\r\n        emit Lease(_contract, _tokenId, msg.sender);\r\n    }\r\n\r\n\r\n    // @dev \r\n    function cancelSell(address _contract, uint256 _tokenId) external {\r\n        require(_tokenId == uint32(_tokenId));\r\n        require(buyAndSell.getSeller(_contract, _tokenId) == msg.sender);\r\n        ERC721Expand  nonFungibleContract = ERC721Expand(_contract);\r\n        buyAndSell.cancelSell(_contract, _tokenId, msg.sender);\r\n        nonFungibleContract.sellCancel(_tokenId);\r\n        nonFungibleContract.transfer(msg.sender, _tokenId);\r\n    }\r\n\r\n    // @dev \r\n   function cancelRent(address _contract, uint256 _tokenId) external {\r\n       require(_tokenId == uint32(_tokenId));\r\n       require(rentAndLease.getRenter(_contract, _tokenId) == msg.sender);\r\n       ERC721Expand  nonFungibleContract = ERC721Expand(_contract);\r\n       nonFungibleContract.rentCancel(_tokenId);\r\n       rentAndLease.cancelRent(_contract, _tokenId, msg.sender);\r\n   }\r\n\r\n    // @dev \r\n    function setSellPrice(address _contract, uint256 _tokenId, uint256 _price) external {\r\n        buyAndSell.setPrice(_contract, _tokenId, _price, msg.sender);\r\n\r\n    }\r\n\r\n    // @dev \r\n    function setRentInfo(address _contract, uint256 _tokenId, uint256 _price, uint256 _rentTime) external {\r\n        require(_rentTime == uint128(_rentTime));\r\n        rentAndLease.setPriceAndTime(_contract, _tokenId, _price,_rentTime, msg.sender);\r\n    }\r\n\r\n    // @dev \r\n    // @return      \r\n    function getSellInfo(\r\n        address _contract,\r\n        uint256 _tokenId\r\n        )\r\n        external\r\n        view\r\n        returns(\r\n            address,\r\n            uint256,\r\n            uint256\r\n        )\r\n    {\r\n        return buyAndSell.getSellInfo(_contract, _tokenId);\r\n    }\r\n\r\n    // @dev \r\n    // @return        \r\n    function getRentInfo(\r\n        address _contract,\r\n        uint256 _tokenId\r\n        )\r\n        external\r\n        view\r\n        returns(\r\n            address,\r\n            uint256,\r\n            uint256,\r\n            uint256\r\n        )\r\n    {\r\n        return rentAndLease.getRentInfo(_contract, _tokenId);\r\n    }\r\n\r\n    // @dev \r\n    function pauseContract() external onlyCEO whenNotPaused {\r\n        super.pause();\r\n    }\r\n\r\n    // @dev \r\n    function unpauseContract() external onlyCEO whenPaused {\r\n        super.unpause();\r\n    }\r\n\r\n}\r\n",
  "sourcePath": "F:\\ChainBook\\smartcontracts\\contracts\\Transaction.sol",
  "compiler": {
    "name": "solc",
    "version": "0.4.24+commit.e67f0147.Emscripten.clang"
  },
  "schemaVersion": "2.0.0",
  "updatedAt": "2018-06-11T08:28:05.052Z"
}