{
  "contractName": "Transaction",
  "abi": [
    {
      "constant": true,
      "inputs": [],
      "name": "totalPayments",
      "outputs": [
        {
          "name": "",
          "type": "uint256"
        }
      ],
      "payable": false,
      "stateMutability": "view",
      "type": "function"
    },
    {
      "constant": true,
      "inputs": [],
      "name": "buyAndSell",
      "outputs": [
        {
          "name": "",
          "type": "address"
        }
      ],
      "payable": false,
      "stateMutability": "view",
      "type": "function"
    },
    {
      "constant": true,
      "inputs": [],
      "name": "ceoAddress",
      "outputs": [
        {
          "name": "",
          "type": "address"
        }
      ],
      "payable": false,
      "stateMutability": "view",
      "type": "function"
    },
    {
      "constant": false,
      "inputs": [
        {
          "name": "_newCEO",
          "type": "address"
        }
      ],
      "name": "setCEO",
      "outputs": [],
      "payable": false,
      "stateMutability": "nonpayable",
      "type": "function"
    },
    {
      "constant": false,
      "inputs": [],
      "name": "unpause",
      "outputs": [],
      "payable": false,
      "stateMutability": "nonpayable",
      "type": "function"
    },
    {
      "constant": true,
      "inputs": [],
      "name": "newContract",
      "outputs": [
        {
          "name": "",
          "type": "address"
        }
      ],
      "payable": false,
      "stateMutability": "view",
      "type": "function"
    },
    {
      "constant": true,
      "inputs": [],
      "name": "rentAndLease",
      "outputs": [
        {
          "name": "",
          "type": "address"
        }
      ],
      "payable": false,
      "stateMutability": "view",
      "type": "function"
    },
    {
      "constant": true,
      "inputs": [],
      "name": "paused",
      "outputs": [
        {
          "name": "",
          "type": "bool"
        }
      ],
      "payable": false,
      "stateMutability": "view",
      "type": "function"
    },
    {
      "constant": false,
      "inputs": [],
      "name": "withdrawPayments",
      "outputs": [],
      "payable": false,
      "stateMutability": "nonpayable",
      "type": "function"
    },
    {
      "constant": false,
      "inputs": [],
      "name": "pause",
      "outputs": [],
      "payable": false,
      "stateMutability": "nonpayable",
      "type": "function"
    },
    {
      "constant": true,
      "inputs": [
        {
          "name": "",
          "type": "address"
        }
      ],
      "name": "payments",
      "outputs": [
        {
          "name": "",
          "type": "uint256"
        }
      ],
      "payable": false,
      "stateMutability": "view",
      "type": "function"
    },
    {
      "inputs": [],
      "payable": false,
      "stateMutability": "nonpayable",
      "type": "constructor"
    },
    {
      "anonymous": false,
      "inputs": [
        {
          "indexed": false,
          "name": "_contract",
          "type": "address"
        },
        {
          "indexed": false,
          "name": "_tokenId",
          "type": "uint256"
        },
        {
          "indexed": false,
          "name": "_buyer",
          "type": "address"
        }
      ],
      "name": "Buy",
      "type": "event"
    },
    {
      "anonymous": false,
      "inputs": [
        {
          "indexed": false,
          "name": "_contract",
          "type": "address"
        },
        {
          "indexed": false,
          "name": "_tokenId",
          "type": "uint256"
        },
        {
          "indexed": false,
          "name": "_seller",
          "type": "address"
        }
      ],
      "name": "Sell",
      "type": "event"
    },
    {
      "anonymous": false,
      "inputs": [
        {
          "indexed": false,
          "name": "_contract",
          "type": "address"
        },
        {
          "indexed": false,
          "name": "_tokenId",
          "type": "uint256"
        },
        {
          "indexed": false,
          "name": "_renter",
          "type": "address"
        }
      ],
      "name": "Rent",
      "type": "event"
    },
    {
      "anonymous": false,
      "inputs": [
        {
          "indexed": false,
          "name": "_contract",
          "type": "address"
        },
        {
          "indexed": false,
          "name": "_tokenId",
          "type": "uint256"
        },
        {
          "indexed": false,
          "name": "_leaser",
          "type": "address"
        }
      ],
      "name": "Lease",
      "type": "event"
    },
    {
      "anonymous": false,
      "inputs": [
        {
          "indexed": false,
          "name": "_contract",
          "type": "address"
        },
        {
          "indexed": false,
          "name": "_tokenId",
          "type": "uint256"
        }
      ],
      "name": "SellCancel",
      "type": "event"
    },
    {
      "anonymous": false,
      "inputs": [
        {
          "indexed": false,
          "name": "_contract",
          "type": "address"
        },
        {
          "indexed": false,
          "name": "_tokenId",
          "type": "uint256"
        }
      ],
      "name": "RentCancel",
      "type": "event"
    },
    {
      "constant": false,
      "inputs": [],
      "name": "fallback",
      "outputs": [],
      "payable": true,
      "stateMutability": "payable",
      "type": "function"
    },
    {
      "constant": false,
      "inputs": [],
      "name": "withdraw",
      "outputs": [],
      "payable": false,
      "stateMutability": "nonpayable",
      "type": "function"
    },
    {
      "constant": false,
      "inputs": [
        {
          "name": "_addr",
          "type": "address"
        }
      ],
      "name": "setBuyAndSell",
      "outputs": [],
      "payable": false,
      "stateMutability": "nonpayable",
      "type": "function"
    },
    {
      "constant": false,
      "inputs": [
        {
          "name": "_addr",
          "type": "address"
        }
      ],
      "name": "setRentAndLease",
      "outputs": [],
      "payable": false,
      "stateMutability": "nonpayable",
      "type": "function"
    },
    {
      "constant": false,
      "inputs": [
        {
          "name": "_addr",
          "type": "address"
        }
      ],
      "name": "setNewAddress",
      "outputs": [],
      "payable": false,
      "stateMutability": "nonpayable",
      "type": "function"
    },
    {
      "constant": false,
      "inputs": [
        {
          "name": "_price",
          "type": "uint256"
        }
      ],
      "name": "setBuyFees",
      "outputs": [],
      "payable": false,
      "stateMutability": "nonpayable",
      "type": "function"
    },
    {
      "constant": false,
      "inputs": [
        {
          "name": "_price",
          "type": "uint256"
        }
      ],
      "name": "setLeaseFees",
      "outputs": [],
      "payable": false,
      "stateMutability": "nonpayable",
      "type": "function"
    },
    {
      "constant": true,
      "inputs": [],
      "name": "getBuyFees",
      "outputs": [
        {
          "name": "",
          "type": "uint256"
        }
      ],
      "payable": false,
      "stateMutability": "view",
      "type": "function"
    },
    {
      "constant": true,
      "inputs": [],
      "name": "getLeaseFees",
      "outputs": [
        {
          "name": "",
          "type": "uint256"
        }
      ],
      "payable": false,
      "stateMutability": "view",
      "type": "function"
    },
    {
      "constant": true,
      "inputs": [
        {
          "name": "_contract",
          "type": "address"
        },
        {
          "name": "_tokenId",
          "type": "uint256"
        }
      ],
      "name": "getApproved",
      "outputs": [
        {
          "name": "",
          "type": "bool"
        }
      ],
      "payable": false,
      "stateMutability": "view",
      "type": "function"
    },
    {
      "constant": false,
      "inputs": [
        {
          "name": "_contract",
          "type": "address"
        },
        {
          "name": "_tokenId",
          "type": "uint256"
        },
        {
          "name": "_price",
          "type": "uint256"
        }
      ],
      "name": "sell",
      "outputs": [
        {
          "name": "",
          "type": "bytes32"
        }
      ],
      "payable": false,
      "stateMutability": "nonpayable",
      "type": "function"
    },
    {
      "constant": false,
      "inputs": [
        {
          "name": "_contract",
          "type": "address"
        },
        {
          "name": "_tokenId",
          "type": "uint256"
        },
        {
          "name": "_price",
          "type": "uint256"
        },
        {
          "name": "_rentTime",
          "type": "uint256"
        }
      ],
      "name": "rent",
      "outputs": [
        {
          "name": "",
          "type": "bytes32"
        }
      ],
      "payable": false,
      "stateMutability": "nonpayable",
      "type": "function"
    },
    {
      "constant": false,
      "inputs": [
        {
          "name": "_contract",
          "type": "address"
        },
        {
          "name": "_tokenId",
          "type": "uint256"
        }
      ],
      "name": "buy",
      "outputs": [],
      "payable": true,
      "stateMutability": "payable",
      "type": "function"
    },
    {
      "constant": false,
      "inputs": [
        {
          "name": "_contract",
          "type": "address"
        },
        {
          "name": "_tokenId",
          "type": "uint256"
        }
      ],
      "name": "lease",
      "outputs": [],
      "payable": true,
      "stateMutability": "payable",
      "type": "function"
    },
    {
      "constant": false,
      "inputs": [
        {
          "name": "_contract",
          "type": "address"
        },
        {
          "name": "_tokenId",
          "type": "uint256"
        }
      ],
      "name": "cancelSell",
      "outputs": [],
      "payable": false,
      "stateMutability": "nonpayable",
      "type": "function"
    },
    {
      "constant": false,
      "inputs": [
        {
          "name": "_contract",
          "type": "address"
        },
        {
          "name": "_tokenId",
          "type": "uint256"
        }
      ],
      "name": "cancelRent",
      "outputs": [],
      "payable": false,
      "stateMutability": "nonpayable",
      "type": "function"
    },
    {
      "constant": false,
      "inputs": [
        {
          "name": "_contract",
          "type": "address"
        },
        {
          "name": "_tokenId",
          "type": "uint256"
        },
        {
          "name": "_price",
          "type": "uint256"
        }
      ],
      "name": "setSellPrice",
      "outputs": [],
      "payable": false,
      "stateMutability": "nonpayable",
      "type": "function"
    },
    {
      "constant": false,
      "inputs": [
        {
          "name": "_contract",
          "type": "address"
        },
        {
          "name": "_tokenId",
          "type": "uint256"
        },
        {
          "name": "_price",
          "type": "uint256"
        },
        {
          "name": "_rentTime",
          "type": "uint256"
        }
      ],
      "name": "setRentInfo",
      "outputs": [],
      "payable": false,
      "stateMutability": "nonpayable",
      "type": "function"
    },
    {
      "constant": true,
      "inputs": [
        {
          "name": "_contract",
          "type": "address"
        },
        {
          "name": "_tokenId",
          "type": "uint256"
        }
      ],
      "name": "getSellInfo",
      "outputs": [
        {
          "name": "",
          "type": "address"
        },
        {
          "name": "",
          "type": "uint256"
        },
        {
          "name": "",
          "type": "uint256"
        }
      ],
      "payable": false,
      "stateMutability": "view",
      "type": "function"
    },
    {
      "constant": true,
      "inputs": [
        {
          "name": "_contract",
          "type": "address"
        },
        {
          "name": "_tokenId",
          "type": "uint256"
        }
      ],
      "name": "getRentInfo",
      "outputs": [
        {
          "name": "",
          "type": "address"
        },
        {
          "name": "",
          "type": "uint256"
        },
        {
          "name": "",
          "type": "uint256"
        },
        {
          "name": "",
          "type": "uint256"
        }
      ],
      "payable": false,
      "stateMutability": "view",
      "type": "function"
    },
    {
      "constant": false,
      "inputs": [],
      "name": "pauseContract",
      "outputs": [],
      "payable": false,
      "stateMutability": "nonpayable",
      "type": "function"
    },
    {
      "constant": false,
      "inputs": [],
      "name": "unpauseContract",
      "outputs": [],
      "payable": false,
      "stateMutability": "nonpayable",
      "type": "function"
    }
  ],
  "bytecode": "0x608060405234801561001057600080fd5b50336000806101000a81548173ffffffffffffffffffffffffffffffffffffffff021916908373ffffffffffffffffffffffffffffffffffffffff160217905550613477806100606000396000f3006080604052600436106101a0576000357c0100000000000000000000000000000000000000000000000000000000900463ffffffff1680625b4487146101a55780630469a602146101d05780630644e75714610227578063098f2366146102525780630a0f8168146102b75780631bfb69a31461030e57806327d7874c146103b057806332647920146103f35780633ccfd60b1461044a5780633f4ba83a146104615780634313b53114610478578063439766ce146104cf57806344dd9bd7146104e6578063520c86841461053d578063552079dc1461059e5780635c975abb146105a85780636103d70b146105d75780636336c4ac146105ee5780636a2724621461063157806371587988146106a45780638456cb59146106e75780638781137d146106fe57806388369ad71461073e57806390dc68ff146107bb578063a6d82e9a146107fe578063aa6ecb551461082b578063b33712c514610878578063b44d5e8e1461088f578063cce7ec13146108dc578063d9be457c1461091c578063dcf7aef314610947578063e2982c2114610974578063ff7b8d5a146109cb575b600080fd5b3480156101b157600080fd5b506101ba610a66565b6040518082815260200191505060405180910390f35b3480156101dc57600080fd5b506101e5610a6c565b604051808273ffffffffffffffffffffffffffffffffffffffff1673ffffffffffffffffffffffffffffffffffffffff16815260200191505060405180910390f35b34801561023357600080fd5b5061023c610a92565b6040518082815260200191505060405180910390f35b34801561025e57600080fd5b5061029d600480360381019080803573ffffffffffffffffffffffffffffffffffffffff16906020019092919080359060200190929190505050610b5a565b604051808215151515815260200191505060405180910390f35b3480156102c357600080fd5b506102cc610c41565b604051808273ffffffffffffffffffffffffffffffffffffffff1673ffffffffffffffffffffffffffffffffffffffff16815260200191505060405180910390f35b34801561031a57600080fd5b50610359600480360381019080803573ffffffffffffffffffffffffffffffffffffffff16906020019092919080359060200190929190505050610c66565b604051808573ffffffffffffffffffffffffffffffffffffffff1673ffffffffffffffffffffffffffffffffffffffff16815260200184815260200183815260200182815260200194505050505060405180910390f35b3480156103bc57600080fd5b506103f1600480360381019080803573ffffffffffffffffffffffffffffffffffffffff169060200190929190505050610d9b565b005b3480156103ff57600080fd5b50610448600480360381019080803573ffffffffffffffffffffffffffffffffffffffff1690602001909291908035906020019092919080359060200190929190505050610e75565b005b34801561045657600080fd5b5061045f610fb7565b005b34801561046d57600080fd5b50610476610fdd565b005b34801561048457600080fd5b5061048d61106f565b604051808273ffffffffffffffffffffffffffffffffffffffff1673ffffffffffffffffffffffffffffffffffffffff16815260200191505060405180910390f35b3480156104db57600080fd5b506104e4611095565b005b3480156104f257600080fd5b506104fb611116565b604051808273ffffffffffffffffffffffffffffffffffffffff1673ffffffffffffffffffffffffffffffffffffffff16815260200191505060405180910390f35b34801561054957600080fd5b5061059c600480360381019080803573ffffffffffffffffffffffffffffffffffffffff16906020019092919080359060200190929190803590602001909291908035906020019092919050505061113c565b005b6105a6611283565b005b3480156105b457600080fd5b506105bd611285565b604051808215151515815260200191505060405180910390f35b3480156105e357600080fd5b506105ec611298565b005b3480156105fa57600080fd5b5061062f600480360381019080803573ffffffffffffffffffffffffffffffffffffffff1690602001909291905050506113c1565b005b34801561063d57600080fd5b50610686600480360381019080803573ffffffffffffffffffffffffffffffffffffffff1690602001909291908035906020019092919080359060200190929190505050611460565b60405180826000191660001916815260200191505060405180910390f35b3480156106b057600080fd5b506106e5600480360381019080803573ffffffffffffffffffffffffffffffffffffffff16906020019092919050505061185d565b005b3480156106f357600080fd5b506106fc611904565b005b61073c600480360381019080803573ffffffffffffffffffffffffffffffffffffffff16906020019092919080359060200190929190505050611998565b005b34801561074a57600080fd5b5061079d600480360381019080803573ffffffffffffffffffffffffffffffffffffffff169060200190929190803590602001909291908035906020019092919080359060200190929190505050611ced565b60405180826000191660001916815260200191505060405180910390f35b3480156107c757600080fd5b506107fc600480360381019080803573ffffffffffffffffffffffffffffffffffffffff169060200190929190505050612127565b005b34801561080a57600080fd5b50610829600480360381019080803590602001909291905050506121c6565b005b34801561083757600080fd5b50610876600480360381019080803573ffffffffffffffffffffffffffffffffffffffff169060200190929190803590602001909291905050506122cd565b005b34801561088457600080fd5b5061088d6126e2565b005b34801561089b57600080fd5b506108da600480360381019080803573ffffffffffffffffffffffffffffffffffffffff16906020019092919080359060200190929190505050612762565b005b61091a600480360381019080803573ffffffffffffffffffffffffffffffffffffffff16906020019092919080359060200190929190505050612abc565b005b34801561092857600080fd5b50610931612e4c565b6040518082815260200191505060405180910390f35b34801561095357600080fd5b5061097260048036038101908080359060200190929190505050612f14565b005b34801561098057600080fd5b506109b5600480360381019080803573ffffffffffffffffffffffffffffffffffffffff16906020019092919050505061301b565b6040518082815260200191505060405180910390f35b3480156109d757600080fd5b50610a16600480360381019080803573ffffffffffffffffffffffffffffffffffffffff16906020019092919080359060200190929190505050613033565b604051808473ffffffffffffffffffffffffffffffffffffffff1673ffffffffffffffffffffffffffffffffffffffff168152602001838152602001828152602001935050505060405180910390f35b60025481565b600360009054906101000a900473ffffffffffffffffffffffffffffffffffffffff1681565b6000600360009054906101000a900473ffffffffffffffffffffffffffffffffffffffff1673ffffffffffffffffffffffffffffffffffffffff1663db8d55f16040518163ffffffff167c0100000000000000000000000000000000000000000000000000000000028152600401602060405180830381600087803b158015610b1a57600080fd5b505af1158015610b2e573d6000803e3d6000fd5b505050506040513d6020811015610b4457600080fd5b8101908080519060200190929190505050905090565b6000808390503073ffffffffffffffffffffffffffffffffffffffff168173ffffffffffffffffffffffffffffffffffffffff1663081812fc856040518263ffffffff167c010000000000000000000000000000000000000000000000000000000002815260040180828152602001915050602060405180830381600087803b158015610be657600080fd5b505af1158015610bfa573d6000803e3d6000fd5b505050506040513d6020811015610c1057600080fd5b810190808051906020019092919050505073ffffffffffffffffffffffffffffffffffffffff161491505092915050565b6000809054906101000a900473ffffffffffffffffffffffffffffffffffffffff1681565b600080600080600460009054906101000a900473ffffffffffffffffffffffffffffffffffffffff1673ffffffffffffffffffffffffffffffffffffffff16631bfb69a387876040518363ffffffff167c0100000000000000000000000000000000000000000000000000000000028152600401808373ffffffffffffffffffffffffffffffffffffffff1673ffffffffffffffffffffffffffffffffffffffff16815260200182815260200192505050608060405180830381600087803b158015610d3157600080fd5b505af1158015610d45573d6000803e3d6000fd5b505050506040513d6080811015610d5b57600080fd5b8101908080519060200190929190805190602001909291908051906020019092919080519060200190929190505050935093509350935092959194509250565b6000809054906101000a900473ffffffffffffffffffffffffffffffffffffffff1673ffffffffffffffffffffffffffffffffffffffff163373ffffffffffffffffffffffffffffffffffffffff16141515610df657600080fd5b600073ffffffffffffffffffffffffffffffffffffffff168173ffffffffffffffffffffffffffffffffffffffff1614151515610e3257600080fd5b806000806101000a81548173ffffffffffffffffffffffffffffffffffffffff021916908373ffffffffffffffffffffffffffffffffffffffff16021790555050565b600360009054906101000a900473ffffffffffffffffffffffffffffffffffffffff1673ffffffffffffffffffffffffffffffffffffffff166359075354848484336040518563ffffffff167c0100000000000000000000000000000000000000000000000000000000028152600401808573ffffffffffffffffffffffffffffffffffffffff1673ffffffffffffffffffffffffffffffffffffffff1681526020018481526020018381526020018273ffffffffffffffffffffffffffffffffffffffff1673ffffffffffffffffffffffffffffffffffffffff168152602001945050505050602060405180830381600087803b158015610f7657600080fd5b505af1158015610f8a573d6000803e3d6000fd5b505050506040513d6020811015610fa057600080fd5b810190808051906020019092919050505050505050565b600060149054906101000a900460ff16151515610fd357600080fd5b610fdb611298565b565b6000809054906101000a900473ffffffffffffffffffffffffffffffffffffffff1673ffffffffffffffffffffffffffffffffffffffff163373ffffffffffffffffffffffffffffffffffffffff1614151561103857600080fd5b600060149054906101000a900460ff16151561105357600080fd5b60008060146101000a81548160ff021916908315150217905550565b600560009054906101000a900473ffffffffffffffffffffffffffffffffffffffff1681565b6000809054906101000a900473ffffffffffffffffffffffffffffffffffffffff1673ffffffffffffffffffffffffffffffffffffffff163373ffffffffffffffffffffffffffffffffffffffff161415156110f057600080fd5b600060149054906101000a900460ff1615151561110c57600080fd5b611114611904565b565b600460009054906101000a900473ffffffffffffffffffffffffffffffffffffffff1681565b806fffffffffffffffffffffffffffffffff168114151561115c57600080fd5b600460009054906101000a900473ffffffffffffffffffffffffffffffffffffffff1673ffffffffffffffffffffffffffffffffffffffff16630f895ed085858585336040518663ffffffff167c0100000000000000000000000000000000000000000000000000000000028152600401808673ffffffffffffffffffffffffffffffffffffffff1673ffffffffffffffffffffffffffffffffffffffff1681526020018581526020018481526020018381526020018273ffffffffffffffffffffffffffffffffffffffff1673ffffffffffffffffffffffffffffffffffffffff16815260200195505050505050600060405180830381600087803b15801561126557600080fd5b505af1158015611279573d6000803e3d6000fd5b5050505050505050565b565b600060149054906101000a900460ff1681565b600080339150600160008373ffffffffffffffffffffffffffffffffffffffff1673ffffffffffffffffffffffffffffffffffffffff168152602001908152602001600020549050600081141515156112f057600080fd5b803073ffffffffffffffffffffffffffffffffffffffff16311015151561131657600080fd5b61132b8160025461315990919063ffffffff16565b6002819055506000600160008473ffffffffffffffffffffffffffffffffffffffff1673ffffffffffffffffffffffffffffffffffffffff168152602001908152602001600020819055508173ffffffffffffffffffffffffffffffffffffffff166108fc829081150290604051600060405180830381858888f193505050501580156113bc573d6000803e3d6000fd5b505050565b6000809054906101000a900473ffffffffffffffffffffffffffffffffffffffff1673ffffffffffffffffffffffffffffffffffffffff163373ffffffffffffffffffffffffffffffffffffffff1614151561141c57600080fd5b80600360006101000a81548173ffffffffffffffffffffffffffffffffffffffff021916908373ffffffffffffffffffffffffffffffffffffffff16021790555050565b600080600060149054906101000a900460ff1615151561147f57600080fd5b6114898585610b5a565b151561149457600080fd5b600073ffffffffffffffffffffffffffffffffffffffff16600360009054906101000a900473ffffffffffffffffffffffffffffffffffffffff1673ffffffffffffffffffffffffffffffffffffffff16141515156114f257600080fd5b826fffffffffffffffffffffffffffffffff168314151561151257600080fd5b8363ffffffff168414151561152657600080fd5b8490503373ffffffffffffffffffffffffffffffffffffffff168173ffffffffffffffffffffffffffffffffffffffff16636352211e866040518263ffffffff167c010000000000000000000000000000000000000000000000000000000002815260040180828152602001915050602060405180830381600087803b1580156115af57600080fd5b505af11580156115c3573d6000803e3d6000fd5b505050506040513d60208110156115d957600080fd5b810190808051906020019092919050505073ffffffffffffffffffffffffffffffffffffffff1614151561160c57600080fd5b6116168585613172565b600360009054906101000a900473ffffffffffffffffffffffffffffffffffffffff1673ffffffffffffffffffffffffffffffffffffffff16632dc8f867868686336040518563ffffffff167c0100000000000000000000000000000000000000000000000000000000028152600401808573ffffffffffffffffffffffffffffffffffffffff1673ffffffffffffffffffffffffffffffffffffffff1681526020018481526020018381526020018273ffffffffffffffffffffffffffffffffffffffff1673ffffffffffffffffffffffffffffffffffffffff168152602001945050505050600060405180830381600087803b15801561171757600080fd5b505af115801561172b573d6000803e3d6000fd5b505050508073ffffffffffffffffffffffffffffffffffffffff1663dadec2c4856040518263ffffffff167c010000000000000000000000000000000000000000000000000000000002815260040180828152602001915050600060405180830381600087803b15801561179e57600080fd5b505af11580156117b2573d6000803e3d6000fd5b505050507f13e27488d3903156416f608dfaa252b814fd0a3257781daa4694b9ad5479aadd858533604051808473ffffffffffffffffffffffffffffffffffffffff1673ffffffffffffffffffffffffffffffffffffffff1681526020018381526020018273ffffffffffffffffffffffffffffffffffffffff1673ffffffffffffffffffffffffffffffffffffffff168152602001935050505060405180910390a1509392505050565b6000809054906101000a900473ffffffffffffffffffffffffffffffffffffffff1673ffffffffffffffffffffffffffffffffffffffff163373ffffffffffffffffffffffffffffffffffffffff161415156118b857600080fd5b80600560006101000a81548173ffffffffffffffffffffffffffffffffffffffff021916908373ffffffffffffffffffffffffffffffffffffffff160217905550611901611904565b50565b6000809054906101000a900473ffffffffffffffffffffffffffffffffffffffff1673ffffffffffffffffffffffffffffffffffffffff163373ffffffffffffffffffffffffffffffffffffffff1614151561195f57600080fd5b600060149054906101000a900460ff1615151561197b57600080fd5b6001600060146101000a81548160ff021916908315150217905550565b60008060008060008060008060149054906101000a900460ff161515156119be57600080fd5b8896508763ffffffff16881415156119d557600080fd5b600460009054906101000a900473ffffffffffffffffffffffffffffffffffffffff1673ffffffffffffffffffffffffffffffffffffffff1663c7afd5ca8a8a33346040518563ffffffff167c0100000000000000000000000000000000000000000000000000000000028152600401808573ffffffffffffffffffffffffffffffffffffffff1673ffffffffffffffffffffffffffffffffffffffff1681526020018481526020018373ffffffffffffffffffffffffffffffffffffffff1673ffffffffffffffffffffffffffffffffffffffff16815260200182815260200194505050505060c060405180830381600087803b158015611ad657600080fd5b505af1158015611aea573d6000803e3d6000fd5b505050506040513d60c0811015611b0057600080fd5b81019080805190602001909291908051906020019092919080519060200190929190805190602001909291908051906020019092919080519060200190929190505050809950819a50829b508396508498508597505050505050508115611b8057611b6b3087613280565b611b758186613280565b611b7f3385613280565b5b8673ffffffffffffffffffffffffffffffffffffffff1663a53bb9908933866040518463ffffffff167c0100000000000000000000000000000000000000000000000000000000028152600401808481526020018373ffffffffffffffffffffffffffffffffffffffff1673ffffffffffffffffffffffffffffffffffffffff1681526020018281526020019350505050600060405180830381600087803b158015611c2b57600080fd5b505af1158015611c3f573d6000803e3d6000fd5b505050507fa4bd8b7cbaa44fffeac85934fa11bc73781459c86ec1faa048f7398b27a60559898933604051808473ffffffffffffffffffffffffffffffffffffffff1673ffffffffffffffffffffffffffffffffffffffff1681526020018381526020018273ffffffffffffffffffffffffffffffffffffffff1673ffffffffffffffffffffffffffffffffffffffff168152602001935050505060405180910390a1505050505050505050565b600080600060149054906101000a900460ff16151515611d0c57600080fd5b600073ffffffffffffffffffffffffffffffffffffffff16600460009054906101000a900473ffffffffffffffffffffffffffffffffffffffff1673ffffffffffffffffffffffffffffffffffffffff1614151515611d6a57600080fd5b8463ffffffff1685141515611d7e57600080fd5b836fffffffffffffffffffffffffffffffff1684141515611d9e57600080fd5b600183111515611dad57600080fd5b826fffffffffffffffffffffffffffffffff1683141515611dcd57600080fd5b8590503373ffffffffffffffffffffffffffffffffffffffff168173ffffffffffffffffffffffffffffffffffffffff16636352211e876040518263ffffffff167c010000000000000000000000000000000000000000000000000000000002815260040180828152602001915050602060405180830381600087803b158015611e5657600080fd5b505af1158015611e6a573d6000803e3d6000fd5b505050506040513d6020811015611e8057600080fd5b810190808051906020019092919050505073ffffffffffffffffffffffffffffffffffffffff16141515611eb357600080fd5b600460009054906101000a900473ffffffffffffffffffffffffffffffffffffffff1673ffffffffffffffffffffffffffffffffffffffff1663f4072e8687878787336040518663ffffffff167c0100000000000000000000000000000000000000000000000000000000028152600401808673ffffffffffffffffffffffffffffffffffffffff1673ffffffffffffffffffffffffffffffffffffffff1681526020018581526020018481526020018381526020018273ffffffffffffffffffffffffffffffffffffffff1673ffffffffffffffffffffffffffffffffffffffff16815260200195505050505050602060405180830381600087803b158015611fbc57600080fd5b505af1158015611fd0573d6000803e3d6000fd5b505050506040513d6020811015611fe657600080fd5b8101908080519060200190929190505050508073ffffffffffffffffffffffffffffffffffffffff166362d12877866040518263ffffffff167c010000000000000000000000000000000000000000000000000000000002815260040180828152602001915050600060405180830381600087803b15801561206757600080fd5b505af115801561207b573d6000803e3d6000fd5b505050507f9f26174787b9339ca882260ff1ef9522fd62adc128147caf2d9e8cf765cfdecd868633604051808473ffffffffffffffffffffffffffffffffffffffff1673ffffffffffffffffffffffffffffffffffffffff1681526020018381526020018273ffffffffffffffffffffffffffffffffffffffff1673ffffffffffffffffffffffffffffffffffffffff168152602001935050505060405180910390a150949350505050565b6000809054906101000a900473ffffffffffffffffffffffffffffffffffffffff1673ffffffffffffffffffffffffffffffffffffffff163373ffffffffffffffffffffffffffffffffffffffff1614151561218257600080fd5b80600460006101000a81548173ffffffffffffffffffffffffffffffffffffffff021916908373ffffffffffffffffffffffffffffffffffffffff16021790555050565b6000809054906101000a900473ffffffffffffffffffffffffffffffffffffffff1673ffffffffffffffffffffffffffffffffffffffff163373ffffffffffffffffffffffffffffffffffffffff1614151561222157600080fd5b600460009054906101000a900473ffffffffffffffffffffffffffffffffffffffff1673ffffffffffffffffffffffffffffffffffffffff16633d18678e826040518263ffffffff167c010000000000000000000000000000000000000000000000000000000002815260040180828152602001915050600060405180830381600087803b1580156122b257600080fd5b505af11580156122c6573d6000803e3d6000fd5b5050505050565b60008163ffffffff16821415156122e357600080fd5b3373ffffffffffffffffffffffffffffffffffffffff16600360009054906101000a900473ffffffffffffffffffffffffffffffffffffffff1673ffffffffffffffffffffffffffffffffffffffff1663189ecff185856040518363ffffffff167c0100000000000000000000000000000000000000000000000000000000028152600401808373ffffffffffffffffffffffffffffffffffffffff1673ffffffffffffffffffffffffffffffffffffffff16815260200182815260200192505050602060405180830381600087803b1580156123bf57600080fd5b505af11580156123d3573d6000803e3d6000fd5b505050506040513d60208110156123e957600080fd5b810190808051906020019092919050505073ffffffffffffffffffffffffffffffffffffffff1614151561241c57600080fd5b829050600360009054906101000a900473ffffffffffffffffffffffffffffffffffffffff1673ffffffffffffffffffffffffffffffffffffffff16630db81a358484336040518463ffffffff167c0100000000000000000000000000000000000000000000000000000000028152600401808473ffffffffffffffffffffffffffffffffffffffff1673ffffffffffffffffffffffffffffffffffffffff1681526020018381526020018273ffffffffffffffffffffffffffffffffffffffff1673ffffffffffffffffffffffffffffffffffffffff1681526020019350505050600060405180830381600087803b15801561251857600080fd5b505af115801561252c573d6000803e3d6000fd5b505050508073ffffffffffffffffffffffffffffffffffffffff16633cb26817836040518263ffffffff167c010000000000000000000000000000000000000000000000000000000002815260040180828152602001915050600060405180830381600087803b15801561259f57600080fd5b505af11580156125b3573d6000803e3d6000fd5b505050508073ffffffffffffffffffffffffffffffffffffffff1663a9059cbb33846040518363ffffffff167c0100000000000000000000000000000000000000000000000000000000028152600401808373ffffffffffffffffffffffffffffffffffffffff1673ffffffffffffffffffffffffffffffffffffffff16815260200182815260200192505050600060405180830381600087803b15801561265a57600080fd5b505af115801561266e573d6000803e3d6000fd5b505050507f80315ac6980144b6077eb8ccdadee8f77e6eb8a325e636407b4ecf251065291d8383604051808373ffffffffffffffffffffffffffffffffffffffff1673ffffffffffffffffffffffffffffffffffffffff1681526020018281526020019250505060405180910390a1505050565b6000809054906101000a900473ffffffffffffffffffffffffffffffffffffffff1673ffffffffffffffffffffffffffffffffffffffff163373ffffffffffffffffffffffffffffffffffffffff1614151561273d57600080fd5b600060149054906101000a900460ff16151561275857600080fd5b612760610fdd565b565b60008163ffffffff168214151561277857600080fd5b3373ffffffffffffffffffffffffffffffffffffffff16600460009054906101000a900473ffffffffffffffffffffffffffffffffffffffff1673ffffffffffffffffffffffffffffffffffffffff16639f5fdfc485856040518363ffffffff167c0100000000000000000000000000000000000000000000000000000000028152600401808373ffffffffffffffffffffffffffffffffffffffff1673ffffffffffffffffffffffffffffffffffffffff16815260200182815260200192505050602060405180830381600087803b15801561285457600080fd5b505af1158015612868573d6000803e3d6000fd5b505050506040513d602081101561287e57600080fd5b810190808051906020019092919050505073ffffffffffffffffffffffffffffffffffffffff161415156128b157600080fd5b8290508073ffffffffffffffffffffffffffffffffffffffff1663f662045b836040518263ffffffff167c010000000000000000000000000000000000000000000000000000000002815260040180828152602001915050600060405180830381600087803b15801561292357600080fd5b505af1158015612937573d6000803e3d6000fd5b50505050600460009054906101000a900473ffffffffffffffffffffffffffffffffffffffff1673ffffffffffffffffffffffffffffffffffffffff16634c98aa098484336040518463ffffffff167c0100000000000000000000000000000000000000000000000000000000028152600401808473ffffffffffffffffffffffffffffffffffffffff1673ffffffffffffffffffffffffffffffffffffffff1681526020018381526020018273ffffffffffffffffffffffffffffffffffffffff1673ffffffffffffffffffffffffffffffffffffffff1681526020019350505050600060405180830381600087803b158015612a3457600080fd5b505af1158015612a48573d6000803e3d6000fd5b505050507f141a55087fc5a044c78bf952b5ac0f37e2cf93a4c8932a2a06d9e44435fbf3798383604051808373ffffffffffffffffffffffffffffffffffffffff1673ffffffffffffffffffffffffffffffffffffffff1681526020018281526020019250505060405180910390a1505050565b600080600080600080600060149054906101000a900460ff16151515612ae157600080fd5b8663ffffffff1687141515612af557600080fd5b879550600360009054906101000a900473ffffffffffffffffffffffffffffffffffffffff1673ffffffffffffffffffffffffffffffffffffffff1663a59ac6dd8989346040518463ffffffff167c0100000000000000000000000000000000000000000000000000000000028152600401808473ffffffffffffffffffffffffffffffffffffffff1673ffffffffffffffffffffffffffffffffffffffff168152602001838152602001828152602001935050505060a060405180830381600087803b158015612bc557600080fd5b505af1158015612bd9573d6000803e3d6000fd5b505050506040513d60a0811015612bef57600080fd5b81019080805190602001909291908051906020019092919080519060200190929190805190602001909291908051906020019092919050505080975081985082995083955084965050505050508115612c6157612c4c3086613280565b612c568185613280565b612c603384613280565b5b8573ffffffffffffffffffffffffffffffffffffffff1663b97a15a3886040518263ffffffff167c010000000000000000000000000000000000000000000000000000000002815260040180828152602001915050600060405180830381600087803b158015612cd057600080fd5b505af1158015612ce4573d6000803e3d6000fd5b505050508573ffffffffffffffffffffffffffffffffffffffff1663a9059cbb33896040518363ffffffff167c0100000000000000000000000000000000000000000000000000000000028152600401808373ffffffffffffffffffffffffffffffffffffffff1673ffffffffffffffffffffffffffffffffffffffff16815260200182815260200192505050600060405180830381600087803b158015612d8b57600080fd5b505af1158015612d9f573d6000803e3d6000fd5b505050507f3319bb4966eaaeb523ecad57fa1daeb3bf6e5a6e559ac95bc4ed8d2042fcaf2c888833604051808473ffffffffffffffffffffffffffffffffffffffff1673ffffffffffffffffffffffffffffffffffffffff1681526020018381526020018273ffffffffffffffffffffffffffffffffffffffff1673ffffffffffffffffffffffffffffffffffffffff168152602001935050505060405180910390a15050505050505050565b6000600460009054906101000a900473ffffffffffffffffffffffffffffffffffffffff1673ffffffffffffffffffffffffffffffffffffffff1663db8d55f16040518163ffffffff167c0100000000000000000000000000000000000000000000000000000000028152600401602060405180830381600087803b158015612ed457600080fd5b505af1158015612ee8573d6000803e3d6000fd5b505050506040513d6020811015612efe57600080fd5b8101908080519060200190929190505050905090565b6000809054906101000a900473ffffffffffffffffffffffffffffffffffffffff1673ffffffffffffffffffffffffffffffffffffffff163373ffffffffffffffffffffffffffffffffffffffff16141515612f6f57600080fd5b600360009054906101000a900473ffffffffffffffffffffffffffffffffffffffff1673ffffffffffffffffffffffffffffffffffffffff16633d18678e826040518263ffffffff167c010000000000000000000000000000000000000000000000000000000002815260040180828152602001915050600060405180830381600087803b15801561300057600080fd5b505af1158015613014573d6000803e3d6000fd5b5050505050565b60016020528060005260406000206000915090505481565b6000806000600360009054906101000a900473ffffffffffffffffffffffffffffffffffffffff1673ffffffffffffffffffffffffffffffffffffffff1663ff7b8d5a86866040518363ffffffff167c0100000000000000000000000000000000000000000000000000000000028152600401808373ffffffffffffffffffffffffffffffffffffffff1673ffffffffffffffffffffffffffffffffffffffff16815260200182815260200192505050606060405180830381600087803b1580156130fd57600080fd5b505af1158015613111573d6000803e3d6000fd5b505050506040513d606081101561312757600080fd5b810190808051906020019092919080519060200190929190805190602001909291905050509250925092509250925092565b600082821115151561316757fe5b818303905092915050565b600061317e8383613334565b151561318957600080fd5b8290508073ffffffffffffffffffffffffffffffffffffffff166323b872dd3330856040518463ffffffff167c0100000000000000000000000000000000000000000000000000000000028152600401808473ffffffffffffffffffffffffffffffffffffffff1673ffffffffffffffffffffffffffffffffffffffff1681526020018373ffffffffffffffffffffffffffffffffffffffff1673ffffffffffffffffffffffffffffffffffffffff1681526020018281526020019350505050600060405180830381600087803b15801561326357600080fd5b505af1158015613277573d6000803e3d6000fd5b50505050505050565b6132d281600160008573ffffffffffffffffffffffffffffffffffffffff1673ffffffffffffffffffffffffffffffffffffffff1681526020019081526020016000205461342f90919063ffffffff16565b600160008473ffffffffffffffffffffffffffffffffffffffff1673ffffffffffffffffffffffffffffffffffffffff1681526020019081526020016000208190555061332a8160025461342f90919063ffffffff16565b6002819055505050565b6000808263ffffffff168314151561334b57600080fd5b8390503373ffffffffffffffffffffffffffffffffffffffff168173ffffffffffffffffffffffffffffffffffffffff16636352211e856040518263ffffffff167c010000000000000000000000000000000000000000000000000000000002815260040180828152602001915050602060405180830381600087803b1580156133d457600080fd5b505af11580156133e8573d6000803e3d6000fd5b505050506040513d60208110156133fe57600080fd5b810190808051906020019092919050505073ffffffffffffffffffffffffffffffffffffffff161491505092915050565b6000818301905082811015151561344257fe5b809050929150505600a165627a7a723058205faa248ac5dbd67ab091ec550ca88d1f38557aba4ed3656eeb088823231c9a5a0029",
  "source": "pragma solidity ^0.4.24;\r\n\r\nimport \"./AccessControl.sol\";\r\nimport \"./BuyAndSell.sol\";\r\nimport \"./PullPayment.sol\";\r\nimport \"./RentAndLease.sol\";\r\n\r\n\r\n// \r\n//  tokenID)   \r\n//  tokenId,  sha3index \r\n// @param  transaction  \r\n// @param  rentAndLease \r\n// @param  newContract  \r\ncontract Transaction is AccessControl, PullPayment {\r\n\r\n\r\n    BuyAndSell public buyAndSell;           // \r\n    RentAndLease public rentAndLease;       // \r\n    Transaction public newContract;         // \r\n\r\n    constructor() public {\r\n        ceoAddress = msg.sender;\r\n    }\r\n\r\n    function fallback() external payable {\r\n\r\n    }\r\n\r\n    event Buy(address _contract, uint256 _tokenId, address _buyer);\r\n    event Sell(address _contract, uint256 _tokenId, address _seller);\r\n    event Rent(address _contract, uint256 _tokenId, address _renter);\r\n    event Lease(address _contract, uint256 _tokenId, address _leaser);\r\n    event SellCancel(address _contract, uint256 _tokenId);\r\n    event RentCancel(address _contract, uint256 _tokenId);\r\n\r\n    // @dev ceo\r\n    // @notice \r\n    function withdraw() external whenNotPaused {\r\n        withdrawPayments();\r\n    }\r\n\r\n    // @dev \r\n    function _owns(address _contract, uint256 _tokenId) internal view returns(bool) {\r\n        require(_tokenId == uint32(_tokenId));\r\n        ERC721  nonFungibleContract = ERC721(_contract);\r\n        return nonFungibleContract.ownerOf(_tokenId) == msg.sender;\r\n    }\r\n\r\n    // @dev token\r\n    function _transferToOwner(address _contract, address _to, uint256 _tokenId) internal {\r\n        ERC721Expand  nonFungibleContract = ERC721Expand(_contract);\r\n        nonFungibleContract.transfer(_to, _tokenId);\r\n    }\r\n\r\n    // @dev token\r\n    function _transferToContract(address _contract, uint256 _tokenId) internal {\r\n        require(_owns(_contract, _tokenId));\r\n        ERC721 nonFungibleContract = ERC721(_contract);\r\n        nonFungibleContract.transferFrom(msg.sender, this, _tokenId);    // \r\n    }\r\n\r\n    // @dev \r\n    function setBuyAndSell(address _addr) external onlyCEO {\r\n       buyAndSell = BuyAndSell(_addr);\r\n    }\r\n\r\n\r\n    // @dev \r\n    function setRentAndLease(address _addr) external onlyCEO {\r\n        rentAndLease = RentAndLease(_addr);\r\n    }\r\n\r\n    // @dev  \r\n    function setNewAddress(address _addr) external onlyCEO {\r\n        newContract = Transaction(_addr);\r\n        super.pause();\r\n    }\r\n\r\n\r\n    // ceo\r\n    function setBuyFees(uint256 _price) external onlyCEO {\r\n        buyAndSell.setFees(_price);\r\n    }\r\n\r\n    // ceo\r\n    function setLeaseFees(uint256 _price) external onlyCEO {\r\n        rentAndLease.setFees(_price);\r\n    }\r\n\r\n    // \r\n    function getBuyFees() external view returns(uint256) {\r\n        return buyAndSell.getFees();\r\n    }\r\n\r\n    // \r\n    function getLeaseFees() external view returns(uint256) {\r\n        return rentAndLease.getFees();\r\n    }\r\n\r\n    //  ()token\r\n    function getApproved(address _contract, uint256 _tokenId) public view returns(bool) {\r\n        ERC721  nonFungibleContract = ERC721(_contract);\r\n        return nonFungibleContract.getApproved(_tokenId) == address(this);\r\n    }\r\n\r\n    // \r\n    // @param: _contract:  \r\n    // @param: _tokenId:   tokenId\r\n    // @param: _price:     \r\n    // @notice: approve\r\n    // @return index mapping(index => _contract and _tokenId),\r\n    function sell(\r\n        address _contract,\r\n        uint256 _tokenId,\r\n        uint256 _price\r\n        )\r\n        external\r\n        whenNotPaused\r\n        returns(bytes32)\r\n    {\r\n        require(getApproved(_contract,_tokenId));   // \r\n        require(buyAndSell != address(0));\r\n        require(_price == uint128(_price));\r\n        require(_tokenId == uint32(_tokenId));\r\n        ERC721Expand  nonFungibleContract = ERC721Expand(_contract);\r\n        require(nonFungibleContract.ownerOf(_tokenId) == msg.sender);\r\n        _transferToContract(_contract, _tokenId);\r\n        buyAndSell.sell(_contract, _tokenId, _price, msg.sender);\r\n        nonFungibleContract.creatSell(_tokenId);\r\n        emit Sell(_contract, _tokenId, msg.sender);\r\n    }\r\n\r\n    // @dev token\r\n    // @notice \r\n    // @param: _contract:  \r\n    // @param: _tokenId:   tokenId\r\n    // @param: _price:     \r\n    // @param: _rentTime:  \r\n    // @return index  mapping(index => _contract and _tokenId),\r\n    function rent(\r\n        address _contract,\r\n        uint256 _tokenId,\r\n        uint256 _price,\r\n        uint256 _rentTime\r\n        )\r\n        external\r\n        whenNotPaused\r\n        returns(bytes32)\r\n    {\r\n        require(rentAndLease != address(0));\r\n        require(_tokenId == uint32(_tokenId));\r\n        require(_price == uint128(_price));\r\n        require(_rentTime > 1 seconds);\r\n        require(_rentTime == uint128(_rentTime));\r\n        ERC721Expand  nonFungibleContract = ERC721Expand(_contract);\r\n        require(nonFungibleContract.ownerOf(_tokenId) == msg.sender);\r\n        // nonFungibleContract.transferFrom(msg.sender, this, _tokenId);\r\n        rentAndLease.rent(_contract, _tokenId, _price, _rentTime, msg.sender);\r\n        nonFungibleContract.creatRent(_tokenId);\r\n        emit Rent(_contract, _tokenId, msg.sender);\r\n    }\r\n\r\n\r\n    // function rentFinish(address _contract, uint256 _tokenId) external onlyCEO {\r\n    //     rentAndLease.rentFinish(_contract,_tokenId);\r\n    // }\r\n\r\n\r\n    // @dev \r\n    // @param: _contract:  \r\n    // @param: _tokenId:   tokenId\r\n    function buy(address _contract, uint256 _tokenId) external payable whenNotPaused {  // token\r\n        require(_tokenId == uint32(_tokenId));\r\n        ERC721Expand  nonFungibleContract = ERC721Expand(_contract);\r\n        uint256  _this;   uint256  _author; uint256  _sender;\r\n        bool  success;    address  sellerAddress;\r\n        (success, sellerAddress, _this, _author, _sender)  = buyAndSell.buy(_contract, _tokenId, msg.value);\r\n        if( success ) {\r\n            asyncSend(this, _this);\r\n            asyncSend(sellerAddress, _author);\r\n            asyncSend(msg.sender, _sender);\r\n        }\r\n        nonFungibleContract.sellFinish(_tokenId);\r\n        nonFungibleContract.transfer(msg.sender, _tokenId);\r\n        emit Buy(_contract, _tokenId, msg.sender);\r\n    }\r\n\r\n    // token\r\n    // @param: _contract:  \r\n    // @param: _tokenId:   tokenId\r\n    function lease(address _contract, uint256 _tokenId) external payable whenNotPaused {\r\n        ERC721Expand  nonFungibleContract = ERC721Expand(_contract);\r\n        require(_tokenId == uint32(_tokenId));\r\n        uint256  _this;     uint256  _author;  uint256  _sender;\r\n        uint256 _rentTime;  bool  success;     address  renterAddress;\r\n        (success, _rentTime, renterAddress, _this, _author, _sender) = rentAndLease.lease(_contract, _tokenId, msg.sender, msg.value);\r\n        if( success ) {\r\n            asyncSend(this, _this);\r\n            asyncSend(renterAddress, _author);\r\n            asyncSend(msg.sender, _sender);\r\n        }\r\n        nonFungibleContract.rentTo(_tokenId, msg.sender, _rentTime);\r\n        emit Lease(_contract, _tokenId, msg.sender);\r\n    }\r\n\r\n\r\n    // @dev \r\n    function cancelSell(address _contract, uint256 _tokenId) external {\r\n        require(_tokenId == uint32(_tokenId));\r\n        require(buyAndSell.getSeller(_contract, _tokenId) == msg.sender);\r\n        ERC721Expand  nonFungibleContract = ERC721Expand(_contract);\r\n        buyAndSell.cancelSell(_contract, _tokenId, msg.sender);\r\n        nonFungibleContract.sellCancel(_tokenId);\r\n        nonFungibleContract.transfer(msg.sender, _tokenId);\r\n        emit SellCancel(_contract, _tokenId);\r\n    }\r\n\r\n    // @dev \r\n   function cancelRent(address _contract, uint256 _tokenId) external {\r\n       require(_tokenId == uint32(_tokenId));\r\n       require(rentAndLease.getRenter(_contract, _tokenId) == msg.sender);\r\n       ERC721Expand  nonFungibleContract = ERC721Expand(_contract);\r\n       nonFungibleContract.rentCancel(_tokenId);\r\n       rentAndLease.cancelRent(_contract, _tokenId, msg.sender);\r\n       emit RentCancel(_contract, _tokenId);\r\n   }\r\n\r\n    // @dev \r\n    function setSellPrice(address _contract, uint256 _tokenId, uint256 _price) external {\r\n        buyAndSell.setPrice(_contract, _tokenId, _price, msg.sender);\r\n    }\r\n\r\n    // @dev \r\n    function setRentInfo(address _contract, uint256 _tokenId, uint256 _price, uint256 _rentTime) external {\r\n        require(_rentTime == uint128(_rentTime));\r\n        rentAndLease.setPriceAndTime(_contract, _tokenId, _price,_rentTime, msg.sender);\r\n    }\r\n\r\n    // @dev \r\n    // @return      \r\n    function getSellInfo(\r\n        address _contract,\r\n        uint256 _tokenId\r\n        )\r\n        external\r\n        view\r\n        returns(\r\n            address,\r\n            uint256,\r\n            uint256\r\n        )\r\n    {\r\n        return buyAndSell.getSellInfo(_contract, _tokenId);\r\n    }\r\n\r\n    // @dev \r\n    // @return        \r\n    function getRentInfo(\r\n        address _contract,\r\n        uint256 _tokenId\r\n        )\r\n        external\r\n        view\r\n        returns(\r\n            address,\r\n            uint256,\r\n            uint256,\r\n            uint256\r\n        )\r\n    {\r\n        return rentAndLease.getRentInfo(_contract, _tokenId);\r\n    }\r\n\r\n    // @dev \r\n    function pauseContract() external onlyCEO whenNotPaused {\r\n        super.pause();\r\n    }\r\n\r\n    // @dev \r\n    function unpauseContract() external onlyCEO whenPaused {\r\n        super.unpause();\r\n    }\r\n\r\n}\r\n",
  "sourcePath": "F:\\ChainBook\\smartcontracts\\contracts\\Transaction.sol",
  "compiler": {
    "name": "solc",
    "version": "0.4.24+commit.e67f0147.Emscripten.clang"
  },
  "schemaVersion": "2.0.0",
  "updatedAt": "2018-06-11T15:18:35.940Z"
}