{
  "contractName": "Transaction",
  "abi": [
    {
      "constant": true,
      "inputs": [],
      "name": "buyAndSell",
      "outputs": [
        {
          "name": "",
          "type": "address"
        }
      ],
      "payable": false,
      "stateMutability": "view",
      "type": "function"
    },
    {
      "constant": true,
      "inputs": [],
      "name": "ceoAddress",
      "outputs": [
        {
          "name": "",
          "type": "address"
        }
      ],
      "payable": false,
      "stateMutability": "view",
      "type": "function"
    },
    {
      "constant": false,
      "inputs": [
        {
          "name": "_newCEO",
          "type": "address"
        }
      ],
      "name": "setCEO",
      "outputs": [],
      "payable": false,
      "stateMutability": "nonpayable",
      "type": "function"
    },
    {
      "constant": false,
      "inputs": [],
      "name": "unpause",
      "outputs": [],
      "payable": false,
      "stateMutability": "nonpayable",
      "type": "function"
    },
    {
      "constant": true,
      "inputs": [],
      "name": "newContract",
      "outputs": [
        {
          "name": "",
          "type": "address"
        }
      ],
      "payable": false,
      "stateMutability": "view",
      "type": "function"
    },
    {
      "constant": true,
      "inputs": [],
      "name": "paused",
      "outputs": [
        {
          "name": "",
          "type": "bool"
        }
      ],
      "payable": false,
      "stateMutability": "view",
      "type": "function"
    },
    {
      "constant": false,
      "inputs": [],
      "name": "pause",
      "outputs": [],
      "payable": false,
      "stateMutability": "nonpayable",
      "type": "function"
    },
    {
      "constant": false,
      "inputs": [
        {
          "name": "_addr",
          "type": "address"
        }
      ],
      "name": "setBuyAndSell",
      "outputs": [],
      "payable": false,
      "stateMutability": "nonpayable",
      "type": "function"
    },
    {
      "constant": false,
      "inputs": [
        {
          "name": "_contract",
          "type": "address"
        },
        {
          "name": "_tokenId",
          "type": "uint256"
        }
      ],
      "name": "buy",
      "outputs": [],
      "payable": true,
      "stateMutability": "payable",
      "type": "function"
    },
    {
      "constant": false,
      "inputs": [
        {
          "name": "_price",
          "type": "uint256"
        }
      ],
      "name": "setBuyFees",
      "outputs": [],
      "payable": false,
      "stateMutability": "nonpayable",
      "type": "function"
    },
    {
      "constant": false,
      "inputs": [
        {
          "name": "_price",
          "type": "uint256"
        }
      ],
      "name": "setLeaseFess",
      "outputs": [],
      "payable": false,
      "stateMutability": "nonpayable",
      "type": "function"
    },
    {
      "constant": false,
      "inputs": [
        {
          "name": "_contract",
          "type": "address"
        },
        {
          "name": "_tokenId",
          "type": "uint256"
        }
      ],
      "name": "cancelSell",
      "outputs": [],
      "payable": false,
      "stateMutability": "nonpayable",
      "type": "function"
    },
    {
      "constant": false,
      "inputs": [],
      "name": "cancelRent",
      "outputs": [],
      "payable": false,
      "stateMutability": "nonpayable",
      "type": "function"
    },
    {
      "constant": true,
      "inputs": [
        {
          "name": "_contract",
          "type": "address"
        },
        {
          "name": "_tokenId",
          "type": "uint256"
        }
      ],
      "name": "getSellInfo",
      "outputs": [
        {
          "name": "",
          "type": "address"
        },
        {
          "name": "",
          "type": "uint256"
        },
        {
          "name": "",
          "type": "uint256"
        }
      ],
      "payable": false,
      "stateMutability": "view",
      "type": "function"
    },
    {
      "constant": true,
      "inputs": [
        {
          "name": "_contract",
          "type": "address"
        },
        {
          "name": "_tokenId",
          "type": "uint256"
        }
      ],
      "name": "getRentInfo",
      "outputs": [
        {
          "name": "",
          "type": "address"
        },
        {
          "name": "",
          "type": "uint256"
        },
        {
          "name": "",
          "type": "uint256"
        },
        {
          "name": "",
          "type": "uint256"
        }
      ],
      "payable": false,
      "stateMutability": "view",
      "type": "function"
    },
    {
      "constant": false,
      "inputs": [
        {
          "name": "_contract",
          "type": "address"
        },
        {
          "name": "_tokenId",
          "type": "uint256"
        },
        {
          "name": "_price",
          "type": "uint256"
        }
      ],
      "name": "sell",
      "outputs": [],
      "payable": false,
      "stateMutability": "nonpayable",
      "type": "function"
    },
    {
      "constant": false,
      "inputs": [
        {
          "name": "_contract",
          "type": "address"
        },
        {
          "name": "_tokenId",
          "type": "uint256"
        },
        {
          "name": "_price",
          "type": "uint256"
        },
        {
          "name": "_rentTime",
          "type": "uint256"
        }
      ],
      "name": "rent",
      "outputs": [],
      "payable": false,
      "stateMutability": "nonpayable",
      "type": "function"
    },
    {
      "constant": false,
      "inputs": [
        {
          "name": "_contract",
          "type": "address"
        },
        {
          "name": "_tokenId",
          "type": "uint256"
        }
      ],
      "name": "lease",
      "outputs": [],
      "payable": true,
      "stateMutability": "payable",
      "type": "function"
    },
    {
      "constant": false,
      "inputs": [],
      "name": "pauseContract",
      "outputs": [],
      "payable": false,
      "stateMutability": "nonpayable",
      "type": "function"
    },
    {
      "constant": false,
      "inputs": [],
      "name": "unpauseContract",
      "outputs": [],
      "payable": false,
      "stateMutability": "nonpayable",
      "type": "function"
    }
  ],
  "bytecode": "0x608060405260008060006101000a81548173ffffffffffffffffffffffffffffffffffffffff021916908373ffffffffffffffffffffffffffffffffffffffff16021790555034801561005157600080fd5b5061123c806100616000396000f300608060405260043610610112576000357c0100000000000000000000000000000000000000000000000000000000900463ffffffff1680630469a602146101175780630a0f81681461016e5780631bfb69a3146101c557806327d7874c146102675780633f4ba83a146102aa5780634313b531146102c1578063439766ce146103185780635c975abb1461032f5780636336c4ac1461035e5780636a272462146103a15780638456cb59146103f85780638781137d1461040f57806388369ad71461044f578063aa6ecb55146104b0578063b33712c5146104fd578063b4de7df714610514578063b61cdf8914610541578063cce7ec1314610558578063dcf7aef314610598578063ff7b8d5a146105c5575b600080fd5b34801561012357600080fd5b5061012c610660565b604051808273ffffffffffffffffffffffffffffffffffffffff1673ffffffffffffffffffffffffffffffffffffffff16815260200191505060405180910390f35b34801561017a57600080fd5b50610183610686565b604051808273ffffffffffffffffffffffffffffffffffffffff1673ffffffffffffffffffffffffffffffffffffffff16815260200191505060405180910390f35b3480156101d157600080fd5b50610210600480360381019080803573ffffffffffffffffffffffffffffffffffffffff169060200190929190803590602001909291905050506106ab565b604051808573ffffffffffffffffffffffffffffffffffffffff1673ffffffffffffffffffffffffffffffffffffffff16815260200184815260200183815260200182815260200194505050505060405180910390f35b34801561027357600080fd5b506102a8600480360381019080803573ffffffffffffffffffffffffffffffffffffffff1690602001909291905050506106ba565b005b3480156102b657600080fd5b506102bf610794565b005b3480156102cd57600080fd5b506102d6610826565b604051808273ffffffffffffffffffffffffffffffffffffffff1673ffffffffffffffffffffffffffffffffffffffff16815260200191505060405180910390f35b34801561032457600080fd5b5061032d61084c565b005b34801561033b57600080fd5b506103446108cd565b604051808215151515815260200191505060405180910390f35b34801561036a57600080fd5b5061039f600480360381019080803573ffffffffffffffffffffffffffffffffffffffff1690602001909291905050506108e0565b005b3480156103ad57600080fd5b506103f6600480360381019080803573ffffffffffffffffffffffffffffffffffffffff169060200190929190803590602001909291908035906020019092919050505061097f565b005b34801561040457600080fd5b5061040d610bd5565b005b61044d600480360381019080803573ffffffffffffffffffffffffffffffffffffffff16906020019092919080359060200190929190505050610c69565b005b34801561045b57600080fd5b506104ae600480360381019080803573ffffffffffffffffffffffffffffffffffffffff169060200190929190803590602001909291908035906020019092919080359060200190929190505050610c89565b005b3480156104bc57600080fd5b506104fb600480360381019080803573ffffffffffffffffffffffffffffffffffffffff16906020019092919080359060200190929190505050610cab565b005b34801561050957600080fd5b50610512610dd4565b005b34801561052057600080fd5b5061053f60048036038101908080359060200190929190505050610e54565b005b34801561054d57600080fd5b50610556610eb2565b005b610596600480360381019080803573ffffffffffffffffffffffffffffffffffffffff16906020019092919080359060200190929190505050610eb4565b005b3480156105a457600080fd5b506105c360048036038101908080359060200190929190505050610fe6565b005b3480156105d157600080fd5b50610610600480360381019080803573ffffffffffffffffffffffffffffffffffffffff169060200190929190803590602001909291905050506110ed565b604051808473ffffffffffffffffffffffffffffffffffffffff1673ffffffffffffffffffffffffffffffffffffffff168152602001838152602001828152602001935050505060405180910390f35b600160009054906101000a900473ffffffffffffffffffffffffffffffffffffffff1681565b6000809054906101000a900473ffffffffffffffffffffffffffffffffffffffff1681565b60008060008092959194509250565b6000809054906101000a900473ffffffffffffffffffffffffffffffffffffffff1673ffffffffffffffffffffffffffffffffffffffff163373ffffffffffffffffffffffffffffffffffffffff1614151561071557600080fd5b600073ffffffffffffffffffffffffffffffffffffffff168173ffffffffffffffffffffffffffffffffffffffff161415151561075157600080fd5b806000806101000a81548173ffffffffffffffffffffffffffffffffffffffff021916908373ffffffffffffffffffffffffffffffffffffffff16021790555050565b6000809054906101000a900473ffffffffffffffffffffffffffffffffffffffff1673ffffffffffffffffffffffffffffffffffffffff163373ffffffffffffffffffffffffffffffffffffffff161415156107ef57600080fd5b600060149054906101000a900460ff16151561080a57600080fd5b60008060146101000a81548160ff021916908315150217905550565b600260009054906101000a900473ffffffffffffffffffffffffffffffffffffffff1681565b6000809054906101000a900473ffffffffffffffffffffffffffffffffffffffff1673ffffffffffffffffffffffffffffffffffffffff163373ffffffffffffffffffffffffffffffffffffffff161415156108a757600080fd5b600060149054906101000a900460ff161515156108c357600080fd5b6108cb610bd5565b565b600060149054906101000a900460ff1681565b6000809054906101000a900473ffffffffffffffffffffffffffffffffffffffff1673ffffffffffffffffffffffffffffffffffffffff163373ffffffffffffffffffffffffffffffffffffffff1614151561093b57600080fd5b80600160006101000a81548173ffffffffffffffffffffffffffffffffffffffff021916908373ffffffffffffffffffffffffffffffffffffffff16021790555050565b60008060149054906101000a900460ff1615151561099c57600080fd5b816fffffffffffffffffffffffffffffffff16821415156109bc57600080fd5b8263ffffffff16831415156109d057600080fd5b8390503373ffffffffffffffffffffffffffffffffffffffff168173ffffffffffffffffffffffffffffffffffffffff16636352211e856040518263ffffffff167c010000000000000000000000000000000000000000000000000000000002815260040180828152602001915050602060405180830381600087803b158015610a5957600080fd5b505af1158015610a6d573d6000803e3d6000fd5b505050506040513d6020811015610a8357600080fd5b810190808051906020019092919050505073ffffffffffffffffffffffffffffffffffffffff16141515610ab657600080fd5b600160009054906101000a900473ffffffffffffffffffffffffffffffffffffffff1673ffffffffffffffffffffffffffffffffffffffff16632dc8f867858585336040518563ffffffff167c0100000000000000000000000000000000000000000000000000000000028152600401808573ffffffffffffffffffffffffffffffffffffffff1673ffffffffffffffffffffffffffffffffffffffff1681526020018481526020018381526020018273ffffffffffffffffffffffffffffffffffffffff1673ffffffffffffffffffffffffffffffffffffffff168152602001945050505050600060405180830381600087803b158015610bb757600080fd5b505af1158015610bcb573d6000803e3d6000fd5b5050505050505050565b6000809054906101000a900473ffffffffffffffffffffffffffffffffffffffff1673ffffffffffffffffffffffffffffffffffffffff163373ffffffffffffffffffffffffffffffffffffffff16141515610c3057600080fd5b600060149054906101000a900460ff16151515610c4c57600080fd5b6001600060146101000a81548160ff021916908315150217905550565b600060149054906101000a900460ff16151515610c8557600080fd5b5050565b600060149054906101000a900460ff16151515610ca557600080fd5b50505050565b8063ffffffff1681141515610cbf57600080fd5b600160009054906101000a900473ffffffffffffffffffffffffffffffffffffffff1673ffffffffffffffffffffffffffffffffffffffff16630db81a358383336040518463ffffffff167c0100000000000000000000000000000000000000000000000000000000028152600401808473ffffffffffffffffffffffffffffffffffffffff1673ffffffffffffffffffffffffffffffffffffffff1681526020018381526020018273ffffffffffffffffffffffffffffffffffffffff1673ffffffffffffffffffffffffffffffffffffffff1681526020019350505050600060405180830381600087803b158015610db857600080fd5b505af1158015610dcc573d6000803e3d6000fd5b505050505050565b6000809054906101000a900473ffffffffffffffffffffffffffffffffffffffff1673ffffffffffffffffffffffffffffffffffffffff163373ffffffffffffffffffffffffffffffffffffffff16141515610e2f57600080fd5b600060149054906101000a900460ff161515610e4a57600080fd5b610e52610794565b565b6000809054906101000a900473ffffffffffffffffffffffffffffffffffffffff1673ffffffffffffffffffffffffffffffffffffffff163373ffffffffffffffffffffffffffffffffffffffff16141515610eaf57600080fd5b50565b565b600060149054906101000a900460ff16151515610ed057600080fd5b600160009054906101000a900473ffffffffffffffffffffffffffffffffffffffff1673ffffffffffffffffffffffffffffffffffffffff1663db61c76e348484336040518563ffffffff167c0100000000000000000000000000000000000000000000000000000000028152600401808473ffffffffffffffffffffffffffffffffffffffff1673ffffffffffffffffffffffffffffffffffffffff1681526020018381526020018273ffffffffffffffffffffffffffffffffffffffff1673ffffffffffffffffffffffffffffffffffffffff16815260200193505050506000604051808303818588803b158015610fc957600080fd5b505af1158015610fdd573d6000803e3d6000fd5b50505050505050565b6000809054906101000a900473ffffffffffffffffffffffffffffffffffffffff1673ffffffffffffffffffffffffffffffffffffffff163373ffffffffffffffffffffffffffffffffffffffff1614151561104157600080fd5b600160009054906101000a900473ffffffffffffffffffffffffffffffffffffffff1673ffffffffffffffffffffffffffffffffffffffff16633d18678e826040518263ffffffff167c010000000000000000000000000000000000000000000000000000000002815260040180828152602001915050600060405180830381600087803b1580156110d257600080fd5b505af11580156110e6573d6000803e3d6000fd5b5050505050565b6000806000600160009054906101000a900473ffffffffffffffffffffffffffffffffffffffff1673ffffffffffffffffffffffffffffffffffffffff1663ff7b8d5a86866040518363ffffffff167c0100000000000000000000000000000000000000000000000000000000028152600401808373ffffffffffffffffffffffffffffffffffffffff1673ffffffffffffffffffffffffffffffffffffffff16815260200182815260200192505050606060405180830381600087803b1580156111b757600080fd5b505af11580156111cb573d6000803e3d6000fd5b505050506040513d60608110156111e157600080fd5b8101908080519060200190929190805190602001909291908051906020019092919050505050505092509250925600a165627a7a723058209c7e9e8a113d6afe1a8743091b28ffc5a7ad69950842f74da962ce00f6641e0d0029",
  "source": "pragma solidity ^0.4.24;\r\n\r\nimport \"./AccessControl.sol\";\r\nimport \"./BuyAndSell.sol\";\r\n\r\n\r\n// 交易合约\r\n// 合约想法： 类似一个交易平台，只要获得书籍的基本信息（合约地址，tokenID) 和 一些交易参数（价格，时长） 既可以完成交易。\r\n// 合约说明： 通过获取书籍的合约地址以及tokenId,  通过sha3生成交易index， 实现买卖\r\n// @param  transaction  售卖合约地址\r\n// @param  rentAndLease 租赁合约地址\r\n// @param  newContract  新合约地址\r\ncontract Transaction is AccessControl{\r\n\r\n\r\n    BuyAndSell public buyAndSell;\r\n    // RentAndLease public rentAndLease;\r\n    Transaction public newContract;\r\n\r\n\r\n    // function withdraw(address _ceo) external onlyCEO{\r\n    //     transaction.withdraw(_ceo);\r\n    //     // rentAndLease.withdraw(_ceo);\r\n    // }\r\n\r\n    // 设置交易合约地址\r\n    function setBuyAndSell(address _addr) external onlyCEO {\r\n       buyAndSell = BuyAndSell(_addr);\r\n    }\r\n\r\n\r\n    // 设置租赁合约地址\r\n    // function setRentAndLease(address _addr) external onlyCEO {\r\n    //     rentAndLease = RentAndLease(_addr);\r\n    // }\r\n\r\n\r\n    //购买图书\r\n    // @param: _contract:  合约地址\r\n    // @param: _tokenId:   tokenId\r\n    function buy(address _contract, uint256 _tokenId) external payable whenNotPaused {  // 购买token\r\n\r\n        buyAndSell.buy.value(msg.value)(_contract, _tokenId, msg.sender);\r\n    }\r\n\r\n\r\n    // 设置买卖费用，只有ceo可以调用\r\n    function setBuyFees(uint256 _price) external onlyCEO {\r\n        buyAndSell.setFees(_price);\r\n    }\r\n\r\n    // 设置租赁费用，只有ceo可以调用\r\n    function setLeaseFess(uint256 _price) external onlyCEO {\r\n\r\n    }\r\n\r\n    // function destoryToken(address _contract) external onlyCEO {\r\n\r\n    // }\r\n\r\n\r\n    function cancelSell(address _contract, uint256 _tokenId) external {\r\n        require(_tokenId == uint32(_tokenId));\r\n        buyAndSell.cancelSell(_contract, _tokenId, msg.sender);\r\n    }\r\n\r\n    function cancelRent() external {\r\n\r\n    }\r\n\r\n\r\n    // 获取售卖信息\r\n    // 返回  售卖者地址，  售卖价格，  售卖时间\r\n    function getSellInfo(address _contract, uint256 _tokenId) external view returns(address, uint256, uint256){\r\n        buyAndSell.getSellInfo(_contract, _tokenId);\r\n    }\r\n\r\n    // 获取出租信息\r\n    // 返回  售卖者地址，  售卖价格，  出租时长，  售卖时间\r\n    function getRentInfo(address _contract, uint256 _tokenId) external view returns(address, uint256, uint256, uint256) {\r\n\r\n    }\r\n\r\n    // 出售图书\r\n    // @param: _contract:  合约地址\r\n    // @param: _tokenId:   tokenId\r\n    // @param: _price:     出售价格\r\n    function sell(address _contract, uint256 _tokenId,  uint256 _price) external whenNotPaused {\r\n        require(_price == uint128(_price));\r\n        require(_tokenId == uint32(_tokenId));\r\n        ERC721  nonFungibleContract = ERC721(_contract);\r\n        require(nonFungibleContract.ownerOf(_tokenId) == msg.sender);\r\n        buyAndSell.sell(_contract, _tokenId, _price, msg.sender);\r\n    }\r\n\r\n    // 出租token\r\n    // @param: _contract:  合约地址\r\n    // @param: _tokenId:   tokenId\r\n    // @param: _price:     租赁价格\r\n    // @param: _rentTime:  租赁时长\r\n    function rent(address _contract, uint256 _tokenId, uint256 _price, uint256 _rentTime) external whenNotPaused {\r\n\r\n    }\r\n\r\n    // 租赁token\r\n    // @param: _contract:  合约地址\r\n    // @param: _tokenId:   tokenId\r\n    function lease(address _contract, uint256 _tokenId) external payable whenNotPaused {\r\n\r\n    }\r\n\r\n    // 禁止交易\r\n    function pauseContract() external onlyCEO whenNotPaused {\r\n        super.pause();\r\n    }\r\n\r\n    // // 恢复交易\r\n    function unpauseContract() external onlyCEO whenPaused {\r\n        super.unpause();\r\n    }\r\n\r\n}\r\n",
  "sourcePath": "F:\\ChainBook\\smartcontracts\\contracts\\Transaction.sol",
  "compiler": {
    "name": "solc",
    "version": "0.4.24+commit.e67f0147.Emscripten.clang"
  },
  "schemaVersion": "2.0.0",
  "updatedAt": "2018-06-03T16:52:07.676Z"
}