{
  "contractName": "Whitelist",
  "abi": [
    {
      "constant": true,
      "inputs": [],
      "name": "ceoAddress",
      "outputs": [
        {
          "name": "",
          "type": "address"
        }
      ],
      "payable": false,
      "stateMutability": "view",
      "type": "function"
    },
    {
      "constant": false,
      "inputs": [
        {
          "name": "_newCEO",
          "type": "address"
        }
      ],
      "name": "setCEO",
      "outputs": [],
      "payable": false,
      "stateMutability": "nonpayable",
      "type": "function"
    },
    {
      "constant": false,
      "inputs": [],
      "name": "unpause",
      "outputs": [],
      "payable": false,
      "stateMutability": "nonpayable",
      "type": "function"
    },
    {
      "constant": true,
      "inputs": [],
      "name": "paused",
      "outputs": [
        {
          "name": "",
          "type": "bool"
        }
      ],
      "payable": false,
      "stateMutability": "view",
      "type": "function"
    },
    {
      "constant": false,
      "inputs": [],
      "name": "pause",
      "outputs": [],
      "payable": false,
      "stateMutability": "nonpayable",
      "type": "function"
    },
    {
      "constant": true,
      "inputs": [
        {
          "name": "",
          "type": "address"
        }
      ],
      "name": "whitelist",
      "outputs": [
        {
          "name": "",
          "type": "bool"
        }
      ],
      "payable": false,
      "stateMutability": "view",
      "type": "function"
    },
    {
      "anonymous": false,
      "inputs": [
        {
          "indexed": false,
          "name": "addr",
          "type": "address"
        }
      ],
      "name": "WhitelistedAddressAdded",
      "type": "event"
    },
    {
      "anonymous": false,
      "inputs": [
        {
          "indexed": false,
          "name": "addr",
          "type": "address"
        }
      ],
      "name": "WhitelistedAddressRemoved",
      "type": "event"
    },
    {
      "constant": false,
      "inputs": [
        {
          "name": "addr",
          "type": "address"
        }
      ],
      "name": "addAddressToWhitelist",
      "outputs": [
        {
          "name": "success",
          "type": "bool"
        }
      ],
      "payable": false,
      "stateMutability": "nonpayable",
      "type": "function"
    },
    {
      "constant": false,
      "inputs": [
        {
          "name": "addrs",
          "type": "address[]"
        }
      ],
      "name": "addAddressesToWhitelist",
      "outputs": [
        {
          "name": "success",
          "type": "bool"
        }
      ],
      "payable": false,
      "stateMutability": "nonpayable",
      "type": "function"
    },
    {
      "constant": false,
      "inputs": [
        {
          "name": "addr",
          "type": "address"
        }
      ],
      "name": "removeAddressFromWhitelist",
      "outputs": [
        {
          "name": "success",
          "type": "bool"
        }
      ],
      "payable": false,
      "stateMutability": "nonpayable",
      "type": "function"
    },
    {
      "constant": false,
      "inputs": [
        {
          "name": "addrs",
          "type": "address[]"
        }
      ],
      "name": "removeAddressesFromWhitelist",
      "outputs": [
        {
          "name": "success",
          "type": "bool"
        }
      ],
      "payable": false,
      "stateMutability": "nonpayable",
      "type": "function"
    }
  ],
  "bytecode": "0x608060405234801561001057600080fd5b50610a6b806100206000396000f3006080604052600436106100a4576000357c0100000000000000000000000000000000000000000000000000000000900463ffffffff1680630a0f8168146100a957806324953eaa1461010057806327d7874c1461017e578063286dd3f5146101c15780633f4ba83a1461021c5780635c975abb146102335780637b9417c8146102625780638456cb59146102bd5780639b19251a146102d4578063e2ec6ec31461032f575b600080fd5b3480156100b557600080fd5b506100be6103ad565b604051808273ffffffffffffffffffffffffffffffffffffffff1673ffffffffffffffffffffffffffffffffffffffff16815260200191505060405180910390f35b34801561010c57600080fd5b50610164600480360381019080803590602001908201803590602001908080602002602001604051908101604052809392919081815260200183836020028082843782019150505050505091929192905050506103d2565b604051808215151515815260200191505060405180910390f35b34801561018a57600080fd5b506101bf600480360381019080803573ffffffffffffffffffffffffffffffffffffffff16906020019092919050505061047b565b005b3480156101cd57600080fd5b50610202600480360381019080803573ffffffffffffffffffffffffffffffffffffffff169060200190929190505050610555565b604051808215151515815260200191505060405180910390f35b34801561022857600080fd5b506102316106c9565b005b34801561023f57600080fd5b5061024861075b565b604051808215151515815260200191505060405180910390f35b34801561026e57600080fd5b506102a3600480360381019080803573ffffffffffffffffffffffffffffffffffffffff16906020019092919050505061076e565b604051808215151515815260200191505060405180910390f35b3480156102c957600080fd5b506102d26108e2565b005b3480156102e057600080fd5b50610315600480360381019080803573ffffffffffffffffffffffffffffffffffffffff169060200190929190505050610976565b604051808215151515815260200191505060405180910390f35b34801561033b57600080fd5b5061039360048036038101908080359060200190820180359060200190808060200260200160405190810160405280939291908181526020018383602002808284378201915050505050509192919290505050610996565b604051808215151515815260200191505060405180910390f35b6000809054906101000a900473ffffffffffffffffffffffffffffffffffffffff1681565b6000806000809054906101000a900473ffffffffffffffffffffffffffffffffffffffff1673ffffffffffffffffffffffffffffffffffffffff163373ffffffffffffffffffffffffffffffffffffffff1614151561043057600080fd5b600090505b82518110156104755761045e838281518110151561044f57fe5b90602001906020020151610555565b1561046857600191505b8080600101915050610435565b50919050565b6000809054906101000a900473ffffffffffffffffffffffffffffffffffffffff1673ffffffffffffffffffffffffffffffffffffffff163373ffffffffffffffffffffffffffffffffffffffff161415156104d657600080fd5b600073ffffffffffffffffffffffffffffffffffffffff168173ffffffffffffffffffffffffffffffffffffffff161415151561051257600080fd5b806000806101000a81548173ffffffffffffffffffffffffffffffffffffffff021916908373ffffffffffffffffffffffffffffffffffffffff16021790555050565b60008060009054906101000a900473ffffffffffffffffffffffffffffffffffffffff1673ffffffffffffffffffffffffffffffffffffffff163373ffffffffffffffffffffffffffffffffffffffff161415156105b257600080fd5b600160008373ffffffffffffffffffffffffffffffffffffffff1673ffffffffffffffffffffffffffffffffffffffff16815260200190815260200160002060009054906101000a900460ff16156106c4576000600160008473ffffffffffffffffffffffffffffffffffffffff1673ffffffffffffffffffffffffffffffffffffffff16815260200190815260200160002060006101000a81548160ff0219169083151502179055507ff1abf01a1043b7c244d128e8595cf0c1d10743b022b03a02dffd8ca3bf729f5a82604051808273ffffffffffffffffffffffffffffffffffffffff1673ffffffffffffffffffffffffffffffffffffffff16815260200191505060405180910390a1600190505b919050565b6000809054906101000a900473ffffffffffffffffffffffffffffffffffffffff1673ffffffffffffffffffffffffffffffffffffffff163373ffffffffffffffffffffffffffffffffffffffff1614151561072457600080fd5b600060149054906101000a900460ff16151561073f57600080fd5b60008060146101000a81548160ff021916908315150217905550565b600060149054906101000a900460ff1681565b60008060009054906101000a900473ffffffffffffffffffffffffffffffffffffffff1673ffffffffffffffffffffffffffffffffffffffff163373ffffffffffffffffffffffffffffffffffffffff161415156107cb57600080fd5b600160008373ffffffffffffffffffffffffffffffffffffffff1673ffffffffffffffffffffffffffffffffffffffff16815260200190815260200160002060009054906101000a900460ff1615156108dd5760018060008473ffffffffffffffffffffffffffffffffffffffff1673ffffffffffffffffffffffffffffffffffffffff16815260200190815260200160002060006101000a81548160ff0219169083151502179055507fd1bba68c128cc3f427e5831b3c6f99f480b6efa6b9e80c757768f6124158cc3f82604051808273ffffffffffffffffffffffffffffffffffffffff1673ffffffffffffffffffffffffffffffffffffffff16815260200191505060405180910390a1600190505b919050565b6000809054906101000a900473ffffffffffffffffffffffffffffffffffffffff1673ffffffffffffffffffffffffffffffffffffffff163373ffffffffffffffffffffffffffffffffffffffff1614151561093d57600080fd5b600060149054906101000a900460ff1615151561095957600080fd5b6001600060146101000a81548160ff021916908315150217905550565b60016020528060005260406000206000915054906101000a900460ff1681565b6000806000809054906101000a900473ffffffffffffffffffffffffffffffffffffffff1673ffffffffffffffffffffffffffffffffffffffff163373ffffffffffffffffffffffffffffffffffffffff161415156109f457600080fd5b600090505b8251811015610a3957610a228382815181101515610a1357fe5b9060200190602002015161076e565b15610a2c57600191505b80806001019150506109f9565b509190505600a165627a7a72305820cf800f5b2f67e547fcfb69644bbcd917861d053f3f284557cbfdb1f2d38012aa0029",
  "source": "pragma solidity^0.4.21;\r\n\r\nimport \"./AccessControl.sol\";\r\n\r\n/**\r\n * @title Whitelist\r\n * @dev The Whitelist contract has a whitelist of addresses, and provides basic authorization control functions.\r\n * @dev This simplifies the implementation of \"user permissions\".\r\n */\r\ncontract Whitelist is AccessControl {\r\n\r\n\r\n  mapping(address => bool) public whitelist;\r\n\r\n  event WhitelistedAddressAdded(address addr);\r\n  event WhitelistedAddressRemoved(address addr);\r\n\r\n  /**\r\n   * @dev Throws if called by any account that's not whitelisted.\r\n   */\r\n  modifier onlyWhitelisted() {\r\n    require(whitelist[msg.sender]);\r\n    _;\r\n  }\r\n\r\n  /**\r\n   * @dev add an address to the whitelist\r\n   * @param addr address\r\n   * @return true if the address was added to the whitelist, false if the address was already in the whitelist\r\n   */\r\n  function addAddressToWhitelist(address addr) onlyCEO public returns(bool success) {\r\n    if (!whitelist[addr]) {\r\n      whitelist[addr] = true;\r\n      emit WhitelistedAddressAdded(addr);\r\n      success = true;\r\n    }\r\n  }\r\n\r\n  /**\r\n   * @dev add addresses to the whitelist\r\n   * @param addrs addresses\r\n   * @return true if at least one address was added to the whitelist,\r\n   * false if all addresses were already in the whitelist\r\n   */\r\n  function addAddressesToWhitelist(address[] addrs) onlyCEO public returns(bool success) {\r\n    for (uint256 i = 0; i < addrs.length; i++) {\r\n      if (addAddressToWhitelist(addrs[i])) {\r\n        success = true;\r\n      }\r\n    }\r\n  }\r\n\r\n  /**\r\n   * @dev remove an address from the whitelist\r\n   * @param addr address\r\n   * @return true if the address was removed from the whitelist,\r\n   * false if the address wasn't in the whitelist in the first place\r\n   */\r\n  function removeAddressFromWhitelist(address addr) onlyCEO public returns(bool success) {\r\n    if (whitelist[addr]) {\r\n      whitelist[addr] = false;\r\n      emit WhitelistedAddressRemoved(addr);\r\n      success = true;\r\n    }\r\n  }\r\n\r\n  /**\r\n   * @dev remove addresses from the whitelist\r\n   * @param addrs addresses\r\n   * @return true if at least one address was removed from the whitelist,\r\n   * false if all addresses weren't in the whitelist in the first place\r\n   */\r\n  function removeAddressesFromWhitelist(address[] addrs) onlyCEO public returns(bool success) {\r\n    for (uint256 i = 0; i < addrs.length; i++) {\r\n      if (removeAddressFromWhitelist(addrs[i])) {\r\n        success = true;\r\n      }\r\n    }\r\n  }\r\n\r\n}\r\n",
  "sourcePath": "F:\\ChainBook\\smartcontracts\\contracts\\Whitelist.sol",
  "compiler": {
    "name": "solc",
    "version": "0.4.24+commit.e67f0147.Emscripten.clang"
  },
  "schemaVersion": "2.0.0",
  "updatedAt": "2018-06-09T15:21:23.495Z"
}